{
	"data": {
		"bytecode": {
			"linkReferences": {},
			"object": "60806040523480156200001157600080fd5b5060405162000a7538038062000a758339818101604052810190620000379190620001d3565b80600090805190602001906200004f929190620000a5565b506040518060400160405280600881526020017f5368656e7a68656e000000000000000000000000000000000000000000000000815250600190805190602001906200009d929190620000a5565b5050620003a8565b828054620000b390620002b9565b90600052602060002090601f016020900481019282620000d7576000855562000123565b82601f10620000f257805160ff191683800117855562000123565b8280016001018555821562000123579182015b828111156200012257825182559160200191906001019062000105565b5b50905062000132919062000136565b5090565b5b808211156200015157600081600090555060010162000137565b5090565b60006200016c62000166846200024d565b62000224565b9050828152602081018484840111156200018b576200018a62000388565b5b6200019884828562000283565b509392505050565b600082601f830112620001b857620001b762000383565b5b8151620001ca84826020860162000155565b91505092915050565b600060208284031215620001ec57620001eb62000392565b5b600082015167ffffffffffffffff8111156200020d576200020c6200038d565b5b6200021b84828501620001a0565b91505092915050565b60006200023062000243565b90506200023e8282620002ef565b919050565b6000604051905090565b600067ffffffffffffffff8211156200026b576200026a62000354565b5b620002768262000397565b9050602081019050919050565b60005b83811015620002a357808201518184015260208101905062000286565b83811115620002b3576000848401525b50505050565b60006002820490506001821680620002d257607f821691505b60208210811415620002e957620002e862000325565b5b50919050565b620002fa8262000397565b810181811067ffffffffffffffff821117156200031c576200031b62000354565b5b80604052505050565b7f4e487b7100000000000000000000000000000000000000000000000000000000600052602260045260246000fd5b7f4e487b7100000000000000000000000000000000000000000000000000000000600052604160045260246000fd5b600080fd5b600080fd5b600080fd5b600080fd5b6000601f19601f8301169050919050565b6106bd80620003b86000396000f3fe608060405234801561001057600080fd5b506004361061004c5760003560e01c80630379915d1461005157806306fdde031461006f578063cfae32171461008d578063f07513eb146100ab575b600080fd5b6100596100c7565b6040516100669190610482565b60405180910390f35b610077610159565b6040516100849190610482565b60405180910390f35b6100956101e7565b6040516100a29190610482565b60405180910390f35b6100c560048036038101906100c0919061033c565b61020f565b005b6060600180546100d690610578565b80601f016020809104026020016040519081016040528092919081815260200182805461010290610578565b801561014f5780601f106101245761010080835404028352916020019161014f565b820191906000526020600020905b81548152906001019060200180831161013257829003601f168201915b5050505050905090565b6000805461016690610578565b80601f016020809104026020016040519081016040528092919081815260200182805461019290610578565b80156101df5780601f106101b4576101008083540402835291602001916101df565b820191906000526020600020905b8154815290600101906020018083116101c257829003601f168201915b505050505081565b606060006040516020016101fb9190610460565b604051602081830303815290604052905090565b8060019080519060200190610225929190610229565b5050565b82805461023590610578565b90600052602060002090601f016020900481019282610257576000855561029e565b82601f1061027057805160ff191683800117855561029e565b8280016001018555821561029e579182015b8281111561029d578251825591602001919060010190610282565b5b5090506102ab91906102af565b5090565b5b808211156102c85760008160009055506001016102b0565b5090565b60006102df6102da846104c9565b6104a4565b9050828152602081018484840111156102fb576102fa61063e565b5b610306848285610536565b509392505050565b600082601f83011261032357610322610639565b5b81356103338482602086016102cc565b91505092915050565b60006020828403121561035257610351610648565b5b600082013567ffffffffffffffff8111156103705761036f610643565b5b61037c8482850161030e565b91505092915050565b60006103908261050f565b61039a818561051a565b93506103aa818560208601610545565b6103b38161064d565b840191505092915050565b600081546103cb81610578565b6103d5818661052b565b945060018216600081146103f0576001811461040157610434565b60ff19831686528186019350610434565b61040a856104fa565b60005b8381101561042c5781548189015260018201915060208101905061040d565b838801955050505b50505092915050565b600061044a60068361052b565b91506104558261065e565b600682019050919050565b600061046b8261043d565b915061047782846103be565b915081905092915050565b6000602082019050818103600083015261049c8184610385565b905092915050565b60006104ae6104bf565b90506104ba82826105aa565b919050565b6000604051905090565b600067ffffffffffffffff8211156104e4576104e361060a565b5b6104ed8261064d565b9050602081019050919050565b60008190508160005260206000209050919050565b600081519050919050565b600082825260208201905092915050565b600081905092915050565b82818337600083830152505050565b60005b83811015610563578082015181840152602081019050610548565b83811115610572576000848401525b50505050565b6000600282049050600182168061059057607f821691505b602082108114156105a4576105a36105db565b5b50919050565b6105b38261064d565b810181811067ffffffffffffffff821117156105d2576105d161060a565b5b80604052505050565b7f4e487b7100000000000000000000000000000000000000000000000000000000600052602260045260246000fd5b7f4e487b7100000000000000000000000000000000000000000000000000000000600052604160045260246000fd5b600080fd5b600080fd5b600080fd5b600080fd5b6000601f19601f8301169050919050565b7f48656c6c6f20000000000000000000000000000000000000000000000000000060008201525056fea2646970667358221220b3b5f6bf0353d49b8ef5b93d7e57bbdd581ab327c2585d323b2391c32093660264736f6c63430008070033",
			"opcodes": "PUSH1 0x80 PUSH1 0x40 MSTORE CALLVALUE DUP1 ISZERO PUSH3 0x11 JUMPI PUSH1 0x0 DUP1 REVERT JUMPDEST POP PUSH1 0x40 MLOAD PUSH3 0xA75 CODESIZE SUB DUP1 PUSH3 0xA75 DUP4 CODECOPY DUP2 DUP2 ADD PUSH1 0x40 MSTORE DUP2 ADD SWAP1 PUSH3 0x37 SWAP2 SWAP1 PUSH3 0x1D3 JUMP JUMPDEST DUP1 PUSH1 0x0 SWAP1 DUP1 MLOAD SWAP1 PUSH1 0x20 ADD SWAP1 PUSH3 0x4F SWAP3 SWAP2 SWAP1 PUSH3 0xA5 JUMP JUMPDEST POP PUSH1 0x40 MLOAD DUP1 PUSH1 0x40 ADD PUSH1 0x40 MSTORE DUP1 PUSH1 0x8 DUP2 MSTORE PUSH1 0x20 ADD PUSH32 0x5368656E7A68656E000000000000000000000000000000000000000000000000 DUP2 MSTORE POP PUSH1 0x1 SWAP1 DUP1 MLOAD SWAP1 PUSH1 0x20 ADD SWAP1 PUSH3 0x9D SWAP3 SWAP2 SWAP1 PUSH3 0xA5 JUMP JUMPDEST POP POP PUSH3 0x3A8 JUMP JUMPDEST DUP3 DUP1 SLOAD PUSH3 0xB3 SWAP1 PUSH3 0x2B9 JUMP JUMPDEST SWAP1 PUSH1 0x0 MSTORE PUSH1 0x20 PUSH1 0x0 KECCAK256 SWAP1 PUSH1 0x1F ADD PUSH1 0x20 SWAP1 DIV DUP2 ADD SWAP3 DUP3 PUSH3 0xD7 JUMPI PUSH1 0x0 DUP6 SSTORE PUSH3 0x123 JUMP JUMPDEST DUP3 PUSH1 0x1F LT PUSH3 0xF2 JUMPI DUP1 MLOAD PUSH1 0xFF NOT AND DUP4 DUP1 ADD OR DUP6 SSTORE PUSH3 0x123 JUMP JUMPDEST DUP3 DUP1 ADD PUSH1 0x1 ADD DUP6 SSTORE DUP3 ISZERO PUSH3 0x123 JUMPI SWAP2 DUP3 ADD JUMPDEST DUP3 DUP2 GT ISZERO PUSH3 0x122 JUMPI DUP3 MLOAD DUP3 SSTORE SWAP2 PUSH1 0x20 ADD SWAP2 SWAP1 PUSH1 0x1 ADD SWAP1 PUSH3 0x105 JUMP JUMPDEST JUMPDEST POP SWAP1 POP PUSH3 0x132 SWAP2 SWAP1 PUSH3 0x136 JUMP JUMPDEST POP SWAP1 JUMP JUMPDEST JUMPDEST DUP1 DUP3 GT ISZERO PUSH3 0x151 JUMPI PUSH1 0x0 DUP2 PUSH1 0x0 SWAP1 SSTORE POP PUSH1 0x1 ADD PUSH3 0x137 JUMP JUMPDEST POP SWAP1 JUMP JUMPDEST PUSH1 0x0 PUSH3 0x16C PUSH3 0x166 DUP5 PUSH3 0x24D JUMP JUMPDEST PUSH3 0x224 JUMP JUMPDEST SWAP1 POP DUP3 DUP2 MSTORE PUSH1 0x20 DUP2 ADD DUP5 DUP5 DUP5 ADD GT ISZERO PUSH3 0x18B JUMPI PUSH3 0x18A PUSH3 0x388 JUMP JUMPDEST JUMPDEST PUSH3 0x198 DUP5 DUP3 DUP6 PUSH3 0x283 JUMP JUMPDEST POP SWAP4 SWAP3 POP POP POP JUMP JUMPDEST PUSH1 0x0 DUP3 PUSH1 0x1F DUP4 ADD SLT PUSH3 0x1B8 JUMPI PUSH3 0x1B7 PUSH3 0x383 JUMP JUMPDEST JUMPDEST DUP2 MLOAD PUSH3 0x1CA DUP5 DUP3 PUSH1 0x20 DUP7 ADD PUSH3 0x155 JUMP JUMPDEST SWAP2 POP POP SWAP3 SWAP2 POP POP JUMP JUMPDEST PUSH1 0x0 PUSH1 0x20 DUP3 DUP5 SUB SLT ISZERO PUSH3 0x1EC JUMPI PUSH3 0x1EB PUSH3 0x392 JUMP JUMPDEST JUMPDEST PUSH1 0x0 DUP3 ADD MLOAD PUSH8 0xFFFFFFFFFFFFFFFF DUP2 GT ISZERO PUSH3 0x20D JUMPI PUSH3 0x20C PUSH3 0x38D JUMP JUMPDEST JUMPDEST PUSH3 0x21B DUP5 DUP3 DUP6 ADD PUSH3 0x1A0 JUMP JUMPDEST SWAP2 POP POP SWAP3 SWAP2 POP POP JUMP JUMPDEST PUSH1 0x0 PUSH3 0x230 PUSH3 0x243 JUMP JUMPDEST SWAP1 POP PUSH3 0x23E DUP3 DUP3 PUSH3 0x2EF JUMP JUMPDEST SWAP2 SWAP1 POP JUMP JUMPDEST PUSH1 0x0 PUSH1 0x40 MLOAD SWAP1 POP SWAP1 JUMP JUMPDEST PUSH1 0x0 PUSH8 0xFFFFFFFFFFFFFFFF DUP3 GT ISZERO PUSH3 0x26B JUMPI PUSH3 0x26A PUSH3 0x354 JUMP JUMPDEST JUMPDEST PUSH3 0x276 DUP3 PUSH3 0x397 JUMP JUMPDEST SWAP1 POP PUSH1 0x20 DUP2 ADD SWAP1 POP SWAP2 SWAP1 POP JUMP JUMPDEST PUSH1 0x0 JUMPDEST DUP4 DUP2 LT ISZERO PUSH3 0x2A3 JUMPI DUP1 DUP3 ADD MLOAD DUP2 DUP5 ADD MSTORE PUSH1 0x20 DUP2 ADD SWAP1 POP PUSH3 0x286 JUMP JUMPDEST DUP4 DUP2 GT ISZERO PUSH3 0x2B3 JUMPI PUSH1 0x0 DUP5 DUP5 ADD MSTORE JUMPDEST POP POP POP POP JUMP JUMPDEST PUSH1 0x0 PUSH1 0x2 DUP3 DIV SWAP1 POP PUSH1 0x1 DUP3 AND DUP1 PUSH3 0x2D2 JUMPI PUSH1 0x7F DUP3 AND SWAP2 POP JUMPDEST PUSH1 0x20 DUP3 LT DUP2 EQ ISZERO PUSH3 0x2E9 JUMPI PUSH3 0x2E8 PUSH3 0x325 JUMP JUMPDEST JUMPDEST POP SWAP2 SWAP1 POP JUMP JUMPDEST PUSH3 0x2FA DUP3 PUSH3 0x397 JUMP JUMPDEST DUP2 ADD DUP2 DUP2 LT PUSH8 0xFFFFFFFFFFFFFFFF DUP3 GT OR ISZERO PUSH3 0x31C JUMPI PUSH3 0x31B PUSH3 0x354 JUMP JUMPDEST JUMPDEST DUP1 PUSH1 0x40 MSTORE POP POP POP JUMP JUMPDEST PUSH32 0x4E487B7100000000000000000000000000000000000000000000000000000000 PUSH1 0x0 MSTORE PUSH1 0x22 PUSH1 0x4 MSTORE PUSH1 0x24 PUSH1 0x0 REVERT JUMPDEST PUSH32 0x4E487B7100000000000000000000000000000000000000000000000000000000 PUSH1 0x0 MSTORE PUSH1 0x41 PUSH1 0x4 MSTORE PUSH1 0x24 PUSH1 0x0 REVERT JUMPDEST PUSH1 0x0 DUP1 REVERT JUMPDEST PUSH1 0x0 DUP1 REVERT JUMPDEST PUSH1 0x0 DUP1 REVERT JUMPDEST PUSH1 0x0 DUP1 REVERT JUMPDEST PUSH1 0x0 PUSH1 0x1F NOT PUSH1 0x1F DUP4 ADD AND SWAP1 POP SWAP2 SWAP1 POP JUMP JUMPDEST PUSH2 0x6BD DUP1 PUSH3 0x3B8 PUSH1 0x0 CODECOPY PUSH1 0x0 RETURN INVALID PUSH1 0x80 PUSH1 0x40 MSTORE CALLVALUE DUP1 ISZERO PUSH2 0x10 JUMPI PUSH1 0x0 DUP1 REVERT JUMPDEST POP PUSH1 0x4 CALLDATASIZE LT PUSH2 0x4C JUMPI PUSH1 0x0 CALLDATALOAD PUSH1 0xE0 SHR DUP1 PUSH4 0x379915D EQ PUSH2 0x51 JUMPI DUP1 PUSH4 0x6FDDE03 EQ PUSH2 0x6F JUMPI DUP1 PUSH4 0xCFAE3217 EQ PUSH2 0x8D JUMPI DUP1 PUSH4 0xF07513EB EQ PUSH2 0xAB JUMPI JUMPDEST PUSH1 0x0 DUP1 REVERT JUMPDEST PUSH2 0x59 PUSH2 0xC7 JUMP JUMPDEST PUSH1 0x40 MLOAD PUSH2 0x66 SWAP2 SWAP1 PUSH2 0x482 JUMP JUMPDEST PUSH1 0x40 MLOAD DUP1 SWAP2 SUB SWAP1 RETURN JUMPDEST PUSH2 0x77 PUSH2 0x159 JUMP JUMPDEST PUSH1 0x40 MLOAD PUSH2 0x84 SWAP2 SWAP1 PUSH2 0x482 JUMP JUMPDEST PUSH1 0x40 MLOAD DUP1 SWAP2 SUB SWAP1 RETURN JUMPDEST PUSH2 0x95 PUSH2 0x1E7 JUMP JUMPDEST PUSH1 0x40 MLOAD PUSH2 0xA2 SWAP2 SWAP1 PUSH2 0x482 JUMP JUMPDEST PUSH1 0x40 MLOAD DUP1 SWAP2 SUB SWAP1 RETURN JUMPDEST PUSH2 0xC5 PUSH1 0x4 DUP1 CALLDATASIZE SUB DUP2 ADD SWAP1 PUSH2 0xC0 SWAP2 SWAP1 PUSH2 0x33C JUMP JUMPDEST PUSH2 0x20F JUMP JUMPDEST STOP JUMPDEST PUSH1 0x60 PUSH1 0x1 DUP1 SLOAD PUSH2 0xD6 SWAP1 PUSH2 0x578 JUMP JUMPDEST DUP1 PUSH1 0x1F ADD PUSH1 0x20 DUP1 SWAP2 DIV MUL PUSH1 0x20 ADD PUSH1 0x40 MLOAD SWAP1 DUP2 ADD PUSH1 0x40 MSTORE DUP1 SWAP3 SWAP2 SWAP1 DUP2 DUP2 MSTORE PUSH1 0x20 ADD DUP3 DUP1 SLOAD PUSH2 0x102 SWAP1 PUSH2 0x578 JUMP JUMPDEST DUP1 ISZERO PUSH2 0x14F JUMPI DUP1 PUSH1 0x1F LT PUSH2 0x124 JUMPI PUSH2 0x100 DUP1 DUP4 SLOAD DIV MUL DUP4 MSTORE SWAP2 PUSH1 0x20 ADD SWAP2 PUSH2 0x14F JUMP JUMPDEST DUP3 ADD SWAP2 SWAP1 PUSH1 0x0 MSTORE PUSH1 0x20 PUSH1 0x0 KECCAK256 SWAP1 JUMPDEST DUP2 SLOAD DUP2 MSTORE SWAP1 PUSH1 0x1 ADD SWAP1 PUSH1 0x20 ADD DUP1 DUP4 GT PUSH2 0x132 JUMPI DUP3 SWAP1 SUB PUSH1 0x1F AND DUP3 ADD SWAP2 JUMPDEST POP POP POP POP POP SWAP1 POP SWAP1 JUMP JUMPDEST PUSH1 0x0 DUP1 SLOAD PUSH2 0x166 SWAP1 PUSH2 0x578 JUMP JUMPDEST DUP1 PUSH1 0x1F ADD PUSH1 0x20 DUP1 SWAP2 DIV MUL PUSH1 0x20 ADD PUSH1 0x40 MLOAD SWAP1 DUP2 ADD PUSH1 0x40 MSTORE DUP1 SWAP3 SWAP2 SWAP1 DUP2 DUP2 MSTORE PUSH1 0x20 ADD DUP3 DUP1 SLOAD PUSH2 0x192 SWAP1 PUSH2 0x578 JUMP JUMPDEST DUP1 ISZERO PUSH2 0x1DF JUMPI DUP1 PUSH1 0x1F LT PUSH2 0x1B4 JUMPI PUSH2 0x100 DUP1 DUP4 SLOAD DIV MUL DUP4 MSTORE SWAP2 PUSH1 0x20 ADD SWAP2 PUSH2 0x1DF JUMP JUMPDEST DUP3 ADD SWAP2 SWAP1 PUSH1 0x0 MSTORE PUSH1 0x20 PUSH1 0x0 KECCAK256 SWAP1 JUMPDEST DUP2 SLOAD DUP2 MSTORE SWAP1 PUSH1 0x1 ADD SWAP1 PUSH1 0x20 ADD DUP1 DUP4 GT PUSH2 0x1C2 JUMPI DUP3 SWAP1 SUB PUSH1 0x1F AND DUP3 ADD SWAP2 JUMPDEST POP POP POP POP POP DUP2 JUMP JUMPDEST PUSH1 0x60 PUSH1 0x0 PUSH1 0x40 MLOAD PUSH1 0x20 ADD PUSH2 0x1FB SWAP2 SWAP1 PUSH2 0x460 JUMP JUMPDEST PUSH1 0x40 MLOAD PUSH1 0x20 DUP2 DUP4 SUB SUB DUP2 MSTORE SWAP1 PUSH1 0x40 MSTORE SWAP1 POP SWAP1 JUMP JUMPDEST DUP1 PUSH1 0x1 SWAP1 DUP1 MLOAD SWAP1 PUSH1 0x20 ADD SWAP1 PUSH2 0x225 SWAP3 SWAP2 SWAP1 PUSH2 0x229 JUMP JUMPDEST POP POP JUMP JUMPDEST DUP3 DUP1 SLOAD PUSH2 0x235 SWAP1 PUSH2 0x578 JUMP JUMPDEST SWAP1 PUSH1 0x0 MSTORE PUSH1 0x20 PUSH1 0x0 KECCAK256 SWAP1 PUSH1 0x1F ADD PUSH1 0x20 SWAP1 DIV DUP2 ADD SWAP3 DUP3 PUSH2 0x257 JUMPI PUSH1 0x0 DUP6 SSTORE PUSH2 0x29E JUMP JUMPDEST DUP3 PUSH1 0x1F LT PUSH2 0x270 JUMPI DUP1 MLOAD PUSH1 0xFF NOT AND DUP4 DUP1 ADD OR DUP6 SSTORE PUSH2 0x29E JUMP JUMPDEST DUP3 DUP1 ADD PUSH1 0x1 ADD DUP6 SSTORE DUP3 ISZERO PUSH2 0x29E JUMPI SWAP2 DUP3 ADD JUMPDEST DUP3 DUP2 GT ISZERO PUSH2 0x29D JUMPI DUP3 MLOAD DUP3 SSTORE SWAP2 PUSH1 0x20 ADD SWAP2 SWAP1 PUSH1 0x1 ADD SWAP1 PUSH2 0x282 JUMP JUMPDEST JUMPDEST POP SWAP1 POP PUSH2 0x2AB SWAP2 SWAP1 PUSH2 0x2AF JUMP JUMPDEST POP SWAP1 JUMP JUMPDEST JUMPDEST DUP1 DUP3 GT ISZERO PUSH2 0x2C8 JUMPI PUSH1 0x0 DUP2 PUSH1 0x0 SWAP1 SSTORE POP PUSH1 0x1 ADD PUSH2 0x2B0 JUMP JUMPDEST POP SWAP1 JUMP JUMPDEST PUSH1 0x0 PUSH2 0x2DF PUSH2 0x2DA DUP5 PUSH2 0x4C9 JUMP JUMPDEST PUSH2 0x4A4 JUMP JUMPDEST SWAP1 POP DUP3 DUP2 MSTORE PUSH1 0x20 DUP2 ADD DUP5 DUP5 DUP5 ADD GT ISZERO PUSH2 0x2FB JUMPI PUSH2 0x2FA PUSH2 0x63E JUMP JUMPDEST JUMPDEST PUSH2 0x306 DUP5 DUP3 DUP6 PUSH2 0x536 JUMP JUMPDEST POP SWAP4 SWAP3 POP POP POP JUMP JUMPDEST PUSH1 0x0 DUP3 PUSH1 0x1F DUP4 ADD SLT PUSH2 0x323 JUMPI PUSH2 0x322 PUSH2 0x639 JUMP JUMPDEST JUMPDEST DUP2 CALLDATALOAD PUSH2 0x333 DUP5 DUP3 PUSH1 0x20 DUP7 ADD PUSH2 0x2CC JUMP JUMPDEST SWAP2 POP POP SWAP3 SWAP2 POP POP JUMP JUMPDEST PUSH1 0x0 PUSH1 0x20 DUP3 DUP5 SUB SLT ISZERO PUSH2 0x352 JUMPI PUSH2 0x351 PUSH2 0x648 JUMP JUMPDEST JUMPDEST PUSH1 0x0 DUP3 ADD CALLDATALOAD PUSH8 0xFFFFFFFFFFFFFFFF DUP2 GT ISZERO PUSH2 0x370 JUMPI PUSH2 0x36F PUSH2 0x643 JUMP JUMPDEST JUMPDEST PUSH2 0x37C DUP5 DUP3 DUP6 ADD PUSH2 0x30E JUMP JUMPDEST SWAP2 POP POP SWAP3 SWAP2 POP POP JUMP JUMPDEST PUSH1 0x0 PUSH2 0x390 DUP3 PUSH2 0x50F JUMP JUMPDEST PUSH2 0x39A DUP2 DUP6 PUSH2 0x51A JUMP JUMPDEST SWAP4 POP PUSH2 0x3AA DUP2 DUP6 PUSH1 0x20 DUP7 ADD PUSH2 0x545 JUMP JUMPDEST PUSH2 0x3B3 DUP2 PUSH2 0x64D JUMP JUMPDEST DUP5 ADD SWAP2 POP POP SWAP3 SWAP2 POP POP JUMP JUMPDEST PUSH1 0x0 DUP2 SLOAD PUSH2 0x3CB DUP2 PUSH2 0x578 JUMP JUMPDEST PUSH2 0x3D5 DUP2 DUP7 PUSH2 0x52B JUMP JUMPDEST SWAP5 POP PUSH1 0x1 DUP3 AND PUSH1 0x0 DUP2 EQ PUSH2 0x3F0 JUMPI PUSH1 0x1 DUP2 EQ PUSH2 0x401 JUMPI PUSH2 0x434 JUMP JUMPDEST PUSH1 0xFF NOT DUP4 AND DUP7 MSTORE DUP2 DUP7 ADD SWAP4 POP PUSH2 0x434 JUMP JUMPDEST PUSH2 0x40A DUP6 PUSH2 0x4FA JUMP JUMPDEST PUSH1 0x0 JUMPDEST DUP4 DUP2 LT ISZERO PUSH2 0x42C JUMPI DUP2 SLOAD DUP2 DUP10 ADD MSTORE PUSH1 0x1 DUP3 ADD SWAP2 POP PUSH1 0x20 DUP2 ADD SWAP1 POP PUSH2 0x40D JUMP JUMPDEST DUP4 DUP9 ADD SWAP6 POP POP POP JUMPDEST POP POP POP SWAP3 SWAP2 POP POP JUMP JUMPDEST PUSH1 0x0 PUSH2 0x44A PUSH1 0x6 DUP4 PUSH2 0x52B JUMP JUMPDEST SWAP2 POP PUSH2 0x455 DUP3 PUSH2 0x65E JUMP JUMPDEST PUSH1 0x6 DUP3 ADD SWAP1 POP SWAP2 SWAP1 POP JUMP JUMPDEST PUSH1 0x0 PUSH2 0x46B DUP3 PUSH2 0x43D JUMP JUMPDEST SWAP2 POP PUSH2 0x477 DUP3 DUP5 PUSH2 0x3BE JUMP JUMPDEST SWAP2 POP DUP2 SWAP1 POP SWAP3 SWAP2 POP POP JUMP JUMPDEST PUSH1 0x0 PUSH1 0x20 DUP3 ADD SWAP1 POP DUP2 DUP2 SUB PUSH1 0x0 DUP4 ADD MSTORE PUSH2 0x49C DUP2 DUP5 PUSH2 0x385 JUMP JUMPDEST SWAP1 POP SWAP3 SWAP2 POP POP JUMP JUMPDEST PUSH1 0x0 PUSH2 0x4AE PUSH2 0x4BF JUMP JUMPDEST SWAP1 POP PUSH2 0x4BA DUP3 DUP3 PUSH2 0x5AA JUMP JUMPDEST SWAP2 SWAP1 POP JUMP JUMPDEST PUSH1 0x0 PUSH1 0x40 MLOAD SWAP1 POP SWAP1 JUMP JUMPDEST PUSH1 0x0 PUSH8 0xFFFFFFFFFFFFFFFF DUP3 GT ISZERO PUSH2 0x4E4 JUMPI PUSH2 0x4E3 PUSH2 0x60A JUMP JUMPDEST JUMPDEST PUSH2 0x4ED DUP3 PUSH2 0x64D JUMP JUMPDEST SWAP1 POP PUSH1 0x20 DUP2 ADD SWAP1 POP SWAP2 SWAP1 POP JUMP JUMPDEST PUSH1 0x0 DUP2 SWAP1 POP DUP2 PUSH1 0x0 MSTORE PUSH1 0x20 PUSH1 0x0 KECCAK256 SWAP1 POP SWAP2 SWAP1 POP JUMP JUMPDEST PUSH1 0x0 DUP2 MLOAD SWAP1 POP SWAP2 SWAP1 POP JUMP JUMPDEST PUSH1 0x0 DUP3 DUP3 MSTORE PUSH1 0x20 DUP3 ADD SWAP1 POP SWAP3 SWAP2 POP POP JUMP JUMPDEST PUSH1 0x0 DUP2 SWAP1 POP SWAP3 SWAP2 POP POP JUMP JUMPDEST DUP3 DUP2 DUP4 CALLDATACOPY PUSH1 0x0 DUP4 DUP4 ADD MSTORE POP POP POP JUMP JUMPDEST PUSH1 0x0 JUMPDEST DUP4 DUP2 LT ISZERO PUSH2 0x563 JUMPI DUP1 DUP3 ADD MLOAD DUP2 DUP5 ADD MSTORE PUSH1 0x20 DUP2 ADD SWAP1 POP PUSH2 0x548 JUMP JUMPDEST DUP4 DUP2 GT ISZERO PUSH2 0x572 JUMPI PUSH1 0x0 DUP5 DUP5 ADD MSTORE JUMPDEST POP POP POP POP JUMP JUMPDEST PUSH1 0x0 PUSH1 0x2 DUP3 DIV SWAP1 POP PUSH1 0x1 DUP3 AND DUP1 PUSH2 0x590 JUMPI PUSH1 0x7F DUP3 AND SWAP2 POP JUMPDEST PUSH1 0x20 DUP3 LT DUP2 EQ ISZERO PUSH2 0x5A4 JUMPI PUSH2 0x5A3 PUSH2 0x5DB JUMP JUMPDEST JUMPDEST POP SWAP2 SWAP1 POP JUMP JUMPDEST PUSH2 0x5B3 DUP3 PUSH2 0x64D JUMP JUMPDEST DUP2 ADD DUP2 DUP2 LT PUSH8 0xFFFFFFFFFFFFFFFF DUP3 GT OR ISZERO PUSH2 0x5D2 JUMPI PUSH2 0x5D1 PUSH2 0x60A JUMP JUMPDEST JUMPDEST DUP1 PUSH1 0x40 MSTORE POP POP POP JUMP JUMPDEST PUSH32 0x4E487B7100000000000000000000000000000000000000000000000000000000 PUSH1 0x0 MSTORE PUSH1 0x22 PUSH1 0x4 MSTORE PUSH1 0x24 PUSH1 0x0 REVERT JUMPDEST PUSH32 0x4E487B7100000000000000000000000000000000000000000000000000000000 PUSH1 0x0 MSTORE PUSH1 0x41 PUSH1 0x4 MSTORE PUSH1 0x24 PUSH1 0x0 REVERT JUMPDEST PUSH1 0x0 DUP1 REVERT JUMPDEST PUSH1 0x0 DUP1 REVERT JUMPDEST PUSH1 0x0 DUP1 REVERT JUMPDEST PUSH1 0x0 DUP1 REVERT JUMPDEST PUSH1 0x0 PUSH1 0x1F NOT PUSH1 0x1F DUP4 ADD AND SWAP1 POP SWAP2 SWAP1 POP JUMP JUMPDEST PUSH32 0x48656C6C6F200000000000000000000000000000000000000000000000000000 PUSH1 0x0 DUP3 ADD MSTORE POP JUMP INVALID LOG2 PUSH5 0x6970667358 0x22 SLT KECCAK256 0xB3 0xB5 0xF6 0xBF SUB MSTORE8 0xD4 SWAP12 DUP15 CREATE2 0xB9 RETURNDATASIZE PUSH31 0x57BBDD581AB327C2585D323B2391C32093660264736F6C6343000807003300 "
		},
		"gasEstimates": {
			"creation": {
				"codeDepositCost": "345000",
				"executionCost": "infinite",
				"totalCost": "infinite"
			},
			"external": {
				"getCity()": "infinite",
				"greet()": "infinite",
				"name()": "infinite",
				"setCity(string)": "infinite"
			}
		},
		"methodIdentifiers": {
			"getCity()": "0379915d",
			"greet()": "cfae3217",
			"name()": "06fdde03",
			"setCity(string)": "f07513eb"
		}
	},
	"abi": [
		{
			"inputs": [
				{
					"internalType": "string",
					"name": "_name",
					"type": "string"
				}
			],
			"stateMutability": "nonpayable",
			"type": "constructor"
		},
		{
			"inputs": [],
			"name": "getCity",
			"outputs": [
				{
					"internalType": "string",
					"name": "",
					"type": "string"
				}
			],
			"stateMutability": "nonpayable",
			"type": "function"
		},
		{
			"inputs": [],
			"name": "greet",
			"outputs": [
				{
					"internalType": "string",
					"name": "greeting",
					"type": "string"
				}
			],
			"stateMutability": "view",
			"type": "function"
		},
		{
			"inputs": [],
			"name": "name",
			"outputs": [
				{
					"internalType": "string",
					"name": "",
					"type": "string"
				}
			],
			"stateMutability": "view",
			"type": "function"
		},
		{
			"inputs": [
				{
					"internalType": "string",
					"name": "_city",
					"type": "string"
				}
			],
			"name": "setCity",
			"outputs": [],
			"stateMutability": "nonpayable",
			"type": "function"
		}
	]
}