{
	"learning/inheritanceTwo.sol": {
		"two": {
			"abi": [
				{
					"inputs": [],
					"name": "greet",
					"outputs": [
						{
							"internalType": "string",
							"name": "greeting",
							"type": "string"
						}
					],
					"stateMutability": "view",
					"type": "function"
				},
				{
					"inputs": [],
					"name": "name",
					"outputs": [
						{
							"internalType": "string",
							"name": "",
							"type": "string"
						}
					],
					"stateMutability": "view",
					"type": "function"
				}
			],
			"devdoc": {
				"kind": "dev",
				"methods": {},
				"version": 1
			},
			"evm": {
				"assembly": "    /* \"learning/inheritanceTwo.sol\":92:129  contract two is one(\"Devendra\"){\r... */\n  mstore(0x40, 0x80)\n  callvalue\n  dup1\n  iszero\n  tag_1\n  jumpi\n  0x00\n  dup1\n  revert\ntag_1:\n  pop\n    /* \"learning/inheritance.sol\":107:168  constructor(string memory _name){\r... */\n  mload(0x40)\n  dup1\n  0x40\n  add\n  0x40\n  mstore\n  dup1\n  0x08\n  dup2\n  mstore\n  0x20\n  add\n  0x446576656e647261000000000000000000000000000000000000000000000000\n  dup2\n  mstore\n  pop\n    /* \"learning/inheritance.sol\":155:160  _name */\n  dup1\n    /* \"learning/inheritance.sol\":150:154  name */\n  0x00\n    /* \"learning/inheritance.sol\":150:160  name=_name */\n  swap1\n  dup1\n  mload\n  swap1\n  0x20\n  add\n  swap1\n  tag_4\n  swap3\n  swap2\n  swap1\n  tag_5\n  jump\t// in\ntag_4:\n  pop\n    /* \"learning/inheritance.sol\":107:168  constructor(string memory _name){\r... */\n  pop\n    /* \"learning/inheritanceTwo.sol\":92:129  contract two is one(\"Devendra\"){\r... */\n  jump(tag_6)\ntag_5:\n  dup3\n  dup1\n  sload\n  tag_7\n  swap1\n  tag_8\n  jump\t// in\ntag_7:\n  swap1\n  0x00\n  mstore\n  keccak256(0x00, 0x20)\n  swap1\n  0x1f\n  add\n  0x20\n  swap1\n  div\n  dup2\n  add\n  swap3\n  dup3\n  tag_10\n  jumpi\n  0x00\n  dup6\n  sstore\n  jump(tag_9)\ntag_10:\n  dup3\n  0x1f\n  lt\n  tag_11\n  jumpi\n  dup1\n  mload\n  not(0xff)\n  and\n  dup4\n  dup1\n  add\n  or\n  dup6\n  sstore\n  jump(tag_9)\ntag_11:\n  dup3\n  dup1\n  add\n  0x01\n  add\n  dup6\n  sstore\n  dup3\n  iszero\n  tag_9\n  jumpi\n  swap2\n  dup3\n  add\ntag_12:\n  dup3\n  dup2\n  gt\n  iszero\n  tag_13\n  jumpi\n  dup3\n  mload\n  dup3\n  sstore\n  swap2\n  0x20\n  add\n  swap2\n  swap1\n  0x01\n  add\n  swap1\n  jump(tag_12)\ntag_13:\ntag_9:\n  pop\n  swap1\n  pop\n  tag_14\n  swap2\n  swap1\n  tag_15\n  jump\t// in\ntag_14:\n  pop\n  swap1\n  jump\t// out\ntag_15:\ntag_16:\n  dup1\n  dup3\n  gt\n  iszero\n  tag_17\n  jumpi\n  0x00\n  dup2\n  0x00\n  swap1\n  sstore\n  pop\n  0x01\n  add\n  jump(tag_16)\ntag_17:\n  pop\n  swap1\n  jump\t// out\n    /* \"#utility.yul\":7:327   */\ntag_8:\n    /* \"#utility.yul\":51:57   */\n  0x00\n    /* \"#utility.yul\":88:89   */\n  0x02\n    /* \"#utility.yul\":82:86   */\n  dup3\n    /* \"#utility.yul\":78:90   */\n  div\n    /* \"#utility.yul\":68:90   */\n  swap1\n  pop\n    /* \"#utility.yul\":135:136   */\n  0x01\n    /* \"#utility.yul\":129:133   */\n  dup3\n    /* \"#utility.yul\":125:137   */\n  and\n    /* \"#utility.yul\":156:174   */\n  dup1\n    /* \"#utility.yul\":146:227   */\n  tag_20\n  jumpi\n    /* \"#utility.yul\":212:216   */\n  0x7f\n    /* \"#utility.yul\":204:210   */\n  dup3\n    /* \"#utility.yul\":200:217   */\n  and\n    /* \"#utility.yul\":190:217   */\n  swap2\n  pop\n    /* \"#utility.yul\":146:227   */\ntag_20:\n    /* \"#utility.yul\":274:276   */\n  0x20\n    /* \"#utility.yul\":266:272   */\n  dup3\n    /* \"#utility.yul\":263:277   */\n  lt\n    /* \"#utility.yul\":243:261   */\n  dup2\n    /* \"#utility.yul\":240:278   */\n  eq\n    /* \"#utility.yul\":237:321   */\n  iszero\n  tag_21\n  jumpi\n    /* \"#utility.yul\":293:311   */\n  tag_22\n  tag_23\n  jump\t// in\ntag_22:\n    /* \"#utility.yul\":237:321   */\ntag_21:\n    /* \"#utility.yul\":58:327   */\n  pop\n    /* \"#utility.yul\":7:327   */\n  swap2\n  swap1\n  pop\n  jump\t// out\n    /* \"#utility.yul\":333:513   */\ntag_23:\n    /* \"#utility.yul\":381:458   */\n  0x4e487b7100000000000000000000000000000000000000000000000000000000\n    /* \"#utility.yul\":378:379   */\n  0x00\n    /* \"#utility.yul\":371:459   */\n  mstore\n    /* \"#utility.yul\":478:482   */\n  0x22\n    /* \"#utility.yul\":475:476   */\n  0x04\n    /* \"#utility.yul\":468:483   */\n  mstore\n    /* \"#utility.yul\":502:506   */\n  0x24\n    /* \"#utility.yul\":499:500   */\n  0x00\n    /* \"#utility.yul\":492:507   */\n  revert\n    /* \"learning/inheritanceTwo.sol\":92:129  contract two is one(\"Devendra\"){\r... */\ntag_6:\n  dataSize(sub_0)\n  dup1\n  dataOffset(sub_0)\n  0x00\n  codecopy\n  0x00\n  return\nstop\n\nsub_0: assembly {\n        /* \"learning/inheritanceTwo.sol\":92:129  contract two is one(\"Devendra\"){\r... */\n      mstore(0x40, 0x80)\n      callvalue\n      dup1\n      iszero\n      tag_1\n      jumpi\n      0x00\n      dup1\n      revert\n    tag_1:\n      pop\n      jumpi(tag_2, lt(calldatasize, 0x04))\n      shr(0xe0, calldataload(0x00))\n      dup1\n      0x06fdde03\n      eq\n      tag_3\n      jumpi\n      dup1\n      0xcfae3217\n      eq\n      tag_4\n      jumpi\n    tag_2:\n      0x00\n      dup1\n      revert\n        /* \"learning/inheritance.sol\":80:98  string public name */\n    tag_3:\n      tag_5\n      tag_6\n      jump\t// in\n    tag_5:\n      mload(0x40)\n      tag_7\n      swap2\n      swap1\n      tag_8\n      jump\t// in\n    tag_7:\n      mload(0x40)\n      dup1\n      swap2\n      sub\n      swap1\n      return\n        /* \"learning/inheritance.sol\":176:303  function greet() public view returns(string memory greeting){\r... */\n    tag_4:\n      tag_9\n      tag_10\n      jump\t// in\n    tag_9:\n      mload(0x40)\n      tag_11\n      swap2\n      swap1\n      tag_8\n      jump\t// in\n    tag_11:\n      mload(0x40)\n      dup1\n      swap2\n      sub\n      swap1\n      return\n        /* \"learning/inheritance.sol\":80:98  string public name */\n    tag_6:\n      0x00\n      dup1\n      sload\n      tag_12\n      swap1\n      tag_13\n      jump\t// in\n    tag_12:\n      dup1\n      0x1f\n      add\n      0x20\n      dup1\n      swap2\n      div\n      mul\n      0x20\n      add\n      mload(0x40)\n      swap1\n      dup2\n      add\n      0x40\n      mstore\n      dup1\n      swap3\n      swap2\n      swap1\n      dup2\n      dup2\n      mstore\n      0x20\n      add\n      dup3\n      dup1\n      sload\n      tag_14\n      swap1\n      tag_13\n      jump\t// in\n    tag_14:\n      dup1\n      iszero\n      tag_15\n      jumpi\n      dup1\n      0x1f\n      lt\n      tag_16\n      jumpi\n      0x0100\n      dup1\n      dup4\n      sload\n      div\n      mul\n      dup4\n      mstore\n      swap2\n      0x20\n      add\n      swap2\n      jump(tag_15)\n    tag_16:\n      dup3\n      add\n      swap2\n      swap1\n      0x00\n      mstore\n      keccak256(0x00, 0x20)\n      swap1\n    tag_17:\n      dup2\n      sload\n      dup2\n      mstore\n      swap1\n      0x01\n      add\n      swap1\n      0x20\n      add\n      dup1\n      dup4\n      gt\n      tag_17\n      jumpi\n      dup3\n      swap1\n      sub\n      0x1f\n      and\n      dup3\n      add\n      swap2\n    tag_15:\n      pop\n      pop\n      pop\n      pop\n      pop\n      dup2\n      jump\t// out\n        /* \"learning/inheritance.sol\":176:303  function greet() public view returns(string memory greeting){\r... */\n    tag_10:\n        /* \"learning/inheritance.sol\":213:235  string memory greeting */\n      0x60\n        /* \"learning/inheritance.sol\":289:293  name */\n      0x00\n        /* \"learning/inheritance.sol\":263:294  abi.encodePacked(\"Hello \",name) */\n      add(0x20, mload(0x40))\n      tag_19\n      swap2\n      swap1\n      tag_20\n      jump\t// in\n    tag_19:\n      mload(0x40)\n      0x20\n      dup2\n      dup4\n      sub\n      sub\n      dup2\n      mstore\n      swap1\n      0x40\n      mstore\n        /* \"learning/inheritance.sol\":247:295  return (string)(abi.encodePacked(\"Hello \",name)) */\n      swap1\n      pop\n        /* \"learning/inheritance.sol\":176:303  function greet() public view returns(string memory greeting){\r... */\n      swap1\n      jump\t// out\n        /* \"#utility.yul\":7:371   */\n    tag_22:\n        /* \"#utility.yul\":95:98   */\n      0x00\n        /* \"#utility.yul\":123:162   */\n      tag_24\n        /* \"#utility.yul\":156:161   */\n      dup3\n        /* \"#utility.yul\":123:162   */\n      tag_25\n      jump\t// in\n    tag_24:\n        /* \"#utility.yul\":178:249   */\n      tag_26\n        /* \"#utility.yul\":242:248   */\n      dup2\n        /* \"#utility.yul\":237:240   */\n      dup6\n        /* \"#utility.yul\":178:249   */\n      tag_27\n      jump\t// in\n    tag_26:\n        /* \"#utility.yul\":171:249   */\n      swap4\n      pop\n        /* \"#utility.yul\":258:310   */\n      tag_28\n        /* \"#utility.yul\":303:309   */\n      dup2\n        /* \"#utility.yul\":298:301   */\n      dup6\n        /* \"#utility.yul\":291:295   */\n      0x20\n        /* \"#utility.yul\":284:289   */\n      dup7\n        /* \"#utility.yul\":280:296   */\n      add\n        /* \"#utility.yul\":258:310   */\n      tag_29\n      jump\t// in\n    tag_28:\n        /* \"#utility.yul\":335:364   */\n      tag_30\n        /* \"#utility.yul\":357:363   */\n      dup2\n        /* \"#utility.yul\":335:364   */\n      tag_31\n      jump\t// in\n    tag_30:\n        /* \"#utility.yul\":330:333   */\n      dup5\n        /* \"#utility.yul\":326:365   */\n      add\n        /* \"#utility.yul\":319:365   */\n      swap2\n      pop\n        /* \"#utility.yul\":99:371   */\n      pop\n        /* \"#utility.yul\":7:371   */\n      swap3\n      swap2\n      pop\n      pop\n      jump\t// out\n        /* \"#utility.yul\":401:1246   */\n    tag_32:\n        /* \"#utility.yul\":504:507   */\n      0x00\n        /* \"#utility.yul\":541:546   */\n      dup2\n        /* \"#utility.yul\":535:547   */\n      sload\n        /* \"#utility.yul\":570:606   */\n      tag_34\n        /* \"#utility.yul\":596:605   */\n      dup2\n        /* \"#utility.yul\":570:606   */\n      tag_13\n      jump\t// in\n    tag_34:\n        /* \"#utility.yul\":622:711   */\n      tag_35\n        /* \"#utility.yul\":704:710   */\n      dup2\n        /* \"#utility.yul\":699:702   */\n      dup7\n        /* \"#utility.yul\":622:711   */\n      tag_36\n      jump\t// in\n    tag_35:\n        /* \"#utility.yul\":615:711   */\n      swap5\n      pop\n        /* \"#utility.yul\":742:743   */\n      0x01\n        /* \"#utility.yul\":731:740   */\n      dup3\n        /* \"#utility.yul\":727:744   */\n      and\n        /* \"#utility.yul\":758:759   */\n      0x00\n        /* \"#utility.yul\":753:890   */\n      dup2\n      eq\n      tag_38\n      jumpi\n        /* \"#utility.yul\":904:905   */\n      0x01\n        /* \"#utility.yul\":899:1240   */\n      dup2\n      eq\n      tag_39\n      jumpi\n        /* \"#utility.yul\":720:1240   */\n      jump(tag_37)\n        /* \"#utility.yul\":753:890   */\n    tag_38:\n        /* \"#utility.yul\":837:841   */\n      0xff\n        /* \"#utility.yul\":833:842   */\n      not\n        /* \"#utility.yul\":822:831   */\n      dup4\n        /* \"#utility.yul\":818:843   */\n      and\n        /* \"#utility.yul\":813:816   */\n      dup7\n        /* \"#utility.yul\":806:844   */\n      mstore\n        /* \"#utility.yul\":873:879   */\n      dup2\n        /* \"#utility.yul\":868:871   */\n      dup7\n        /* \"#utility.yul\":864:880   */\n      add\n        /* \"#utility.yul\":857:880   */\n      swap4\n      pop\n        /* \"#utility.yul\":753:890   */\n      jump(tag_37)\n        /* \"#utility.yul\":899:1240   */\n    tag_39:\n        /* \"#utility.yul\":966:1004   */\n      tag_40\n        /* \"#utility.yul\":998:1003   */\n      dup6\n        /* \"#utility.yul\":966:1004   */\n      tag_41\n      jump\t// in\n    tag_40:\n        /* \"#utility.yul\":1026:1027   */\n      0x00\n        /* \"#utility.yul\":1040:1194   */\n    tag_42:\n        /* \"#utility.yul\":1054:1060   */\n      dup4\n        /* \"#utility.yul\":1051:1052   */\n      dup2\n        /* \"#utility.yul\":1048:1061   */\n      lt\n        /* \"#utility.yul\":1040:1194   */\n      iszero\n      tag_44\n      jumpi\n        /* \"#utility.yul\":1128:1135   */\n      dup2\n        /* \"#utility.yul\":1122:1136   */\n      sload\n        /* \"#utility.yul\":1118:1119   */\n      dup2\n        /* \"#utility.yul\":1113:1116   */\n      dup10\n        /* \"#utility.yul\":1109:1120   */\n      add\n        /* \"#utility.yul\":1102:1137   */\n      mstore\n        /* \"#utility.yul\":1178:1179   */\n      0x01\n        /* \"#utility.yul\":1169:1176   */\n      dup3\n        /* \"#utility.yul\":1165:1180   */\n      add\n        /* \"#utility.yul\":1154:1180   */\n      swap2\n      pop\n        /* \"#utility.yul\":1076:1080   */\n      0x20\n        /* \"#utility.yul\":1073:1074   */\n      dup2\n        /* \"#utility.yul\":1069:1081   */\n      add\n        /* \"#utility.yul\":1064:1081   */\n      swap1\n      pop\n        /* \"#utility.yul\":1040:1194   */\n      jump(tag_42)\n    tag_44:\n        /* \"#utility.yul\":1223:1229   */\n      dup4\n        /* \"#utility.yul\":1218:1221   */\n      dup9\n        /* \"#utility.yul\":1214:1230   */\n      add\n        /* \"#utility.yul\":1207:1230   */\n      swap6\n      pop\n        /* \"#utility.yul\":906:1240   */\n      pop\n      pop\n        /* \"#utility.yul\":720:1240   */\n    tag_37:\n      pop\n        /* \"#utility.yul\":508:1246   */\n      pop\n      pop\n        /* \"#utility.yul\":401:1246   */\n      swap3\n      swap2\n      pop\n      pop\n      jump\t// out\n        /* \"#utility.yul\":1252:1652   */\n    tag_45:\n        /* \"#utility.yul\":1412:1415   */\n      0x00\n        /* \"#utility.yul\":1433:1517   */\n      tag_47\n        /* \"#utility.yul\":1515:1516   */\n      0x06\n        /* \"#utility.yul\":1510:1513   */\n      dup4\n        /* \"#utility.yul\":1433:1517   */\n      tag_36\n      jump\t// in\n    tag_47:\n        /* \"#utility.yul\":1426:1517   */\n      swap2\n      pop\n        /* \"#utility.yul\":1526:1619   */\n      tag_48\n        /* \"#utility.yul\":1615:1618   */\n      dup3\n        /* \"#utility.yul\":1526:1619   */\n      tag_49\n      jump\t// in\n    tag_48:\n        /* \"#utility.yul\":1644:1645   */\n      0x06\n        /* \"#utility.yul\":1639:1642   */\n      dup3\n        /* \"#utility.yul\":1635:1646   */\n      add\n        /* \"#utility.yul\":1628:1646   */\n      swap1\n      pop\n        /* \"#utility.yul\":1252:1652   */\n      swap2\n      swap1\n      pop\n      jump\t// out\n        /* \"#utility.yul\":1658:2193   */\n    tag_20:\n        /* \"#utility.yul\":1888:1891   */\n      0x00\n        /* \"#utility.yul\":1910:2058   */\n      tag_51\n        /* \"#utility.yul\":2054:2057   */\n      dup3\n        /* \"#utility.yul\":1910:2058   */\n      tag_45\n      jump\t// in\n    tag_51:\n        /* \"#utility.yul\":1903:2058   */\n      swap2\n      pop\n        /* \"#utility.yul\":2075:2167   */\n      tag_52\n        /* \"#utility.yul\":2163:2166   */\n      dup3\n        /* \"#utility.yul\":2154:2160   */\n      dup5\n        /* \"#utility.yul\":2075:2167   */\n      tag_32\n      jump\t// in\n    tag_52:\n        /* \"#utility.yul\":2068:2167   */\n      swap2\n      pop\n        /* \"#utility.yul\":2184:2187   */\n      dup2\n        /* \"#utility.yul\":2177:2187   */\n      swap1\n      pop\n        /* \"#utility.yul\":1658:2193   */\n      swap3\n      swap2\n      pop\n      pop\n      jump\t// out\n        /* \"#utility.yul\":2199:2512   */\n    tag_8:\n        /* \"#utility.yul\":2312:2316   */\n      0x00\n        /* \"#utility.yul\":2350:2352   */\n      0x20\n        /* \"#utility.yul\":2339:2348   */\n      dup3\n        /* \"#utility.yul\":2335:2353   */\n      add\n        /* \"#utility.yul\":2327:2353   */\n      swap1\n      pop\n        /* \"#utility.yul\":2399:2408   */\n      dup2\n        /* \"#utility.yul\":2393:2397   */\n      dup2\n        /* \"#utility.yul\":2389:2409   */\n      sub\n        /* \"#utility.yul\":2385:2386   */\n      0x00\n        /* \"#utility.yul\":2374:2383   */\n      dup4\n        /* \"#utility.yul\":2370:2387   */\n      add\n        /* \"#utility.yul\":2363:2410   */\n      mstore\n        /* \"#utility.yul\":2427:2505   */\n      tag_54\n        /* \"#utility.yul\":2500:2504   */\n      dup2\n        /* \"#utility.yul\":2491:2497   */\n      dup5\n        /* \"#utility.yul\":2427:2505   */\n      tag_22\n      jump\t// in\n    tag_54:\n        /* \"#utility.yul\":2419:2505   */\n      swap1\n      pop\n        /* \"#utility.yul\":2199:2512   */\n      swap3\n      swap2\n      pop\n      pop\n      jump\t// out\n        /* \"#utility.yul\":2518:2659   */\n    tag_41:\n        /* \"#utility.yul\":2567:2571   */\n      0x00\n        /* \"#utility.yul\":2590:2593   */\n      dup2\n        /* \"#utility.yul\":2582:2593   */\n      swap1\n      pop\n        /* \"#utility.yul\":2613:2616   */\n      dup2\n        /* \"#utility.yul\":2610:2611   */\n      0x00\n        /* \"#utility.yul\":2603:2617   */\n      mstore\n        /* \"#utility.yul\":2647:2651   */\n      0x20\n        /* \"#utility.yul\":2644:2645   */\n      0x00\n        /* \"#utility.yul\":2634:2652   */\n      keccak256\n        /* \"#utility.yul\":2626:2652   */\n      swap1\n      pop\n        /* \"#utility.yul\":2518:2659   */\n      swap2\n      swap1\n      pop\n      jump\t// out\n        /* \"#utility.yul\":2665:2764   */\n    tag_25:\n        /* \"#utility.yul\":2717:2723   */\n      0x00\n        /* \"#utility.yul\":2751:2756   */\n      dup2\n        /* \"#utility.yul\":2745:2757   */\n      mload\n        /* \"#utility.yul\":2735:2757   */\n      swap1\n      pop\n        /* \"#utility.yul\":2665:2764   */\n      swap2\n      swap1\n      pop\n      jump\t// out\n        /* \"#utility.yul\":2770:2939   */\n    tag_27:\n        /* \"#utility.yul\":2854:2865   */\n      0x00\n        /* \"#utility.yul\":2888:2894   */\n      dup3\n        /* \"#utility.yul\":2883:2886   */\n      dup3\n        /* \"#utility.yul\":2876:2895   */\n      mstore\n        /* \"#utility.yul\":2928:2932   */\n      0x20\n        /* \"#utility.yul\":2923:2926   */\n      dup3\n        /* \"#utility.yul\":2919:2933   */\n      add\n        /* \"#utility.yul\":2904:2933   */\n      swap1\n      pop\n        /* \"#utility.yul\":2770:2939   */\n      swap3\n      swap2\n      pop\n      pop\n      jump\t// out\n        /* \"#utility.yul\":2945:3093   */\n    tag_36:\n        /* \"#utility.yul\":3047:3058   */\n      0x00\n        /* \"#utility.yul\":3084:3087   */\n      dup2\n        /* \"#utility.yul\":3069:3087   */\n      swap1\n      pop\n        /* \"#utility.yul\":2945:3093   */\n      swap3\n      swap2\n      pop\n      pop\n      jump\t// out\n        /* \"#utility.yul\":3099:3406   */\n    tag_29:\n        /* \"#utility.yul\":3167:3168   */\n      0x00\n        /* \"#utility.yul\":3177:3290   */\n    tag_60:\n        /* \"#utility.yul\":3191:3197   */\n      dup4\n        /* \"#utility.yul\":3188:3189   */\n      dup2\n        /* \"#utility.yul\":3185:3198   */\n      lt\n        /* \"#utility.yul\":3177:3290   */\n      iszero\n      tag_62\n      jumpi\n        /* \"#utility.yul\":3276:3277   */\n      dup1\n        /* \"#utility.yul\":3271:3274   */\n      dup3\n        /* \"#utility.yul\":3267:3278   */\n      add\n        /* \"#utility.yul\":3261:3279   */\n      mload\n        /* \"#utility.yul\":3257:3258   */\n      dup2\n        /* \"#utility.yul\":3252:3255   */\n      dup5\n        /* \"#utility.yul\":3248:3259   */\n      add\n        /* \"#utility.yul\":3241:3280   */\n      mstore\n        /* \"#utility.yul\":3213:3215   */\n      0x20\n        /* \"#utility.yul\":3210:3211   */\n      dup2\n        /* \"#utility.yul\":3206:3216   */\n      add\n        /* \"#utility.yul\":3201:3216   */\n      swap1\n      pop\n        /* \"#utility.yul\":3177:3290   */\n      jump(tag_60)\n    tag_62:\n        /* \"#utility.yul\":3308:3314   */\n      dup4\n        /* \"#utility.yul\":3305:3306   */\n      dup2\n        /* \"#utility.yul\":3302:3315   */\n      gt\n        /* \"#utility.yul\":3299:3400   */\n      iszero\n      tag_63\n      jumpi\n        /* \"#utility.yul\":3388:3389   */\n      0x00\n        /* \"#utility.yul\":3379:3385   */\n      dup5\n        /* \"#utility.yul\":3374:3377   */\n      dup5\n        /* \"#utility.yul\":3370:3386   */\n      add\n        /* \"#utility.yul\":3363:3390   */\n      mstore\n        /* \"#utility.yul\":3299:3400   */\n    tag_63:\n        /* \"#utility.yul\":3148:3406   */\n      pop\n        /* \"#utility.yul\":3099:3406   */\n      pop\n      pop\n      pop\n      jump\t// out\n        /* \"#utility.yul\":3412:3732   */\n    tag_13:\n        /* \"#utility.yul\":3456:3462   */\n      0x00\n        /* \"#utility.yul\":3493:3494   */\n      0x02\n        /* \"#utility.yul\":3487:3491   */\n      dup3\n        /* \"#utility.yul\":3483:3495   */\n      div\n        /* \"#utility.yul\":3473:3495   */\n      swap1\n      pop\n        /* \"#utility.yul\":3540:3541   */\n      0x01\n        /* \"#utility.yul\":3534:3538   */\n      dup3\n        /* \"#utility.yul\":3530:3542   */\n      and\n        /* \"#utility.yul\":3561:3579   */\n      dup1\n        /* \"#utility.yul\":3551:3632   */\n      tag_65\n      jumpi\n        /* \"#utility.yul\":3617:3621   */\n      0x7f\n        /* \"#utility.yul\":3609:3615   */\n      dup3\n        /* \"#utility.yul\":3605:3622   */\n      and\n        /* \"#utility.yul\":3595:3622   */\n      swap2\n      pop\n        /* \"#utility.yul\":3551:3632   */\n    tag_65:\n        /* \"#utility.yul\":3679:3681   */\n      0x20\n        /* \"#utility.yul\":3671:3677   */\n      dup3\n        /* \"#utility.yul\":3668:3682   */\n      lt\n        /* \"#utility.yul\":3648:3666   */\n      dup2\n        /* \"#utility.yul\":3645:3683   */\n      eq\n        /* \"#utility.yul\":3642:3726   */\n      iszero\n      tag_66\n      jumpi\n        /* \"#utility.yul\":3698:3716   */\n      tag_67\n      tag_68\n      jump\t// in\n    tag_67:\n        /* \"#utility.yul\":3642:3726   */\n    tag_66:\n        /* \"#utility.yul\":3463:3732   */\n      pop\n        /* \"#utility.yul\":3412:3732   */\n      swap2\n      swap1\n      pop\n      jump\t// out\n        /* \"#utility.yul\":3738:3918   */\n    tag_68:\n        /* \"#utility.yul\":3786:3863   */\n      0x4e487b7100000000000000000000000000000000000000000000000000000000\n        /* \"#utility.yul\":3783:3784   */\n      0x00\n        /* \"#utility.yul\":3776:3864   */\n      mstore\n        /* \"#utility.yul\":3883:3887   */\n      0x22\n        /* \"#utility.yul\":3880:3881   */\n      0x04\n        /* \"#utility.yul\":3873:3888   */\n      mstore\n        /* \"#utility.yul\":3907:3911   */\n      0x24\n        /* \"#utility.yul\":3904:3905   */\n      0x00\n        /* \"#utility.yul\":3897:3912   */\n      revert\n        /* \"#utility.yul\":3924:4026   */\n    tag_31:\n        /* \"#utility.yul\":3965:3971   */\n      0x00\n        /* \"#utility.yul\":4016:4018   */\n      0x1f\n        /* \"#utility.yul\":4012:4019   */\n      not\n        /* \"#utility.yul\":4007:4009   */\n      0x1f\n        /* \"#utility.yul\":4000:4005   */\n      dup4\n        /* \"#utility.yul\":3996:4010   */\n      add\n        /* \"#utility.yul\":3992:4020   */\n      and\n        /* \"#utility.yul\":3982:4020   */\n      swap1\n      pop\n        /* \"#utility.yul\":3924:4026   */\n      swap2\n      swap1\n      pop\n      jump\t// out\n        /* \"#utility.yul\":4032:4188   */\n    tag_49:\n        /* \"#utility.yul\":4172:4180   */\n      0x48656c6c6f200000000000000000000000000000000000000000000000000000\n        /* \"#utility.yul\":4168:4169   */\n      0x00\n        /* \"#utility.yul\":4160:4166   */\n      dup3\n        /* \"#utility.yul\":4156:4170   */\n      add\n        /* \"#utility.yul\":4149:4181   */\n      mstore\n        /* \"#utility.yul\":4032:4188   */\n      pop\n      jump\t// out\n\n    auxdata: 0xa2646970667358221220d842aa4f3c1da88f823a5005799e5ce3f81c25ce9a3edab3790e89c492f49da564736f6c63430008070033\n}\n",
				"bytecode": {
					"linkReferences": {},
					"object": "608060405234801561001057600080fd5b506040518060400160405280600881526020017f446576656e647261000000000000000000000000000000000000000000000000815250806000908051906020019061005d929190610064565b5050610168565b82805461007090610107565b90600052602060002090601f01602090048101928261009257600085556100d9565b82601f106100ab57805160ff19168380011785556100d9565b828001600101855582156100d9579182015b828111156100d85782518255916020019190600101906100bd565b5b5090506100e691906100ea565b5090565b5b808211156101035760008160009055506001016100eb565b5090565b6000600282049050600182168061011f57607f821691505b6020821081141561013357610132610139565b5b50919050565b7f4e487b7100000000000000000000000000000000000000000000000000000000600052602260045260246000fd5b61038c806101776000396000f3fe608060405234801561001057600080fd5b50600436106100365760003560e01c806306fdde031461003b578063cfae321714610059575b600080fd5b610043610077565b604051610050919061022a565b60405180910390f35b610061610105565b60405161006e919061022a565b60405180910390f35b60008054610084906102bb565b80601f01602080910402602001604051908101604052809291908181526020018280546100b0906102bb565b80156100fd5780601f106100d2576101008083540402835291602001916100fd565b820191906000526020600020905b8154815290600101906020018083116100e057829003601f168201915b505050505081565b606060006040516020016101199190610208565b604051602081830303815290604052905090565b600061013882610261565b610142818561026c565b9350610152818560208601610288565b61015b8161031c565b840191505092915050565b60008154610173816102bb565b61017d818661027d565b9450600182166000811461019857600181146101a9576101dc565b60ff198316865281860193506101dc565b6101b28561024c565b60005b838110156101d4578154818901526001820191506020810190506101b5565b838801955050505b50505092915050565b60006101f260068361027d565b91506101fd8261032d565b600682019050919050565b6000610213826101e5565b915061021f8284610166565b915081905092915050565b60006020820190508181036000830152610244818461012d565b905092915050565b60008190508160005260206000209050919050565b600081519050919050565b600082825260208201905092915050565b600081905092915050565b60005b838110156102a657808201518184015260208101905061028b565b838111156102b5576000848401525b50505050565b600060028204905060018216806102d357607f821691505b602082108114156102e7576102e66102ed565b5b50919050565b7f4e487b7100000000000000000000000000000000000000000000000000000000600052602260045260246000fd5b6000601f19601f8301169050919050565b7f48656c6c6f20000000000000000000000000000000000000000000000000000060008201525056fea2646970667358221220d842aa4f3c1da88f823a5005799e5ce3f81c25ce9a3edab3790e89c492f49da564736f6c63430008070033",
					"opcodes": "PUSH1 0x80 PUSH1 0x40 MSTORE CALLVALUE DUP1 ISZERO PUSH2 0x10 JUMPI PUSH1 0x0 DUP1 REVERT JUMPDEST POP PUSH1 0x40 MLOAD DUP1 PUSH1 0x40 ADD PUSH1 0x40 MSTORE DUP1 PUSH1 0x8 DUP2 MSTORE PUSH1 0x20 ADD PUSH32 0x446576656E647261000000000000000000000000000000000000000000000000 DUP2 MSTORE POP DUP1 PUSH1 0x0 SWAP1 DUP1 MLOAD SWAP1 PUSH1 0x20 ADD SWAP1 PUSH2 0x5D SWAP3 SWAP2 SWAP1 PUSH2 0x64 JUMP JUMPDEST POP POP PUSH2 0x168 JUMP JUMPDEST DUP3 DUP1 SLOAD PUSH2 0x70 SWAP1 PUSH2 0x107 JUMP JUMPDEST SWAP1 PUSH1 0x0 MSTORE PUSH1 0x20 PUSH1 0x0 KECCAK256 SWAP1 PUSH1 0x1F ADD PUSH1 0x20 SWAP1 DIV DUP2 ADD SWAP3 DUP3 PUSH2 0x92 JUMPI PUSH1 0x0 DUP6 SSTORE PUSH2 0xD9 JUMP JUMPDEST DUP3 PUSH1 0x1F LT PUSH2 0xAB JUMPI DUP1 MLOAD PUSH1 0xFF NOT AND DUP4 DUP1 ADD OR DUP6 SSTORE PUSH2 0xD9 JUMP JUMPDEST DUP3 DUP1 ADD PUSH1 0x1 ADD DUP6 SSTORE DUP3 ISZERO PUSH2 0xD9 JUMPI SWAP2 DUP3 ADD JUMPDEST DUP3 DUP2 GT ISZERO PUSH2 0xD8 JUMPI DUP3 MLOAD DUP3 SSTORE SWAP2 PUSH1 0x20 ADD SWAP2 SWAP1 PUSH1 0x1 ADD SWAP1 PUSH2 0xBD JUMP JUMPDEST JUMPDEST POP SWAP1 POP PUSH2 0xE6 SWAP2 SWAP1 PUSH2 0xEA JUMP JUMPDEST POP SWAP1 JUMP JUMPDEST JUMPDEST DUP1 DUP3 GT ISZERO PUSH2 0x103 JUMPI PUSH1 0x0 DUP2 PUSH1 0x0 SWAP1 SSTORE POP PUSH1 0x1 ADD PUSH2 0xEB JUMP JUMPDEST POP SWAP1 JUMP JUMPDEST PUSH1 0x0 PUSH1 0x2 DUP3 DIV SWAP1 POP PUSH1 0x1 DUP3 AND DUP1 PUSH2 0x11F JUMPI PUSH1 0x7F DUP3 AND SWAP2 POP JUMPDEST PUSH1 0x20 DUP3 LT DUP2 EQ ISZERO PUSH2 0x133 JUMPI PUSH2 0x132 PUSH2 0x139 JUMP JUMPDEST JUMPDEST POP SWAP2 SWAP1 POP JUMP JUMPDEST PUSH32 0x4E487B7100000000000000000000000000000000000000000000000000000000 PUSH1 0x0 MSTORE PUSH1 0x22 PUSH1 0x4 MSTORE PUSH1 0x24 PUSH1 0x0 REVERT JUMPDEST PUSH2 0x38C DUP1 PUSH2 0x177 PUSH1 0x0 CODECOPY PUSH1 0x0 RETURN INVALID PUSH1 0x80 PUSH1 0x40 MSTORE CALLVALUE DUP1 ISZERO PUSH2 0x10 JUMPI PUSH1 0x0 DUP1 REVERT JUMPDEST POP PUSH1 0x4 CALLDATASIZE LT PUSH2 0x36 JUMPI PUSH1 0x0 CALLDATALOAD PUSH1 0xE0 SHR DUP1 PUSH4 0x6FDDE03 EQ PUSH2 0x3B JUMPI DUP1 PUSH4 0xCFAE3217 EQ PUSH2 0x59 JUMPI JUMPDEST PUSH1 0x0 DUP1 REVERT JUMPDEST PUSH2 0x43 PUSH2 0x77 JUMP JUMPDEST PUSH1 0x40 MLOAD PUSH2 0x50 SWAP2 SWAP1 PUSH2 0x22A JUMP JUMPDEST PUSH1 0x40 MLOAD DUP1 SWAP2 SUB SWAP1 RETURN JUMPDEST PUSH2 0x61 PUSH2 0x105 JUMP JUMPDEST PUSH1 0x40 MLOAD PUSH2 0x6E SWAP2 SWAP1 PUSH2 0x22A JUMP JUMPDEST PUSH1 0x40 MLOAD DUP1 SWAP2 SUB SWAP1 RETURN JUMPDEST PUSH1 0x0 DUP1 SLOAD PUSH2 0x84 SWAP1 PUSH2 0x2BB JUMP JUMPDEST DUP1 PUSH1 0x1F ADD PUSH1 0x20 DUP1 SWAP2 DIV MUL PUSH1 0x20 ADD PUSH1 0x40 MLOAD SWAP1 DUP2 ADD PUSH1 0x40 MSTORE DUP1 SWAP3 SWAP2 SWAP1 DUP2 DUP2 MSTORE PUSH1 0x20 ADD DUP3 DUP1 SLOAD PUSH2 0xB0 SWAP1 PUSH2 0x2BB JUMP JUMPDEST DUP1 ISZERO PUSH2 0xFD JUMPI DUP1 PUSH1 0x1F LT PUSH2 0xD2 JUMPI PUSH2 0x100 DUP1 DUP4 SLOAD DIV MUL DUP4 MSTORE SWAP2 PUSH1 0x20 ADD SWAP2 PUSH2 0xFD JUMP JUMPDEST DUP3 ADD SWAP2 SWAP1 PUSH1 0x0 MSTORE PUSH1 0x20 PUSH1 0x0 KECCAK256 SWAP1 JUMPDEST DUP2 SLOAD DUP2 MSTORE SWAP1 PUSH1 0x1 ADD SWAP1 PUSH1 0x20 ADD DUP1 DUP4 GT PUSH2 0xE0 JUMPI DUP3 SWAP1 SUB PUSH1 0x1F AND DUP3 ADD SWAP2 JUMPDEST POP POP POP POP POP DUP2 JUMP JUMPDEST PUSH1 0x60 PUSH1 0x0 PUSH1 0x40 MLOAD PUSH1 0x20 ADD PUSH2 0x119 SWAP2 SWAP1 PUSH2 0x208 JUMP JUMPDEST PUSH1 0x40 MLOAD PUSH1 0x20 DUP2 DUP4 SUB SUB DUP2 MSTORE SWAP1 PUSH1 0x40 MSTORE SWAP1 POP SWAP1 JUMP JUMPDEST PUSH1 0x0 PUSH2 0x138 DUP3 PUSH2 0x261 JUMP JUMPDEST PUSH2 0x142 DUP2 DUP6 PUSH2 0x26C JUMP JUMPDEST SWAP4 POP PUSH2 0x152 DUP2 DUP6 PUSH1 0x20 DUP7 ADD PUSH2 0x288 JUMP JUMPDEST PUSH2 0x15B DUP2 PUSH2 0x31C JUMP JUMPDEST DUP5 ADD SWAP2 POP POP SWAP3 SWAP2 POP POP JUMP JUMPDEST PUSH1 0x0 DUP2 SLOAD PUSH2 0x173 DUP2 PUSH2 0x2BB JUMP JUMPDEST PUSH2 0x17D DUP2 DUP7 PUSH2 0x27D JUMP JUMPDEST SWAP5 POP PUSH1 0x1 DUP3 AND PUSH1 0x0 DUP2 EQ PUSH2 0x198 JUMPI PUSH1 0x1 DUP2 EQ PUSH2 0x1A9 JUMPI PUSH2 0x1DC JUMP JUMPDEST PUSH1 0xFF NOT DUP4 AND DUP7 MSTORE DUP2 DUP7 ADD SWAP4 POP PUSH2 0x1DC JUMP JUMPDEST PUSH2 0x1B2 DUP6 PUSH2 0x24C JUMP JUMPDEST PUSH1 0x0 JUMPDEST DUP4 DUP2 LT ISZERO PUSH2 0x1D4 JUMPI DUP2 SLOAD DUP2 DUP10 ADD MSTORE PUSH1 0x1 DUP3 ADD SWAP2 POP PUSH1 0x20 DUP2 ADD SWAP1 POP PUSH2 0x1B5 JUMP JUMPDEST DUP4 DUP9 ADD SWAP6 POP POP POP JUMPDEST POP POP POP SWAP3 SWAP2 POP POP JUMP JUMPDEST PUSH1 0x0 PUSH2 0x1F2 PUSH1 0x6 DUP4 PUSH2 0x27D JUMP JUMPDEST SWAP2 POP PUSH2 0x1FD DUP3 PUSH2 0x32D JUMP JUMPDEST PUSH1 0x6 DUP3 ADD SWAP1 POP SWAP2 SWAP1 POP JUMP JUMPDEST PUSH1 0x0 PUSH2 0x213 DUP3 PUSH2 0x1E5 JUMP JUMPDEST SWAP2 POP PUSH2 0x21F DUP3 DUP5 PUSH2 0x166 JUMP JUMPDEST SWAP2 POP DUP2 SWAP1 POP SWAP3 SWAP2 POP POP JUMP JUMPDEST PUSH1 0x0 PUSH1 0x20 DUP3 ADD SWAP1 POP DUP2 DUP2 SUB PUSH1 0x0 DUP4 ADD MSTORE PUSH2 0x244 DUP2 DUP5 PUSH2 0x12D JUMP JUMPDEST SWAP1 POP SWAP3 SWAP2 POP POP JUMP JUMPDEST PUSH1 0x0 DUP2 SWAP1 POP DUP2 PUSH1 0x0 MSTORE PUSH1 0x20 PUSH1 0x0 KECCAK256 SWAP1 POP SWAP2 SWAP1 POP JUMP JUMPDEST PUSH1 0x0 DUP2 MLOAD SWAP1 POP SWAP2 SWAP1 POP JUMP JUMPDEST PUSH1 0x0 DUP3 DUP3 MSTORE PUSH1 0x20 DUP3 ADD SWAP1 POP SWAP3 SWAP2 POP POP JUMP JUMPDEST PUSH1 0x0 DUP2 SWAP1 POP SWAP3 SWAP2 POP POP JUMP JUMPDEST PUSH1 0x0 JUMPDEST DUP4 DUP2 LT ISZERO PUSH2 0x2A6 JUMPI DUP1 DUP3 ADD MLOAD DUP2 DUP5 ADD MSTORE PUSH1 0x20 DUP2 ADD SWAP1 POP PUSH2 0x28B JUMP JUMPDEST DUP4 DUP2 GT ISZERO PUSH2 0x2B5 JUMPI PUSH1 0x0 DUP5 DUP5 ADD MSTORE JUMPDEST POP POP POP POP JUMP JUMPDEST PUSH1 0x0 PUSH1 0x2 DUP3 DIV SWAP1 POP PUSH1 0x1 DUP3 AND DUP1 PUSH2 0x2D3 JUMPI PUSH1 0x7F DUP3 AND SWAP2 POP JUMPDEST PUSH1 0x20 DUP3 LT DUP2 EQ ISZERO PUSH2 0x2E7 JUMPI PUSH2 0x2E6 PUSH2 0x2ED JUMP JUMPDEST JUMPDEST POP SWAP2 SWAP1 POP JUMP JUMPDEST PUSH32 0x4E487B7100000000000000000000000000000000000000000000000000000000 PUSH1 0x0 MSTORE PUSH1 0x22 PUSH1 0x4 MSTORE PUSH1 0x24 PUSH1 0x0 REVERT JUMPDEST PUSH1 0x0 PUSH1 0x1F NOT PUSH1 0x1F DUP4 ADD AND SWAP1 POP SWAP2 SWAP1 POP JUMP JUMPDEST PUSH32 0x48656C6C6F200000000000000000000000000000000000000000000000000000 PUSH1 0x0 DUP3 ADD MSTORE POP JUMP INVALID LOG2 PUSH5 0x6970667358 0x22 SLT KECCAK256 0xD8 TIMESTAMP 0xAA 0x4F EXTCODECOPY SAR 0xA8 DUP16 DUP3 GASPRICE POP SDIV PUSH26 0x9E5CE3F81C25CE9A3EDAB3790E89C492F49DA564736F6C634300 ADDMOD SMOD STOP CALLER "
				},
				"gasEstimates": {
					"creation": {
						"codeDepositCost": "181600",
						"executionCost": "infinite",
						"totalCost": "infinite"
					},
					"external": {
						"greet()": "infinite",
						"name()": "infinite"
					}
				},
				"methodIdentifiers": {
					"greet()": "cfae3217",
					"name()": "06fdde03"
				}
			},
			"storageLayout": {
				"storage": [
					{
						"astId": 3,
						"contract": "learning/inheritanceTwo.sol:two",
						"label": "name",
						"offset": 0,
						"slot": "0",
						"type": "t_string_storage"
					}
				],
				"types": {
					"t_string_storage": {
						"encoding": "bytes",
						"label": "string",
						"numberOfBytes": "32"
					}
				}
			},
			"userdoc": {
				"kind": "user",
				"methods": {},
				"version": 1
			}
		}
	}
}