{
	"learning/tokens/AMDToken.sol": {
		"AMDToken": {
			"abi": [
				{
					"inputs": [],
					"stateMutability": "nonpayable",
					"type": "constructor"
				},
				{
					"anonymous": false,
					"inputs": [
						{
							"indexed": true,
							"internalType": "address",
							"name": "_owner",
							"type": "address"
						},
						{
							"indexed": true,
							"internalType": "address",
							"name": "_spender",
							"type": "address"
						},
						{
							"indexed": false,
							"internalType": "uint256",
							"name": "_value",
							"type": "uint256"
						}
					],
					"name": "Approval",
					"type": "event"
				},
				{
					"anonymous": false,
					"inputs": [
						{
							"indexed": true,
							"internalType": "address",
							"name": "_from",
							"type": "address"
						},
						{
							"indexed": true,
							"internalType": "address",
							"name": "_to",
							"type": "address"
						},
						{
							"indexed": false,
							"internalType": "uint256",
							"name": "_value",
							"type": "uint256"
						}
					],
					"name": "Transfer",
					"type": "event"
				},
				{
					"inputs": [
						{
							"internalType": "address",
							"name": "_owner",
							"type": "address"
						},
						{
							"internalType": "address",
							"name": "_spender",
							"type": "address"
						}
					],
					"name": "allowance",
					"outputs": [
						{
							"internalType": "uint256",
							"name": "remaining",
							"type": "uint256"
						}
					],
					"stateMutability": "view",
					"type": "function"
				},
				{
					"inputs": [
						{
							"internalType": "address",
							"name": "_spender",
							"type": "address"
						},
						{
							"internalType": "uint256",
							"name": "_value",
							"type": "uint256"
						}
					],
					"name": "approve",
					"outputs": [
						{
							"internalType": "bool",
							"name": "success",
							"type": "bool"
						}
					],
					"stateMutability": "nonpayable",
					"type": "function"
				},
				{
					"inputs": [
						{
							"internalType": "address",
							"name": "",
							"type": "address"
						}
					],
					"name": "balanceOf",
					"outputs": [
						{
							"internalType": "uint256",
							"name": "",
							"type": "uint256"
						}
					],
					"stateMutability": "view",
					"type": "function"
				},
				{
					"inputs": [],
					"name": "decimals",
					"outputs": [
						{
							"internalType": "uint8",
							"name": "",
							"type": "uint8"
						}
					],
					"stateMutability": "view",
					"type": "function"
				},
				{
					"inputs": [],
					"name": "minter",
					"outputs": [
						{
							"internalType": "address",
							"name": "",
							"type": "address"
						}
					],
					"stateMutability": "view",
					"type": "function"
				},
				{
					"inputs": [],
					"name": "name",
					"outputs": [
						{
							"internalType": "string",
							"name": "",
							"type": "string"
						}
					],
					"stateMutability": "view",
					"type": "function"
				},
				{
					"inputs": [],
					"name": "owner",
					"outputs": [
						{
							"internalType": "address",
							"name": "",
							"type": "address"
						}
					],
					"stateMutability": "view",
					"type": "function"
				},
				{
					"inputs": [],
					"name": "symbol",
					"outputs": [
						{
							"internalType": "string",
							"name": "",
							"type": "string"
						}
					],
					"stateMutability": "view",
					"type": "function"
				},
				{
					"inputs": [],
					"name": "totalSupply",
					"outputs": [
						{
							"internalType": "uint256",
							"name": "",
							"type": "uint256"
						}
					],
					"stateMutability": "view",
					"type": "function"
				},
				{
					"inputs": [
						{
							"internalType": "address",
							"name": "_to",
							"type": "address"
						},
						{
							"internalType": "uint256",
							"name": "_value",
							"type": "uint256"
						}
					],
					"name": "transfer",
					"outputs": [
						{
							"internalType": "bool",
							"name": "success",
							"type": "bool"
						}
					],
					"stateMutability": "nonpayable",
					"type": "function"
				},
				{
					"inputs": [
						{
							"internalType": "address",
							"name": "_from",
							"type": "address"
						},
						{
							"internalType": "address",
							"name": "_to",
							"type": "address"
						},
						{
							"internalType": "uint256",
							"name": "_value",
							"type": "uint256"
						}
					],
					"name": "transferFrom",
					"outputs": [
						{
							"internalType": "bool",
							"name": "success",
							"type": "bool"
						}
					],
					"stateMutability": "nonpayable",
					"type": "function"
				}
			],
			"devdoc": {
				"kind": "dev",
				"methods": {},
				"version": 1
			},
			"evm": {
				"assembly": "    /* \"learning/tokens/AMDToken.sol\":86:1363  contract AMDToken is IERC20{\r... */\n  mstore(0x40, 0x80)\n    /* \"learning/tokens/AMDToken.sol\":386:622  constructor(){\r... */\n  callvalue\n  dup1\n  iszero\n  tag_1\n  jumpi\n  0x00\n  dup1\n  revert\ntag_1:\n  pop\n    /* \"learning/tokens/AMDToken.sol\":410:426  name=\"AMD Token\" */\n  mload(0x40)\n  dup1\n  0x40\n  add\n  0x40\n  mstore\n  dup1\n  0x09\n  dup2\n  mstore\n  0x20\n  add\n  0x414d4420546f6b656e0000000000000000000000000000000000000000000000\n  dup2\n  mstore\n  pop\n    /* \"learning/tokens/AMDToken.sol\":410:414  name */\n  0x00\n    /* \"learning/tokens/AMDToken.sol\":410:426  name=\"AMD Token\" */\n  swap1\n  dup1\n  mload\n  swap1\n  0x20\n  add\n  swap1\n  tag_4\n  swap3\n  swap2\n  swap1\n  tag_5\n  jump\t// in\ntag_4:\n  pop\n    /* \"learning/tokens/AMDToken.sol\":437:449  symbol=\"AMD\" */\n  mload(0x40)\n  dup1\n  0x40\n  add\n  0x40\n  mstore\n  dup1\n  0x03\n  dup2\n  mstore\n  0x20\n  add\n  0x414d440000000000000000000000000000000000000000000000000000000000\n  dup2\n  mstore\n  pop\n    /* \"learning/tokens/AMDToken.sol\":437:443  symbol */\n  0x01\n    /* \"learning/tokens/AMDToken.sol\":437:449  symbol=\"AMD\" */\n  swap1\n  dup1\n  mload\n  swap1\n  0x20\n  add\n  swap1\n  tag_6\n  swap3\n  swap2\n  swap1\n  tag_5\n  jump\t// in\ntag_6:\n  pop\n    /* \"learning/tokens/AMDToken.sol\":469:471  18 */\n  0x12\n    /* \"learning/tokens/AMDToken.sol\":460:468  decimals */\n  0x02\n  0x00\n    /* \"learning/tokens/AMDToken.sol\":460:471  decimals=18 */\n  0x0100\n  exp\n  dup2\n  sload\n  dup2\n  0xff\n  mul\n  not\n  and\n  swap1\n  dup4\n  0xff\n  and\n  mul\n  or\n  swap1\n  sstore\n  pop\n    /* \"learning/tokens/AMDToken.sol\":512:520  decimals */\n  0x02\n  0x00\n  swap1\n  sload\n  swap1\n  0x0100\n  exp\n  swap1\n  div\n  0xff\n  and\n    /* \"learning/tokens/AMDToken.sol\":508:510  10 */\n  0x0a\n    /* \"learning/tokens/AMDToken.sol\":508:520  10**decimals */\n  tag_7\n  swap2\n  swap1\n  tag_8\n  jump\t// in\ntag_7:\n    /* \"learning/tokens/AMDToken.sol\":494:507  1000000000000 */\n  0xe8d4a51000\n    /* \"learning/tokens/AMDToken.sol\":494:520  1000000000000*10**decimals */\n  tag_9\n  swap2\n  swap1\n  tag_10\n  jump\t// in\ntag_9:\n    /* \"learning/tokens/AMDToken.sol\":482:493  totalSupply */\n  0x03\n    /* \"learning/tokens/AMDToken.sol\":482:520  totalSupply=1000000000000*10**decimals */\n  dup2\n  swap1\n  sstore\n  pop\n    /* \"learning/tokens/AMDToken.sol\":537:547  msg.sender */\n  caller\n    /* \"learning/tokens/AMDToken.sol\":531:536  owner */\n  0x05\n  0x00\n    /* \"learning/tokens/AMDToken.sol\":531:547  owner=msg.sender */\n  0x0100\n  exp\n  dup2\n  sload\n  dup2\n  0xffffffffffffffffffffffffffffffffffffffff\n  mul\n  not\n  and\n  swap1\n  dup4\n  0xffffffffffffffffffffffffffffffffffffffff\n  and\n  mul\n  or\n  swap1\n  sstore\n  pop\n    /* \"learning/tokens/AMDToken.sol\":565:575  msg.sender */\n  caller\n    /* \"learning/tokens/AMDToken.sol\":558:564  minter */\n  0x06\n  0x00\n    /* \"learning/tokens/AMDToken.sol\":558:575  minter=msg.sender */\n  0x0100\n  exp\n  dup2\n  sload\n  dup2\n  0xffffffffffffffffffffffffffffffffffffffff\n  mul\n  not\n  and\n  swap1\n  dup4\n  0xffffffffffffffffffffffffffffffffffffffff\n  and\n  mul\n  or\n  swap1\n  sstore\n  pop\n    /* \"learning/tokens/AMDToken.sol\":603:614  totalSupply */\n  sload(0x03)\n    /* \"learning/tokens/AMDToken.sol\":586:595  balanceOf */\n  0x04\n    /* \"learning/tokens/AMDToken.sol\":586:602  balanceOf[owner] */\n  0x00\n    /* \"learning/tokens/AMDToken.sol\":596:601  owner */\n  0x05\n  0x00\n  swap1\n  sload\n  swap1\n  0x0100\n  exp\n  swap1\n  div\n  0xffffffffffffffffffffffffffffffffffffffff\n  and\n    /* \"learning/tokens/AMDToken.sol\":586:602  balanceOf[owner] */\n  0xffffffffffffffffffffffffffffffffffffffff\n  and\n  0xffffffffffffffffffffffffffffffffffffffff\n  and\n  dup2\n  mstore\n  0x20\n  add\n  swap1\n  dup2\n  mstore\n  0x20\n  add\n  0x00\n  keccak256\n    /* \"learning/tokens/AMDToken.sol\":586:614  balanceOf[owner]=totalSupply */\n  dup2\n  swap1\n  sstore\n  pop\n    /* \"learning/tokens/AMDToken.sol\":86:1363  contract AMDToken is IERC20{\r... */\n  jump(tag_11)\ntag_5:\n  dup3\n  dup1\n  sload\n  tag_12\n  swap1\n  tag_13\n  jump\t// in\ntag_12:\n  swap1\n  0x00\n  mstore\n  keccak256(0x00, 0x20)\n  swap1\n  0x1f\n  add\n  0x20\n  swap1\n  div\n  dup2\n  add\n  swap3\n  dup3\n  tag_15\n  jumpi\n  0x00\n  dup6\n  sstore\n  jump(tag_14)\ntag_15:\n  dup3\n  0x1f\n  lt\n  tag_16\n  jumpi\n  dup1\n  mload\n  not(0xff)\n  and\n  dup4\n  dup1\n  add\n  or\n  dup6\n  sstore\n  jump(tag_14)\ntag_16:\n  dup3\n  dup1\n  add\n  0x01\n  add\n  dup6\n  sstore\n  dup3\n  iszero\n  tag_14\n  jumpi\n  swap2\n  dup3\n  add\ntag_17:\n  dup3\n  dup2\n  gt\n  iszero\n  tag_18\n  jumpi\n  dup3\n  mload\n  dup3\n  sstore\n  swap2\n  0x20\n  add\n  swap2\n  swap1\n  0x01\n  add\n  swap1\n  jump(tag_17)\ntag_18:\ntag_14:\n  pop\n  swap1\n  pop\n  tag_19\n  swap2\n  swap1\n  tag_20\n  jump\t// in\ntag_19:\n  pop\n  swap1\n  jump\t// out\ntag_20:\ntag_21:\n  dup1\n  dup3\n  gt\n  iszero\n  tag_22\n  jumpi\n  0x00\n  dup2\n  0x00\n  swap1\n  sstore\n  pop\n  0x01\n  add\n  jump(tag_21)\ntag_22:\n  pop\n  swap1\n  jump\t// out\n    /* \"#utility.yul\":7:855   */\ntag_24:\n    /* \"#utility.yul\":68:73   */\n  0x00\n    /* \"#utility.yul\":75:79   */\n  dup1\n    /* \"#utility.yul\":99:105   */\n  dup3\n    /* \"#utility.yul\":90:105   */\n  swap2\n  pop\n    /* \"#utility.yul\":123:128   */\n  dup4\n    /* \"#utility.yul\":114:128   */\n  swap1\n  pop\n    /* \"#utility.yul\":137:849   */\ntag_26:\n    /* \"#utility.yul\":158:159   */\n  0x01\n    /* \"#utility.yul\":148:156   */\n  dup6\n    /* \"#utility.yul\":145:160   */\n  gt\n    /* \"#utility.yul\":137:849   */\n  iszero\n  tag_28\n  jumpi\n    /* \"#utility.yul\":253:257   */\n  dup1\n    /* \"#utility.yul\":248:251   */\n  dup7\n    /* \"#utility.yul\":244:258   */\n  div\n    /* \"#utility.yul\":238:242   */\n  dup2\n    /* \"#utility.yul\":235:259   */\n  gt\n    /* \"#utility.yul\":232:282   */\n  iszero\n  tag_29\n  jumpi\n    /* \"#utility.yul\":262:280   */\n  tag_30\n  tag_31\n  jump\t// in\ntag_30:\n    /* \"#utility.yul\":232:282   */\ntag_29:\n    /* \"#utility.yul\":312:313   */\n  0x01\n    /* \"#utility.yul\":302:310   */\n  dup6\n    /* \"#utility.yul\":298:314   */\n  and\n    /* \"#utility.yul\":295:746   */\n  iszero\n  tag_32\n  jumpi\n    /* \"#utility.yul\":727:731   */\n  dup1\n    /* \"#utility.yul\":720:725   */\n  dup3\n    /* \"#utility.yul\":716:732   */\n  mul\n    /* \"#utility.yul\":707:732   */\n  swap2\n  pop\n    /* \"#utility.yul\":295:746   */\ntag_32:\n    /* \"#utility.yul\":777:781   */\n  dup1\n    /* \"#utility.yul\":771:775   */\n  dup2\n    /* \"#utility.yul\":767:782   */\n  mul\n    /* \"#utility.yul\":759:782   */\n  swap1\n  pop\n    /* \"#utility.yul\":807:839   */\n  tag_33\n    /* \"#utility.yul\":830:838   */\n  dup6\n    /* \"#utility.yul\":807:839   */\n  tag_34\n  jump\t// in\ntag_33:\n    /* \"#utility.yul\":795:839   */\n  swap5\n  pop\n    /* \"#utility.yul\":137:849   */\n  jump(tag_26)\ntag_28:\n    /* \"#utility.yul\":7:855   */\n  swap5\n  pop\n  swap5\n  swap3\n  pop\n  pop\n  pop\n  jump\t// out\n    /* \"#utility.yul\":861:1142   */\ntag_8:\n    /* \"#utility.yul\":919:924   */\n  0x00\n    /* \"#utility.yul\":943:966   */\n  tag_36\n    /* \"#utility.yul\":961:965   */\n  dup3\n    /* \"#utility.yul\":943:966   */\n  tag_37\n  jump\t// in\ntag_36:\n    /* \"#utility.yul\":935:966   */\n  swap2\n  pop\n    /* \"#utility.yul\":987:1012   */\n  tag_38\n    /* \"#utility.yul\":1003:1011   */\n  dup4\n    /* \"#utility.yul\":987:1012   */\n  tag_39\n  jump\t// in\ntag_38:\n    /* \"#utility.yul\":975:1012   */\n  swap3\n  pop\n    /* \"#utility.yul\":1031:1135   */\n  tag_40\n    /* \"#utility.yul\":1068:1134   */\n  0xffffffffffffffffffffffffffffffffffffffffffffffffffffffffffffffff\n    /* \"#utility.yul\":1058:1066   */\n  dup5\n    /* \"#utility.yul\":1052:1056   */\n  dup5\n    /* \"#utility.yul\":1031:1135   */\n  tag_41\n  jump\t// in\ntag_40:\n    /* \"#utility.yul\":1022:1135   */\n  swap1\n  pop\n    /* \"#utility.yul\":861:1142   */\n  swap3\n  swap2\n  pop\n  pop\n  jump\t// out\n    /* \"#utility.yul\":1148:2221   */\ntag_41:\n    /* \"#utility.yul\":1202:1207   */\n  0x00\n    /* \"#utility.yul\":1393:1401   */\n  dup3\n    /* \"#utility.yul\":1383:1423   */\n  tag_43\n  jumpi\n    /* \"#utility.yul\":1414:1415   */\n  0x01\n    /* \"#utility.yul\":1405:1415   */\n  swap1\n  pop\n    /* \"#utility.yul\":1416:1421   */\n  jump(tag_42)\n    /* \"#utility.yul\":1383:1423   */\ntag_43:\n    /* \"#utility.yul\":1442:1446   */\n  dup2\n    /* \"#utility.yul\":1432:1468   */\n  tag_44\n  jumpi\n    /* \"#utility.yul\":1459:1460   */\n  0x00\n    /* \"#utility.yul\":1450:1460   */\n  swap1\n  pop\n    /* \"#utility.yul\":1461:1466   */\n  jump(tag_42)\n    /* \"#utility.yul\":1432:1468   */\ntag_44:\n    /* \"#utility.yul\":1528:1532   */\n  dup2\n    /* \"#utility.yul\":1576:1577   */\n  0x01\n    /* \"#utility.yul\":1571:1598   */\n  dup2\n  eq\n  tag_46\n  jumpi\n    /* \"#utility.yul\":1612:1613   */\n  0x02\n    /* \"#utility.yul\":1607:1798   */\n  dup2\n  eq\n  tag_47\n  jumpi\n    /* \"#utility.yul\":1521:1798   */\n  jump(tag_45)\n    /* \"#utility.yul\":1571:1598   */\ntag_46:\n    /* \"#utility.yul\":1589:1590   */\n  0x01\n    /* \"#utility.yul\":1580:1590   */\n  swap2\n  pop\n    /* \"#utility.yul\":1591:1596   */\n  pop\n  jump(tag_42)\n    /* \"#utility.yul\":1607:1798   */\ntag_47:\n    /* \"#utility.yul\":1652:1655   */\n  0xff\n    /* \"#utility.yul\":1642:1650   */\n  dup5\n    /* \"#utility.yul\":1639:1656   */\n  gt\n    /* \"#utility.yul\":1636:1679   */\n  iszero\n  tag_48\n  jumpi\n    /* \"#utility.yul\":1659:1677   */\n  tag_49\n  tag_31\n  jump\t// in\ntag_49:\n    /* \"#utility.yul\":1636:1679   */\ntag_48:\n    /* \"#utility.yul\":1708:1716   */\n  dup4\n    /* \"#utility.yul\":1705:1706   */\n  0x02\n    /* \"#utility.yul\":1701:1717   */\n  exp\n    /* \"#utility.yul\":1692:1717   */\n  swap2\n  pop\n    /* \"#utility.yul\":1743:1746   */\n  dup5\n    /* \"#utility.yul\":1736:1741   */\n  dup3\n    /* \"#utility.yul\":1733:1747   */\n  gt\n    /* \"#utility.yul\":1730:1770   */\n  iszero\n  tag_50\n  jumpi\n    /* \"#utility.yul\":1750:1768   */\n  tag_51\n  tag_31\n  jump\t// in\ntag_51:\n    /* \"#utility.yul\":1730:1770   */\ntag_50:\n    /* \"#utility.yul\":1783:1788   */\n  pop\n  jump(tag_42)\n    /* \"#utility.yul\":1521:1798   */\ntag_45:\n  pop\n    /* \"#utility.yul\":1907:1909   */\n  0x20\n    /* \"#utility.yul\":1897:1905   */\n  dup4\n    /* \"#utility.yul\":1894:1910   */\n  lt\n    /* \"#utility.yul\":1888:1891   */\n  0x0133\n    /* \"#utility.yul\":1882:1886   */\n  dup4\n    /* \"#utility.yul\":1879:1892   */\n  lt\n    /* \"#utility.yul\":1875:1911   */\n  and\n    /* \"#utility.yul\":1857:1859   */\n  0x4e\n    /* \"#utility.yul\":1847:1855   */\n  dup5\n    /* \"#utility.yul\":1844:1860   */\n  lt\n    /* \"#utility.yul\":1839:1841   */\n  0x0b\n    /* \"#utility.yul\":1833:1837   */\n  dup5\n    /* \"#utility.yul\":1830:1842   */\n  lt\n    /* \"#utility.yul\":1826:1861   */\n  and\n    /* \"#utility.yul\":1810:1921   */\n  or\n    /* \"#utility.yul\":1807:2053   */\n  iszero\n  tag_52\n  jumpi\n    /* \"#utility.yul\":1963:1971   */\n  dup3\n    /* \"#utility.yul\":1957:1961   */\n  dup3\n    /* \"#utility.yul\":1953:1972   */\n  exp\n    /* \"#utility.yul\":1944:1972   */\n  swap1\n  pop\n    /* \"#utility.yul\":1998:2001   */\n  dup4\n    /* \"#utility.yul\":1991:1996   */\n  dup2\n    /* \"#utility.yul\":1988:2002   */\n  gt\n    /* \"#utility.yul\":1985:2025   */\n  iszero\n  tag_53\n  jumpi\n    /* \"#utility.yul\":2005:2023   */\n  tag_54\n  tag_31\n  jump\t// in\ntag_54:\n    /* \"#utility.yul\":1985:2025   */\ntag_53:\n    /* \"#utility.yul\":2038:2043   */\n  jump(tag_42)\n    /* \"#utility.yul\":1807:2053   */\ntag_52:\n    /* \"#utility.yul\":2078:2120   */\n  tag_55\n    /* \"#utility.yul\":2116:2119   */\n  dup5\n    /* \"#utility.yul\":2106:2114   */\n  dup5\n    /* \"#utility.yul\":2100:2104   */\n  dup5\n    /* \"#utility.yul\":2097:2098   */\n  0x01\n    /* \"#utility.yul\":2078:2120   */\n  tag_24\n  jump\t// in\ntag_55:\n    /* \"#utility.yul\":2063:2120   */\n  swap3\n  pop\n  swap1\n  pop\n    /* \"#utility.yul\":2152:2156   */\n  dup2\n    /* \"#utility.yul\":2147:2150   */\n  dup5\n    /* \"#utility.yul\":2143:2157   */\n  div\n    /* \"#utility.yul\":2136:2141   */\n  dup2\n    /* \"#utility.yul\":2133:2158   */\n  gt\n    /* \"#utility.yul\":2130:2181   */\n  iszero\n  tag_56\n  jumpi\n    /* \"#utility.yul\":2161:2179   */\n  tag_57\n  tag_31\n  jump\t// in\ntag_57:\n    /* \"#utility.yul\":2130:2181   */\ntag_56:\n    /* \"#utility.yul\":2210:2214   */\n  dup2\n    /* \"#utility.yul\":2203:2208   */\n  dup2\n    /* \"#utility.yul\":2199:2215   */\n  mul\n    /* \"#utility.yul\":2190:2215   */\n  swap1\n  pop\n    /* \"#utility.yul\":1148:2221   */\ntag_42:\n  swap4\n  swap3\n  pop\n  pop\n  pop\n  jump\t// out\n    /* \"#utility.yul\":2227:2575   */\ntag_10:\n    /* \"#utility.yul\":2267:2274   */\n  0x00\n    /* \"#utility.yul\":2290:2310   */\n  tag_59\n    /* \"#utility.yul\":2308:2309   */\n  dup3\n    /* \"#utility.yul\":2290:2310   */\n  tag_37\n  jump\t// in\ntag_59:\n    /* \"#utility.yul\":2285:2310   */\n  swap2\n  pop\n    /* \"#utility.yul\":2324:2344   */\n  tag_60\n    /* \"#utility.yul\":2342:2343   */\n  dup4\n    /* \"#utility.yul\":2324:2344   */\n  tag_37\n  jump\t// in\ntag_60:\n    /* \"#utility.yul\":2319:2344   */\n  swap3\n  pop\n    /* \"#utility.yul\":2512:2513   */\n  dup2\n    /* \"#utility.yul\":2444:2510   */\n  0xffffffffffffffffffffffffffffffffffffffffffffffffffffffffffffffff\n    /* \"#utility.yul\":2440:2514   */\n  div\n    /* \"#utility.yul\":2437:2438   */\n  dup4\n    /* \"#utility.yul\":2434:2515   */\n  gt\n    /* \"#utility.yul\":2429:2430   */\n  dup3\n    /* \"#utility.yul\":2422:2431   */\n  iszero\n    /* \"#utility.yul\":2415:2432   */\n  iszero\n    /* \"#utility.yul\":2411:2516   */\n  and\n    /* \"#utility.yul\":2408:2539   */\n  iszero\n  tag_61\n  jumpi\n    /* \"#utility.yul\":2519:2537   */\n  tag_62\n  tag_31\n  jump\t// in\ntag_62:\n    /* \"#utility.yul\":2408:2539   */\ntag_61:\n    /* \"#utility.yul\":2567:2568   */\n  dup3\n    /* \"#utility.yul\":2564:2565   */\n  dup3\n    /* \"#utility.yul\":2560:2569   */\n  mul\n    /* \"#utility.yul\":2549:2569   */\n  swap1\n  pop\n    /* \"#utility.yul\":2227:2575   */\n  swap3\n  swap2\n  pop\n  pop\n  jump\t// out\n    /* \"#utility.yul\":2581:2658   */\ntag_37:\n    /* \"#utility.yul\":2618:2625   */\n  0x00\n    /* \"#utility.yul\":2647:2652   */\n  dup2\n    /* \"#utility.yul\":2636:2652   */\n  swap1\n  pop\n    /* \"#utility.yul\":2581:2658   */\n  swap2\n  swap1\n  pop\n  jump\t// out\n    /* \"#utility.yul\":2664:2750   */\ntag_39:\n    /* \"#utility.yul\":2699:2706   */\n  0x00\n    /* \"#utility.yul\":2739:2743   */\n  0xff\n    /* \"#utility.yul\":2732:2737   */\n  dup3\n    /* \"#utility.yul\":2728:2744   */\n  and\n    /* \"#utility.yul\":2717:2744   */\n  swap1\n  pop\n    /* \"#utility.yul\":2664:2750   */\n  swap2\n  swap1\n  pop\n  jump\t// out\n    /* \"#utility.yul\":2756:3076   */\ntag_13:\n    /* \"#utility.yul\":2800:2806   */\n  0x00\n    /* \"#utility.yul\":2837:2838   */\n  0x02\n    /* \"#utility.yul\":2831:2835   */\n  dup3\n    /* \"#utility.yul\":2827:2839   */\n  div\n    /* \"#utility.yul\":2817:2839   */\n  swap1\n  pop\n    /* \"#utility.yul\":2884:2885   */\n  0x01\n    /* \"#utility.yul\":2878:2882   */\n  dup3\n    /* \"#utility.yul\":2874:2886   */\n  and\n    /* \"#utility.yul\":2905:2923   */\n  dup1\n    /* \"#utility.yul\":2895:2976   */\n  tag_66\n  jumpi\n    /* \"#utility.yul\":2961:2965   */\n  0x7f\n    /* \"#utility.yul\":2953:2959   */\n  dup3\n    /* \"#utility.yul\":2949:2966   */\n  and\n    /* \"#utility.yul\":2939:2966   */\n  swap2\n  pop\n    /* \"#utility.yul\":2895:2976   */\ntag_66:\n    /* \"#utility.yul\":3023:3025   */\n  0x20\n    /* \"#utility.yul\":3015:3021   */\n  dup3\n    /* \"#utility.yul\":3012:3026   */\n  lt\n    /* \"#utility.yul\":2992:3010   */\n  dup2\n    /* \"#utility.yul\":2989:3027   */\n  eq\n    /* \"#utility.yul\":2986:3070   */\n  iszero\n  tag_67\n  jumpi\n    /* \"#utility.yul\":3042:3060   */\n  tag_68\n  tag_69\n  jump\t// in\ntag_68:\n    /* \"#utility.yul\":2986:3070   */\ntag_67:\n    /* \"#utility.yul\":2807:3076   */\n  pop\n    /* \"#utility.yul\":2756:3076   */\n  swap2\n  swap1\n  pop\n  jump\t// out\n    /* \"#utility.yul\":3082:3262   */\ntag_31:\n    /* \"#utility.yul\":3130:3207   */\n  0x4e487b7100000000000000000000000000000000000000000000000000000000\n    /* \"#utility.yul\":3127:3128   */\n  0x00\n    /* \"#utility.yul\":3120:3208   */\n  mstore\n    /* \"#utility.yul\":3227:3231   */\n  0x11\n    /* \"#utility.yul\":3224:3225   */\n  0x04\n    /* \"#utility.yul\":3217:3232   */\n  mstore\n    /* \"#utility.yul\":3251:3255   */\n  0x24\n    /* \"#utility.yul\":3248:3249   */\n  0x00\n    /* \"#utility.yul\":3241:3256   */\n  revert\n    /* \"#utility.yul\":3268:3448   */\ntag_69:\n    /* \"#utility.yul\":3316:3393   */\n  0x4e487b7100000000000000000000000000000000000000000000000000000000\n    /* \"#utility.yul\":3313:3314   */\n  0x00\n    /* \"#utility.yul\":3306:3394   */\n  mstore\n    /* \"#utility.yul\":3413:3417   */\n  0x22\n    /* \"#utility.yul\":3410:3411   */\n  0x04\n    /* \"#utility.yul\":3403:3418   */\n  mstore\n    /* \"#utility.yul\":3437:3441   */\n  0x24\n    /* \"#utility.yul\":3434:3435   */\n  0x00\n    /* \"#utility.yul\":3427:3442   */\n  revert\n    /* \"#utility.yul\":3454:3556   */\ntag_34:\n    /* \"#utility.yul\":3496:3504   */\n  0x00\n    /* \"#utility.yul\":3543:3548   */\n  dup2\n    /* \"#utility.yul\":3540:3541   */\n  0x01\n    /* \"#utility.yul\":3536:3549   */\n  shr\n    /* \"#utility.yul\":3515:3549   */\n  swap1\n  pop\n    /* \"#utility.yul\":3454:3556   */\n  swap2\n  swap1\n  pop\n  jump\t// out\n    /* \"learning/tokens/AMDToken.sol\":86:1363  contract AMDToken is IERC20{\r... */\ntag_11:\n  dataSize(sub_0)\n  dup1\n  dataOffset(sub_0)\n  0x00\n  codecopy\n  0x00\n  return\nstop\n\nsub_0: assembly {\n        /* \"learning/tokens/AMDToken.sol\":86:1363  contract AMDToken is IERC20{\r... */\n      mstore(0x40, 0x80)\n      callvalue\n      dup1\n      iszero\n      tag_1\n      jumpi\n      0x00\n      dup1\n      revert\n    tag_1:\n      pop\n      jumpi(tag_2, lt(calldatasize, 0x04))\n      shr(0xe0, calldataload(0x00))\n      dup1\n      0x313ce567\n      gt\n      tag_14\n      jumpi\n      dup1\n      0x313ce567\n      eq\n      tag_8\n      jumpi\n      dup1\n      0x70a08231\n      eq\n      tag_9\n      jumpi\n      dup1\n      0x8da5cb5b\n      eq\n      tag_10\n      jumpi\n      dup1\n      0x95d89b41\n      eq\n      tag_11\n      jumpi\n      dup1\n      0xa9059cbb\n      eq\n      tag_12\n      jumpi\n      dup1\n      0xdd62ed3e\n      eq\n      tag_13\n      jumpi\n      jump(tag_2)\n    tag_14:\n      dup1\n      0x06fdde03\n      eq\n      tag_3\n      jumpi\n      dup1\n      0x07546172\n      eq\n      tag_4\n      jumpi\n      dup1\n      0x095ea7b3\n      eq\n      tag_5\n      jumpi\n      dup1\n      0x18160ddd\n      eq\n      tag_6\n      jumpi\n      dup1\n      0x23b872dd\n      eq\n      tag_7\n      jumpi\n    tag_2:\n      0x00\n      dup1\n      revert\n        /* \"learning/tokens/AMDToken.sol\":122:149  string override public name */\n    tag_3:\n      tag_15\n      tag_16\n      jump\t// in\n    tag_15:\n      mload(0x40)\n      tag_17\n      swap2\n      swap1\n      tag_18\n      jump\t// in\n    tag_17:\n      mload(0x40)\n      dup1\n      swap2\n      sub\n      swap1\n      return\n        /* \"learning/tokens/AMDToken.sol\":356:377  address public minter */\n    tag_4:\n      tag_19\n      tag_20\n      jump\t// in\n    tag_19:\n      mload(0x40)\n      tag_21\n      swap2\n      swap1\n      tag_22\n      jump\t// in\n    tag_21:\n      mload(0x40)\n      dup1\n      swap2\n      sub\n      swap1\n      return\n        /* \"learning/tokens/AMDToken.sol\":1101:1222  function approve(address _spender, uint256 _value) override external returns (bool success){\r... */\n    tag_5:\n      tag_23\n      0x04\n      dup1\n      calldatasize\n      sub\n      dup2\n      add\n      swap1\n      tag_24\n      swap2\n      swap1\n      tag_25\n      jump\t// in\n    tag_24:\n      tag_26\n      jump\t// in\n    tag_23:\n      mload(0x40)\n      tag_27\n      swap2\n      swap1\n      tag_28\n      jump\t// in\n    tag_27:\n      mload(0x40)\n      dup1\n      swap2\n      sub\n      swap1\n      return\n        /* \"learning/tokens/AMDToken.sol\":229:264  uint256 override public totalSupply */\n    tag_6:\n      tag_29\n      tag_30\n      jump\t// in\n    tag_29:\n      mload(0x40)\n      tag_31\n      swap2\n      swap1\n      tag_32\n      jump\t// in\n    tag_31:\n      mload(0x40)\n      dup1\n      swap2\n      sub\n      swap1\n      return\n        /* \"learning/tokens/AMDToken.sol\":745:964  function transferFrom(address _from, address _to, uint256 _value) override external  returns (bool success){\r... */\n    tag_7:\n      tag_33\n      0x04\n      dup1\n      calldatasize\n      sub\n      dup2\n      add\n      swap1\n      tag_34\n      swap2\n      swap1\n      tag_35\n      jump\t// in\n    tag_34:\n      tag_36\n      jump\t// in\n    tag_33:\n      mload(0x40)\n      tag_37\n      swap2\n      swap1\n      tag_28\n      jump\t// in\n    tag_37:\n      mload(0x40)\n      dup1\n      swap2\n      sub\n      swap1\n      return\n        /* \"learning/tokens/AMDToken.sol\":192:222  uint8 override public decimals */\n    tag_8:\n      tag_38\n      tag_39\n      jump\t// in\n    tag_38:\n      mload(0x40)\n      tag_40\n      swap2\n      swap1\n      tag_41\n      jump\t// in\n    tag_40:\n      mload(0x40)\n      dup1\n      swap2\n      sub\n      swap1\n      return\n        /* \"learning/tokens/AMDToken.sol\":271:322  mapping(address=>uint256) override public balanceOf */\n    tag_9:\n      tag_42\n      0x04\n      dup1\n      calldatasize\n      sub\n      dup2\n      add\n      swap1\n      tag_43\n      swap2\n      swap1\n      tag_44\n      jump\t// in\n    tag_43:\n      tag_45\n      jump\t// in\n    tag_42:\n      mload(0x40)\n      tag_46\n      swap2\n      swap1\n      tag_32\n      jump\t// in\n    tag_46:\n      mload(0x40)\n      dup1\n      swap2\n      sub\n      swap1\n      return\n        /* \"learning/tokens/AMDToken.sol\":329:349  address public owner */\n    tag_10:\n      tag_47\n      tag_48\n      jump\t// in\n    tag_47:\n      mload(0x40)\n      tag_49\n      swap2\n      swap1\n      tag_22\n      jump\t// in\n    tag_49:\n      mload(0x40)\n      dup1\n      swap2\n      sub\n      swap1\n      return\n        /* \"learning/tokens/AMDToken.sol\":156:185  string override public symbol */\n    tag_11:\n      tag_50\n      tag_51\n      jump\t// in\n    tag_50:\n      mload(0x40)\n      tag_52\n      swap2\n      swap1\n      tag_18\n      jump\t// in\n    tag_52:\n      mload(0x40)\n      dup1\n      swap2\n      sub\n      swap1\n      return\n        /* \"learning/tokens/AMDToken.sol\":972:1089  function transfer(address _to, uint256 _value) override external returns (bool success){\r... */\n    tag_12:\n      tag_53\n      0x04\n      dup1\n      calldatasize\n      sub\n      dup2\n      add\n      swap1\n      tag_54\n      swap2\n      swap1\n      tag_25\n      jump\t// in\n    tag_54:\n      tag_55\n      jump\t// in\n    tag_53:\n      mload(0x40)\n      tag_56\n      swap2\n      swap1\n      tag_28\n      jump\t// in\n    tag_56:\n      mload(0x40)\n      dup1\n      swap2\n      sub\n      swap1\n      return\n        /* \"learning/tokens/AMDToken.sol\":1228:1358  function allowance(address _owner, address _spender) override external view returns (uint256 remaining){\r... */\n    tag_13:\n      tag_57\n      0x04\n      dup1\n      calldatasize\n      sub\n      dup2\n      add\n      swap1\n      tag_58\n      swap2\n      swap1\n      tag_59\n      jump\t// in\n    tag_58:\n      tag_60\n      jump\t// in\n    tag_57:\n      mload(0x40)\n      tag_61\n      swap2\n      swap1\n      tag_32\n      jump\t// in\n    tag_61:\n      mload(0x40)\n      dup1\n      swap2\n      sub\n      swap1\n      return\n        /* \"learning/tokens/AMDToken.sol\":122:149  string override public name */\n    tag_16:\n      0x00\n      dup1\n      sload\n      tag_62\n      swap1\n      tag_63\n      jump\t// in\n    tag_62:\n      dup1\n      0x1f\n      add\n      0x20\n      dup1\n      swap2\n      div\n      mul\n      0x20\n      add\n      mload(0x40)\n      swap1\n      dup2\n      add\n      0x40\n      mstore\n      dup1\n      swap3\n      swap2\n      swap1\n      dup2\n      dup2\n      mstore\n      0x20\n      add\n      dup3\n      dup1\n      sload\n      tag_64\n      swap1\n      tag_63\n      jump\t// in\n    tag_64:\n      dup1\n      iszero\n      tag_65\n      jumpi\n      dup1\n      0x1f\n      lt\n      tag_66\n      jumpi\n      0x0100\n      dup1\n      dup4\n      sload\n      div\n      mul\n      dup4\n      mstore\n      swap2\n      0x20\n      add\n      swap2\n      jump(tag_65)\n    tag_66:\n      dup3\n      add\n      swap2\n      swap1\n      0x00\n      mstore\n      keccak256(0x00, 0x20)\n      swap1\n    tag_67:\n      dup2\n      sload\n      dup2\n      mstore\n      swap1\n      0x01\n      add\n      swap1\n      0x20\n      add\n      dup1\n      dup4\n      gt\n      tag_67\n      jumpi\n      dup3\n      swap1\n      sub\n      0x1f\n      and\n      dup3\n      add\n      swap2\n    tag_65:\n      pop\n      pop\n      pop\n      pop\n      pop\n      dup2\n      jump\t// out\n        /* \"learning/tokens/AMDToken.sol\":356:377  address public minter */\n    tag_20:\n      0x06\n      0x00\n      swap1\n      sload\n      swap1\n      0x0100\n      exp\n      swap1\n      div\n      0xffffffffffffffffffffffffffffffffffffffff\n      and\n      dup2\n      jump\t// out\n        /* \"learning/tokens/AMDToken.sol\":1101:1222  function approve(address _spender, uint256 _value) override external returns (bool success){\r... */\n    tag_26:\n        /* \"learning/tokens/AMDToken.sol\":1179:1191  bool success */\n      0x00\n        /* \"learning/tokens/AMDToken.sol\":1210:1214  true */\n      0x01\n        /* \"learning/tokens/AMDToken.sol\":1203:1214  return true */\n      swap1\n      pop\n        /* \"learning/tokens/AMDToken.sol\":1101:1222  function approve(address _spender, uint256 _value) override external returns (bool success){\r... */\n      swap3\n      swap2\n      pop\n      pop\n      jump\t// out\n        /* \"learning/tokens/AMDToken.sol\":229:264  uint256 override public totalSupply */\n    tag_30:\n      sload(0x03)\n      dup2\n      jump\t// out\n        /* \"learning/tokens/AMDToken.sol\":745:964  function transferFrom(address _from, address _to, uint256 _value) override external  returns (bool success){\r... */\n    tag_36:\n        /* \"learning/tokens/AMDToken.sol\":839:851  bool success */\n      0x00\n        /* \"learning/tokens/AMDToken.sol\":889:895  _value */\n      dup2\n        /* \"learning/tokens/AMDToken.sol\":871:880  balanceOf */\n      0x04\n        /* \"learning/tokens/AMDToken.sol\":871:887  balanceOf[_from] */\n      0x00\n        /* \"learning/tokens/AMDToken.sol\":881:886  _from */\n      dup7\n        /* \"learning/tokens/AMDToken.sol\":871:887  balanceOf[_from] */\n      0xffffffffffffffffffffffffffffffffffffffff\n      and\n      0xffffffffffffffffffffffffffffffffffffffff\n      and\n      dup2\n      mstore\n      0x20\n      add\n      swap1\n      dup2\n      mstore\n      0x20\n      add\n      0x00\n      keccak256\n      sload\n        /* \"learning/tokens/AMDToken.sol\":871:895  balanceOf[_from]>=_value */\n      lt\n      iszero\n        /* \"learning/tokens/AMDToken.sol\":863:930  require(balanceOf[_from]>=_value,\"sender dont have enough balance\") */\n      tag_70\n      jumpi\n      mload(0x40)\n      0x08c379a000000000000000000000000000000000000000000000000000000000\n      dup2\n      mstore\n      0x04\n      add\n      tag_71\n      swap1\n      tag_72\n      jump\t// in\n    tag_71:\n      mload(0x40)\n      dup1\n      swap2\n      sub\n      swap1\n      revert\n    tag_70:\n        /* \"learning/tokens/AMDToken.sol\":952:956  true */\n      0x01\n        /* \"learning/tokens/AMDToken.sol\":945:956  return true */\n      swap1\n      pop\n        /* \"learning/tokens/AMDToken.sol\":745:964  function transferFrom(address _from, address _to, uint256 _value) override external  returns (bool success){\r... */\n      swap4\n      swap3\n      pop\n      pop\n      pop\n      jump\t// out\n        /* \"learning/tokens/AMDToken.sol\":192:222  uint8 override public decimals */\n    tag_39:\n      0x02\n      0x00\n      swap1\n      sload\n      swap1\n      0x0100\n      exp\n      swap1\n      div\n      0xff\n      and\n      dup2\n      jump\t// out\n        /* \"learning/tokens/AMDToken.sol\":271:322  mapping(address=>uint256) override public balanceOf */\n    tag_45:\n      mstore(0x20, 0x04)\n      dup1\n      0x00\n      mstore\n      keccak256(0x00, 0x40)\n      0x00\n      swap2\n      pop\n      swap1\n      pop\n      sload\n      dup2\n      jump\t// out\n        /* \"learning/tokens/AMDToken.sol\":329:349  address public owner */\n    tag_48:\n      0x05\n      0x00\n      swap1\n      sload\n      swap1\n      0x0100\n      exp\n      swap1\n      div\n      0xffffffffffffffffffffffffffffffffffffffff\n      and\n      dup2\n      jump\t// out\n        /* \"learning/tokens/AMDToken.sol\":156:185  string override public symbol */\n    tag_51:\n      0x01\n      dup1\n      sload\n      tag_73\n      swap1\n      tag_63\n      jump\t// in\n    tag_73:\n      dup1\n      0x1f\n      add\n      0x20\n      dup1\n      swap2\n      div\n      mul\n      0x20\n      add\n      mload(0x40)\n      swap1\n      dup2\n      add\n      0x40\n      mstore\n      dup1\n      swap3\n      swap2\n      swap1\n      dup2\n      dup2\n      mstore\n      0x20\n      add\n      dup3\n      dup1\n      sload\n      tag_74\n      swap1\n      tag_63\n      jump\t// in\n    tag_74:\n      dup1\n      iszero\n      tag_75\n      jumpi\n      dup1\n      0x1f\n      lt\n      tag_76\n      jumpi\n      0x0100\n      dup1\n      dup4\n      sload\n      div\n      mul\n      dup4\n      mstore\n      swap2\n      0x20\n      add\n      swap2\n      jump(tag_75)\n    tag_76:\n      dup3\n      add\n      swap2\n      swap1\n      0x00\n      mstore\n      keccak256(0x00, 0x20)\n      swap1\n    tag_77:\n      dup2\n      sload\n      dup2\n      mstore\n      swap1\n      0x01\n      add\n      swap1\n      0x20\n      add\n      dup1\n      dup4\n      gt\n      tag_77\n      jumpi\n      dup3\n      swap1\n      sub\n      0x1f\n      and\n      dup3\n      add\n      swap2\n    tag_75:\n      pop\n      pop\n      pop\n      pop\n      pop\n      dup2\n      jump\t// out\n        /* \"learning/tokens/AMDToken.sol\":972:1089  function transfer(address _to, uint256 _value) override external returns (bool success){\r... */\n    tag_55:\n        /* \"learning/tokens/AMDToken.sol\":1046:1058  bool success */\n      0x00\n        /* \"learning/tokens/AMDToken.sol\":1077:1081  true */\n      0x01\n        /* \"learning/tokens/AMDToken.sol\":1070:1081  return true */\n      swap1\n      pop\n        /* \"learning/tokens/AMDToken.sol\":972:1089  function transfer(address _to, uint256 _value) override external returns (bool success){\r... */\n      swap3\n      swap2\n      pop\n      pop\n      jump\t// out\n        /* \"learning/tokens/AMDToken.sol\":1228:1358  function allowance(address _owner, address _spender) override external view returns (uint256 remaining){\r... */\n    tag_60:\n        /* \"learning/tokens/AMDToken.sol\":1313:1330  uint256 remaining */\n      0x00\n        /* \"learning/tokens/AMDToken.sol\":1349:1350  2 */\n      0x02\n        /* \"learning/tokens/AMDToken.sol\":1342:1350  return 2 */\n      swap1\n      pop\n        /* \"learning/tokens/AMDToken.sol\":1228:1358  function allowance(address _owner, address _spender) override external view returns (uint256 remaining){\r... */\n      swap3\n      swap2\n      pop\n      pop\n      jump\t// out\n        /* \"#utility.yul\":7:146   */\n    tag_81:\n        /* \"#utility.yul\":53:58   */\n      0x00\n        /* \"#utility.yul\":91:97   */\n      dup2\n        /* \"#utility.yul\":78:98   */\n      calldataload\n        /* \"#utility.yul\":69:98   */\n      swap1\n      pop\n        /* \"#utility.yul\":107:140   */\n      tag_83\n        /* \"#utility.yul\":134:139   */\n      dup2\n        /* \"#utility.yul\":107:140   */\n      tag_84\n      jump\t// in\n    tag_83:\n        /* \"#utility.yul\":7:146   */\n      swap3\n      swap2\n      pop\n      pop\n      jump\t// out\n        /* \"#utility.yul\":152:291   */\n    tag_85:\n        /* \"#utility.yul\":198:203   */\n      0x00\n        /* \"#utility.yul\":236:242   */\n      dup2\n        /* \"#utility.yul\":223:243   */\n      calldataload\n        /* \"#utility.yul\":214:243   */\n      swap1\n      pop\n        /* \"#utility.yul\":252:285   */\n      tag_87\n        /* \"#utility.yul\":279:284   */\n      dup2\n        /* \"#utility.yul\":252:285   */\n      tag_88\n      jump\t// in\n    tag_87:\n        /* \"#utility.yul\":152:291   */\n      swap3\n      swap2\n      pop\n      pop\n      jump\t// out\n        /* \"#utility.yul\":297:626   */\n    tag_44:\n        /* \"#utility.yul\":356:362   */\n      0x00\n        /* \"#utility.yul\":405:407   */\n      0x20\n        /* \"#utility.yul\":393:402   */\n      dup3\n        /* \"#utility.yul\":384:391   */\n      dup5\n        /* \"#utility.yul\":380:403   */\n      sub\n        /* \"#utility.yul\":376:408   */\n      slt\n        /* \"#utility.yul\":373:492   */\n      iszero\n      tag_90\n      jumpi\n        /* \"#utility.yul\":411:490   */\n      tag_91\n      tag_92\n      jump\t// in\n    tag_91:\n        /* \"#utility.yul\":373:492   */\n    tag_90:\n        /* \"#utility.yul\":531:532   */\n      0x00\n        /* \"#utility.yul\":556:609   */\n      tag_93\n        /* \"#utility.yul\":601:608   */\n      dup5\n        /* \"#utility.yul\":592:598   */\n      dup3\n        /* \"#utility.yul\":581:590   */\n      dup6\n        /* \"#utility.yul\":577:599   */\n      add\n        /* \"#utility.yul\":556:609   */\n      tag_81\n      jump\t// in\n    tag_93:\n        /* \"#utility.yul\":546:609   */\n      swap2\n      pop\n        /* \"#utility.yul\":502:619   */\n      pop\n        /* \"#utility.yul\":297:626   */\n      swap3\n      swap2\n      pop\n      pop\n      jump\t// out\n        /* \"#utility.yul\":632:1106   */\n    tag_59:\n        /* \"#utility.yul\":700:706   */\n      0x00\n        /* \"#utility.yul\":708:714   */\n      dup1\n        /* \"#utility.yul\":757:759   */\n      0x40\n        /* \"#utility.yul\":745:754   */\n      dup4\n        /* \"#utility.yul\":736:743   */\n      dup6\n        /* \"#utility.yul\":732:755   */\n      sub\n        /* \"#utility.yul\":728:760   */\n      slt\n        /* \"#utility.yul\":725:844   */\n      iszero\n      tag_95\n      jumpi\n        /* \"#utility.yul\":763:842   */\n      tag_96\n      tag_92\n      jump\t// in\n    tag_96:\n        /* \"#utility.yul\":725:844   */\n    tag_95:\n        /* \"#utility.yul\":883:884   */\n      0x00\n        /* \"#utility.yul\":908:961   */\n      tag_97\n        /* \"#utility.yul\":953:960   */\n      dup6\n        /* \"#utility.yul\":944:950   */\n      dup3\n        /* \"#utility.yul\":933:942   */\n      dup7\n        /* \"#utility.yul\":929:951   */\n      add\n        /* \"#utility.yul\":908:961   */\n      tag_81\n      jump\t// in\n    tag_97:\n        /* \"#utility.yul\":898:961   */\n      swap3\n      pop\n        /* \"#utility.yul\":854:971   */\n      pop\n        /* \"#utility.yul\":1010:1012   */\n      0x20\n        /* \"#utility.yul\":1036:1089   */\n      tag_98\n        /* \"#utility.yul\":1081:1088   */\n      dup6\n        /* \"#utility.yul\":1072:1078   */\n      dup3\n        /* \"#utility.yul\":1061:1070   */\n      dup7\n        /* \"#utility.yul\":1057:1079   */\n      add\n        /* \"#utility.yul\":1036:1089   */\n      tag_81\n      jump\t// in\n    tag_98:\n        /* \"#utility.yul\":1026:1089   */\n      swap2\n      pop\n        /* \"#utility.yul\":981:1099   */\n      pop\n        /* \"#utility.yul\":632:1106   */\n      swap3\n      pop\n      swap3\n      swap1\n      pop\n      jump\t// out\n        /* \"#utility.yul\":1112:1731   */\n    tag_35:\n        /* \"#utility.yul\":1189:1195   */\n      0x00\n        /* \"#utility.yul\":1197:1203   */\n      dup1\n        /* \"#utility.yul\":1205:1211   */\n      0x00\n        /* \"#utility.yul\":1254:1256   */\n      0x60\n        /* \"#utility.yul\":1242:1251   */\n      dup5\n        /* \"#utility.yul\":1233:1240   */\n      dup7\n        /* \"#utility.yul\":1229:1252   */\n      sub\n        /* \"#utility.yul\":1225:1257   */\n      slt\n        /* \"#utility.yul\":1222:1341   */\n      iszero\n      tag_100\n      jumpi\n        /* \"#utility.yul\":1260:1339   */\n      tag_101\n      tag_92\n      jump\t// in\n    tag_101:\n        /* \"#utility.yul\":1222:1341   */\n    tag_100:\n        /* \"#utility.yul\":1380:1381   */\n      0x00\n        /* \"#utility.yul\":1405:1458   */\n      tag_102\n        /* \"#utility.yul\":1450:1457   */\n      dup7\n        /* \"#utility.yul\":1441:1447   */\n      dup3\n        /* \"#utility.yul\":1430:1439   */\n      dup8\n        /* \"#utility.yul\":1426:1448   */\n      add\n        /* \"#utility.yul\":1405:1458   */\n      tag_81\n      jump\t// in\n    tag_102:\n        /* \"#utility.yul\":1395:1458   */\n      swap4\n      pop\n        /* \"#utility.yul\":1351:1468   */\n      pop\n        /* \"#utility.yul\":1507:1509   */\n      0x20\n        /* \"#utility.yul\":1533:1586   */\n      tag_103\n        /* \"#utility.yul\":1578:1585   */\n      dup7\n        /* \"#utility.yul\":1569:1575   */\n      dup3\n        /* \"#utility.yul\":1558:1567   */\n      dup8\n        /* \"#utility.yul\":1554:1576   */\n      add\n        /* \"#utility.yul\":1533:1586   */\n      tag_81\n      jump\t// in\n    tag_103:\n        /* \"#utility.yul\":1523:1586   */\n      swap3\n      pop\n        /* \"#utility.yul\":1478:1596   */\n      pop\n        /* \"#utility.yul\":1635:1637   */\n      0x40\n        /* \"#utility.yul\":1661:1714   */\n      tag_104\n        /* \"#utility.yul\":1706:1713   */\n      dup7\n        /* \"#utility.yul\":1697:1703   */\n      dup3\n        /* \"#utility.yul\":1686:1695   */\n      dup8\n        /* \"#utility.yul\":1682:1704   */\n      add\n        /* \"#utility.yul\":1661:1714   */\n      tag_85\n      jump\t// in\n    tag_104:\n        /* \"#utility.yul\":1651:1714   */\n      swap2\n      pop\n        /* \"#utility.yul\":1606:1724   */\n      pop\n        /* \"#utility.yul\":1112:1731   */\n      swap3\n      pop\n      swap3\n      pop\n      swap3\n      jump\t// out\n        /* \"#utility.yul\":1737:2211   */\n    tag_25:\n        /* \"#utility.yul\":1805:1811   */\n      0x00\n        /* \"#utility.yul\":1813:1819   */\n      dup1\n        /* \"#utility.yul\":1862:1864   */\n      0x40\n        /* \"#utility.yul\":1850:1859   */\n      dup4\n        /* \"#utility.yul\":1841:1848   */\n      dup6\n        /* \"#utility.yul\":1837:1860   */\n      sub\n        /* \"#utility.yul\":1833:1865   */\n      slt\n        /* \"#utility.yul\":1830:1949   */\n      iszero\n      tag_106\n      jumpi\n        /* \"#utility.yul\":1868:1947   */\n      tag_107\n      tag_92\n      jump\t// in\n    tag_107:\n        /* \"#utility.yul\":1830:1949   */\n    tag_106:\n        /* \"#utility.yul\":1988:1989   */\n      0x00\n        /* \"#utility.yul\":2013:2066   */\n      tag_108\n        /* \"#utility.yul\":2058:2065   */\n      dup6\n        /* \"#utility.yul\":2049:2055   */\n      dup3\n        /* \"#utility.yul\":2038:2047   */\n      dup7\n        /* \"#utility.yul\":2034:2056   */\n      add\n        /* \"#utility.yul\":2013:2066   */\n      tag_81\n      jump\t// in\n    tag_108:\n        /* \"#utility.yul\":2003:2066   */\n      swap3\n      pop\n        /* \"#utility.yul\":1959:2076   */\n      pop\n        /* \"#utility.yul\":2115:2117   */\n      0x20\n        /* \"#utility.yul\":2141:2194   */\n      tag_109\n        /* \"#utility.yul\":2186:2193   */\n      dup6\n        /* \"#utility.yul\":2177:2183   */\n      dup3\n        /* \"#utility.yul\":2166:2175   */\n      dup7\n        /* \"#utility.yul\":2162:2184   */\n      add\n        /* \"#utility.yul\":2141:2194   */\n      tag_85\n      jump\t// in\n    tag_109:\n        /* \"#utility.yul\":2131:2194   */\n      swap2\n      pop\n        /* \"#utility.yul\":2086:2204   */\n      pop\n        /* \"#utility.yul\":1737:2211   */\n      swap3\n      pop\n      swap3\n      swap1\n      pop\n      jump\t// out\n        /* \"#utility.yul\":2217:2335   */\n    tag_110:\n        /* \"#utility.yul\":2304:2328   */\n      tag_112\n        /* \"#utility.yul\":2322:2327   */\n      dup2\n        /* \"#utility.yul\":2304:2328   */\n      tag_113\n      jump\t// in\n    tag_112:\n        /* \"#utility.yul\":2299:2302   */\n      dup3\n        /* \"#utility.yul\":2292:2329   */\n      mstore\n        /* \"#utility.yul\":2217:2335   */\n      pop\n      pop\n      jump\t// out\n        /* \"#utility.yul\":2341:2450   */\n    tag_114:\n        /* \"#utility.yul\":2422:2443   */\n      tag_116\n        /* \"#utility.yul\":2437:2442   */\n      dup2\n        /* \"#utility.yul\":2422:2443   */\n      tag_117\n      jump\t// in\n    tag_116:\n        /* \"#utility.yul\":2417:2420   */\n      dup3\n        /* \"#utility.yul\":2410:2444   */\n      mstore\n        /* \"#utility.yul\":2341:2450   */\n      pop\n      pop\n      jump\t// out\n        /* \"#utility.yul\":2456:2820   */\n    tag_118:\n        /* \"#utility.yul\":2544:2547   */\n      0x00\n        /* \"#utility.yul\":2572:2611   */\n      tag_120\n        /* \"#utility.yul\":2605:2610   */\n      dup3\n        /* \"#utility.yul\":2572:2611   */\n      tag_121\n      jump\t// in\n    tag_120:\n        /* \"#utility.yul\":2627:2698   */\n      tag_122\n        /* \"#utility.yul\":2691:2697   */\n      dup2\n        /* \"#utility.yul\":2686:2689   */\n      dup6\n        /* \"#utility.yul\":2627:2698   */\n      tag_123\n      jump\t// in\n    tag_122:\n        /* \"#utility.yul\":2620:2698   */\n      swap4\n      pop\n        /* \"#utility.yul\":2707:2759   */\n      tag_124\n        /* \"#utility.yul\":2752:2758   */\n      dup2\n        /* \"#utility.yul\":2747:2750   */\n      dup6\n        /* \"#utility.yul\":2740:2744   */\n      0x20\n        /* \"#utility.yul\":2733:2738   */\n      dup7\n        /* \"#utility.yul\":2729:2745   */\n      add\n        /* \"#utility.yul\":2707:2759   */\n      tag_125\n      jump\t// in\n    tag_124:\n        /* \"#utility.yul\":2784:2813   */\n      tag_126\n        /* \"#utility.yul\":2806:2812   */\n      dup2\n        /* \"#utility.yul\":2784:2813   */\n      tag_127\n      jump\t// in\n    tag_126:\n        /* \"#utility.yul\":2779:2782   */\n      dup5\n        /* \"#utility.yul\":2775:2814   */\n      add\n        /* \"#utility.yul\":2768:2814   */\n      swap2\n      pop\n        /* \"#utility.yul\":2548:2820   */\n      pop\n        /* \"#utility.yul\":2456:2820   */\n      swap3\n      swap2\n      pop\n      pop\n      jump\t// out\n        /* \"#utility.yul\":2826:3192   */\n    tag_128:\n        /* \"#utility.yul\":2968:2971   */\n      0x00\n        /* \"#utility.yul\":2989:3056   */\n      tag_130\n        /* \"#utility.yul\":3053:3055   */\n      0x1f\n        /* \"#utility.yul\":3048:3051   */\n      dup4\n        /* \"#utility.yul\":2989:3056   */\n      tag_123\n      jump\t// in\n    tag_130:\n        /* \"#utility.yul\":2982:3056   */\n      swap2\n      pop\n        /* \"#utility.yul\":3065:3158   */\n      tag_131\n        /* \"#utility.yul\":3154:3157   */\n      dup3\n        /* \"#utility.yul\":3065:3158   */\n      tag_132\n      jump\t// in\n    tag_131:\n        /* \"#utility.yul\":3183:3185   */\n      0x20\n        /* \"#utility.yul\":3178:3181   */\n      dup3\n        /* \"#utility.yul\":3174:3186   */\n      add\n        /* \"#utility.yul\":3167:3186   */\n      swap1\n      pop\n        /* \"#utility.yul\":2826:3192   */\n      swap2\n      swap1\n      pop\n      jump\t// out\n        /* \"#utility.yul\":3198:3316   */\n    tag_133:\n        /* \"#utility.yul\":3285:3309   */\n      tag_135\n        /* \"#utility.yul\":3303:3308   */\n      dup2\n        /* \"#utility.yul\":3285:3309   */\n      tag_136\n      jump\t// in\n    tag_135:\n        /* \"#utility.yul\":3280:3283   */\n      dup3\n        /* \"#utility.yul\":3273:3310   */\n      mstore\n        /* \"#utility.yul\":3198:3316   */\n      pop\n      pop\n      jump\t// out\n        /* \"#utility.yul\":3322:3434   */\n    tag_137:\n        /* \"#utility.yul\":3405:3427   */\n      tag_139\n        /* \"#utility.yul\":3421:3426   */\n      dup2\n        /* \"#utility.yul\":3405:3427   */\n      tag_140\n      jump\t// in\n    tag_139:\n        /* \"#utility.yul\":3400:3403   */\n      dup3\n        /* \"#utility.yul\":3393:3428   */\n      mstore\n        /* \"#utility.yul\":3322:3434   */\n      pop\n      pop\n      jump\t// out\n        /* \"#utility.yul\":3440:3662   */\n    tag_22:\n        /* \"#utility.yul\":3533:3537   */\n      0x00\n        /* \"#utility.yul\":3571:3573   */\n      0x20\n        /* \"#utility.yul\":3560:3569   */\n      dup3\n        /* \"#utility.yul\":3556:3574   */\n      add\n        /* \"#utility.yul\":3548:3574   */\n      swap1\n      pop\n        /* \"#utility.yul\":3584:3655   */\n      tag_142\n        /* \"#utility.yul\":3652:3653   */\n      0x00\n        /* \"#utility.yul\":3641:3650   */\n      dup4\n        /* \"#utility.yul\":3637:3654   */\n      add\n        /* \"#utility.yul\":3628:3634   */\n      dup5\n        /* \"#utility.yul\":3584:3655   */\n      tag_110\n      jump\t// in\n    tag_142:\n        /* \"#utility.yul\":3440:3662   */\n      swap3\n      swap2\n      pop\n      pop\n      jump\t// out\n        /* \"#utility.yul\":3668:3878   */\n    tag_28:\n        /* \"#utility.yul\":3755:3759   */\n      0x00\n        /* \"#utility.yul\":3793:3795   */\n      0x20\n        /* \"#utility.yul\":3782:3791   */\n      dup3\n        /* \"#utility.yul\":3778:3796   */\n      add\n        /* \"#utility.yul\":3770:3796   */\n      swap1\n      pop\n        /* \"#utility.yul\":3806:3871   */\n      tag_144\n        /* \"#utility.yul\":3868:3869   */\n      0x00\n        /* \"#utility.yul\":3857:3866   */\n      dup4\n        /* \"#utility.yul\":3853:3870   */\n      add\n        /* \"#utility.yul\":3844:3850   */\n      dup5\n        /* \"#utility.yul\":3806:3871   */\n      tag_114\n      jump\t// in\n    tag_144:\n        /* \"#utility.yul\":3668:3878   */\n      swap3\n      swap2\n      pop\n      pop\n      jump\t// out\n        /* \"#utility.yul\":3884:4197   */\n    tag_18:\n        /* \"#utility.yul\":3997:4001   */\n      0x00\n        /* \"#utility.yul\":4035:4037   */\n      0x20\n        /* \"#utility.yul\":4024:4033   */\n      dup3\n        /* \"#utility.yul\":4020:4038   */\n      add\n        /* \"#utility.yul\":4012:4038   */\n      swap1\n      pop\n        /* \"#utility.yul\":4084:4093   */\n      dup2\n        /* \"#utility.yul\":4078:4082   */\n      dup2\n        /* \"#utility.yul\":4074:4094   */\n      sub\n        /* \"#utility.yul\":4070:4071   */\n      0x00\n        /* \"#utility.yul\":4059:4068   */\n      dup4\n        /* \"#utility.yul\":4055:4072   */\n      add\n        /* \"#utility.yul\":4048:4095   */\n      mstore\n        /* \"#utility.yul\":4112:4190   */\n      tag_146\n        /* \"#utility.yul\":4185:4189   */\n      dup2\n        /* \"#utility.yul\":4176:4182   */\n      dup5\n        /* \"#utility.yul\":4112:4190   */\n      tag_118\n      jump\t// in\n    tag_146:\n        /* \"#utility.yul\":4104:4190   */\n      swap1\n      pop\n        /* \"#utility.yul\":3884:4197   */\n      swap3\n      swap2\n      pop\n      pop\n      jump\t// out\n        /* \"#utility.yul\":4203:4622   */\n    tag_72:\n        /* \"#utility.yul\":4369:4373   */\n      0x00\n        /* \"#utility.yul\":4407:4409   */\n      0x20\n        /* \"#utility.yul\":4396:4405   */\n      dup3\n        /* \"#utility.yul\":4392:4410   */\n      add\n        /* \"#utility.yul\":4384:4410   */\n      swap1\n      pop\n        /* \"#utility.yul\":4456:4465   */\n      dup2\n        /* \"#utility.yul\":4450:4454   */\n      dup2\n        /* \"#utility.yul\":4446:4466   */\n      sub\n        /* \"#utility.yul\":4442:4443   */\n      0x00\n        /* \"#utility.yul\":4431:4440   */\n      dup4\n        /* \"#utility.yul\":4427:4444   */\n      add\n        /* \"#utility.yul\":4420:4467   */\n      mstore\n        /* \"#utility.yul\":4484:4615   */\n      tag_148\n        /* \"#utility.yul\":4610:4614   */\n      dup2\n        /* \"#utility.yul\":4484:4615   */\n      tag_128\n      jump\t// in\n    tag_148:\n        /* \"#utility.yul\":4476:4615   */\n      swap1\n      pop\n        /* \"#utility.yul\":4203:4622   */\n      swap2\n      swap1\n      pop\n      jump\t// out\n        /* \"#utility.yul\":4628:4850   */\n    tag_32:\n        /* \"#utility.yul\":4721:4725   */\n      0x00\n        /* \"#utility.yul\":4759:4761   */\n      0x20\n        /* \"#utility.yul\":4748:4757   */\n      dup3\n        /* \"#utility.yul\":4744:4762   */\n      add\n        /* \"#utility.yul\":4736:4762   */\n      swap1\n      pop\n        /* \"#utility.yul\":4772:4843   */\n      tag_150\n        /* \"#utility.yul\":4840:4841   */\n      0x00\n        /* \"#utility.yul\":4829:4838   */\n      dup4\n        /* \"#utility.yul\":4825:4842   */\n      add\n        /* \"#utility.yul\":4816:4822   */\n      dup5\n        /* \"#utility.yul\":4772:4843   */\n      tag_133\n      jump\t// in\n    tag_150:\n        /* \"#utility.yul\":4628:4850   */\n      swap3\n      swap2\n      pop\n      pop\n      jump\t// out\n        /* \"#utility.yul\":4856:5070   */\n    tag_41:\n        /* \"#utility.yul\":4945:4949   */\n      0x00\n        /* \"#utility.yul\":4983:4985   */\n      0x20\n        /* \"#utility.yul\":4972:4981   */\n      dup3\n        /* \"#utility.yul\":4968:4986   */\n      add\n        /* \"#utility.yul\":4960:4986   */\n      swap1\n      pop\n        /* \"#utility.yul\":4996:5063   */\n      tag_152\n        /* \"#utility.yul\":5060:5061   */\n      0x00\n        /* \"#utility.yul\":5049:5058   */\n      dup4\n        /* \"#utility.yul\":5045:5062   */\n      add\n        /* \"#utility.yul\":5036:5042   */\n      dup5\n        /* \"#utility.yul\":4996:5063   */\n      tag_137\n      jump\t// in\n    tag_152:\n        /* \"#utility.yul\":4856:5070   */\n      swap3\n      swap2\n      pop\n      pop\n      jump\t// out\n        /* \"#utility.yul\":5157:5256   */\n    tag_121:\n        /* \"#utility.yul\":5209:5215   */\n      0x00\n        /* \"#utility.yul\":5243:5248   */\n      dup2\n        /* \"#utility.yul\":5237:5249   */\n      mload\n        /* \"#utility.yul\":5227:5249   */\n      swap1\n      pop\n        /* \"#utility.yul\":5157:5256   */\n      swap2\n      swap1\n      pop\n      jump\t// out\n        /* \"#utility.yul\":5262:5431   */\n    tag_123:\n        /* \"#utility.yul\":5346:5357   */\n      0x00\n        /* \"#utility.yul\":5380:5386   */\n      dup3\n        /* \"#utility.yul\":5375:5378   */\n      dup3\n        /* \"#utility.yul\":5368:5387   */\n      mstore\n        /* \"#utility.yul\":5420:5424   */\n      0x20\n        /* \"#utility.yul\":5415:5418   */\n      dup3\n        /* \"#utility.yul\":5411:5425   */\n      add\n        /* \"#utility.yul\":5396:5425   */\n      swap1\n      pop\n        /* \"#utility.yul\":5262:5431   */\n      swap3\n      swap2\n      pop\n      pop\n      jump\t// out\n        /* \"#utility.yul\":5437:5533   */\n    tag_113:\n        /* \"#utility.yul\":5474:5481   */\n      0x00\n        /* \"#utility.yul\":5503:5527   */\n      tag_158\n        /* \"#utility.yul\":5521:5526   */\n      dup3\n        /* \"#utility.yul\":5503:5527   */\n      tag_159\n      jump\t// in\n    tag_158:\n        /* \"#utility.yul\":5492:5527   */\n      swap1\n      pop\n        /* \"#utility.yul\":5437:5533   */\n      swap2\n      swap1\n      pop\n      jump\t// out\n        /* \"#utility.yul\":5539:5629   */\n    tag_117:\n        /* \"#utility.yul\":5573:5580   */\n      0x00\n        /* \"#utility.yul\":5616:5621   */\n      dup2\n        /* \"#utility.yul\":5609:5622   */\n      iszero\n        /* \"#utility.yul\":5602:5623   */\n      iszero\n        /* \"#utility.yul\":5591:5623   */\n      swap1\n      pop\n        /* \"#utility.yul\":5539:5629   */\n      swap2\n      swap1\n      pop\n      jump\t// out\n        /* \"#utility.yul\":5635:5761   */\n    tag_159:\n        /* \"#utility.yul\":5672:5679   */\n      0x00\n        /* \"#utility.yul\":5712:5754   */\n      0xffffffffffffffffffffffffffffffffffffffff\n        /* \"#utility.yul\":5705:5710   */\n      dup3\n        /* \"#utility.yul\":5701:5755   */\n      and\n        /* \"#utility.yul\":5690:5755   */\n      swap1\n      pop\n        /* \"#utility.yul\":5635:5761   */\n      swap2\n      swap1\n      pop\n      jump\t// out\n        /* \"#utility.yul\":5767:5844   */\n    tag_136:\n        /* \"#utility.yul\":5804:5811   */\n      0x00\n        /* \"#utility.yul\":5833:5838   */\n      dup2\n        /* \"#utility.yul\":5822:5838   */\n      swap1\n      pop\n        /* \"#utility.yul\":5767:5844   */\n      swap2\n      swap1\n      pop\n      jump\t// out\n        /* \"#utility.yul\":5850:5936   */\n    tag_140:\n        /* \"#utility.yul\":5885:5892   */\n      0x00\n        /* \"#utility.yul\":5925:5929   */\n      0xff\n        /* \"#utility.yul\":5918:5923   */\n      dup3\n        /* \"#utility.yul\":5914:5930   */\n      and\n        /* \"#utility.yul\":5903:5930   */\n      swap1\n      pop\n        /* \"#utility.yul\":5850:5936   */\n      swap2\n      swap1\n      pop\n      jump\t// out\n        /* \"#utility.yul\":5942:6249   */\n    tag_125:\n        /* \"#utility.yul\":6010:6011   */\n      0x00\n        /* \"#utility.yul\":6020:6133   */\n    tag_165:\n        /* \"#utility.yul\":6034:6040   */\n      dup4\n        /* \"#utility.yul\":6031:6032   */\n      dup2\n        /* \"#utility.yul\":6028:6041   */\n      lt\n        /* \"#utility.yul\":6020:6133   */\n      iszero\n      tag_167\n      jumpi\n        /* \"#utility.yul\":6119:6120   */\n      dup1\n        /* \"#utility.yul\":6114:6117   */\n      dup3\n        /* \"#utility.yul\":6110:6121   */\n      add\n        /* \"#utility.yul\":6104:6122   */\n      mload\n        /* \"#utility.yul\":6100:6101   */\n      dup2\n        /* \"#utility.yul\":6095:6098   */\n      dup5\n        /* \"#utility.yul\":6091:6102   */\n      add\n        /* \"#utility.yul\":6084:6123   */\n      mstore\n        /* \"#utility.yul\":6056:6058   */\n      0x20\n        /* \"#utility.yul\":6053:6054   */\n      dup2\n        /* \"#utility.yul\":6049:6059   */\n      add\n        /* \"#utility.yul\":6044:6059   */\n      swap1\n      pop\n        /* \"#utility.yul\":6020:6133   */\n      jump(tag_165)\n    tag_167:\n        /* \"#utility.yul\":6151:6157   */\n      dup4\n        /* \"#utility.yul\":6148:6149   */\n      dup2\n        /* \"#utility.yul\":6145:6158   */\n      gt\n        /* \"#utility.yul\":6142:6243   */\n      iszero\n      tag_168\n      jumpi\n        /* \"#utility.yul\":6231:6232   */\n      0x00\n        /* \"#utility.yul\":6222:6228   */\n      dup5\n        /* \"#utility.yul\":6217:6220   */\n      dup5\n        /* \"#utility.yul\":6213:6229   */\n      add\n        /* \"#utility.yul\":6206:6233   */\n      mstore\n        /* \"#utility.yul\":6142:6243   */\n    tag_168:\n        /* \"#utility.yul\":5991:6249   */\n      pop\n        /* \"#utility.yul\":5942:6249   */\n      pop\n      pop\n      pop\n      jump\t// out\n        /* \"#utility.yul\":6255:6575   */\n    tag_63:\n        /* \"#utility.yul\":6299:6305   */\n      0x00\n        /* \"#utility.yul\":6336:6337   */\n      0x02\n        /* \"#utility.yul\":6330:6334   */\n      dup3\n        /* \"#utility.yul\":6326:6338   */\n      div\n        /* \"#utility.yul\":6316:6338   */\n      swap1\n      pop\n        /* \"#utility.yul\":6383:6384   */\n      0x01\n        /* \"#utility.yul\":6377:6381   */\n      dup3\n        /* \"#utility.yul\":6373:6385   */\n      and\n        /* \"#utility.yul\":6404:6422   */\n      dup1\n        /* \"#utility.yul\":6394:6475   */\n      tag_170\n      jumpi\n        /* \"#utility.yul\":6460:6464   */\n      0x7f\n        /* \"#utility.yul\":6452:6458   */\n      dup3\n        /* \"#utility.yul\":6448:6465   */\n      and\n        /* \"#utility.yul\":6438:6465   */\n      swap2\n      pop\n        /* \"#utility.yul\":6394:6475   */\n    tag_170:\n        /* \"#utility.yul\":6522:6524   */\n      0x20\n        /* \"#utility.yul\":6514:6520   */\n      dup3\n        /* \"#utility.yul\":6511:6525   */\n      lt\n        /* \"#utility.yul\":6491:6509   */\n      dup2\n        /* \"#utility.yul\":6488:6526   */\n      eq\n        /* \"#utility.yul\":6485:6569   */\n      iszero\n      tag_171\n      jumpi\n        /* \"#utility.yul\":6541:6559   */\n      tag_172\n      tag_173\n      jump\t// in\n    tag_172:\n        /* \"#utility.yul\":6485:6569   */\n    tag_171:\n        /* \"#utility.yul\":6306:6575   */\n      pop\n        /* \"#utility.yul\":6255:6575   */\n      swap2\n      swap1\n      pop\n      jump\t// out\n        /* \"#utility.yul\":6581:6761   */\n    tag_173:\n        /* \"#utility.yul\":6629:6706   */\n      0x4e487b7100000000000000000000000000000000000000000000000000000000\n        /* \"#utility.yul\":6626:6627   */\n      0x00\n        /* \"#utility.yul\":6619:6707   */\n      mstore\n        /* \"#utility.yul\":6726:6730   */\n      0x22\n        /* \"#utility.yul\":6723:6724   */\n      0x04\n        /* \"#utility.yul\":6716:6731   */\n      mstore\n        /* \"#utility.yul\":6750:6754   */\n      0x24\n        /* \"#utility.yul\":6747:6748   */\n      0x00\n        /* \"#utility.yul\":6740:6755   */\n      revert\n        /* \"#utility.yul\":6890:7007   */\n    tag_92:\n        /* \"#utility.yul\":6999:7000   */\n      0x00\n        /* \"#utility.yul\":6996:6997   */\n      dup1\n        /* \"#utility.yul\":6989:7001   */\n      revert\n        /* \"#utility.yul\":7013:7115   */\n    tag_127:\n        /* \"#utility.yul\":7054:7060   */\n      0x00\n        /* \"#utility.yul\":7105:7107   */\n      0x1f\n        /* \"#utility.yul\":7101:7108   */\n      not\n        /* \"#utility.yul\":7096:7098   */\n      0x1f\n        /* \"#utility.yul\":7089:7094   */\n      dup4\n        /* \"#utility.yul\":7085:7099   */\n      add\n        /* \"#utility.yul\":7081:7109   */\n      and\n        /* \"#utility.yul\":7071:7109   */\n      swap1\n      pop\n        /* \"#utility.yul\":7013:7115   */\n      swap2\n      swap1\n      pop\n      jump\t// out\n        /* \"#utility.yul\":7121:7302   */\n    tag_132:\n        /* \"#utility.yul\":7261:7294   */\n      0x73656e64657220646f6e74206861766520656e6f7567682062616c616e636500\n        /* \"#utility.yul\":7257:7258   */\n      0x00\n        /* \"#utility.yul\":7249:7255   */\n      dup3\n        /* \"#utility.yul\":7245:7259   */\n      add\n        /* \"#utility.yul\":7238:7295   */\n      mstore\n        /* \"#utility.yul\":7121:7302   */\n      pop\n      jump\t// out\n        /* \"#utility.yul\":7308:7430   */\n    tag_84:\n        /* \"#utility.yul\":7381:7405   */\n      tag_181\n        /* \"#utility.yul\":7399:7404   */\n      dup2\n        /* \"#utility.yul\":7381:7405   */\n      tag_113\n      jump\t// in\n    tag_181:\n        /* \"#utility.yul\":7374:7379   */\n      dup2\n        /* \"#utility.yul\":7371:7406   */\n      eq\n        /* \"#utility.yul\":7361:7424   */\n      tag_182\n      jumpi\n        /* \"#utility.yul\":7420:7421   */\n      0x00\n        /* \"#utility.yul\":7417:7418   */\n      dup1\n        /* \"#utility.yul\":7410:7422   */\n      revert\n        /* \"#utility.yul\":7361:7424   */\n    tag_182:\n        /* \"#utility.yul\":7308:7430   */\n      pop\n      jump\t// out\n        /* \"#utility.yul\":7436:7558   */\n    tag_88:\n        /* \"#utility.yul\":7509:7533   */\n      tag_184\n        /* \"#utility.yul\":7527:7532   */\n      dup2\n        /* \"#utility.yul\":7509:7533   */\n      tag_136\n      jump\t// in\n    tag_184:\n        /* \"#utility.yul\":7502:7507   */\n      dup2\n        /* \"#utility.yul\":7499:7534   */\n      eq\n        /* \"#utility.yul\":7489:7552   */\n      tag_185\n      jumpi\n        /* \"#utility.yul\":7548:7549   */\n      0x00\n        /* \"#utility.yul\":7545:7546   */\n      dup1\n        /* \"#utility.yul\":7538:7550   */\n      revert\n        /* \"#utility.yul\":7489:7552   */\n    tag_185:\n        /* \"#utility.yul\":7436:7558   */\n      pop\n      jump\t// out\n\n    auxdata: 0xa26469706673582212205ea7ea33191e4a7ac23bc8a1aa46c93d1d4f25c27755dad25e37d71f481dc36b64736f6c63430008070033\n}\n",
				"bytecode": {
					"linkReferences": {},
					"object": "60806040523480156200001157600080fd5b506040518060400160405280600981526020017f414d4420546f6b656e0000000000000000000000000000000000000000000000815250600090805190602001906200005f929190620001f0565b506040518060400160405280600381526020017f414d44000000000000000000000000000000000000000000000000000000000081525060019080519060200190620000ad929190620001f0565b506012600260006101000a81548160ff021916908360ff160217905550600260009054906101000a900460ff16600a620000e89190620002fb565b64e8d4a51000620000fa919062000438565b60038190555033600560006101000a81548173ffffffffffffffffffffffffffffffffffffffff021916908373ffffffffffffffffffffffffffffffffffffffff16021790555033600660006101000a81548173ffffffffffffffffffffffffffffffffffffffff021916908373ffffffffffffffffffffffffffffffffffffffff16021790555060035460046000600560009054906101000a900473ffffffffffffffffffffffffffffffffffffffff1673ffffffffffffffffffffffffffffffffffffffff1673ffffffffffffffffffffffffffffffffffffffff1681526020019081526020016000208190555062000551565b828054620001fe90620004b0565b90600052602060002090601f0160209004810192826200022257600085556200026e565b82601f106200023d57805160ff19168380011785556200026e565b828001600101855582156200026e579182015b828111156200026d57825182559160200191906001019062000250565b5b5090506200027d919062000281565b5090565b5b808211156200029c57600081600090555060010162000282565b5090565b6000808291508390505b6001851115620002f257808604811115620002ca57620002c9620004e6565b5b6001851615620002da5780820291505b8081029050620002ea8562000544565b9450620002aa565b94509492505050565b6000620003088262000499565b91506200031583620004a3565b9250620003447fffffffffffffffffffffffffffffffffffffffffffffffffffffffffffffffff84846200034c565b905092915050565b6000826200035e576001905062000431565b816200036e576000905062000431565b81600181146200038757600281146200039257620003c8565b600191505062000431565b60ff841115620003a757620003a6620004e6565b5b8360020a915084821115620003c157620003c0620004e6565b5b5062000431565b5060208310610133831016604e8410600b8410161715620004025782820a905083811115620003fc57620003fb620004e6565b5b62000431565b620004118484846001620002a0565b925090508184048111156200042b576200042a620004e6565b5b81810290505b9392505050565b6000620004458262000499565b9150620004528362000499565b9250817fffffffffffffffffffffffffffffffffffffffffffffffffffffffffffffffff04831182151516156200048e576200048d620004e6565b5b828202905092915050565b6000819050919050565b600060ff82169050919050565b60006002820490506001821680620004c957607f821691505b60208210811415620004e057620004df62000515565b5b50919050565b7f4e487b7100000000000000000000000000000000000000000000000000000000600052601160045260246000fd5b7f4e487b7100000000000000000000000000000000000000000000000000000000600052602260045260246000fd5b60008160011c9050919050565b6108b680620005616000396000f3fe608060405234801561001057600080fd5b50600436106100a95760003560e01c8063313ce56711610071578063313ce5671461016857806370a08231146101865780638da5cb5b146101b657806395d89b41146101d4578063a9059cbb146101f2578063dd62ed3e14610222576100a9565b806306fdde03146100ae57806307546172146100cc578063095ea7b3146100ea57806318160ddd1461011a57806323b872dd14610138575b600080fd5b6100b6610252565b6040516100c39190610696565b60405180910390f35b6100d46102e0565b6040516100e19190610660565b60405180910390f35b61010460048036038101906100ff9190610588565b610306565b604051610111919061067b565b60405180910390f35b610122610312565b60405161012f91906106d8565b60405180910390f35b610152600480360381019061014d9190610535565b610318565b60405161015f919061067b565b60405180910390f35b6101706103a7565b60405161017d91906106f3565b60405180910390f35b6101a0600480360381019061019b91906104c8565b6103ba565b6040516101ad91906106d8565b60405180910390f35b6101be6103d2565b6040516101cb9190610660565b60405180910390f35b6101dc6103f8565b6040516101e99190610696565b60405180910390f35b61020c60048036038101906102079190610588565b610486565b604051610219919061067b565b60405180910390f35b61023c600480360381019061023791906104f5565b610492565b60405161024991906106d8565b60405180910390f35b6000805461025f906107b2565b80601f016020809104026020016040519081016040528092919081815260200182805461028b906107b2565b80156102d85780601f106102ad576101008083540402835291602001916102d8565b820191906000526020600020905b8154815290600101906020018083116102bb57829003601f168201915b505050505081565b600660009054906101000a900473ffffffffffffffffffffffffffffffffffffffff1681565b60006001905092915050565b60035481565b600081600460008673ffffffffffffffffffffffffffffffffffffffff1673ffffffffffffffffffffffffffffffffffffffff16815260200190815260200160002054101561039c576040517f08c379a0000000000000000000000000000000000000000000000000000000008152600401610393906106b8565b60405180910390fd5b600190509392505050565b600260009054906101000a900460ff1681565b60046020528060005260406000206000915090505481565b600560009054906101000a900473ffffffffffffffffffffffffffffffffffffffff1681565b60018054610405906107b2565b80601f0160208091040260200160405190810160405280929190818152602001828054610431906107b2565b801561047e5780601f106104535761010080835404028352916020019161047e565b820191906000526020600020905b81548152906001019060200180831161046157829003601f168201915b505050505081565b60006001905092915050565b60006002905092915050565b6000813590506104ad81610852565b92915050565b6000813590506104c281610869565b92915050565b6000602082840312156104de576104dd610813565b5b60006104ec8482850161049e565b91505092915050565b6000806040838503121561050c5761050b610813565b5b600061051a8582860161049e565b925050602061052b8582860161049e565b9150509250929050565b60008060006060848603121561054e5761054d610813565b5b600061055c8682870161049e565b935050602061056d8682870161049e565b925050604061057e868287016104b3565b9150509250925092565b6000806040838503121561059f5761059e610813565b5b60006105ad8582860161049e565b92505060206105be858286016104b3565b9150509250929050565b6105d18161072a565b82525050565b6105e08161073c565b82525050565b60006105f18261070e565b6105fb8185610719565b935061060b81856020860161077f565b61061481610818565b840191505092915050565b600061062c601f83610719565b915061063782610829565b602082019050919050565b61064b81610768565b82525050565b61065a81610772565b82525050565b600060208201905061067560008301846105c8565b92915050565b600060208201905061069060008301846105d7565b92915050565b600060208201905081810360008301526106b081846105e6565b905092915050565b600060208201905081810360008301526106d18161061f565b9050919050565b60006020820190506106ed6000830184610642565b92915050565b60006020820190506107086000830184610651565b92915050565b600081519050919050565b600082825260208201905092915050565b600061073582610748565b9050919050565b60008115159050919050565b600073ffffffffffffffffffffffffffffffffffffffff82169050919050565b6000819050919050565b600060ff82169050919050565b60005b8381101561079d578082015181840152602081019050610782565b838111156107ac576000848401525b50505050565b600060028204905060018216806107ca57607f821691505b602082108114156107de576107dd6107e4565b5b50919050565b7f4e487b7100000000000000000000000000000000000000000000000000000000600052602260045260246000fd5b600080fd5b6000601f19601f8301169050919050565b7f73656e64657220646f6e74206861766520656e6f7567682062616c616e636500600082015250565b61085b8161072a565b811461086657600080fd5b50565b61087281610768565b811461087d57600080fd5b5056fea26469706673582212205ea7ea33191e4a7ac23bc8a1aa46c93d1d4f25c27755dad25e37d71f481dc36b64736f6c63430008070033",
					"opcodes": "PUSH1 0x80 PUSH1 0x40 MSTORE CALLVALUE DUP1 ISZERO PUSH3 0x11 JUMPI PUSH1 0x0 DUP1 REVERT JUMPDEST POP PUSH1 0x40 MLOAD DUP1 PUSH1 0x40 ADD PUSH1 0x40 MSTORE DUP1 PUSH1 0x9 DUP2 MSTORE PUSH1 0x20 ADD PUSH32 0x414D4420546F6B656E0000000000000000000000000000000000000000000000 DUP2 MSTORE POP PUSH1 0x0 SWAP1 DUP1 MLOAD SWAP1 PUSH1 0x20 ADD SWAP1 PUSH3 0x5F SWAP3 SWAP2 SWAP1 PUSH3 0x1F0 JUMP JUMPDEST POP PUSH1 0x40 MLOAD DUP1 PUSH1 0x40 ADD PUSH1 0x40 MSTORE DUP1 PUSH1 0x3 DUP2 MSTORE PUSH1 0x20 ADD PUSH32 0x414D440000000000000000000000000000000000000000000000000000000000 DUP2 MSTORE POP PUSH1 0x1 SWAP1 DUP1 MLOAD SWAP1 PUSH1 0x20 ADD SWAP1 PUSH3 0xAD SWAP3 SWAP2 SWAP1 PUSH3 0x1F0 JUMP JUMPDEST POP PUSH1 0x12 PUSH1 0x2 PUSH1 0x0 PUSH2 0x100 EXP DUP2 SLOAD DUP2 PUSH1 0xFF MUL NOT AND SWAP1 DUP4 PUSH1 0xFF AND MUL OR SWAP1 SSTORE POP PUSH1 0x2 PUSH1 0x0 SWAP1 SLOAD SWAP1 PUSH2 0x100 EXP SWAP1 DIV PUSH1 0xFF AND PUSH1 0xA PUSH3 0xE8 SWAP2 SWAP1 PUSH3 0x2FB JUMP JUMPDEST PUSH5 0xE8D4A51000 PUSH3 0xFA SWAP2 SWAP1 PUSH3 0x438 JUMP JUMPDEST PUSH1 0x3 DUP2 SWAP1 SSTORE POP CALLER PUSH1 0x5 PUSH1 0x0 PUSH2 0x100 EXP DUP2 SLOAD DUP2 PUSH20 0xFFFFFFFFFFFFFFFFFFFFFFFFFFFFFFFFFFFFFFFF MUL NOT AND SWAP1 DUP4 PUSH20 0xFFFFFFFFFFFFFFFFFFFFFFFFFFFFFFFFFFFFFFFF AND MUL OR SWAP1 SSTORE POP CALLER PUSH1 0x6 PUSH1 0x0 PUSH2 0x100 EXP DUP2 SLOAD DUP2 PUSH20 0xFFFFFFFFFFFFFFFFFFFFFFFFFFFFFFFFFFFFFFFF MUL NOT AND SWAP1 DUP4 PUSH20 0xFFFFFFFFFFFFFFFFFFFFFFFFFFFFFFFFFFFFFFFF AND MUL OR SWAP1 SSTORE POP PUSH1 0x3 SLOAD PUSH1 0x4 PUSH1 0x0 PUSH1 0x5 PUSH1 0x0 SWAP1 SLOAD SWAP1 PUSH2 0x100 EXP SWAP1 DIV PUSH20 0xFFFFFFFFFFFFFFFFFFFFFFFFFFFFFFFFFFFFFFFF AND PUSH20 0xFFFFFFFFFFFFFFFFFFFFFFFFFFFFFFFFFFFFFFFF AND PUSH20 0xFFFFFFFFFFFFFFFFFFFFFFFFFFFFFFFFFFFFFFFF AND DUP2 MSTORE PUSH1 0x20 ADD SWAP1 DUP2 MSTORE PUSH1 0x20 ADD PUSH1 0x0 KECCAK256 DUP2 SWAP1 SSTORE POP PUSH3 0x551 JUMP JUMPDEST DUP3 DUP1 SLOAD PUSH3 0x1FE SWAP1 PUSH3 0x4B0 JUMP JUMPDEST SWAP1 PUSH1 0x0 MSTORE PUSH1 0x20 PUSH1 0x0 KECCAK256 SWAP1 PUSH1 0x1F ADD PUSH1 0x20 SWAP1 DIV DUP2 ADD SWAP3 DUP3 PUSH3 0x222 JUMPI PUSH1 0x0 DUP6 SSTORE PUSH3 0x26E JUMP JUMPDEST DUP3 PUSH1 0x1F LT PUSH3 0x23D JUMPI DUP1 MLOAD PUSH1 0xFF NOT AND DUP4 DUP1 ADD OR DUP6 SSTORE PUSH3 0x26E JUMP JUMPDEST DUP3 DUP1 ADD PUSH1 0x1 ADD DUP6 SSTORE DUP3 ISZERO PUSH3 0x26E JUMPI SWAP2 DUP3 ADD JUMPDEST DUP3 DUP2 GT ISZERO PUSH3 0x26D JUMPI DUP3 MLOAD DUP3 SSTORE SWAP2 PUSH1 0x20 ADD SWAP2 SWAP1 PUSH1 0x1 ADD SWAP1 PUSH3 0x250 JUMP JUMPDEST JUMPDEST POP SWAP1 POP PUSH3 0x27D SWAP2 SWAP1 PUSH3 0x281 JUMP JUMPDEST POP SWAP1 JUMP JUMPDEST JUMPDEST DUP1 DUP3 GT ISZERO PUSH3 0x29C JUMPI PUSH1 0x0 DUP2 PUSH1 0x0 SWAP1 SSTORE POP PUSH1 0x1 ADD PUSH3 0x282 JUMP JUMPDEST POP SWAP1 JUMP JUMPDEST PUSH1 0x0 DUP1 DUP3 SWAP2 POP DUP4 SWAP1 POP JUMPDEST PUSH1 0x1 DUP6 GT ISZERO PUSH3 0x2F2 JUMPI DUP1 DUP7 DIV DUP2 GT ISZERO PUSH3 0x2CA JUMPI PUSH3 0x2C9 PUSH3 0x4E6 JUMP JUMPDEST JUMPDEST PUSH1 0x1 DUP6 AND ISZERO PUSH3 0x2DA JUMPI DUP1 DUP3 MUL SWAP2 POP JUMPDEST DUP1 DUP2 MUL SWAP1 POP PUSH3 0x2EA DUP6 PUSH3 0x544 JUMP JUMPDEST SWAP5 POP PUSH3 0x2AA JUMP JUMPDEST SWAP5 POP SWAP5 SWAP3 POP POP POP JUMP JUMPDEST PUSH1 0x0 PUSH3 0x308 DUP3 PUSH3 0x499 JUMP JUMPDEST SWAP2 POP PUSH3 0x315 DUP4 PUSH3 0x4A3 JUMP JUMPDEST SWAP3 POP PUSH3 0x344 PUSH32 0xFFFFFFFFFFFFFFFFFFFFFFFFFFFFFFFFFFFFFFFFFFFFFFFFFFFFFFFFFFFFFFFF DUP5 DUP5 PUSH3 0x34C JUMP JUMPDEST SWAP1 POP SWAP3 SWAP2 POP POP JUMP JUMPDEST PUSH1 0x0 DUP3 PUSH3 0x35E JUMPI PUSH1 0x1 SWAP1 POP PUSH3 0x431 JUMP JUMPDEST DUP2 PUSH3 0x36E JUMPI PUSH1 0x0 SWAP1 POP PUSH3 0x431 JUMP JUMPDEST DUP2 PUSH1 0x1 DUP2 EQ PUSH3 0x387 JUMPI PUSH1 0x2 DUP2 EQ PUSH3 0x392 JUMPI PUSH3 0x3C8 JUMP JUMPDEST PUSH1 0x1 SWAP2 POP POP PUSH3 0x431 JUMP JUMPDEST PUSH1 0xFF DUP5 GT ISZERO PUSH3 0x3A7 JUMPI PUSH3 0x3A6 PUSH3 0x4E6 JUMP JUMPDEST JUMPDEST DUP4 PUSH1 0x2 EXP SWAP2 POP DUP5 DUP3 GT ISZERO PUSH3 0x3C1 JUMPI PUSH3 0x3C0 PUSH3 0x4E6 JUMP JUMPDEST JUMPDEST POP PUSH3 0x431 JUMP JUMPDEST POP PUSH1 0x20 DUP4 LT PUSH2 0x133 DUP4 LT AND PUSH1 0x4E DUP5 LT PUSH1 0xB DUP5 LT AND OR ISZERO PUSH3 0x402 JUMPI DUP3 DUP3 EXP SWAP1 POP DUP4 DUP2 GT ISZERO PUSH3 0x3FC JUMPI PUSH3 0x3FB PUSH3 0x4E6 JUMP JUMPDEST JUMPDEST PUSH3 0x431 JUMP JUMPDEST PUSH3 0x411 DUP5 DUP5 DUP5 PUSH1 0x1 PUSH3 0x2A0 JUMP JUMPDEST SWAP3 POP SWAP1 POP DUP2 DUP5 DIV DUP2 GT ISZERO PUSH3 0x42B JUMPI PUSH3 0x42A PUSH3 0x4E6 JUMP JUMPDEST JUMPDEST DUP2 DUP2 MUL SWAP1 POP JUMPDEST SWAP4 SWAP3 POP POP POP JUMP JUMPDEST PUSH1 0x0 PUSH3 0x445 DUP3 PUSH3 0x499 JUMP JUMPDEST SWAP2 POP PUSH3 0x452 DUP4 PUSH3 0x499 JUMP JUMPDEST SWAP3 POP DUP2 PUSH32 0xFFFFFFFFFFFFFFFFFFFFFFFFFFFFFFFFFFFFFFFFFFFFFFFFFFFFFFFFFFFFFFFF DIV DUP4 GT DUP3 ISZERO ISZERO AND ISZERO PUSH3 0x48E JUMPI PUSH3 0x48D PUSH3 0x4E6 JUMP JUMPDEST JUMPDEST DUP3 DUP3 MUL SWAP1 POP SWAP3 SWAP2 POP POP JUMP JUMPDEST PUSH1 0x0 DUP2 SWAP1 POP SWAP2 SWAP1 POP JUMP JUMPDEST PUSH1 0x0 PUSH1 0xFF DUP3 AND SWAP1 POP SWAP2 SWAP1 POP JUMP JUMPDEST PUSH1 0x0 PUSH1 0x2 DUP3 DIV SWAP1 POP PUSH1 0x1 DUP3 AND DUP1 PUSH3 0x4C9 JUMPI PUSH1 0x7F DUP3 AND SWAP2 POP JUMPDEST PUSH1 0x20 DUP3 LT DUP2 EQ ISZERO PUSH3 0x4E0 JUMPI PUSH3 0x4DF PUSH3 0x515 JUMP JUMPDEST JUMPDEST POP SWAP2 SWAP1 POP JUMP JUMPDEST PUSH32 0x4E487B7100000000000000000000000000000000000000000000000000000000 PUSH1 0x0 MSTORE PUSH1 0x11 PUSH1 0x4 MSTORE PUSH1 0x24 PUSH1 0x0 REVERT JUMPDEST PUSH32 0x4E487B7100000000000000000000000000000000000000000000000000000000 PUSH1 0x0 MSTORE PUSH1 0x22 PUSH1 0x4 MSTORE PUSH1 0x24 PUSH1 0x0 REVERT JUMPDEST PUSH1 0x0 DUP2 PUSH1 0x1 SHR SWAP1 POP SWAP2 SWAP1 POP JUMP JUMPDEST PUSH2 0x8B6 DUP1 PUSH3 0x561 PUSH1 0x0 CODECOPY PUSH1 0x0 RETURN INVALID PUSH1 0x80 PUSH1 0x40 MSTORE CALLVALUE DUP1 ISZERO PUSH2 0x10 JUMPI PUSH1 0x0 DUP1 REVERT JUMPDEST POP PUSH1 0x4 CALLDATASIZE LT PUSH2 0xA9 JUMPI PUSH1 0x0 CALLDATALOAD PUSH1 0xE0 SHR DUP1 PUSH4 0x313CE567 GT PUSH2 0x71 JUMPI DUP1 PUSH4 0x313CE567 EQ PUSH2 0x168 JUMPI DUP1 PUSH4 0x70A08231 EQ PUSH2 0x186 JUMPI DUP1 PUSH4 0x8DA5CB5B EQ PUSH2 0x1B6 JUMPI DUP1 PUSH4 0x95D89B41 EQ PUSH2 0x1D4 JUMPI DUP1 PUSH4 0xA9059CBB EQ PUSH2 0x1F2 JUMPI DUP1 PUSH4 0xDD62ED3E EQ PUSH2 0x222 JUMPI PUSH2 0xA9 JUMP JUMPDEST DUP1 PUSH4 0x6FDDE03 EQ PUSH2 0xAE JUMPI DUP1 PUSH4 0x7546172 EQ PUSH2 0xCC JUMPI DUP1 PUSH4 0x95EA7B3 EQ PUSH2 0xEA JUMPI DUP1 PUSH4 0x18160DDD EQ PUSH2 0x11A JUMPI DUP1 PUSH4 0x23B872DD EQ PUSH2 0x138 JUMPI JUMPDEST PUSH1 0x0 DUP1 REVERT JUMPDEST PUSH2 0xB6 PUSH2 0x252 JUMP JUMPDEST PUSH1 0x40 MLOAD PUSH2 0xC3 SWAP2 SWAP1 PUSH2 0x696 JUMP JUMPDEST PUSH1 0x40 MLOAD DUP1 SWAP2 SUB SWAP1 RETURN JUMPDEST PUSH2 0xD4 PUSH2 0x2E0 JUMP JUMPDEST PUSH1 0x40 MLOAD PUSH2 0xE1 SWAP2 SWAP1 PUSH2 0x660 JUMP JUMPDEST PUSH1 0x40 MLOAD DUP1 SWAP2 SUB SWAP1 RETURN JUMPDEST PUSH2 0x104 PUSH1 0x4 DUP1 CALLDATASIZE SUB DUP2 ADD SWAP1 PUSH2 0xFF SWAP2 SWAP1 PUSH2 0x588 JUMP JUMPDEST PUSH2 0x306 JUMP JUMPDEST PUSH1 0x40 MLOAD PUSH2 0x111 SWAP2 SWAP1 PUSH2 0x67B JUMP JUMPDEST PUSH1 0x40 MLOAD DUP1 SWAP2 SUB SWAP1 RETURN JUMPDEST PUSH2 0x122 PUSH2 0x312 JUMP JUMPDEST PUSH1 0x40 MLOAD PUSH2 0x12F SWAP2 SWAP1 PUSH2 0x6D8 JUMP JUMPDEST PUSH1 0x40 MLOAD DUP1 SWAP2 SUB SWAP1 RETURN JUMPDEST PUSH2 0x152 PUSH1 0x4 DUP1 CALLDATASIZE SUB DUP2 ADD SWAP1 PUSH2 0x14D SWAP2 SWAP1 PUSH2 0x535 JUMP JUMPDEST PUSH2 0x318 JUMP JUMPDEST PUSH1 0x40 MLOAD PUSH2 0x15F SWAP2 SWAP1 PUSH2 0x67B JUMP JUMPDEST PUSH1 0x40 MLOAD DUP1 SWAP2 SUB SWAP1 RETURN JUMPDEST PUSH2 0x170 PUSH2 0x3A7 JUMP JUMPDEST PUSH1 0x40 MLOAD PUSH2 0x17D SWAP2 SWAP1 PUSH2 0x6F3 JUMP JUMPDEST PUSH1 0x40 MLOAD DUP1 SWAP2 SUB SWAP1 RETURN JUMPDEST PUSH2 0x1A0 PUSH1 0x4 DUP1 CALLDATASIZE SUB DUP2 ADD SWAP1 PUSH2 0x19B SWAP2 SWAP1 PUSH2 0x4C8 JUMP JUMPDEST PUSH2 0x3BA JUMP JUMPDEST PUSH1 0x40 MLOAD PUSH2 0x1AD SWAP2 SWAP1 PUSH2 0x6D8 JUMP JUMPDEST PUSH1 0x40 MLOAD DUP1 SWAP2 SUB SWAP1 RETURN JUMPDEST PUSH2 0x1BE PUSH2 0x3D2 JUMP JUMPDEST PUSH1 0x40 MLOAD PUSH2 0x1CB SWAP2 SWAP1 PUSH2 0x660 JUMP JUMPDEST PUSH1 0x40 MLOAD DUP1 SWAP2 SUB SWAP1 RETURN JUMPDEST PUSH2 0x1DC PUSH2 0x3F8 JUMP JUMPDEST PUSH1 0x40 MLOAD PUSH2 0x1E9 SWAP2 SWAP1 PUSH2 0x696 JUMP JUMPDEST PUSH1 0x40 MLOAD DUP1 SWAP2 SUB SWAP1 RETURN JUMPDEST PUSH2 0x20C PUSH1 0x4 DUP1 CALLDATASIZE SUB DUP2 ADD SWAP1 PUSH2 0x207 SWAP2 SWAP1 PUSH2 0x588 JUMP JUMPDEST PUSH2 0x486 JUMP JUMPDEST PUSH1 0x40 MLOAD PUSH2 0x219 SWAP2 SWAP1 PUSH2 0x67B JUMP JUMPDEST PUSH1 0x40 MLOAD DUP1 SWAP2 SUB SWAP1 RETURN JUMPDEST PUSH2 0x23C PUSH1 0x4 DUP1 CALLDATASIZE SUB DUP2 ADD SWAP1 PUSH2 0x237 SWAP2 SWAP1 PUSH2 0x4F5 JUMP JUMPDEST PUSH2 0x492 JUMP JUMPDEST PUSH1 0x40 MLOAD PUSH2 0x249 SWAP2 SWAP1 PUSH2 0x6D8 JUMP JUMPDEST PUSH1 0x40 MLOAD DUP1 SWAP2 SUB SWAP1 RETURN JUMPDEST PUSH1 0x0 DUP1 SLOAD PUSH2 0x25F SWAP1 PUSH2 0x7B2 JUMP JUMPDEST DUP1 PUSH1 0x1F ADD PUSH1 0x20 DUP1 SWAP2 DIV MUL PUSH1 0x20 ADD PUSH1 0x40 MLOAD SWAP1 DUP2 ADD PUSH1 0x40 MSTORE DUP1 SWAP3 SWAP2 SWAP1 DUP2 DUP2 MSTORE PUSH1 0x20 ADD DUP3 DUP1 SLOAD PUSH2 0x28B SWAP1 PUSH2 0x7B2 JUMP JUMPDEST DUP1 ISZERO PUSH2 0x2D8 JUMPI DUP1 PUSH1 0x1F LT PUSH2 0x2AD JUMPI PUSH2 0x100 DUP1 DUP4 SLOAD DIV MUL DUP4 MSTORE SWAP2 PUSH1 0x20 ADD SWAP2 PUSH2 0x2D8 JUMP JUMPDEST DUP3 ADD SWAP2 SWAP1 PUSH1 0x0 MSTORE PUSH1 0x20 PUSH1 0x0 KECCAK256 SWAP1 JUMPDEST DUP2 SLOAD DUP2 MSTORE SWAP1 PUSH1 0x1 ADD SWAP1 PUSH1 0x20 ADD DUP1 DUP4 GT PUSH2 0x2BB JUMPI DUP3 SWAP1 SUB PUSH1 0x1F AND DUP3 ADD SWAP2 JUMPDEST POP POP POP POP POP DUP2 JUMP JUMPDEST PUSH1 0x6 PUSH1 0x0 SWAP1 SLOAD SWAP1 PUSH2 0x100 EXP SWAP1 DIV PUSH20 0xFFFFFFFFFFFFFFFFFFFFFFFFFFFFFFFFFFFFFFFF AND DUP2 JUMP JUMPDEST PUSH1 0x0 PUSH1 0x1 SWAP1 POP SWAP3 SWAP2 POP POP JUMP JUMPDEST PUSH1 0x3 SLOAD DUP2 JUMP JUMPDEST PUSH1 0x0 DUP2 PUSH1 0x4 PUSH1 0x0 DUP7 PUSH20 0xFFFFFFFFFFFFFFFFFFFFFFFFFFFFFFFFFFFFFFFF AND PUSH20 0xFFFFFFFFFFFFFFFFFFFFFFFFFFFFFFFFFFFFFFFF AND DUP2 MSTORE PUSH1 0x20 ADD SWAP1 DUP2 MSTORE PUSH1 0x20 ADD PUSH1 0x0 KECCAK256 SLOAD LT ISZERO PUSH2 0x39C JUMPI PUSH1 0x40 MLOAD PUSH32 0x8C379A000000000000000000000000000000000000000000000000000000000 DUP2 MSTORE PUSH1 0x4 ADD PUSH2 0x393 SWAP1 PUSH2 0x6B8 JUMP JUMPDEST PUSH1 0x40 MLOAD DUP1 SWAP2 SUB SWAP1 REVERT JUMPDEST PUSH1 0x1 SWAP1 POP SWAP4 SWAP3 POP POP POP JUMP JUMPDEST PUSH1 0x2 PUSH1 0x0 SWAP1 SLOAD SWAP1 PUSH2 0x100 EXP SWAP1 DIV PUSH1 0xFF AND DUP2 JUMP JUMPDEST PUSH1 0x4 PUSH1 0x20 MSTORE DUP1 PUSH1 0x0 MSTORE PUSH1 0x40 PUSH1 0x0 KECCAK256 PUSH1 0x0 SWAP2 POP SWAP1 POP SLOAD DUP2 JUMP JUMPDEST PUSH1 0x5 PUSH1 0x0 SWAP1 SLOAD SWAP1 PUSH2 0x100 EXP SWAP1 DIV PUSH20 0xFFFFFFFFFFFFFFFFFFFFFFFFFFFFFFFFFFFFFFFF AND DUP2 JUMP JUMPDEST PUSH1 0x1 DUP1 SLOAD PUSH2 0x405 SWAP1 PUSH2 0x7B2 JUMP JUMPDEST DUP1 PUSH1 0x1F ADD PUSH1 0x20 DUP1 SWAP2 DIV MUL PUSH1 0x20 ADD PUSH1 0x40 MLOAD SWAP1 DUP2 ADD PUSH1 0x40 MSTORE DUP1 SWAP3 SWAP2 SWAP1 DUP2 DUP2 MSTORE PUSH1 0x20 ADD DUP3 DUP1 SLOAD PUSH2 0x431 SWAP1 PUSH2 0x7B2 JUMP JUMPDEST DUP1 ISZERO PUSH2 0x47E JUMPI DUP1 PUSH1 0x1F LT PUSH2 0x453 JUMPI PUSH2 0x100 DUP1 DUP4 SLOAD DIV MUL DUP4 MSTORE SWAP2 PUSH1 0x20 ADD SWAP2 PUSH2 0x47E JUMP JUMPDEST DUP3 ADD SWAP2 SWAP1 PUSH1 0x0 MSTORE PUSH1 0x20 PUSH1 0x0 KECCAK256 SWAP1 JUMPDEST DUP2 SLOAD DUP2 MSTORE SWAP1 PUSH1 0x1 ADD SWAP1 PUSH1 0x20 ADD DUP1 DUP4 GT PUSH2 0x461 JUMPI DUP3 SWAP1 SUB PUSH1 0x1F AND DUP3 ADD SWAP2 JUMPDEST POP POP POP POP POP DUP2 JUMP JUMPDEST PUSH1 0x0 PUSH1 0x1 SWAP1 POP SWAP3 SWAP2 POP POP JUMP JUMPDEST PUSH1 0x0 PUSH1 0x2 SWAP1 POP SWAP3 SWAP2 POP POP JUMP JUMPDEST PUSH1 0x0 DUP2 CALLDATALOAD SWAP1 POP PUSH2 0x4AD DUP2 PUSH2 0x852 JUMP JUMPDEST SWAP3 SWAP2 POP POP JUMP JUMPDEST PUSH1 0x0 DUP2 CALLDATALOAD SWAP1 POP PUSH2 0x4C2 DUP2 PUSH2 0x869 JUMP JUMPDEST SWAP3 SWAP2 POP POP JUMP JUMPDEST PUSH1 0x0 PUSH1 0x20 DUP3 DUP5 SUB SLT ISZERO PUSH2 0x4DE JUMPI PUSH2 0x4DD PUSH2 0x813 JUMP JUMPDEST JUMPDEST PUSH1 0x0 PUSH2 0x4EC DUP5 DUP3 DUP6 ADD PUSH2 0x49E JUMP JUMPDEST SWAP2 POP POP SWAP3 SWAP2 POP POP JUMP JUMPDEST PUSH1 0x0 DUP1 PUSH1 0x40 DUP4 DUP6 SUB SLT ISZERO PUSH2 0x50C JUMPI PUSH2 0x50B PUSH2 0x813 JUMP JUMPDEST JUMPDEST PUSH1 0x0 PUSH2 0x51A DUP6 DUP3 DUP7 ADD PUSH2 0x49E JUMP JUMPDEST SWAP3 POP POP PUSH1 0x20 PUSH2 0x52B DUP6 DUP3 DUP7 ADD PUSH2 0x49E JUMP JUMPDEST SWAP2 POP POP SWAP3 POP SWAP3 SWAP1 POP JUMP JUMPDEST PUSH1 0x0 DUP1 PUSH1 0x0 PUSH1 0x60 DUP5 DUP7 SUB SLT ISZERO PUSH2 0x54E JUMPI PUSH2 0x54D PUSH2 0x813 JUMP JUMPDEST JUMPDEST PUSH1 0x0 PUSH2 0x55C DUP7 DUP3 DUP8 ADD PUSH2 0x49E JUMP JUMPDEST SWAP4 POP POP PUSH1 0x20 PUSH2 0x56D DUP7 DUP3 DUP8 ADD PUSH2 0x49E JUMP JUMPDEST SWAP3 POP POP PUSH1 0x40 PUSH2 0x57E DUP7 DUP3 DUP8 ADD PUSH2 0x4B3 JUMP JUMPDEST SWAP2 POP POP SWAP3 POP SWAP3 POP SWAP3 JUMP JUMPDEST PUSH1 0x0 DUP1 PUSH1 0x40 DUP4 DUP6 SUB SLT ISZERO PUSH2 0x59F JUMPI PUSH2 0x59E PUSH2 0x813 JUMP JUMPDEST JUMPDEST PUSH1 0x0 PUSH2 0x5AD DUP6 DUP3 DUP7 ADD PUSH2 0x49E JUMP JUMPDEST SWAP3 POP POP PUSH1 0x20 PUSH2 0x5BE DUP6 DUP3 DUP7 ADD PUSH2 0x4B3 JUMP JUMPDEST SWAP2 POP POP SWAP3 POP SWAP3 SWAP1 POP JUMP JUMPDEST PUSH2 0x5D1 DUP2 PUSH2 0x72A JUMP JUMPDEST DUP3 MSTORE POP POP JUMP JUMPDEST PUSH2 0x5E0 DUP2 PUSH2 0x73C JUMP JUMPDEST DUP3 MSTORE POP POP JUMP JUMPDEST PUSH1 0x0 PUSH2 0x5F1 DUP3 PUSH2 0x70E JUMP JUMPDEST PUSH2 0x5FB DUP2 DUP6 PUSH2 0x719 JUMP JUMPDEST SWAP4 POP PUSH2 0x60B DUP2 DUP6 PUSH1 0x20 DUP7 ADD PUSH2 0x77F JUMP JUMPDEST PUSH2 0x614 DUP2 PUSH2 0x818 JUMP JUMPDEST DUP5 ADD SWAP2 POP POP SWAP3 SWAP2 POP POP JUMP JUMPDEST PUSH1 0x0 PUSH2 0x62C PUSH1 0x1F DUP4 PUSH2 0x719 JUMP JUMPDEST SWAP2 POP PUSH2 0x637 DUP3 PUSH2 0x829 JUMP JUMPDEST PUSH1 0x20 DUP3 ADD SWAP1 POP SWAP2 SWAP1 POP JUMP JUMPDEST PUSH2 0x64B DUP2 PUSH2 0x768 JUMP JUMPDEST DUP3 MSTORE POP POP JUMP JUMPDEST PUSH2 0x65A DUP2 PUSH2 0x772 JUMP JUMPDEST DUP3 MSTORE POP POP JUMP JUMPDEST PUSH1 0x0 PUSH1 0x20 DUP3 ADD SWAP1 POP PUSH2 0x675 PUSH1 0x0 DUP4 ADD DUP5 PUSH2 0x5C8 JUMP JUMPDEST SWAP3 SWAP2 POP POP JUMP JUMPDEST PUSH1 0x0 PUSH1 0x20 DUP3 ADD SWAP1 POP PUSH2 0x690 PUSH1 0x0 DUP4 ADD DUP5 PUSH2 0x5D7 JUMP JUMPDEST SWAP3 SWAP2 POP POP JUMP JUMPDEST PUSH1 0x0 PUSH1 0x20 DUP3 ADD SWAP1 POP DUP2 DUP2 SUB PUSH1 0x0 DUP4 ADD MSTORE PUSH2 0x6B0 DUP2 DUP5 PUSH2 0x5E6 JUMP JUMPDEST SWAP1 POP SWAP3 SWAP2 POP POP JUMP JUMPDEST PUSH1 0x0 PUSH1 0x20 DUP3 ADD SWAP1 POP DUP2 DUP2 SUB PUSH1 0x0 DUP4 ADD MSTORE PUSH2 0x6D1 DUP2 PUSH2 0x61F JUMP JUMPDEST SWAP1 POP SWAP2 SWAP1 POP JUMP JUMPDEST PUSH1 0x0 PUSH1 0x20 DUP3 ADD SWAP1 POP PUSH2 0x6ED PUSH1 0x0 DUP4 ADD DUP5 PUSH2 0x642 JUMP JUMPDEST SWAP3 SWAP2 POP POP JUMP JUMPDEST PUSH1 0x0 PUSH1 0x20 DUP3 ADD SWAP1 POP PUSH2 0x708 PUSH1 0x0 DUP4 ADD DUP5 PUSH2 0x651 JUMP JUMPDEST SWAP3 SWAP2 POP POP JUMP JUMPDEST PUSH1 0x0 DUP2 MLOAD SWAP1 POP SWAP2 SWAP1 POP JUMP JUMPDEST PUSH1 0x0 DUP3 DUP3 MSTORE PUSH1 0x20 DUP3 ADD SWAP1 POP SWAP3 SWAP2 POP POP JUMP JUMPDEST PUSH1 0x0 PUSH2 0x735 DUP3 PUSH2 0x748 JUMP JUMPDEST SWAP1 POP SWAP2 SWAP1 POP JUMP JUMPDEST PUSH1 0x0 DUP2 ISZERO ISZERO SWAP1 POP SWAP2 SWAP1 POP JUMP JUMPDEST PUSH1 0x0 PUSH20 0xFFFFFFFFFFFFFFFFFFFFFFFFFFFFFFFFFFFFFFFF DUP3 AND SWAP1 POP SWAP2 SWAP1 POP JUMP JUMPDEST PUSH1 0x0 DUP2 SWAP1 POP SWAP2 SWAP1 POP JUMP JUMPDEST PUSH1 0x0 PUSH1 0xFF DUP3 AND SWAP1 POP SWAP2 SWAP1 POP JUMP JUMPDEST PUSH1 0x0 JUMPDEST DUP4 DUP2 LT ISZERO PUSH2 0x79D JUMPI DUP1 DUP3 ADD MLOAD DUP2 DUP5 ADD MSTORE PUSH1 0x20 DUP2 ADD SWAP1 POP PUSH2 0x782 JUMP JUMPDEST DUP4 DUP2 GT ISZERO PUSH2 0x7AC JUMPI PUSH1 0x0 DUP5 DUP5 ADD MSTORE JUMPDEST POP POP POP POP JUMP JUMPDEST PUSH1 0x0 PUSH1 0x2 DUP3 DIV SWAP1 POP PUSH1 0x1 DUP3 AND DUP1 PUSH2 0x7CA JUMPI PUSH1 0x7F DUP3 AND SWAP2 POP JUMPDEST PUSH1 0x20 DUP3 LT DUP2 EQ ISZERO PUSH2 0x7DE JUMPI PUSH2 0x7DD PUSH2 0x7E4 JUMP JUMPDEST JUMPDEST POP SWAP2 SWAP1 POP JUMP JUMPDEST PUSH32 0x4E487B7100000000000000000000000000000000000000000000000000000000 PUSH1 0x0 MSTORE PUSH1 0x22 PUSH1 0x4 MSTORE PUSH1 0x24 PUSH1 0x0 REVERT JUMPDEST PUSH1 0x0 DUP1 REVERT JUMPDEST PUSH1 0x0 PUSH1 0x1F NOT PUSH1 0x1F DUP4 ADD AND SWAP1 POP SWAP2 SWAP1 POP JUMP JUMPDEST PUSH32 0x73656E64657220646F6E74206861766520656E6F7567682062616C616E636500 PUSH1 0x0 DUP3 ADD MSTORE POP JUMP JUMPDEST PUSH2 0x85B DUP2 PUSH2 0x72A JUMP JUMPDEST DUP2 EQ PUSH2 0x866 JUMPI PUSH1 0x0 DUP1 REVERT JUMPDEST POP JUMP JUMPDEST PUSH2 0x872 DUP2 PUSH2 0x768 JUMP JUMPDEST DUP2 EQ PUSH2 0x87D JUMPI PUSH1 0x0 DUP1 REVERT JUMPDEST POP JUMP INVALID LOG2 PUSH5 0x6970667358 0x22 SLT KECCAK256 0x5E 0xA7 0xEA CALLER NOT 0x1E 0x4A PUSH27 0xC23BC8A1AA46C93D1D4F25C27755DAD25E37D71F481DC36B64736F PUSH13 0x63430008070033000000000000 "
				},
				"gasEstimates": {
					"creation": {
						"codeDepositCost": "446000",
						"executionCost": "infinite",
						"totalCost": "infinite"
					},
					"external": {
						"allowance(address,address)": "infinite",
						"approve(address,uint256)": "875",
						"balanceOf(address)": "2836",
						"decimals()": "2471",
						"minter()": "2537",
						"name()": "infinite",
						"owner()": "2558",
						"symbol()": "infinite",
						"totalSupply()": "2496",
						"transfer(address,uint256)": "918",
						"transferFrom(address,address,uint256)": "infinite"
					}
				},
				"methodIdentifiers": {
					"allowance(address,address)": "dd62ed3e",
					"approve(address,uint256)": "095ea7b3",
					"balanceOf(address)": "70a08231",
					"decimals()": "313ce567",
					"minter()": "07546172",
					"name()": "06fdde03",
					"owner()": "8da5cb5b",
					"symbol()": "95d89b41",
					"totalSupply()": "18160ddd",
					"transfer(address,uint256)": "a9059cbb",
					"transferFrom(address,address,uint256)": "23b872dd"
				}
			},
			"storageLayout": {
				"storage": [
					{
						"astId": 7,
						"contract": "learning/tokens/AMDToken.sol:AMDToken",
						"label": "name",
						"offset": 0,
						"slot": "0",
						"type": "t_string_storage"
					},
					{
						"astId": 10,
						"contract": "learning/tokens/AMDToken.sol:AMDToken",
						"label": "symbol",
						"offset": 0,
						"slot": "1",
						"type": "t_string_storage"
					},
					{
						"astId": 13,
						"contract": "learning/tokens/AMDToken.sol:AMDToken",
						"label": "decimals",
						"offset": 0,
						"slot": "2",
						"type": "t_uint8"
					},
					{
						"astId": 16,
						"contract": "learning/tokens/AMDToken.sol:AMDToken",
						"label": "totalSupply",
						"offset": 0,
						"slot": "3",
						"type": "t_uint256"
					},
					{
						"astId": 21,
						"contract": "learning/tokens/AMDToken.sol:AMDToken",
						"label": "balanceOf",
						"offset": 0,
						"slot": "4",
						"type": "t_mapping(t_address,t_uint256)"
					},
					{
						"astId": 23,
						"contract": "learning/tokens/AMDToken.sol:AMDToken",
						"label": "owner",
						"offset": 0,
						"slot": "5",
						"type": "t_address"
					},
					{
						"astId": 25,
						"contract": "learning/tokens/AMDToken.sol:AMDToken",
						"label": "minter",
						"offset": 0,
						"slot": "6",
						"type": "t_address"
					}
				],
				"types": {
					"t_address": {
						"encoding": "inplace",
						"label": "address",
						"numberOfBytes": "20"
					},
					"t_mapping(t_address,t_uint256)": {
						"encoding": "mapping",
						"key": "t_address",
						"label": "mapping(address => uint256)",
						"numberOfBytes": "32",
						"value": "t_uint256"
					},
					"t_string_storage": {
						"encoding": "bytes",
						"label": "string",
						"numberOfBytes": "32"
					},
					"t_uint256": {
						"encoding": "inplace",
						"label": "uint256",
						"numberOfBytes": "32"
					},
					"t_uint8": {
						"encoding": "inplace",
						"label": "uint8",
						"numberOfBytes": "1"
					}
				}
			},
			"userdoc": {
				"kind": "user",
				"methods": {},
				"version": 1
			}
		}
	}
}