{
	"learning/tokens/AMDToken.sol": {
		"AMDToken": {
			"abi": [
				{
					"inputs": [],
					"stateMutability": "nonpayable",
					"type": "constructor"
				},
				{
					"anonymous": false,
					"inputs": [
						{
							"indexed": true,
							"internalType": "address",
							"name": "_owner",
							"type": "address"
						},
						{
							"indexed": true,
							"internalType": "address",
							"name": "_spender",
							"type": "address"
						},
						{
							"indexed": false,
							"internalType": "uint256",
							"name": "_value",
							"type": "uint256"
						}
					],
					"name": "Approval",
					"type": "event"
				},
				{
					"anonymous": false,
					"inputs": [
						{
							"indexed": true,
							"internalType": "address",
							"name": "_from",
							"type": "address"
						},
						{
							"indexed": true,
							"internalType": "address",
							"name": "_to",
							"type": "address"
						},
						{
							"indexed": false,
							"internalType": "uint256",
							"name": "_value",
							"type": "uint256"
						}
					],
					"name": "Transfer",
					"type": "event"
				},
				{
					"inputs": [
						{
							"internalType": "address",
							"name": "_owner",
							"type": "address"
						},
						{
							"internalType": "address",
							"name": "_spender",
							"type": "address"
						}
					],
					"name": "allowance",
					"outputs": [
						{
							"internalType": "uint256",
							"name": "remaining",
							"type": "uint256"
						}
					],
					"stateMutability": "view",
					"type": "function"
				},
				{
					"inputs": [
						{
							"internalType": "address",
							"name": "_spender",
							"type": "address"
						},
						{
							"internalType": "uint256",
							"name": "_value",
							"type": "uint256"
						}
					],
					"name": "approve",
					"outputs": [
						{
							"internalType": "bool",
							"name": "success",
							"type": "bool"
						}
					],
					"stateMutability": "nonpayable",
					"type": "function"
				},
				{
					"inputs": [
						{
							"internalType": "address",
							"name": "",
							"type": "address"
						}
					],
					"name": "balanceOf",
					"outputs": [
						{
							"internalType": "uint256",
							"name": "",
							"type": "uint256"
						}
					],
					"stateMutability": "view",
					"type": "function"
				},
				{
					"inputs": [],
					"name": "decimals",
					"outputs": [
						{
							"internalType": "uint8",
							"name": "",
							"type": "uint8"
						}
					],
					"stateMutability": "view",
					"type": "function"
				},
				{
					"inputs": [],
					"name": "minter",
					"outputs": [
						{
							"internalType": "address",
							"name": "",
							"type": "address"
						}
					],
					"stateMutability": "view",
					"type": "function"
				},
				{
					"inputs": [],
					"name": "name",
					"outputs": [
						{
							"internalType": "string",
							"name": "",
							"type": "string"
						}
					],
					"stateMutability": "view",
					"type": "function"
				},
				{
					"inputs": [],
					"name": "owner",
					"outputs": [
						{
							"internalType": "address",
							"name": "",
							"type": "address"
						}
					],
					"stateMutability": "view",
					"type": "function"
				},
				{
					"inputs": [],
					"name": "symbol",
					"outputs": [
						{
							"internalType": "string",
							"name": "",
							"type": "string"
						}
					],
					"stateMutability": "view",
					"type": "function"
				},
				{
					"inputs": [],
					"name": "totalSupply",
					"outputs": [
						{
							"internalType": "uint256",
							"name": "",
							"type": "uint256"
						}
					],
					"stateMutability": "view",
					"type": "function"
				},
				{
					"inputs": [
						{
							"internalType": "address",
							"name": "_to",
							"type": "address"
						},
						{
							"internalType": "uint256",
							"name": "_value",
							"type": "uint256"
						}
					],
					"name": "transfer",
					"outputs": [
						{
							"internalType": "bool",
							"name": "success",
							"type": "bool"
						}
					],
					"stateMutability": "nonpayable",
					"type": "function"
				},
				{
					"inputs": [
						{
							"internalType": "address",
							"name": "_from",
							"type": "address"
						},
						{
							"internalType": "address",
							"name": "_to",
							"type": "address"
						},
						{
							"internalType": "uint256",
							"name": "_value",
							"type": "uint256"
						}
					],
					"name": "transferFrom",
					"outputs": [
						{
							"internalType": "bool",
							"name": "success",
							"type": "bool"
						}
					],
					"stateMutability": "nonpayable",
					"type": "function"
				},
				{
					"inputs": [
						{
							"internalType": "address",
							"name": "_newOwner",
							"type": "address"
						}
					],
					"name": "transferOwnership",
					"outputs": [],
					"stateMutability": "nonpayable",
					"type": "function"
				}
			],
			"devdoc": {
				"kind": "dev",
				"methods": {},
				"version": 1
			},
			"evm": {
				"assembly": "    /* \"learning/tokens/AMDToken.sol\":396:1865  contract AMDToken is IERC20, Owned{\r... */\n  mstore(0x40, 0x80)\n    /* \"learning/tokens/AMDToken.sol\":682:918  constructor(){\r... */\n  callvalue\n  dup1\n  iszero\n  tag_1\n  jumpi\n  0x00\n  dup1\n  revert\ntag_1:\n  pop\n    /* \"learning/tokens/AMDToken.sol\":281:291  msg.sender */\n  caller\n    /* \"learning/tokens/AMDToken.sol\":275:280  owner */\n  0x00\n  dup1\n    /* \"learning/tokens/AMDToken.sol\":275:291  owner=msg.sender */\n  0x0100\n  exp\n  dup2\n  sload\n  dup2\n  0xffffffffffffffffffffffffffffffffffffffff\n  mul\n  not\n  and\n  swap1\n  dup4\n  0xffffffffffffffffffffffffffffffffffffffff\n  and\n  mul\n  or\n  swap1\n  sstore\n  pop\n    /* \"learning/tokens/AMDToken.sol\":706:722  name=\"AMD Token\" */\n  mload(0x40)\n  dup1\n  0x40\n  add\n  0x40\n  mstore\n  dup1\n  0x09\n  dup2\n  mstore\n  0x20\n  add\n  0x414d4420546f6b656e0000000000000000000000000000000000000000000000\n  dup2\n  mstore\n  pop\n    /* \"learning/tokens/AMDToken.sol\":706:710  name */\n  0x01\n    /* \"learning/tokens/AMDToken.sol\":706:722  name=\"AMD Token\" */\n  swap1\n  dup1\n  mload\n  swap1\n  0x20\n  add\n  swap1\n  tag_6\n  swap3\n  swap2\n  swap1\n  tag_7\n  jump\t// in\ntag_6:\n  pop\n    /* \"learning/tokens/AMDToken.sol\":733:745  symbol=\"AMD\" */\n  mload(0x40)\n  dup1\n  0x40\n  add\n  0x40\n  mstore\n  dup1\n  0x03\n  dup2\n  mstore\n  0x20\n  add\n  0x414d440000000000000000000000000000000000000000000000000000000000\n  dup2\n  mstore\n  pop\n    /* \"learning/tokens/AMDToken.sol\":733:739  symbol */\n  0x02\n    /* \"learning/tokens/AMDToken.sol\":733:745  symbol=\"AMD\" */\n  swap1\n  dup1\n  mload\n  swap1\n  0x20\n  add\n  swap1\n  tag_8\n  swap3\n  swap2\n  swap1\n  tag_7\n  jump\t// in\ntag_8:\n  pop\n    /* \"learning/tokens/AMDToken.sol\":765:767  18 */\n  0x12\n    /* \"learning/tokens/AMDToken.sol\":756:764  decimals */\n  0x03\n  0x00\n    /* \"learning/tokens/AMDToken.sol\":756:767  decimals=18 */\n  0x0100\n  exp\n  dup2\n  sload\n  dup2\n  0xff\n  mul\n  not\n  and\n  swap1\n  dup4\n  0xff\n  and\n  mul\n  or\n  swap1\n  sstore\n  pop\n    /* \"learning/tokens/AMDToken.sol\":808:816  decimals */\n  0x03\n  0x00\n  swap1\n  sload\n  swap1\n  0x0100\n  exp\n  swap1\n  div\n  0xff\n  and\n    /* \"learning/tokens/AMDToken.sol\":804:806  10 */\n  0x0a\n    /* \"learning/tokens/AMDToken.sol\":804:816  10**decimals */\n  tag_9\n  swap2\n  swap1\n  tag_10\n  jump\t// in\ntag_9:\n    /* \"learning/tokens/AMDToken.sol\":790:803  1000000000000 */\n  0xe8d4a51000\n    /* \"learning/tokens/AMDToken.sol\":790:816  1000000000000*10**decimals */\n  tag_11\n  swap2\n  swap1\n  tag_12\n  jump\t// in\ntag_11:\n    /* \"learning/tokens/AMDToken.sol\":778:789  totalSupply */\n  0x04\n    /* \"learning/tokens/AMDToken.sol\":778:816  totalSupply=1000000000000*10**decimals */\n  dup2\n  swap1\n  sstore\n  pop\n    /* \"learning/tokens/AMDToken.sol\":833:843  msg.sender */\n  caller\n    /* \"learning/tokens/AMDToken.sol\":827:832  owner */\n  0x00\n  dup1\n    /* \"learning/tokens/AMDToken.sol\":827:843  owner=msg.sender */\n  0x0100\n  exp\n  dup2\n  sload\n  dup2\n  0xffffffffffffffffffffffffffffffffffffffff\n  mul\n  not\n  and\n  swap1\n  dup4\n  0xffffffffffffffffffffffffffffffffffffffff\n  and\n  mul\n  or\n  swap1\n  sstore\n  pop\n    /* \"learning/tokens/AMDToken.sol\":861:871  msg.sender */\n  caller\n    /* \"learning/tokens/AMDToken.sol\":854:860  minter */\n  0x06\n  0x00\n    /* \"learning/tokens/AMDToken.sol\":854:871  minter=msg.sender */\n  0x0100\n  exp\n  dup2\n  sload\n  dup2\n  0xffffffffffffffffffffffffffffffffffffffff\n  mul\n  not\n  and\n  swap1\n  dup4\n  0xffffffffffffffffffffffffffffffffffffffff\n  and\n  mul\n  or\n  swap1\n  sstore\n  pop\n    /* \"learning/tokens/AMDToken.sol\":899:910  totalSupply */\n  sload(0x04)\n    /* \"learning/tokens/AMDToken.sol\":882:891  balanceOf */\n  0x05\n    /* \"learning/tokens/AMDToken.sol\":882:898  balanceOf[owner] */\n  0x00\n    /* \"learning/tokens/AMDToken.sol\":892:897  owner */\n  dup1\n  0x00\n  swap1\n  sload\n  swap1\n  0x0100\n  exp\n  swap1\n  div\n  0xffffffffffffffffffffffffffffffffffffffff\n  and\n    /* \"learning/tokens/AMDToken.sol\":882:898  balanceOf[owner] */\n  0xffffffffffffffffffffffffffffffffffffffff\n  and\n  0xffffffffffffffffffffffffffffffffffffffff\n  and\n  dup2\n  mstore\n  0x20\n  add\n  swap1\n  dup2\n  mstore\n  0x20\n  add\n  0x00\n  keccak256\n    /* \"learning/tokens/AMDToken.sol\":882:910  balanceOf[owner]=totalSupply */\n  dup2\n  swap1\n  sstore\n  pop\n    /* \"learning/tokens/AMDToken.sol\":396:1865  contract AMDToken is IERC20, Owned{\r... */\n  jump(tag_13)\ntag_7:\n  dup3\n  dup1\n  sload\n  tag_14\n  swap1\n  tag_15\n  jump\t// in\ntag_14:\n  swap1\n  0x00\n  mstore\n  keccak256(0x00, 0x20)\n  swap1\n  0x1f\n  add\n  0x20\n  swap1\n  div\n  dup2\n  add\n  swap3\n  dup3\n  tag_17\n  jumpi\n  0x00\n  dup6\n  sstore\n  jump(tag_16)\ntag_17:\n  dup3\n  0x1f\n  lt\n  tag_18\n  jumpi\n  dup1\n  mload\n  not(0xff)\n  and\n  dup4\n  dup1\n  add\n  or\n  dup6\n  sstore\n  jump(tag_16)\ntag_18:\n  dup3\n  dup1\n  add\n  0x01\n  add\n  dup6\n  sstore\n  dup3\n  iszero\n  tag_16\n  jumpi\n  swap2\n  dup3\n  add\ntag_19:\n  dup3\n  dup2\n  gt\n  iszero\n  tag_20\n  jumpi\n  dup3\n  mload\n  dup3\n  sstore\n  swap2\n  0x20\n  add\n  swap2\n  swap1\n  0x01\n  add\n  swap1\n  jump(tag_19)\ntag_20:\ntag_16:\n  pop\n  swap1\n  pop\n  tag_21\n  swap2\n  swap1\n  tag_22\n  jump\t// in\ntag_21:\n  pop\n  swap1\n  jump\t// out\ntag_22:\ntag_23:\n  dup1\n  dup3\n  gt\n  iszero\n  tag_24\n  jumpi\n  0x00\n  dup2\n  0x00\n  swap1\n  sstore\n  pop\n  0x01\n  add\n  jump(tag_23)\ntag_24:\n  pop\n  swap1\n  jump\t// out\n    /* \"#utility.yul\":7:855   */\ntag_26:\n    /* \"#utility.yul\":68:73   */\n  0x00\n    /* \"#utility.yul\":75:79   */\n  dup1\n    /* \"#utility.yul\":99:105   */\n  dup3\n    /* \"#utility.yul\":90:105   */\n  swap2\n  pop\n    /* \"#utility.yul\":123:128   */\n  dup4\n    /* \"#utility.yul\":114:128   */\n  swap1\n  pop\n    /* \"#utility.yul\":137:849   */\ntag_28:\n    /* \"#utility.yul\":158:159   */\n  0x01\n    /* \"#utility.yul\":148:156   */\n  dup6\n    /* \"#utility.yul\":145:160   */\n  gt\n    /* \"#utility.yul\":137:849   */\n  iszero\n  tag_30\n  jumpi\n    /* \"#utility.yul\":253:257   */\n  dup1\n    /* \"#utility.yul\":248:251   */\n  dup7\n    /* \"#utility.yul\":244:258   */\n  div\n    /* \"#utility.yul\":238:242   */\n  dup2\n    /* \"#utility.yul\":235:259   */\n  gt\n    /* \"#utility.yul\":232:282   */\n  iszero\n  tag_31\n  jumpi\n    /* \"#utility.yul\":262:280   */\n  tag_32\n  tag_33\n  jump\t// in\ntag_32:\n    /* \"#utility.yul\":232:282   */\ntag_31:\n    /* \"#utility.yul\":312:313   */\n  0x01\n    /* \"#utility.yul\":302:310   */\n  dup6\n    /* \"#utility.yul\":298:314   */\n  and\n    /* \"#utility.yul\":295:746   */\n  iszero\n  tag_34\n  jumpi\n    /* \"#utility.yul\":727:731   */\n  dup1\n    /* \"#utility.yul\":720:725   */\n  dup3\n    /* \"#utility.yul\":716:732   */\n  mul\n    /* \"#utility.yul\":707:732   */\n  swap2\n  pop\n    /* \"#utility.yul\":295:746   */\ntag_34:\n    /* \"#utility.yul\":777:781   */\n  dup1\n    /* \"#utility.yul\":771:775   */\n  dup2\n    /* \"#utility.yul\":767:782   */\n  mul\n    /* \"#utility.yul\":759:782   */\n  swap1\n  pop\n    /* \"#utility.yul\":807:839   */\n  tag_35\n    /* \"#utility.yul\":830:838   */\n  dup6\n    /* \"#utility.yul\":807:839   */\n  tag_36\n  jump\t// in\ntag_35:\n    /* \"#utility.yul\":795:839   */\n  swap5\n  pop\n    /* \"#utility.yul\":137:849   */\n  jump(tag_28)\ntag_30:\n    /* \"#utility.yul\":7:855   */\n  swap5\n  pop\n  swap5\n  swap3\n  pop\n  pop\n  pop\n  jump\t// out\n    /* \"#utility.yul\":861:1142   */\ntag_10:\n    /* \"#utility.yul\":919:924   */\n  0x00\n    /* \"#utility.yul\":943:966   */\n  tag_38\n    /* \"#utility.yul\":961:965   */\n  dup3\n    /* \"#utility.yul\":943:966   */\n  tag_39\n  jump\t// in\ntag_38:\n    /* \"#utility.yul\":935:966   */\n  swap2\n  pop\n    /* \"#utility.yul\":987:1012   */\n  tag_40\n    /* \"#utility.yul\":1003:1011   */\n  dup4\n    /* \"#utility.yul\":987:1012   */\n  tag_41\n  jump\t// in\ntag_40:\n    /* \"#utility.yul\":975:1012   */\n  swap3\n  pop\n    /* \"#utility.yul\":1031:1135   */\n  tag_42\n    /* \"#utility.yul\":1068:1134   */\n  0xffffffffffffffffffffffffffffffffffffffffffffffffffffffffffffffff\n    /* \"#utility.yul\":1058:1066   */\n  dup5\n    /* \"#utility.yul\":1052:1056   */\n  dup5\n    /* \"#utility.yul\":1031:1135   */\n  tag_43\n  jump\t// in\ntag_42:\n    /* \"#utility.yul\":1022:1135   */\n  swap1\n  pop\n    /* \"#utility.yul\":861:1142   */\n  swap3\n  swap2\n  pop\n  pop\n  jump\t// out\n    /* \"#utility.yul\":1148:2221   */\ntag_43:\n    /* \"#utility.yul\":1202:1207   */\n  0x00\n    /* \"#utility.yul\":1393:1401   */\n  dup3\n    /* \"#utility.yul\":1383:1423   */\n  tag_45\n  jumpi\n    /* \"#utility.yul\":1414:1415   */\n  0x01\n    /* \"#utility.yul\":1405:1415   */\n  swap1\n  pop\n    /* \"#utility.yul\":1416:1421   */\n  jump(tag_44)\n    /* \"#utility.yul\":1383:1423   */\ntag_45:\n    /* \"#utility.yul\":1442:1446   */\n  dup2\n    /* \"#utility.yul\":1432:1468   */\n  tag_46\n  jumpi\n    /* \"#utility.yul\":1459:1460   */\n  0x00\n    /* \"#utility.yul\":1450:1460   */\n  swap1\n  pop\n    /* \"#utility.yul\":1461:1466   */\n  jump(tag_44)\n    /* \"#utility.yul\":1432:1468   */\ntag_46:\n    /* \"#utility.yul\":1528:1532   */\n  dup2\n    /* \"#utility.yul\":1576:1577   */\n  0x01\n    /* \"#utility.yul\":1571:1598   */\n  dup2\n  eq\n  tag_48\n  jumpi\n    /* \"#utility.yul\":1612:1613   */\n  0x02\n    /* \"#utility.yul\":1607:1798   */\n  dup2\n  eq\n  tag_49\n  jumpi\n    /* \"#utility.yul\":1521:1798   */\n  jump(tag_47)\n    /* \"#utility.yul\":1571:1598   */\ntag_48:\n    /* \"#utility.yul\":1589:1590   */\n  0x01\n    /* \"#utility.yul\":1580:1590   */\n  swap2\n  pop\n    /* \"#utility.yul\":1591:1596   */\n  pop\n  jump(tag_44)\n    /* \"#utility.yul\":1607:1798   */\ntag_49:\n    /* \"#utility.yul\":1652:1655   */\n  0xff\n    /* \"#utility.yul\":1642:1650   */\n  dup5\n    /* \"#utility.yul\":1639:1656   */\n  gt\n    /* \"#utility.yul\":1636:1679   */\n  iszero\n  tag_50\n  jumpi\n    /* \"#utility.yul\":1659:1677   */\n  tag_51\n  tag_33\n  jump\t// in\ntag_51:\n    /* \"#utility.yul\":1636:1679   */\ntag_50:\n    /* \"#utility.yul\":1708:1716   */\n  dup4\n    /* \"#utility.yul\":1705:1706   */\n  0x02\n    /* \"#utility.yul\":1701:1717   */\n  exp\n    /* \"#utility.yul\":1692:1717   */\n  swap2\n  pop\n    /* \"#utility.yul\":1743:1746   */\n  dup5\n    /* \"#utility.yul\":1736:1741   */\n  dup3\n    /* \"#utility.yul\":1733:1747   */\n  gt\n    /* \"#utility.yul\":1730:1770   */\n  iszero\n  tag_52\n  jumpi\n    /* \"#utility.yul\":1750:1768   */\n  tag_53\n  tag_33\n  jump\t// in\ntag_53:\n    /* \"#utility.yul\":1730:1770   */\ntag_52:\n    /* \"#utility.yul\":1783:1788   */\n  pop\n  jump(tag_44)\n    /* \"#utility.yul\":1521:1798   */\ntag_47:\n  pop\n    /* \"#utility.yul\":1907:1909   */\n  0x20\n    /* \"#utility.yul\":1897:1905   */\n  dup4\n    /* \"#utility.yul\":1894:1910   */\n  lt\n    /* \"#utility.yul\":1888:1891   */\n  0x0133\n    /* \"#utility.yul\":1882:1886   */\n  dup4\n    /* \"#utility.yul\":1879:1892   */\n  lt\n    /* \"#utility.yul\":1875:1911   */\n  and\n    /* \"#utility.yul\":1857:1859   */\n  0x4e\n    /* \"#utility.yul\":1847:1855   */\n  dup5\n    /* \"#utility.yul\":1844:1860   */\n  lt\n    /* \"#utility.yul\":1839:1841   */\n  0x0b\n    /* \"#utility.yul\":1833:1837   */\n  dup5\n    /* \"#utility.yul\":1830:1842   */\n  lt\n    /* \"#utility.yul\":1826:1861   */\n  and\n    /* \"#utility.yul\":1810:1921   */\n  or\n    /* \"#utility.yul\":1807:2053   */\n  iszero\n  tag_54\n  jumpi\n    /* \"#utility.yul\":1963:1971   */\n  dup3\n    /* \"#utility.yul\":1957:1961   */\n  dup3\n    /* \"#utility.yul\":1953:1972   */\n  exp\n    /* \"#utility.yul\":1944:1972   */\n  swap1\n  pop\n    /* \"#utility.yul\":1998:2001   */\n  dup4\n    /* \"#utility.yul\":1991:1996   */\n  dup2\n    /* \"#utility.yul\":1988:2002   */\n  gt\n    /* \"#utility.yul\":1985:2025   */\n  iszero\n  tag_55\n  jumpi\n    /* \"#utility.yul\":2005:2023   */\n  tag_56\n  tag_33\n  jump\t// in\ntag_56:\n    /* \"#utility.yul\":1985:2025   */\ntag_55:\n    /* \"#utility.yul\":2038:2043   */\n  jump(tag_44)\n    /* \"#utility.yul\":1807:2053   */\ntag_54:\n    /* \"#utility.yul\":2078:2120   */\n  tag_57\n    /* \"#utility.yul\":2116:2119   */\n  dup5\n    /* \"#utility.yul\":2106:2114   */\n  dup5\n    /* \"#utility.yul\":2100:2104   */\n  dup5\n    /* \"#utility.yul\":2097:2098   */\n  0x01\n    /* \"#utility.yul\":2078:2120   */\n  tag_26\n  jump\t// in\ntag_57:\n    /* \"#utility.yul\":2063:2120   */\n  swap3\n  pop\n  swap1\n  pop\n    /* \"#utility.yul\":2152:2156   */\n  dup2\n    /* \"#utility.yul\":2147:2150   */\n  dup5\n    /* \"#utility.yul\":2143:2157   */\n  div\n    /* \"#utility.yul\":2136:2141   */\n  dup2\n    /* \"#utility.yul\":2133:2158   */\n  gt\n    /* \"#utility.yul\":2130:2181   */\n  iszero\n  tag_58\n  jumpi\n    /* \"#utility.yul\":2161:2179   */\n  tag_59\n  tag_33\n  jump\t// in\ntag_59:\n    /* \"#utility.yul\":2130:2181   */\ntag_58:\n    /* \"#utility.yul\":2210:2214   */\n  dup2\n    /* \"#utility.yul\":2203:2208   */\n  dup2\n    /* \"#utility.yul\":2199:2215   */\n  mul\n    /* \"#utility.yul\":2190:2215   */\n  swap1\n  pop\n    /* \"#utility.yul\":1148:2221   */\ntag_44:\n  swap4\n  swap3\n  pop\n  pop\n  pop\n  jump\t// out\n    /* \"#utility.yul\":2227:2575   */\ntag_12:\n    /* \"#utility.yul\":2267:2274   */\n  0x00\n    /* \"#utility.yul\":2290:2310   */\n  tag_61\n    /* \"#utility.yul\":2308:2309   */\n  dup3\n    /* \"#utility.yul\":2290:2310   */\n  tag_39\n  jump\t// in\ntag_61:\n    /* \"#utility.yul\":2285:2310   */\n  swap2\n  pop\n    /* \"#utility.yul\":2324:2344   */\n  tag_62\n    /* \"#utility.yul\":2342:2343   */\n  dup4\n    /* \"#utility.yul\":2324:2344   */\n  tag_39\n  jump\t// in\ntag_62:\n    /* \"#utility.yul\":2319:2344   */\n  swap3\n  pop\n    /* \"#utility.yul\":2512:2513   */\n  dup2\n    /* \"#utility.yul\":2444:2510   */\n  0xffffffffffffffffffffffffffffffffffffffffffffffffffffffffffffffff\n    /* \"#utility.yul\":2440:2514   */\n  div\n    /* \"#utility.yul\":2437:2438   */\n  dup4\n    /* \"#utility.yul\":2434:2515   */\n  gt\n    /* \"#utility.yul\":2429:2430   */\n  dup3\n    /* \"#utility.yul\":2422:2431   */\n  iszero\n    /* \"#utility.yul\":2415:2432   */\n  iszero\n    /* \"#utility.yul\":2411:2516   */\n  and\n    /* \"#utility.yul\":2408:2539   */\n  iszero\n  tag_63\n  jumpi\n    /* \"#utility.yul\":2519:2537   */\n  tag_64\n  tag_33\n  jump\t// in\ntag_64:\n    /* \"#utility.yul\":2408:2539   */\ntag_63:\n    /* \"#utility.yul\":2567:2568   */\n  dup3\n    /* \"#utility.yul\":2564:2565   */\n  dup3\n    /* \"#utility.yul\":2560:2569   */\n  mul\n    /* \"#utility.yul\":2549:2569   */\n  swap1\n  pop\n    /* \"#utility.yul\":2227:2575   */\n  swap3\n  swap2\n  pop\n  pop\n  jump\t// out\n    /* \"#utility.yul\":2581:2658   */\ntag_39:\n    /* \"#utility.yul\":2618:2625   */\n  0x00\n    /* \"#utility.yul\":2647:2652   */\n  dup2\n    /* \"#utility.yul\":2636:2652   */\n  swap1\n  pop\n    /* \"#utility.yul\":2581:2658   */\n  swap2\n  swap1\n  pop\n  jump\t// out\n    /* \"#utility.yul\":2664:2750   */\ntag_41:\n    /* \"#utility.yul\":2699:2706   */\n  0x00\n    /* \"#utility.yul\":2739:2743   */\n  0xff\n    /* \"#utility.yul\":2732:2737   */\n  dup3\n    /* \"#utility.yul\":2728:2744   */\n  and\n    /* \"#utility.yul\":2717:2744   */\n  swap1\n  pop\n    /* \"#utility.yul\":2664:2750   */\n  swap2\n  swap1\n  pop\n  jump\t// out\n    /* \"#utility.yul\":2756:3076   */\ntag_15:\n    /* \"#utility.yul\":2800:2806   */\n  0x00\n    /* \"#utility.yul\":2837:2838   */\n  0x02\n    /* \"#utility.yul\":2831:2835   */\n  dup3\n    /* \"#utility.yul\":2827:2839   */\n  div\n    /* \"#utility.yul\":2817:2839   */\n  swap1\n  pop\n    /* \"#utility.yul\":2884:2885   */\n  0x01\n    /* \"#utility.yul\":2878:2882   */\n  dup3\n    /* \"#utility.yul\":2874:2886   */\n  and\n    /* \"#utility.yul\":2905:2923   */\n  dup1\n    /* \"#utility.yul\":2895:2976   */\n  tag_68\n  jumpi\n    /* \"#utility.yul\":2961:2965   */\n  0x7f\n    /* \"#utility.yul\":2953:2959   */\n  dup3\n    /* \"#utility.yul\":2949:2966   */\n  and\n    /* \"#utility.yul\":2939:2966   */\n  swap2\n  pop\n    /* \"#utility.yul\":2895:2976   */\ntag_68:\n    /* \"#utility.yul\":3023:3025   */\n  0x20\n    /* \"#utility.yul\":3015:3021   */\n  dup3\n    /* \"#utility.yul\":3012:3026   */\n  lt\n    /* \"#utility.yul\":2992:3010   */\n  dup2\n    /* \"#utility.yul\":2989:3027   */\n  eq\n    /* \"#utility.yul\":2986:3070   */\n  iszero\n  tag_69\n  jumpi\n    /* \"#utility.yul\":3042:3060   */\n  tag_70\n  tag_71\n  jump\t// in\ntag_70:\n    /* \"#utility.yul\":2986:3070   */\ntag_69:\n    /* \"#utility.yul\":2807:3076   */\n  pop\n    /* \"#utility.yul\":2756:3076   */\n  swap2\n  swap1\n  pop\n  jump\t// out\n    /* \"#utility.yul\":3082:3262   */\ntag_33:\n    /* \"#utility.yul\":3130:3207   */\n  0x4e487b7100000000000000000000000000000000000000000000000000000000\n    /* \"#utility.yul\":3127:3128   */\n  0x00\n    /* \"#utility.yul\":3120:3208   */\n  mstore\n    /* \"#utility.yul\":3227:3231   */\n  0x11\n    /* \"#utility.yul\":3224:3225   */\n  0x04\n    /* \"#utility.yul\":3217:3232   */\n  mstore\n    /* \"#utility.yul\":3251:3255   */\n  0x24\n    /* \"#utility.yul\":3248:3249   */\n  0x00\n    /* \"#utility.yul\":3241:3256   */\n  revert\n    /* \"#utility.yul\":3268:3448   */\ntag_71:\n    /* \"#utility.yul\":3316:3393   */\n  0x4e487b7100000000000000000000000000000000000000000000000000000000\n    /* \"#utility.yul\":3313:3314   */\n  0x00\n    /* \"#utility.yul\":3306:3394   */\n  mstore\n    /* \"#utility.yul\":3413:3417   */\n  0x22\n    /* \"#utility.yul\":3410:3411   */\n  0x04\n    /* \"#utility.yul\":3403:3418   */\n  mstore\n    /* \"#utility.yul\":3437:3441   */\n  0x24\n    /* \"#utility.yul\":3434:3435   */\n  0x00\n    /* \"#utility.yul\":3427:3442   */\n  revert\n    /* \"#utility.yul\":3454:3556   */\ntag_36:\n    /* \"#utility.yul\":3496:3504   */\n  0x00\n    /* \"#utility.yul\":3543:3548   */\n  dup2\n    /* \"#utility.yul\":3540:3541   */\n  0x01\n    /* \"#utility.yul\":3536:3549   */\n  shr\n    /* \"#utility.yul\":3515:3549   */\n  swap1\n  pop\n    /* \"#utility.yul\":3454:3556   */\n  swap2\n  swap1\n  pop\n  jump\t// out\n    /* \"learning/tokens/AMDToken.sol\":396:1865  contract AMDToken is IERC20, Owned{\r... */\ntag_13:\n  dataSize(sub_0)\n  dup1\n  dataOffset(sub_0)\n  0x00\n  codecopy\n  0x00\n  return\nstop\n\nsub_0: assembly {\n        /* \"learning/tokens/AMDToken.sol\":396:1865  contract AMDToken is IERC20, Owned{\r... */\n      mstore(0x40, 0x80)\n      callvalue\n      dup1\n      iszero\n      tag_1\n      jumpi\n      0x00\n      dup1\n      revert\n    tag_1:\n      pop\n      jumpi(tag_2, lt(calldatasize, 0x04))\n      shr(0xe0, calldataload(0x00))\n      dup1\n      0x70a08231\n      gt\n      tag_15\n      jumpi\n      dup1\n      0x70a08231\n      eq\n      tag_9\n      jumpi\n      dup1\n      0x8da5cb5b\n      eq\n      tag_10\n      jumpi\n      dup1\n      0x95d89b41\n      eq\n      tag_11\n      jumpi\n      dup1\n      0xa9059cbb\n      eq\n      tag_12\n      jumpi\n      dup1\n      0xdd62ed3e\n      eq\n      tag_13\n      jumpi\n      dup1\n      0xf2fde38b\n      eq\n      tag_14\n      jumpi\n      jump(tag_2)\n    tag_15:\n      dup1\n      0x06fdde03\n      eq\n      tag_3\n      jumpi\n      dup1\n      0x07546172\n      eq\n      tag_4\n      jumpi\n      dup1\n      0x095ea7b3\n      eq\n      tag_5\n      jumpi\n      dup1\n      0x18160ddd\n      eq\n      tag_6\n      jumpi\n      dup1\n      0x23b872dd\n      eq\n      tag_7\n      jumpi\n      dup1\n      0x313ce567\n      eq\n      tag_8\n      jumpi\n    tag_2:\n      0x00\n      dup1\n      revert\n        /* \"learning/tokens/AMDToken.sol\":439:466  string override public name */\n    tag_3:\n      tag_16\n      tag_17\n      jump\t// in\n    tag_16:\n      mload(0x40)\n      tag_18\n      swap2\n      swap1\n      tag_19\n      jump\t// in\n    tag_18:\n      mload(0x40)\n      dup1\n      swap2\n      sub\n      swap1\n      return\n        /* \"learning/tokens/AMDToken.sol\":652:673  address public minter */\n    tag_4:\n      tag_20\n      tag_21\n      jump\t// in\n    tag_20:\n      mload(0x40)\n      tag_22\n      swap2\n      swap1\n      tag_23\n      jump\t// in\n    tag_22:\n      mload(0x40)\n      dup1\n      swap2\n      sub\n      swap1\n      return\n        /* \"learning/tokens/AMDToken.sol\":1603:1724  function approve(address _spender, uint256 _value) override external returns (bool success){\r... */\n    tag_5:\n      tag_24\n      0x04\n      dup1\n      calldatasize\n      sub\n      dup2\n      add\n      swap1\n      tag_25\n      swap2\n      swap1\n      tag_26\n      jump\t// in\n    tag_25:\n      tag_27\n      jump\t// in\n    tag_24:\n      mload(0x40)\n      tag_28\n      swap2\n      swap1\n      tag_29\n      jump\t// in\n    tag_28:\n      mload(0x40)\n      dup1\n      swap2\n      sub\n      swap1\n      return\n        /* \"learning/tokens/AMDToken.sol\":546:581  uint256 override public totalSupply */\n    tag_6:\n      tag_30\n      tag_31\n      jump\t// in\n    tag_30:\n      mload(0x40)\n      tag_32\n      swap2\n      swap1\n      tag_33\n      jump\t// in\n    tag_32:\n      mload(0x40)\n      dup1\n      swap2\n      sub\n      swap1\n      return\n        /* \"learning/tokens/AMDToken.sol\":926:1257  function transferFrom(address _from, address _to, uint256 _value) override external  returns (bool success){\r... */\n    tag_7:\n      tag_34\n      0x04\n      dup1\n      calldatasize\n      sub\n      dup2\n      add\n      swap1\n      tag_35\n      swap2\n      swap1\n      tag_36\n      jump\t// in\n    tag_35:\n      tag_37\n      jump\t// in\n    tag_34:\n      mload(0x40)\n      tag_38\n      swap2\n      swap1\n      tag_29\n      jump\t// in\n    tag_38:\n      mload(0x40)\n      dup1\n      swap2\n      sub\n      swap1\n      return\n        /* \"learning/tokens/AMDToken.sol\":509:539  uint8 override public decimals */\n    tag_8:\n      tag_39\n      tag_40\n      jump\t// in\n    tag_39:\n      mload(0x40)\n      tag_41\n      swap2\n      swap1\n      tag_42\n      jump\t// in\n    tag_41:\n      mload(0x40)\n      dup1\n      swap2\n      sub\n      swap1\n      return\n        /* \"learning/tokens/AMDToken.sol\":588:639  mapping(address=>uint256) override public balanceOf */\n    tag_9:\n      tag_43\n      0x04\n      dup1\n      calldatasize\n      sub\n      dup2\n      add\n      swap1\n      tag_44\n      swap2\n      swap1\n      tag_45\n      jump\t// in\n    tag_44:\n      tag_46\n      jump\t// in\n    tag_43:\n      mload(0x40)\n      tag_47\n      swap2\n      swap1\n      tag_33\n      jump\t// in\n    tag_47:\n      mload(0x40)\n      dup1\n      swap2\n      sub\n      swap1\n      return\n        /* \"learning/tokens/AMDToken.sol\":107:127  address public owner */\n    tag_10:\n      tag_48\n      tag_49\n      jump\t// in\n    tag_48:\n      mload(0x40)\n      tag_50\n      swap2\n      swap1\n      tag_23\n      jump\t// in\n    tag_50:\n      mload(0x40)\n      dup1\n      swap2\n      sub\n      swap1\n      return\n        /* \"learning/tokens/AMDToken.sol\":473:502  string override public symbol */\n    tag_11:\n      tag_51\n      tag_52\n      jump\t// in\n    tag_51:\n      mload(0x40)\n      tag_53\n      swap2\n      swap1\n      tag_19\n      jump\t// in\n    tag_53:\n      mload(0x40)\n      dup1\n      swap2\n      sub\n      swap1\n      return\n        /* \"learning/tokens/AMDToken.sol\":1265:1591  function transfer(address _to, uint256 _value) override external returns (bool success){\r... */\n    tag_12:\n      tag_54\n      0x04\n      dup1\n      calldatasize\n      sub\n      dup2\n      add\n      swap1\n      tag_55\n      swap2\n      swap1\n      tag_26\n      jump\t// in\n    tag_55:\n      tag_56\n      jump\t// in\n    tag_54:\n      mload(0x40)\n      tag_57\n      swap2\n      swap1\n      tag_29\n      jump\t// in\n    tag_57:\n      mload(0x40)\n      dup1\n      swap2\n      sub\n      swap1\n      return\n        /* \"learning/tokens/AMDToken.sol\":1730:1860  function allowance(address _owner, address _spender) override external view returns (uint256 remaining){\r... */\n    tag_13:\n      tag_58\n      0x04\n      dup1\n      calldatasize\n      sub\n      dup2\n      add\n      swap1\n      tag_59\n      swap2\n      swap1\n      tag_60\n      jump\t// in\n    tag_59:\n      tag_61\n      jump\t// in\n    tag_58:\n      mload(0x40)\n      tag_62\n      swap2\n      swap1\n      tag_33\n      jump\t// in\n    tag_62:\n      mload(0x40)\n      dup1\n      swap2\n      sub\n      swap1\n      return\n        /* \"learning/tokens/AMDToken.sol\":307:387  function transferOwnership(address _newOwner) public onlyOwner{\r... */\n    tag_14:\n      tag_63\n      0x04\n      dup1\n      calldatasize\n      sub\n      dup2\n      add\n      swap1\n      tag_64\n      swap2\n      swap1\n      tag_45\n      jump\t// in\n    tag_64:\n      tag_65\n      jump\t// in\n    tag_63:\n      stop\n        /* \"learning/tokens/AMDToken.sol\":439:466  string override public name */\n    tag_17:\n      0x01\n      dup1\n      sload\n      tag_66\n      swap1\n      tag_67\n      jump\t// in\n    tag_66:\n      dup1\n      0x1f\n      add\n      0x20\n      dup1\n      swap2\n      div\n      mul\n      0x20\n      add\n      mload(0x40)\n      swap1\n      dup2\n      add\n      0x40\n      mstore\n      dup1\n      swap3\n      swap2\n      swap1\n      dup2\n      dup2\n      mstore\n      0x20\n      add\n      dup3\n      dup1\n      sload\n      tag_68\n      swap1\n      tag_67\n      jump\t// in\n    tag_68:\n      dup1\n      iszero\n      tag_69\n      jumpi\n      dup1\n      0x1f\n      lt\n      tag_70\n      jumpi\n      0x0100\n      dup1\n      dup4\n      sload\n      div\n      mul\n      dup4\n      mstore\n      swap2\n      0x20\n      add\n      swap2\n      jump(tag_69)\n    tag_70:\n      dup3\n      add\n      swap2\n      swap1\n      0x00\n      mstore\n      keccak256(0x00, 0x20)\n      swap1\n    tag_71:\n      dup2\n      sload\n      dup2\n      mstore\n      swap1\n      0x01\n      add\n      swap1\n      0x20\n      add\n      dup1\n      dup4\n      gt\n      tag_71\n      jumpi\n      dup3\n      swap1\n      sub\n      0x1f\n      and\n      dup3\n      add\n      swap2\n    tag_69:\n      pop\n      pop\n      pop\n      pop\n      pop\n      dup2\n      jump\t// out\n        /* \"learning/tokens/AMDToken.sol\":652:673  address public minter */\n    tag_21:\n      0x06\n      0x00\n      swap1\n      sload\n      swap1\n      0x0100\n      exp\n      swap1\n      div\n      0xffffffffffffffffffffffffffffffffffffffff\n      and\n      dup2\n      jump\t// out\n        /* \"learning/tokens/AMDToken.sol\":1603:1724  function approve(address _spender, uint256 _value) override external returns (bool success){\r... */\n    tag_27:\n        /* \"learning/tokens/AMDToken.sol\":1681:1693  bool success */\n      0x00\n        /* \"learning/tokens/AMDToken.sol\":1712:1716  true */\n      0x01\n        /* \"learning/tokens/AMDToken.sol\":1705:1716  return true */\n      swap1\n      pop\n        /* \"learning/tokens/AMDToken.sol\":1603:1724  function approve(address _spender, uint256 _value) override external returns (bool success){\r... */\n      swap3\n      swap2\n      pop\n      pop\n      jump\t// out\n        /* \"learning/tokens/AMDToken.sol\":546:581  uint256 override public totalSupply */\n    tag_31:\n      sload(0x04)\n      dup2\n      jump\t// out\n        /* \"learning/tokens/AMDToken.sol\":926:1257  function transferFrom(address _from, address _to, uint256 _value) override external  returns (bool success){\r... */\n    tag_37:\n        /* \"learning/tokens/AMDToken.sol\":1020:1032  bool success */\n      0x00\n        /* \"learning/tokens/AMDToken.sol\":1070:1076  _value */\n      dup2\n        /* \"learning/tokens/AMDToken.sol\":1052:1061  balanceOf */\n      0x05\n        /* \"learning/tokens/AMDToken.sol\":1052:1068  balanceOf[_from] */\n      0x00\n        /* \"learning/tokens/AMDToken.sol\":1062:1067  _from */\n      dup7\n        /* \"learning/tokens/AMDToken.sol\":1052:1068  balanceOf[_from] */\n      0xffffffffffffffffffffffffffffffffffffffff\n      and\n      0xffffffffffffffffffffffffffffffffffffffff\n      and\n      dup2\n      mstore\n      0x20\n      add\n      swap1\n      dup2\n      mstore\n      0x20\n      add\n      0x00\n      keccak256\n      sload\n        /* \"learning/tokens/AMDToken.sol\":1052:1076  balanceOf[_from]>=_value */\n      lt\n      iszero\n        /* \"learning/tokens/AMDToken.sol\":1044:1111  require(balanceOf[_from]>=_value,\"sender dont have enough balance\") */\n      tag_74\n      jumpi\n      mload(0x40)\n      0x08c379a000000000000000000000000000000000000000000000000000000000\n      dup2\n      mstore\n      0x04\n      add\n      tag_75\n      swap1\n      tag_76\n      jump\t// in\n    tag_75:\n      mload(0x40)\n      dup1\n      swap2\n      sub\n      swap1\n      revert\n    tag_74:\n        /* \"learning/tokens/AMDToken.sol\":1142:1148  _value */\n      dup2\n        /* \"learning/tokens/AMDToken.sol\":1122:1131  balanceOf */\n      0x05\n        /* \"learning/tokens/AMDToken.sol\":1122:1138  balanceOf[_from] */\n      0x00\n        /* \"learning/tokens/AMDToken.sol\":1132:1137  _from */\n      dup7\n        /* \"learning/tokens/AMDToken.sol\":1122:1138  balanceOf[_from] */\n      0xffffffffffffffffffffffffffffffffffffffff\n      and\n      0xffffffffffffffffffffffffffffffffffffffff\n      and\n      dup2\n      mstore\n      0x20\n      add\n      swap1\n      dup2\n      mstore\n      0x20\n      add\n      0x00\n      keccak256\n      0x00\n        /* \"learning/tokens/AMDToken.sol\":1122:1148  balanceOf[_from] -= _value */\n      dup3\n      dup3\n      sload\n      tag_77\n      swap2\n      swap1\n      tag_78\n      jump\t// in\n    tag_77:\n      swap3\n      pop\n      pop\n      dup2\n      swap1\n      sstore\n      pop\n        /* \"learning/tokens/AMDToken.sol\":1177:1183  _value */\n      dup2\n        /* \"learning/tokens/AMDToken.sol\":1159:1168  balanceOf */\n      0x05\n        /* \"learning/tokens/AMDToken.sol\":1159:1173  balanceOf[_to] */\n      0x00\n        /* \"learning/tokens/AMDToken.sol\":1169:1172  _to */\n      dup6\n        /* \"learning/tokens/AMDToken.sol\":1159:1173  balanceOf[_to] */\n      0xffffffffffffffffffffffffffffffffffffffff\n      and\n      0xffffffffffffffffffffffffffffffffffffffff\n      and\n      dup2\n      mstore\n      0x20\n      add\n      swap1\n      dup2\n      mstore\n      0x20\n      add\n      0x00\n      keccak256\n      0x00\n        /* \"learning/tokens/AMDToken.sol\":1159:1183  balanceOf[_to] += _value */\n      dup3\n      dup3\n      sload\n      tag_79\n      swap2\n      swap1\n      tag_80\n      jump\t// in\n    tag_79:\n      swap3\n      pop\n      pop\n      dup2\n      swap1\n      sstore\n      pop\n        /* \"learning/tokens/AMDToken.sol\":1215:1218  _to */\n      dup3\n        /* \"learning/tokens/AMDToken.sol\":1199:1227  Transfer(_from, _to, _value) */\n      0xffffffffffffffffffffffffffffffffffffffff\n      and\n        /* \"learning/tokens/AMDToken.sol\":1208:1213  _from */\n      dup5\n        /* \"learning/tokens/AMDToken.sol\":1199:1227  Transfer(_from, _to, _value) */\n      0xffffffffffffffffffffffffffffffffffffffff\n      and\n      0xddf252ad1be2c89b69c2b068fc378daa952ba7f163c4a11628f55a4df523b3ef\n        /* \"learning/tokens/AMDToken.sol\":1220:1226  _value */\n      dup5\n        /* \"learning/tokens/AMDToken.sol\":1199:1227  Transfer(_from, _to, _value) */\n      mload(0x40)\n      tag_81\n      swap2\n      swap1\n      tag_33\n      jump\t// in\n    tag_81:\n      mload(0x40)\n      dup1\n      swap2\n      sub\n      swap1\n      log3\n        /* \"learning/tokens/AMDToken.sol\":1245:1249  true */\n      0x01\n        /* \"learning/tokens/AMDToken.sol\":1238:1249  return true */\n      swap1\n      pop\n        /* \"learning/tokens/AMDToken.sol\":926:1257  function transferFrom(address _from, address _to, uint256 _value) override external  returns (bool success){\r... */\n      swap4\n      swap3\n      pop\n      pop\n      pop\n      jump\t// out\n        /* \"learning/tokens/AMDToken.sol\":509:539  uint8 override public decimals */\n    tag_40:\n      0x03\n      0x00\n      swap1\n      sload\n      swap1\n      0x0100\n      exp\n      swap1\n      div\n      0xff\n      and\n      dup2\n      jump\t// out\n        /* \"learning/tokens/AMDToken.sol\":588:639  mapping(address=>uint256) override public balanceOf */\n    tag_46:\n      mstore(0x20, 0x05)\n      dup1\n      0x00\n      mstore\n      keccak256(0x00, 0x40)\n      0x00\n      swap2\n      pop\n      swap1\n      pop\n      sload\n      dup2\n      jump\t// out\n        /* \"learning/tokens/AMDToken.sol\":107:127  address public owner */\n    tag_49:\n      0x00\n      dup1\n      sload\n      swap1\n      0x0100\n      exp\n      swap1\n      div\n      0xffffffffffffffffffffffffffffffffffffffff\n      and\n      dup2\n      jump\t// out\n        /* \"learning/tokens/AMDToken.sol\":473:502  string override public symbol */\n    tag_52:\n      0x02\n      dup1\n      sload\n      tag_82\n      swap1\n      tag_67\n      jump\t// in\n    tag_82:\n      dup1\n      0x1f\n      add\n      0x20\n      dup1\n      swap2\n      div\n      mul\n      0x20\n      add\n      mload(0x40)\n      swap1\n      dup2\n      add\n      0x40\n      mstore\n      dup1\n      swap3\n      swap2\n      swap1\n      dup2\n      dup2\n      mstore\n      0x20\n      add\n      dup3\n      dup1\n      sload\n      tag_83\n      swap1\n      tag_67\n      jump\t// in\n    tag_83:\n      dup1\n      iszero\n      tag_84\n      jumpi\n      dup1\n      0x1f\n      lt\n      tag_85\n      jumpi\n      0x0100\n      dup1\n      dup4\n      sload\n      div\n      mul\n      dup4\n      mstore\n      swap2\n      0x20\n      add\n      swap2\n      jump(tag_84)\n    tag_85:\n      dup3\n      add\n      swap2\n      swap1\n      0x00\n      mstore\n      keccak256(0x00, 0x20)\n      swap1\n    tag_86:\n      dup2\n      sload\n      dup2\n      mstore\n      swap1\n      0x01\n      add\n      swap1\n      0x20\n      add\n      dup1\n      dup4\n      gt\n      tag_86\n      jumpi\n      dup3\n      swap1\n      sub\n      0x1f\n      and\n      dup3\n      add\n      swap2\n    tag_84:\n      pop\n      pop\n      pop\n      pop\n      pop\n      dup2\n      jump\t// out\n        /* \"learning/tokens/AMDToken.sol\":1265:1591  function transfer(address _to, uint256 _value) override external returns (bool success){\r... */\n    tag_56:\n        /* \"learning/tokens/AMDToken.sol\":1339:1351  bool success */\n      0x00\n        /* \"learning/tokens/AMDToken.sol\":1394:1400  _value */\n      dup2\n        /* \"learning/tokens/AMDToken.sol\":1371:1380  balanceOf */\n      0x05\n        /* \"learning/tokens/AMDToken.sol\":1371:1392  balanceOf[msg.sender] */\n      0x00\n        /* \"learning/tokens/AMDToken.sol\":1381:1391  msg.sender */\n      caller\n        /* \"learning/tokens/AMDToken.sol\":1371:1392  balanceOf[msg.sender] */\n      0xffffffffffffffffffffffffffffffffffffffff\n      and\n      0xffffffffffffffffffffffffffffffffffffffff\n      and\n      dup2\n      mstore\n      0x20\n      add\n      swap1\n      dup2\n      mstore\n      0x20\n      add\n      0x00\n      keccak256\n      sload\n        /* \"learning/tokens/AMDToken.sol\":1371:1400  balanceOf[msg.sender]>=_value */\n      lt\n      iszero\n        /* \"learning/tokens/AMDToken.sol\":1363:1435  require(balanceOf[msg.sender]>=_value,\"sender dont have enough balance\") */\n      tag_88\n      jumpi\n      mload(0x40)\n      0x08c379a000000000000000000000000000000000000000000000000000000000\n      dup2\n      mstore\n      0x04\n      add\n      tag_89\n      swap1\n      tag_76\n      jump\t// in\n    tag_89:\n      mload(0x40)\n      dup1\n      swap2\n      sub\n      swap1\n      revert\n    tag_88:\n        /* \"learning/tokens/AMDToken.sol\":1471:1477  _value */\n      dup2\n        /* \"learning/tokens/AMDToken.sol\":1446:1455  balanceOf */\n      0x05\n        /* \"learning/tokens/AMDToken.sol\":1446:1467  balanceOf[msg.sender] */\n      0x00\n        /* \"learning/tokens/AMDToken.sol\":1456:1466  msg.sender */\n      caller\n        /* \"learning/tokens/AMDToken.sol\":1446:1467  balanceOf[msg.sender] */\n      0xffffffffffffffffffffffffffffffffffffffff\n      and\n      0xffffffffffffffffffffffffffffffffffffffff\n      and\n      dup2\n      mstore\n      0x20\n      add\n      swap1\n      dup2\n      mstore\n      0x20\n      add\n      0x00\n      keccak256\n      0x00\n        /* \"learning/tokens/AMDToken.sol\":1446:1477  balanceOf[msg.sender] -= _value */\n      dup3\n      dup3\n      sload\n      tag_90\n      swap2\n      swap1\n      tag_78\n      jump\t// in\n    tag_90:\n      swap3\n      pop\n      pop\n      dup2\n      swap1\n      sstore\n      pop\n        /* \"learning/tokens/AMDToken.sol\":1506:1512  _value */\n      dup2\n        /* \"learning/tokens/AMDToken.sol\":1488:1497  balanceOf */\n      0x05\n        /* \"learning/tokens/AMDToken.sol\":1488:1502  balanceOf[_to] */\n      0x00\n        /* \"learning/tokens/AMDToken.sol\":1498:1501  _to */\n      dup6\n        /* \"learning/tokens/AMDToken.sol\":1488:1502  balanceOf[_to] */\n      0xffffffffffffffffffffffffffffffffffffffff\n      and\n      0xffffffffffffffffffffffffffffffffffffffff\n      and\n      dup2\n      mstore\n      0x20\n      add\n      swap1\n      dup2\n      mstore\n      0x20\n      add\n      0x00\n      keccak256\n      0x00\n        /* \"learning/tokens/AMDToken.sol\":1488:1512  balanceOf[_to] += _value */\n      dup3\n      dup3\n      sload\n      tag_91\n      swap2\n      swap1\n      tag_80\n      jump\t// in\n    tag_91:\n      swap3\n      pop\n      pop\n      dup2\n      swap1\n      sstore\n      pop\n        /* \"learning/tokens/AMDToken.sol\":1549:1552  _to */\n      dup3\n        /* \"learning/tokens/AMDToken.sol\":1528:1561  Transfer(msg.sender, _to, _value) */\n      0xffffffffffffffffffffffffffffffffffffffff\n      and\n        /* \"learning/tokens/AMDToken.sol\":1537:1547  msg.sender */\n      caller\n        /* \"learning/tokens/AMDToken.sol\":1528:1561  Transfer(msg.sender, _to, _value) */\n      0xffffffffffffffffffffffffffffffffffffffff\n      and\n      0xddf252ad1be2c89b69c2b068fc378daa952ba7f163c4a11628f55a4df523b3ef\n        /* \"learning/tokens/AMDToken.sol\":1554:1560  _value */\n      dup5\n        /* \"learning/tokens/AMDToken.sol\":1528:1561  Transfer(msg.sender, _to, _value) */\n      mload(0x40)\n      tag_92\n      swap2\n      swap1\n      tag_33\n      jump\t// in\n    tag_92:\n      mload(0x40)\n      dup1\n      swap2\n      sub\n      swap1\n      log3\n        /* \"learning/tokens/AMDToken.sol\":1579:1583  true */\n      0x01\n        /* \"learning/tokens/AMDToken.sol\":1572:1583  return true */\n      swap1\n      pop\n        /* \"learning/tokens/AMDToken.sol\":1265:1591  function transfer(address _to, uint256 _value) override external returns (bool success){\r... */\n      swap3\n      swap2\n      pop\n      pop\n      jump\t// out\n        /* \"learning/tokens/AMDToken.sol\":1730:1860  function allowance(address _owner, address _spender) override external view returns (uint256 remaining){\r... */\n    tag_61:\n        /* \"learning/tokens/AMDToken.sol\":1815:1832  uint256 remaining */\n      0x00\n        /* \"learning/tokens/AMDToken.sol\":1851:1852  2 */\n      0x02\n        /* \"learning/tokens/AMDToken.sol\":1844:1852  return 2 */\n      swap1\n      pop\n        /* \"learning/tokens/AMDToken.sol\":1730:1860  function allowance(address _owner, address _spender) override external view returns (uint256 remaining){\r... */\n      swap3\n      swap2\n      pop\n      pop\n      jump\t// out\n        /* \"learning/tokens/AMDToken.sol\":307:387  function transferOwnership(address _newOwner) public onlyOwner{\r... */\n    tag_65:\n        /* \"learning/tokens/AMDToken.sol\":191:196  owner */\n      0x00\n      dup1\n      sload\n      swap1\n      0x0100\n      exp\n      swap1\n      div\n      0xffffffffffffffffffffffffffffffffffffffff\n      and\n        /* \"learning/tokens/AMDToken.sol\":179:196  msg.sender==owner */\n      0xffffffffffffffffffffffffffffffffffffffff\n      and\n        /* \"learning/tokens/AMDToken.sol\":179:189  msg.sender */\n      caller\n        /* \"learning/tokens/AMDToken.sol\":179:196  msg.sender==owner */\n      0xffffffffffffffffffffffffffffffffffffffff\n      and\n      eq\n        /* \"learning/tokens/AMDToken.sol\":171:223  require(msg.sender==owner,\"Only owner can run this\") */\n      tag_95\n      jumpi\n      mload(0x40)\n      0x08c379a000000000000000000000000000000000000000000000000000000000\n      dup2\n      mstore\n      0x04\n      add\n      tag_96\n      swap1\n      tag_97\n      jump\t// in\n    tag_96:\n      mload(0x40)\n      dup1\n      swap2\n      sub\n      swap1\n      revert\n    tag_95:\n        /* \"learning/tokens/AMDToken.sol\":307:387  function transferOwnership(address _newOwner) public onlyOwner{\r... */\n      pop\n      jump\t// out\n        /* \"#utility.yul\":7:146   */\n    tag_100:\n        /* \"#utility.yul\":53:58   */\n      0x00\n        /* \"#utility.yul\":91:97   */\n      dup2\n        /* \"#utility.yul\":78:98   */\n      calldataload\n        /* \"#utility.yul\":69:98   */\n      swap1\n      pop\n        /* \"#utility.yul\":107:140   */\n      tag_102\n        /* \"#utility.yul\":134:139   */\n      dup2\n        /* \"#utility.yul\":107:140   */\n      tag_103\n      jump\t// in\n    tag_102:\n        /* \"#utility.yul\":7:146   */\n      swap3\n      swap2\n      pop\n      pop\n      jump\t// out\n        /* \"#utility.yul\":152:291   */\n    tag_104:\n        /* \"#utility.yul\":198:203   */\n      0x00\n        /* \"#utility.yul\":236:242   */\n      dup2\n        /* \"#utility.yul\":223:243   */\n      calldataload\n        /* \"#utility.yul\":214:243   */\n      swap1\n      pop\n        /* \"#utility.yul\":252:285   */\n      tag_106\n        /* \"#utility.yul\":279:284   */\n      dup2\n        /* \"#utility.yul\":252:285   */\n      tag_107\n      jump\t// in\n    tag_106:\n        /* \"#utility.yul\":152:291   */\n      swap3\n      swap2\n      pop\n      pop\n      jump\t// out\n        /* \"#utility.yul\":297:626   */\n    tag_45:\n        /* \"#utility.yul\":356:362   */\n      0x00\n        /* \"#utility.yul\":405:407   */\n      0x20\n        /* \"#utility.yul\":393:402   */\n      dup3\n        /* \"#utility.yul\":384:391   */\n      dup5\n        /* \"#utility.yul\":380:403   */\n      sub\n        /* \"#utility.yul\":376:408   */\n      slt\n        /* \"#utility.yul\":373:492   */\n      iszero\n      tag_109\n      jumpi\n        /* \"#utility.yul\":411:490   */\n      tag_110\n      tag_111\n      jump\t// in\n    tag_110:\n        /* \"#utility.yul\":373:492   */\n    tag_109:\n        /* \"#utility.yul\":531:532   */\n      0x00\n        /* \"#utility.yul\":556:609   */\n      tag_112\n        /* \"#utility.yul\":601:608   */\n      dup5\n        /* \"#utility.yul\":592:598   */\n      dup3\n        /* \"#utility.yul\":581:590   */\n      dup6\n        /* \"#utility.yul\":577:599   */\n      add\n        /* \"#utility.yul\":556:609   */\n      tag_100\n      jump\t// in\n    tag_112:\n        /* \"#utility.yul\":546:609   */\n      swap2\n      pop\n        /* \"#utility.yul\":502:619   */\n      pop\n        /* \"#utility.yul\":297:626   */\n      swap3\n      swap2\n      pop\n      pop\n      jump\t// out\n        /* \"#utility.yul\":632:1106   */\n    tag_60:\n        /* \"#utility.yul\":700:706   */\n      0x00\n        /* \"#utility.yul\":708:714   */\n      dup1\n        /* \"#utility.yul\":757:759   */\n      0x40\n        /* \"#utility.yul\":745:754   */\n      dup4\n        /* \"#utility.yul\":736:743   */\n      dup6\n        /* \"#utility.yul\":732:755   */\n      sub\n        /* \"#utility.yul\":728:760   */\n      slt\n        /* \"#utility.yul\":725:844   */\n      iszero\n      tag_114\n      jumpi\n        /* \"#utility.yul\":763:842   */\n      tag_115\n      tag_111\n      jump\t// in\n    tag_115:\n        /* \"#utility.yul\":725:844   */\n    tag_114:\n        /* \"#utility.yul\":883:884   */\n      0x00\n        /* \"#utility.yul\":908:961   */\n      tag_116\n        /* \"#utility.yul\":953:960   */\n      dup6\n        /* \"#utility.yul\":944:950   */\n      dup3\n        /* \"#utility.yul\":933:942   */\n      dup7\n        /* \"#utility.yul\":929:951   */\n      add\n        /* \"#utility.yul\":908:961   */\n      tag_100\n      jump\t// in\n    tag_116:\n        /* \"#utility.yul\":898:961   */\n      swap3\n      pop\n        /* \"#utility.yul\":854:971   */\n      pop\n        /* \"#utility.yul\":1010:1012   */\n      0x20\n        /* \"#utility.yul\":1036:1089   */\n      tag_117\n        /* \"#utility.yul\":1081:1088   */\n      dup6\n        /* \"#utility.yul\":1072:1078   */\n      dup3\n        /* \"#utility.yul\":1061:1070   */\n      dup7\n        /* \"#utility.yul\":1057:1079   */\n      add\n        /* \"#utility.yul\":1036:1089   */\n      tag_100\n      jump\t// in\n    tag_117:\n        /* \"#utility.yul\":1026:1089   */\n      swap2\n      pop\n        /* \"#utility.yul\":981:1099   */\n      pop\n        /* \"#utility.yul\":632:1106   */\n      swap3\n      pop\n      swap3\n      swap1\n      pop\n      jump\t// out\n        /* \"#utility.yul\":1112:1731   */\n    tag_36:\n        /* \"#utility.yul\":1189:1195   */\n      0x00\n        /* \"#utility.yul\":1197:1203   */\n      dup1\n        /* \"#utility.yul\":1205:1211   */\n      0x00\n        /* \"#utility.yul\":1254:1256   */\n      0x60\n        /* \"#utility.yul\":1242:1251   */\n      dup5\n        /* \"#utility.yul\":1233:1240   */\n      dup7\n        /* \"#utility.yul\":1229:1252   */\n      sub\n        /* \"#utility.yul\":1225:1257   */\n      slt\n        /* \"#utility.yul\":1222:1341   */\n      iszero\n      tag_119\n      jumpi\n        /* \"#utility.yul\":1260:1339   */\n      tag_120\n      tag_111\n      jump\t// in\n    tag_120:\n        /* \"#utility.yul\":1222:1341   */\n    tag_119:\n        /* \"#utility.yul\":1380:1381   */\n      0x00\n        /* \"#utility.yul\":1405:1458   */\n      tag_121\n        /* \"#utility.yul\":1450:1457   */\n      dup7\n        /* \"#utility.yul\":1441:1447   */\n      dup3\n        /* \"#utility.yul\":1430:1439   */\n      dup8\n        /* \"#utility.yul\":1426:1448   */\n      add\n        /* \"#utility.yul\":1405:1458   */\n      tag_100\n      jump\t// in\n    tag_121:\n        /* \"#utility.yul\":1395:1458   */\n      swap4\n      pop\n        /* \"#utility.yul\":1351:1468   */\n      pop\n        /* \"#utility.yul\":1507:1509   */\n      0x20\n        /* \"#utility.yul\":1533:1586   */\n      tag_122\n        /* \"#utility.yul\":1578:1585   */\n      dup7\n        /* \"#utility.yul\":1569:1575   */\n      dup3\n        /* \"#utility.yul\":1558:1567   */\n      dup8\n        /* \"#utility.yul\":1554:1576   */\n      add\n        /* \"#utility.yul\":1533:1586   */\n      tag_100\n      jump\t// in\n    tag_122:\n        /* \"#utility.yul\":1523:1586   */\n      swap3\n      pop\n        /* \"#utility.yul\":1478:1596   */\n      pop\n        /* \"#utility.yul\":1635:1637   */\n      0x40\n        /* \"#utility.yul\":1661:1714   */\n      tag_123\n        /* \"#utility.yul\":1706:1713   */\n      dup7\n        /* \"#utility.yul\":1697:1703   */\n      dup3\n        /* \"#utility.yul\":1686:1695   */\n      dup8\n        /* \"#utility.yul\":1682:1704   */\n      add\n        /* \"#utility.yul\":1661:1714   */\n      tag_104\n      jump\t// in\n    tag_123:\n        /* \"#utility.yul\":1651:1714   */\n      swap2\n      pop\n        /* \"#utility.yul\":1606:1724   */\n      pop\n        /* \"#utility.yul\":1112:1731   */\n      swap3\n      pop\n      swap3\n      pop\n      swap3\n      jump\t// out\n        /* \"#utility.yul\":1737:2211   */\n    tag_26:\n        /* \"#utility.yul\":1805:1811   */\n      0x00\n        /* \"#utility.yul\":1813:1819   */\n      dup1\n        /* \"#utility.yul\":1862:1864   */\n      0x40\n        /* \"#utility.yul\":1850:1859   */\n      dup4\n        /* \"#utility.yul\":1841:1848   */\n      dup6\n        /* \"#utility.yul\":1837:1860   */\n      sub\n        /* \"#utility.yul\":1833:1865   */\n      slt\n        /* \"#utility.yul\":1830:1949   */\n      iszero\n      tag_125\n      jumpi\n        /* \"#utility.yul\":1868:1947   */\n      tag_126\n      tag_111\n      jump\t// in\n    tag_126:\n        /* \"#utility.yul\":1830:1949   */\n    tag_125:\n        /* \"#utility.yul\":1988:1989   */\n      0x00\n        /* \"#utility.yul\":2013:2066   */\n      tag_127\n        /* \"#utility.yul\":2058:2065   */\n      dup6\n        /* \"#utility.yul\":2049:2055   */\n      dup3\n        /* \"#utility.yul\":2038:2047   */\n      dup7\n        /* \"#utility.yul\":2034:2056   */\n      add\n        /* \"#utility.yul\":2013:2066   */\n      tag_100\n      jump\t// in\n    tag_127:\n        /* \"#utility.yul\":2003:2066   */\n      swap3\n      pop\n        /* \"#utility.yul\":1959:2076   */\n      pop\n        /* \"#utility.yul\":2115:2117   */\n      0x20\n        /* \"#utility.yul\":2141:2194   */\n      tag_128\n        /* \"#utility.yul\":2186:2193   */\n      dup6\n        /* \"#utility.yul\":2177:2183   */\n      dup3\n        /* \"#utility.yul\":2166:2175   */\n      dup7\n        /* \"#utility.yul\":2162:2184   */\n      add\n        /* \"#utility.yul\":2141:2194   */\n      tag_104\n      jump\t// in\n    tag_128:\n        /* \"#utility.yul\":2131:2194   */\n      swap2\n      pop\n        /* \"#utility.yul\":2086:2204   */\n      pop\n        /* \"#utility.yul\":1737:2211   */\n      swap3\n      pop\n      swap3\n      swap1\n      pop\n      jump\t// out\n        /* \"#utility.yul\":2217:2335   */\n    tag_129:\n        /* \"#utility.yul\":2304:2328   */\n      tag_131\n        /* \"#utility.yul\":2322:2327   */\n      dup2\n        /* \"#utility.yul\":2304:2328   */\n      tag_132\n      jump\t// in\n    tag_131:\n        /* \"#utility.yul\":2299:2302   */\n      dup3\n        /* \"#utility.yul\":2292:2329   */\n      mstore\n        /* \"#utility.yul\":2217:2335   */\n      pop\n      pop\n      jump\t// out\n        /* \"#utility.yul\":2341:2450   */\n    tag_133:\n        /* \"#utility.yul\":2422:2443   */\n      tag_135\n        /* \"#utility.yul\":2437:2442   */\n      dup2\n        /* \"#utility.yul\":2422:2443   */\n      tag_136\n      jump\t// in\n    tag_135:\n        /* \"#utility.yul\":2417:2420   */\n      dup3\n        /* \"#utility.yul\":2410:2444   */\n      mstore\n        /* \"#utility.yul\":2341:2450   */\n      pop\n      pop\n      jump\t// out\n        /* \"#utility.yul\":2456:2820   */\n    tag_137:\n        /* \"#utility.yul\":2544:2547   */\n      0x00\n        /* \"#utility.yul\":2572:2611   */\n      tag_139\n        /* \"#utility.yul\":2605:2610   */\n      dup3\n        /* \"#utility.yul\":2572:2611   */\n      tag_140\n      jump\t// in\n    tag_139:\n        /* \"#utility.yul\":2627:2698   */\n      tag_141\n        /* \"#utility.yul\":2691:2697   */\n      dup2\n        /* \"#utility.yul\":2686:2689   */\n      dup6\n        /* \"#utility.yul\":2627:2698   */\n      tag_142\n      jump\t// in\n    tag_141:\n        /* \"#utility.yul\":2620:2698   */\n      swap4\n      pop\n        /* \"#utility.yul\":2707:2759   */\n      tag_143\n        /* \"#utility.yul\":2752:2758   */\n      dup2\n        /* \"#utility.yul\":2747:2750   */\n      dup6\n        /* \"#utility.yul\":2740:2744   */\n      0x20\n        /* \"#utility.yul\":2733:2738   */\n      dup7\n        /* \"#utility.yul\":2729:2745   */\n      add\n        /* \"#utility.yul\":2707:2759   */\n      tag_144\n      jump\t// in\n    tag_143:\n        /* \"#utility.yul\":2784:2813   */\n      tag_145\n        /* \"#utility.yul\":2806:2812   */\n      dup2\n        /* \"#utility.yul\":2784:2813   */\n      tag_146\n      jump\t// in\n    tag_145:\n        /* \"#utility.yul\":2779:2782   */\n      dup5\n        /* \"#utility.yul\":2775:2814   */\n      add\n        /* \"#utility.yul\":2768:2814   */\n      swap2\n      pop\n        /* \"#utility.yul\":2548:2820   */\n      pop\n        /* \"#utility.yul\":2456:2820   */\n      swap3\n      swap2\n      pop\n      pop\n      jump\t// out\n        /* \"#utility.yul\":2826:3192   */\n    tag_147:\n        /* \"#utility.yul\":2968:2971   */\n      0x00\n        /* \"#utility.yul\":2989:3056   */\n      tag_149\n        /* \"#utility.yul\":3053:3055   */\n      0x17\n        /* \"#utility.yul\":3048:3051   */\n      dup4\n        /* \"#utility.yul\":2989:3056   */\n      tag_142\n      jump\t// in\n    tag_149:\n        /* \"#utility.yul\":2982:3056   */\n      swap2\n      pop\n        /* \"#utility.yul\":3065:3158   */\n      tag_150\n        /* \"#utility.yul\":3154:3157   */\n      dup3\n        /* \"#utility.yul\":3065:3158   */\n      tag_151\n      jump\t// in\n    tag_150:\n        /* \"#utility.yul\":3183:3185   */\n      0x20\n        /* \"#utility.yul\":3178:3181   */\n      dup3\n        /* \"#utility.yul\":3174:3186   */\n      add\n        /* \"#utility.yul\":3167:3186   */\n      swap1\n      pop\n        /* \"#utility.yul\":2826:3192   */\n      swap2\n      swap1\n      pop\n      jump\t// out\n        /* \"#utility.yul\":3198:3564   */\n    tag_152:\n        /* \"#utility.yul\":3340:3343   */\n      0x00\n        /* \"#utility.yul\":3361:3428   */\n      tag_154\n        /* \"#utility.yul\":3425:3427   */\n      0x1f\n        /* \"#utility.yul\":3420:3423   */\n      dup4\n        /* \"#utility.yul\":3361:3428   */\n      tag_142\n      jump\t// in\n    tag_154:\n        /* \"#utility.yul\":3354:3428   */\n      swap2\n      pop\n        /* \"#utility.yul\":3437:3530   */\n      tag_155\n        /* \"#utility.yul\":3526:3529   */\n      dup3\n        /* \"#utility.yul\":3437:3530   */\n      tag_156\n      jump\t// in\n    tag_155:\n        /* \"#utility.yul\":3555:3557   */\n      0x20\n        /* \"#utility.yul\":3550:3553   */\n      dup3\n        /* \"#utility.yul\":3546:3558   */\n      add\n        /* \"#utility.yul\":3539:3558   */\n      swap1\n      pop\n        /* \"#utility.yul\":3198:3564   */\n      swap2\n      swap1\n      pop\n      jump\t// out\n        /* \"#utility.yul\":3570:3688   */\n    tag_157:\n        /* \"#utility.yul\":3657:3681   */\n      tag_159\n        /* \"#utility.yul\":3675:3680   */\n      dup2\n        /* \"#utility.yul\":3657:3681   */\n      tag_160\n      jump\t// in\n    tag_159:\n        /* \"#utility.yul\":3652:3655   */\n      dup3\n        /* \"#utility.yul\":3645:3682   */\n      mstore\n        /* \"#utility.yul\":3570:3688   */\n      pop\n      pop\n      jump\t// out\n        /* \"#utility.yul\":3694:3806   */\n    tag_161:\n        /* \"#utility.yul\":3777:3799   */\n      tag_163\n        /* \"#utility.yul\":3793:3798   */\n      dup2\n        /* \"#utility.yul\":3777:3799   */\n      tag_164\n      jump\t// in\n    tag_163:\n        /* \"#utility.yul\":3772:3775   */\n      dup3\n        /* \"#utility.yul\":3765:3800   */\n      mstore\n        /* \"#utility.yul\":3694:3806   */\n      pop\n      pop\n      jump\t// out\n        /* \"#utility.yul\":3812:4034   */\n    tag_23:\n        /* \"#utility.yul\":3905:3909   */\n      0x00\n        /* \"#utility.yul\":3943:3945   */\n      0x20\n        /* \"#utility.yul\":3932:3941   */\n      dup3\n        /* \"#utility.yul\":3928:3946   */\n      add\n        /* \"#utility.yul\":3920:3946   */\n      swap1\n      pop\n        /* \"#utility.yul\":3956:4027   */\n      tag_166\n        /* \"#utility.yul\":4024:4025   */\n      0x00\n        /* \"#utility.yul\":4013:4022   */\n      dup4\n        /* \"#utility.yul\":4009:4026   */\n      add\n        /* \"#utility.yul\":4000:4006   */\n      dup5\n        /* \"#utility.yul\":3956:4027   */\n      tag_129\n      jump\t// in\n    tag_166:\n        /* \"#utility.yul\":3812:4034   */\n      swap3\n      swap2\n      pop\n      pop\n      jump\t// out\n        /* \"#utility.yul\":4040:4250   */\n    tag_29:\n        /* \"#utility.yul\":4127:4131   */\n      0x00\n        /* \"#utility.yul\":4165:4167   */\n      0x20\n        /* \"#utility.yul\":4154:4163   */\n      dup3\n        /* \"#utility.yul\":4150:4168   */\n      add\n        /* \"#utility.yul\":4142:4168   */\n      swap1\n      pop\n        /* \"#utility.yul\":4178:4243   */\n      tag_168\n        /* \"#utility.yul\":4240:4241   */\n      0x00\n        /* \"#utility.yul\":4229:4238   */\n      dup4\n        /* \"#utility.yul\":4225:4242   */\n      add\n        /* \"#utility.yul\":4216:4222   */\n      dup5\n        /* \"#utility.yul\":4178:4243   */\n      tag_133\n      jump\t// in\n    tag_168:\n        /* \"#utility.yul\":4040:4250   */\n      swap3\n      swap2\n      pop\n      pop\n      jump\t// out\n        /* \"#utility.yul\":4256:4569   */\n    tag_19:\n        /* \"#utility.yul\":4369:4373   */\n      0x00\n        /* \"#utility.yul\":4407:4409   */\n      0x20\n        /* \"#utility.yul\":4396:4405   */\n      dup3\n        /* \"#utility.yul\":4392:4410   */\n      add\n        /* \"#utility.yul\":4384:4410   */\n      swap1\n      pop\n        /* \"#utility.yul\":4456:4465   */\n      dup2\n        /* \"#utility.yul\":4450:4454   */\n      dup2\n        /* \"#utility.yul\":4446:4466   */\n      sub\n        /* \"#utility.yul\":4442:4443   */\n      0x00\n        /* \"#utility.yul\":4431:4440   */\n      dup4\n        /* \"#utility.yul\":4427:4444   */\n      add\n        /* \"#utility.yul\":4420:4467   */\n      mstore\n        /* \"#utility.yul\":4484:4562   */\n      tag_170\n        /* \"#utility.yul\":4557:4561   */\n      dup2\n        /* \"#utility.yul\":4548:4554   */\n      dup5\n        /* \"#utility.yul\":4484:4562   */\n      tag_137\n      jump\t// in\n    tag_170:\n        /* \"#utility.yul\":4476:4562   */\n      swap1\n      pop\n        /* \"#utility.yul\":4256:4569   */\n      swap3\n      swap2\n      pop\n      pop\n      jump\t// out\n        /* \"#utility.yul\":4575:4994   */\n    tag_97:\n        /* \"#utility.yul\":4741:4745   */\n      0x00\n        /* \"#utility.yul\":4779:4781   */\n      0x20\n        /* \"#utility.yul\":4768:4777   */\n      dup3\n        /* \"#utility.yul\":4764:4782   */\n      add\n        /* \"#utility.yul\":4756:4782   */\n      swap1\n      pop\n        /* \"#utility.yul\":4828:4837   */\n      dup2\n        /* \"#utility.yul\":4822:4826   */\n      dup2\n        /* \"#utility.yul\":4818:4838   */\n      sub\n        /* \"#utility.yul\":4814:4815   */\n      0x00\n        /* \"#utility.yul\":4803:4812   */\n      dup4\n        /* \"#utility.yul\":4799:4816   */\n      add\n        /* \"#utility.yul\":4792:4839   */\n      mstore\n        /* \"#utility.yul\":4856:4987   */\n      tag_172\n        /* \"#utility.yul\":4982:4986   */\n      dup2\n        /* \"#utility.yul\":4856:4987   */\n      tag_147\n      jump\t// in\n    tag_172:\n        /* \"#utility.yul\":4848:4987   */\n      swap1\n      pop\n        /* \"#utility.yul\":4575:4994   */\n      swap2\n      swap1\n      pop\n      jump\t// out\n        /* \"#utility.yul\":5000:5419   */\n    tag_76:\n        /* \"#utility.yul\":5166:5170   */\n      0x00\n        /* \"#utility.yul\":5204:5206   */\n      0x20\n        /* \"#utility.yul\":5193:5202   */\n      dup3\n        /* \"#utility.yul\":5189:5207   */\n      add\n        /* \"#utility.yul\":5181:5207   */\n      swap1\n      pop\n        /* \"#utility.yul\":5253:5262   */\n      dup2\n        /* \"#utility.yul\":5247:5251   */\n      dup2\n        /* \"#utility.yul\":5243:5263   */\n      sub\n        /* \"#utility.yul\":5239:5240   */\n      0x00\n        /* \"#utility.yul\":5228:5237   */\n      dup4\n        /* \"#utility.yul\":5224:5241   */\n      add\n        /* \"#utility.yul\":5217:5264   */\n      mstore\n        /* \"#utility.yul\":5281:5412   */\n      tag_174\n        /* \"#utility.yul\":5407:5411   */\n      dup2\n        /* \"#utility.yul\":5281:5412   */\n      tag_152\n      jump\t// in\n    tag_174:\n        /* \"#utility.yul\":5273:5412   */\n      swap1\n      pop\n        /* \"#utility.yul\":5000:5419   */\n      swap2\n      swap1\n      pop\n      jump\t// out\n        /* \"#utility.yul\":5425:5647   */\n    tag_33:\n        /* \"#utility.yul\":5518:5522   */\n      0x00\n        /* \"#utility.yul\":5556:5558   */\n      0x20\n        /* \"#utility.yul\":5545:5554   */\n      dup3\n        /* \"#utility.yul\":5541:5559   */\n      add\n        /* \"#utility.yul\":5533:5559   */\n      swap1\n      pop\n        /* \"#utility.yul\":5569:5640   */\n      tag_176\n        /* \"#utility.yul\":5637:5638   */\n      0x00\n        /* \"#utility.yul\":5626:5635   */\n      dup4\n        /* \"#utility.yul\":5622:5639   */\n      add\n        /* \"#utility.yul\":5613:5619   */\n      dup5\n        /* \"#utility.yul\":5569:5640   */\n      tag_157\n      jump\t// in\n    tag_176:\n        /* \"#utility.yul\":5425:5647   */\n      swap3\n      swap2\n      pop\n      pop\n      jump\t// out\n        /* \"#utility.yul\":5653:5867   */\n    tag_42:\n        /* \"#utility.yul\":5742:5746   */\n      0x00\n        /* \"#utility.yul\":5780:5782   */\n      0x20\n        /* \"#utility.yul\":5769:5778   */\n      dup3\n        /* \"#utility.yul\":5765:5783   */\n      add\n        /* \"#utility.yul\":5757:5783   */\n      swap1\n      pop\n        /* \"#utility.yul\":5793:5860   */\n      tag_178\n        /* \"#utility.yul\":5857:5858   */\n      0x00\n        /* \"#utility.yul\":5846:5855   */\n      dup4\n        /* \"#utility.yul\":5842:5859   */\n      add\n        /* \"#utility.yul\":5833:5839   */\n      dup5\n        /* \"#utility.yul\":5793:5860   */\n      tag_161\n      jump\t// in\n    tag_178:\n        /* \"#utility.yul\":5653:5867   */\n      swap3\n      swap2\n      pop\n      pop\n      jump\t// out\n        /* \"#utility.yul\":5954:6053   */\n    tag_140:\n        /* \"#utility.yul\":6006:6012   */\n      0x00\n        /* \"#utility.yul\":6040:6045   */\n      dup2\n        /* \"#utility.yul\":6034:6046   */\n      mload\n        /* \"#utility.yul\":6024:6046   */\n      swap1\n      pop\n        /* \"#utility.yul\":5954:6053   */\n      swap2\n      swap1\n      pop\n      jump\t// out\n        /* \"#utility.yul\":6059:6228   */\n    tag_142:\n        /* \"#utility.yul\":6143:6154   */\n      0x00\n        /* \"#utility.yul\":6177:6183   */\n      dup3\n        /* \"#utility.yul\":6172:6175   */\n      dup3\n        /* \"#utility.yul\":6165:6184   */\n      mstore\n        /* \"#utility.yul\":6217:6221   */\n      0x20\n        /* \"#utility.yul\":6212:6215   */\n      dup3\n        /* \"#utility.yul\":6208:6222   */\n      add\n        /* \"#utility.yul\":6193:6222   */\n      swap1\n      pop\n        /* \"#utility.yul\":6059:6228   */\n      swap3\n      swap2\n      pop\n      pop\n      jump\t// out\n        /* \"#utility.yul\":6234:6539   */\n    tag_80:\n        /* \"#utility.yul\":6274:6277   */\n      0x00\n        /* \"#utility.yul\":6293:6313   */\n      tag_184\n        /* \"#utility.yul\":6311:6312   */\n      dup3\n        /* \"#utility.yul\":6293:6313   */\n      tag_160\n      jump\t// in\n    tag_184:\n        /* \"#utility.yul\":6288:6313   */\n      swap2\n      pop\n        /* \"#utility.yul\":6327:6347   */\n      tag_185\n        /* \"#utility.yul\":6345:6346   */\n      dup4\n        /* \"#utility.yul\":6327:6347   */\n      tag_160\n      jump\t// in\n    tag_185:\n        /* \"#utility.yul\":6322:6347   */\n      swap3\n      pop\n        /* \"#utility.yul\":6481:6482   */\n      dup3\n        /* \"#utility.yul\":6413:6479   */\n      0xffffffffffffffffffffffffffffffffffffffffffffffffffffffffffffffff\n        /* \"#utility.yul\":6409:6483   */\n      sub\n        /* \"#utility.yul\":6406:6407   */\n      dup3\n        /* \"#utility.yul\":6403:6484   */\n      gt\n        /* \"#utility.yul\":6400:6507   */\n      iszero\n      tag_186\n      jumpi\n        /* \"#utility.yul\":6487:6505   */\n      tag_187\n      tag_188\n      jump\t// in\n    tag_187:\n        /* \"#utility.yul\":6400:6507   */\n    tag_186:\n        /* \"#utility.yul\":6531:6532   */\n      dup3\n        /* \"#utility.yul\":6528:6529   */\n      dup3\n        /* \"#utility.yul\":6524:6533   */\n      add\n        /* \"#utility.yul\":6517:6533   */\n      swap1\n      pop\n        /* \"#utility.yul\":6234:6539   */\n      swap3\n      swap2\n      pop\n      pop\n      jump\t// out\n        /* \"#utility.yul\":6545:6736   */\n    tag_78:\n        /* \"#utility.yul\":6585:6589   */\n      0x00\n        /* \"#utility.yul\":6605:6625   */\n      tag_190\n        /* \"#utility.yul\":6623:6624   */\n      dup3\n        /* \"#utility.yul\":6605:6625   */\n      tag_160\n      jump\t// in\n    tag_190:\n        /* \"#utility.yul\":6600:6625   */\n      swap2\n      pop\n        /* \"#utility.yul\":6639:6659   */\n      tag_191\n        /* \"#utility.yul\":6657:6658   */\n      dup4\n        /* \"#utility.yul\":6639:6659   */\n      tag_160\n      jump\t// in\n    tag_191:\n        /* \"#utility.yul\":6634:6659   */\n      swap3\n      pop\n        /* \"#utility.yul\":6678:6679   */\n      dup3\n        /* \"#utility.yul\":6675:6676   */\n      dup3\n        /* \"#utility.yul\":6672:6680   */\n      lt\n        /* \"#utility.yul\":6669:6703   */\n      iszero\n      tag_192\n      jumpi\n        /* \"#utility.yul\":6683:6701   */\n      tag_193\n      tag_188\n      jump\t// in\n    tag_193:\n        /* \"#utility.yul\":6669:6703   */\n    tag_192:\n        /* \"#utility.yul\":6728:6729   */\n      dup3\n        /* \"#utility.yul\":6725:6726   */\n      dup3\n        /* \"#utility.yul\":6721:6730   */\n      sub\n        /* \"#utility.yul\":6713:6730   */\n      swap1\n      pop\n        /* \"#utility.yul\":6545:6736   */\n      swap3\n      swap2\n      pop\n      pop\n      jump\t// out\n        /* \"#utility.yul\":6742:6838   */\n    tag_132:\n        /* \"#utility.yul\":6779:6786   */\n      0x00\n        /* \"#utility.yul\":6808:6832   */\n      tag_195\n        /* \"#utility.yul\":6826:6831   */\n      dup3\n        /* \"#utility.yul\":6808:6832   */\n      tag_196\n      jump\t// in\n    tag_195:\n        /* \"#utility.yul\":6797:6832   */\n      swap1\n      pop\n        /* \"#utility.yul\":6742:6838   */\n      swap2\n      swap1\n      pop\n      jump\t// out\n        /* \"#utility.yul\":6844:6934   */\n    tag_136:\n        /* \"#utility.yul\":6878:6885   */\n      0x00\n        /* \"#utility.yul\":6921:6926   */\n      dup2\n        /* \"#utility.yul\":6914:6927   */\n      iszero\n        /* \"#utility.yul\":6907:6928   */\n      iszero\n        /* \"#utility.yul\":6896:6928   */\n      swap1\n      pop\n        /* \"#utility.yul\":6844:6934   */\n      swap2\n      swap1\n      pop\n      jump\t// out\n        /* \"#utility.yul\":6940:7066   */\n    tag_196:\n        /* \"#utility.yul\":6977:6984   */\n      0x00\n        /* \"#utility.yul\":7017:7059   */\n      0xffffffffffffffffffffffffffffffffffffffff\n        /* \"#utility.yul\":7010:7015   */\n      dup3\n        /* \"#utility.yul\":7006:7060   */\n      and\n        /* \"#utility.yul\":6995:7060   */\n      swap1\n      pop\n        /* \"#utility.yul\":6940:7066   */\n      swap2\n      swap1\n      pop\n      jump\t// out\n        /* \"#utility.yul\":7072:7149   */\n    tag_160:\n        /* \"#utility.yul\":7109:7116   */\n      0x00\n        /* \"#utility.yul\":7138:7143   */\n      dup2\n        /* \"#utility.yul\":7127:7143   */\n      swap1\n      pop\n        /* \"#utility.yul\":7072:7149   */\n      swap2\n      swap1\n      pop\n      jump\t// out\n        /* \"#utility.yul\":7155:7241   */\n    tag_164:\n        /* \"#utility.yul\":7190:7197   */\n      0x00\n        /* \"#utility.yul\":7230:7234   */\n      0xff\n        /* \"#utility.yul\":7223:7228   */\n      dup3\n        /* \"#utility.yul\":7219:7235   */\n      and\n        /* \"#utility.yul\":7208:7235   */\n      swap1\n      pop\n        /* \"#utility.yul\":7155:7241   */\n      swap2\n      swap1\n      pop\n      jump\t// out\n        /* \"#utility.yul\":7247:7554   */\n    tag_144:\n        /* \"#utility.yul\":7315:7316   */\n      0x00\n        /* \"#utility.yul\":7325:7438   */\n    tag_202:\n        /* \"#utility.yul\":7339:7345   */\n      dup4\n        /* \"#utility.yul\":7336:7337   */\n      dup2\n        /* \"#utility.yul\":7333:7346   */\n      lt\n        /* \"#utility.yul\":7325:7438   */\n      iszero\n      tag_204\n      jumpi\n        /* \"#utility.yul\":7424:7425   */\n      dup1\n        /* \"#utility.yul\":7419:7422   */\n      dup3\n        /* \"#utility.yul\":7415:7426   */\n      add\n        /* \"#utility.yul\":7409:7427   */\n      mload\n        /* \"#utility.yul\":7405:7406   */\n      dup2\n        /* \"#utility.yul\":7400:7403   */\n      dup5\n        /* \"#utility.yul\":7396:7407   */\n      add\n        /* \"#utility.yul\":7389:7428   */\n      mstore\n        /* \"#utility.yul\":7361:7363   */\n      0x20\n        /* \"#utility.yul\":7358:7359   */\n      dup2\n        /* \"#utility.yul\":7354:7364   */\n      add\n        /* \"#utility.yul\":7349:7364   */\n      swap1\n      pop\n        /* \"#utility.yul\":7325:7438   */\n      jump(tag_202)\n    tag_204:\n        /* \"#utility.yul\":7456:7462   */\n      dup4\n        /* \"#utility.yul\":7453:7454   */\n      dup2\n        /* \"#utility.yul\":7450:7463   */\n      gt\n        /* \"#utility.yul\":7447:7548   */\n      iszero\n      tag_205\n      jumpi\n        /* \"#utility.yul\":7536:7537   */\n      0x00\n        /* \"#utility.yul\":7527:7533   */\n      dup5\n        /* \"#utility.yul\":7522:7525   */\n      dup5\n        /* \"#utility.yul\":7518:7534   */\n      add\n        /* \"#utility.yul\":7511:7538   */\n      mstore\n        /* \"#utility.yul\":7447:7548   */\n    tag_205:\n        /* \"#utility.yul\":7296:7554   */\n      pop\n        /* \"#utility.yul\":7247:7554   */\n      pop\n      pop\n      pop\n      jump\t// out\n        /* \"#utility.yul\":7560:7880   */\n    tag_67:\n        /* \"#utility.yul\":7604:7610   */\n      0x00\n        /* \"#utility.yul\":7641:7642   */\n      0x02\n        /* \"#utility.yul\":7635:7639   */\n      dup3\n        /* \"#utility.yul\":7631:7643   */\n      div\n        /* \"#utility.yul\":7621:7643   */\n      swap1\n      pop\n        /* \"#utility.yul\":7688:7689   */\n      0x01\n        /* \"#utility.yul\":7682:7686   */\n      dup3\n        /* \"#utility.yul\":7678:7690   */\n      and\n        /* \"#utility.yul\":7709:7727   */\n      dup1\n        /* \"#utility.yul\":7699:7780   */\n      tag_207\n      jumpi\n        /* \"#utility.yul\":7765:7769   */\n      0x7f\n        /* \"#utility.yul\":7757:7763   */\n      dup3\n        /* \"#utility.yul\":7753:7770   */\n      and\n        /* \"#utility.yul\":7743:7770   */\n      swap2\n      pop\n        /* \"#utility.yul\":7699:7780   */\n    tag_207:\n        /* \"#utility.yul\":7827:7829   */\n      0x20\n        /* \"#utility.yul\":7819:7825   */\n      dup3\n        /* \"#utility.yul\":7816:7830   */\n      lt\n        /* \"#utility.yul\":7796:7814   */\n      dup2\n        /* \"#utility.yul\":7793:7831   */\n      eq\n        /* \"#utility.yul\":7790:7874   */\n      iszero\n      tag_208\n      jumpi\n        /* \"#utility.yul\":7846:7864   */\n      tag_209\n      tag_210\n      jump\t// in\n    tag_209:\n        /* \"#utility.yul\":7790:7874   */\n    tag_208:\n        /* \"#utility.yul\":7611:7880   */\n      pop\n        /* \"#utility.yul\":7560:7880   */\n      swap2\n      swap1\n      pop\n      jump\t// out\n        /* \"#utility.yul\":7886:8066   */\n    tag_188:\n        /* \"#utility.yul\":7934:8011   */\n      0x4e487b7100000000000000000000000000000000000000000000000000000000\n        /* \"#utility.yul\":7931:7932   */\n      0x00\n        /* \"#utility.yul\":7924:8012   */\n      mstore\n        /* \"#utility.yul\":8031:8035   */\n      0x11\n        /* \"#utility.yul\":8028:8029   */\n      0x04\n        /* \"#utility.yul\":8021:8036   */\n      mstore\n        /* \"#utility.yul\":8055:8059   */\n      0x24\n        /* \"#utility.yul\":8052:8053   */\n      0x00\n        /* \"#utility.yul\":8045:8060   */\n      revert\n        /* \"#utility.yul\":8072:8252   */\n    tag_210:\n        /* \"#utility.yul\":8120:8197   */\n      0x4e487b7100000000000000000000000000000000000000000000000000000000\n        /* \"#utility.yul\":8117:8118   */\n      0x00\n        /* \"#utility.yul\":8110:8198   */\n      mstore\n        /* \"#utility.yul\":8217:8221   */\n      0x22\n        /* \"#utility.yul\":8214:8215   */\n      0x04\n        /* \"#utility.yul\":8207:8222   */\n      mstore\n        /* \"#utility.yul\":8241:8245   */\n      0x24\n        /* \"#utility.yul\":8238:8239   */\n      0x00\n        /* \"#utility.yul\":8231:8246   */\n      revert\n        /* \"#utility.yul\":8381:8498   */\n    tag_111:\n        /* \"#utility.yul\":8490:8491   */\n      0x00\n        /* \"#utility.yul\":8487:8488   */\n      dup1\n        /* \"#utility.yul\":8480:8492   */\n      revert\n        /* \"#utility.yul\":8504:8606   */\n    tag_146:\n        /* \"#utility.yul\":8545:8551   */\n      0x00\n        /* \"#utility.yul\":8596:8598   */\n      0x1f\n        /* \"#utility.yul\":8592:8599   */\n      not\n        /* \"#utility.yul\":8587:8589   */\n      0x1f\n        /* \"#utility.yul\":8580:8585   */\n      dup4\n        /* \"#utility.yul\":8576:8590   */\n      add\n        /* \"#utility.yul\":8572:8600   */\n      and\n        /* \"#utility.yul\":8562:8600   */\n      swap1\n      pop\n        /* \"#utility.yul\":8504:8606   */\n      swap2\n      swap1\n      pop\n      jump\t// out\n        /* \"#utility.yul\":8612:8785   */\n    tag_151:\n        /* \"#utility.yul\":8752:8777   */\n      0x4f6e6c79206f776e65722063616e2072756e2074686973000000000000000000\n        /* \"#utility.yul\":8748:8749   */\n      0x00\n        /* \"#utility.yul\":8740:8746   */\n      dup3\n        /* \"#utility.yul\":8736:8750   */\n      add\n        /* \"#utility.yul\":8729:8778   */\n      mstore\n        /* \"#utility.yul\":8612:8785   */\n      pop\n      jump\t// out\n        /* \"#utility.yul\":8791:8972   */\n    tag_156:\n        /* \"#utility.yul\":8931:8964   */\n      0x73656e64657220646f6e74206861766520656e6f7567682062616c616e636500\n        /* \"#utility.yul\":8927:8928   */\n      0x00\n        /* \"#utility.yul\":8919:8925   */\n      dup3\n        /* \"#utility.yul\":8915:8929   */\n      add\n        /* \"#utility.yul\":8908:8965   */\n      mstore\n        /* \"#utility.yul\":8791:8972   */\n      pop\n      jump\t// out\n        /* \"#utility.yul\":8978:9100   */\n    tag_103:\n        /* \"#utility.yul\":9051:9075   */\n      tag_220\n        /* \"#utility.yul\":9069:9074   */\n      dup2\n        /* \"#utility.yul\":9051:9075   */\n      tag_132\n      jump\t// in\n    tag_220:\n        /* \"#utility.yul\":9044:9049   */\n      dup2\n        /* \"#utility.yul\":9041:9076   */\n      eq\n        /* \"#utility.yul\":9031:9094   */\n      tag_221\n      jumpi\n        /* \"#utility.yul\":9090:9091   */\n      0x00\n        /* \"#utility.yul\":9087:9088   */\n      dup1\n        /* \"#utility.yul\":9080:9092   */\n      revert\n        /* \"#utility.yul\":9031:9094   */\n    tag_221:\n        /* \"#utility.yul\":8978:9100   */\n      pop\n      jump\t// out\n        /* \"#utility.yul\":9106:9228   */\n    tag_107:\n        /* \"#utility.yul\":9179:9203   */\n      tag_223\n        /* \"#utility.yul\":9197:9202   */\n      dup2\n        /* \"#utility.yul\":9179:9203   */\n      tag_160\n      jump\t// in\n    tag_223:\n        /* \"#utility.yul\":9172:9177   */\n      dup2\n        /* \"#utility.yul\":9169:9204   */\n      eq\n        /* \"#utility.yul\":9159:9222   */\n      tag_224\n      jumpi\n        /* \"#utility.yul\":9218:9219   */\n      0x00\n        /* \"#utility.yul\":9215:9216   */\n      dup1\n        /* \"#utility.yul\":9208:9220   */\n      revert\n        /* \"#utility.yul\":9159:9222   */\n    tag_224:\n        /* \"#utility.yul\":9106:9228   */\n      pop\n      jump\t// out\n\n    auxdata: 0xa2646970667358221220cc2007b5bda9d565a61122c0f0a4fe2acc5ed9d9633d32571b37ebc4871e653264736f6c63430008070033\n}\n",
				"bytecode": {
					"linkReferences": {},
					"object": "60806040523480156200001157600080fd5b50336000806101000a81548173ffffffffffffffffffffffffffffffffffffffff021916908373ffffffffffffffffffffffffffffffffffffffff1602179055506040518060400160405280600981526020017f414d4420546f6b656e0000000000000000000000000000000000000000000000815250600190805190602001906200009f9291906200022e565b506040518060400160405280600381526020017f414d44000000000000000000000000000000000000000000000000000000000081525060029080519060200190620000ed9291906200022e565b506012600360006101000a81548160ff021916908360ff160217905550600360009054906101000a900460ff16600a62000128919062000339565b64e8d4a510006200013a919062000476565b600481905550336000806101000a81548173ffffffffffffffffffffffffffffffffffffffff021916908373ffffffffffffffffffffffffffffffffffffffff16021790555033600660006101000a81548173ffffffffffffffffffffffffffffffffffffffff021916908373ffffffffffffffffffffffffffffffffffffffff160217905550600454600560008060009054906101000a900473ffffffffffffffffffffffffffffffffffffffff1673ffffffffffffffffffffffffffffffffffffffff1673ffffffffffffffffffffffffffffffffffffffff168152602001908152602001600020819055506200058f565b8280546200023c90620004ee565b90600052602060002090601f016020900481019282620002605760008555620002ac565b82601f106200027b57805160ff1916838001178555620002ac565b82800160010185558215620002ac579182015b82811115620002ab5782518255916020019190600101906200028e565b5b509050620002bb9190620002bf565b5090565b5b80821115620002da576000816000905550600101620002c0565b5090565b6000808291508390505b6001851115620003305780860481111562000308576200030762000524565b5b6001851615620003185780820291505b8081029050620003288562000582565b9450620002e8565b94509492505050565b60006200034682620004d7565b91506200035383620004e1565b9250620003827fffffffffffffffffffffffffffffffffffffffffffffffffffffffffffffffff84846200038a565b905092915050565b6000826200039c57600190506200046f565b81620003ac57600090506200046f565b8160018114620003c55760028114620003d05762000406565b60019150506200046f565b60ff841115620003e557620003e462000524565b5b8360020a915084821115620003ff57620003fe62000524565b5b506200046f565b5060208310610133831016604e8410600b8410161715620004405782820a9050838111156200043a576200043962000524565b5b6200046f565b6200044f8484846001620002de565b9250905081840481111562000469576200046862000524565b5b81810290505b9392505050565b60006200048382620004d7565b91506200049083620004d7565b9250817fffffffffffffffffffffffffffffffffffffffffffffffffffffffffffffffff0483118215151615620004cc57620004cb62000524565b5b828202905092915050565b6000819050919050565b600060ff82169050919050565b600060028204905060018216806200050757607f821691505b602082108114156200051e576200051d62000553565b5b50919050565b7f4e487b7100000000000000000000000000000000000000000000000000000000600052601160045260246000fd5b7f4e487b7100000000000000000000000000000000000000000000000000000000600052602260045260246000fd5b60008160011c9050919050565b610d35806200059f6000396000f3fe608060405234801561001057600080fd5b50600436106100b45760003560e01c806370a082311161007157806370a08231146101915780638da5cb5b146101c157806395d89b41146101df578063a9059cbb146101fd578063dd62ed3e1461022d578063f2fde38b1461025d576100b4565b806306fdde03146100b957806307546172146100d7578063095ea7b3146100f557806318160ddd1461012557806323b872dd14610143578063313ce56714610173575b600080fd5b6100c1610279565b6040516100ce9190610a13565b60405180910390f35b6100df610307565b6040516100ec91906109dd565b60405180910390f35b61010f600480360381019061010a91906108e2565b61032d565b60405161011c91906109f8565b60405180910390f35b61012d610339565b60405161013a9190610a75565b60405180910390f35b61015d6004803603810190610158919061088f565b61033f565b60405161016a91906109f8565b60405180910390f35b61017b6104df565b6040516101889190610a90565b60405180910390f35b6101ab60048036038101906101a69190610822565b6104f2565b6040516101b89190610a75565b60405180910390f35b6101c961050a565b6040516101d691906109dd565b60405180910390f35b6101e761052e565b6040516101f49190610a13565b60405180910390f35b610217600480360381019061021291906108e2565b6105bc565b60405161022491906109f8565b60405180910390f35b6102476004803603810190610242919061084f565b61075b565b6040516102549190610a75565b60405180910390f35b61027760048036038101906102729190610822565b610767565b005b6001805461028690610bd9565b80601f01602080910402602001604051908101604052809291908181526020018280546102b290610bd9565b80156102ff5780601f106102d4576101008083540402835291602001916102ff565b820191906000526020600020905b8154815290600101906020018083116102e257829003601f168201915b505050505081565b600660009054906101000a900473ffffffffffffffffffffffffffffffffffffffff1681565b60006001905092915050565b60045481565b600081600560008673ffffffffffffffffffffffffffffffffffffffff1673ffffffffffffffffffffffffffffffffffffffff1681526020019081526020016000205410156103c3576040517f08c379a00000000000000000000000000000000000000000000000000000000081526004016103ba90610a55565b60405180910390fd5b81600560008673ffffffffffffffffffffffffffffffffffffffff1673ffffffffffffffffffffffffffffffffffffffff16815260200190815260200160002060008282546104129190610b1d565b9250508190555081600560008573ffffffffffffffffffffffffffffffffffffffff1673ffffffffffffffffffffffffffffffffffffffff16815260200190815260200160002060008282546104689190610ac7565b925050819055508273ffffffffffffffffffffffffffffffffffffffff168473ffffffffffffffffffffffffffffffffffffffff167fddf252ad1be2c89b69c2b068fc378daa952ba7f163c4a11628f55a4df523b3ef846040516104cc9190610a75565b60405180910390a3600190509392505050565b600360009054906101000a900460ff1681565b60056020528060005260406000206000915090505481565b60008054906101000a900473ffffffffffffffffffffffffffffffffffffffff1681565b6002805461053b90610bd9565b80601f016020809104026020016040519081016040528092919081815260200182805461056790610bd9565b80156105b45780601f10610589576101008083540402835291602001916105b4565b820191906000526020600020905b81548152906001019060200180831161059757829003601f168201915b505050505081565b600081600560003373ffffffffffffffffffffffffffffffffffffffff1673ffffffffffffffffffffffffffffffffffffffff168152602001908152602001600020541015610640576040517f08c379a000000000000000000000000000000000000000000000000000000000815260040161063790610a55565b60405180910390fd5b81600560003373ffffffffffffffffffffffffffffffffffffffff1673ffffffffffffffffffffffffffffffffffffffff168152602001908152602001600020600082825461068f9190610b1d565b9250508190555081600560008573ffffffffffffffffffffffffffffffffffffffff1673ffffffffffffffffffffffffffffffffffffffff16815260200190815260200160002060008282546106e59190610ac7565b925050819055508273ffffffffffffffffffffffffffffffffffffffff163373ffffffffffffffffffffffffffffffffffffffff167fddf252ad1be2c89b69c2b068fc378daa952ba7f163c4a11628f55a4df523b3ef846040516107499190610a75565b60405180910390a36001905092915050565b60006002905092915050565b60008054906101000a900473ffffffffffffffffffffffffffffffffffffffff1673ffffffffffffffffffffffffffffffffffffffff163373ffffffffffffffffffffffffffffffffffffffff16146107f5576040517f08c379a00000000000000000000000000000000000000000000000000000000081526004016107ec90610a35565b60405180910390fd5b50565b60008135905061080781610cd1565b92915050565b60008135905061081c81610ce8565b92915050565b60006020828403121561083857610837610c69565b5b6000610846848285016107f8565b91505092915050565b6000806040838503121561086657610865610c69565b5b6000610874858286016107f8565b9250506020610885858286016107f8565b9150509250929050565b6000806000606084860312156108a8576108a7610c69565b5b60006108b6868287016107f8565b93505060206108c7868287016107f8565b92505060406108d88682870161080d565b9150509250925092565b600080604083850312156108f9576108f8610c69565b5b6000610907858286016107f8565b92505060206109188582860161080d565b9150509250929050565b61092b81610b51565b82525050565b61093a81610b63565b82525050565b600061094b82610aab565b6109558185610ab6565b9350610965818560208601610ba6565b61096e81610c6e565b840191505092915050565b6000610986601783610ab6565b915061099182610c7f565b602082019050919050565b60006109a9601f83610ab6565b91506109b482610ca8565b602082019050919050565b6109c881610b8f565b82525050565b6109d781610b99565b82525050565b60006020820190506109f26000830184610922565b92915050565b6000602082019050610a0d6000830184610931565b92915050565b60006020820190508181036000830152610a2d8184610940565b905092915050565b60006020820190508181036000830152610a4e81610979565b9050919050565b60006020820190508181036000830152610a6e8161099c565b9050919050565b6000602082019050610a8a60008301846109bf565b92915050565b6000602082019050610aa560008301846109ce565b92915050565b600081519050919050565b600082825260208201905092915050565b6000610ad282610b8f565b9150610add83610b8f565b9250827fffffffffffffffffffffffffffffffffffffffffffffffffffffffffffffffff03821115610b1257610b11610c0b565b5b828201905092915050565b6000610b2882610b8f565b9150610b3383610b8f565b925082821015610b4657610b45610c0b565b5b828203905092915050565b6000610b5c82610b6f565b9050919050565b60008115159050919050565b600073ffffffffffffffffffffffffffffffffffffffff82169050919050565b6000819050919050565b600060ff82169050919050565b60005b83811015610bc4578082015181840152602081019050610ba9565b83811115610bd3576000848401525b50505050565b60006002820490506001821680610bf157607f821691505b60208210811415610c0557610c04610c3a565b5b50919050565b7f4e487b7100000000000000000000000000000000000000000000000000000000600052601160045260246000fd5b7f4e487b7100000000000000000000000000000000000000000000000000000000600052602260045260246000fd5b600080fd5b6000601f19601f8301169050919050565b7f4f6e6c79206f776e65722063616e2072756e2074686973000000000000000000600082015250565b7f73656e64657220646f6e74206861766520656e6f7567682062616c616e636500600082015250565b610cda81610b51565b8114610ce557600080fd5b50565b610cf181610b8f565b8114610cfc57600080fd5b5056fea2646970667358221220cc2007b5bda9d565a61122c0f0a4fe2acc5ed9d9633d32571b37ebc4871e653264736f6c63430008070033",
					"opcodes": "PUSH1 0x80 PUSH1 0x40 MSTORE CALLVALUE DUP1 ISZERO PUSH3 0x11 JUMPI PUSH1 0x0 DUP1 REVERT JUMPDEST POP CALLER PUSH1 0x0 DUP1 PUSH2 0x100 EXP DUP2 SLOAD DUP2 PUSH20 0xFFFFFFFFFFFFFFFFFFFFFFFFFFFFFFFFFFFFFFFF MUL NOT AND SWAP1 DUP4 PUSH20 0xFFFFFFFFFFFFFFFFFFFFFFFFFFFFFFFFFFFFFFFF AND MUL OR SWAP1 SSTORE POP PUSH1 0x40 MLOAD DUP1 PUSH1 0x40 ADD PUSH1 0x40 MSTORE DUP1 PUSH1 0x9 DUP2 MSTORE PUSH1 0x20 ADD PUSH32 0x414D4420546F6B656E0000000000000000000000000000000000000000000000 DUP2 MSTORE POP PUSH1 0x1 SWAP1 DUP1 MLOAD SWAP1 PUSH1 0x20 ADD SWAP1 PUSH3 0x9F SWAP3 SWAP2 SWAP1 PUSH3 0x22E JUMP JUMPDEST POP PUSH1 0x40 MLOAD DUP1 PUSH1 0x40 ADD PUSH1 0x40 MSTORE DUP1 PUSH1 0x3 DUP2 MSTORE PUSH1 0x20 ADD PUSH32 0x414D440000000000000000000000000000000000000000000000000000000000 DUP2 MSTORE POP PUSH1 0x2 SWAP1 DUP1 MLOAD SWAP1 PUSH1 0x20 ADD SWAP1 PUSH3 0xED SWAP3 SWAP2 SWAP1 PUSH3 0x22E JUMP JUMPDEST POP PUSH1 0x12 PUSH1 0x3 PUSH1 0x0 PUSH2 0x100 EXP DUP2 SLOAD DUP2 PUSH1 0xFF MUL NOT AND SWAP1 DUP4 PUSH1 0xFF AND MUL OR SWAP1 SSTORE POP PUSH1 0x3 PUSH1 0x0 SWAP1 SLOAD SWAP1 PUSH2 0x100 EXP SWAP1 DIV PUSH1 0xFF AND PUSH1 0xA PUSH3 0x128 SWAP2 SWAP1 PUSH3 0x339 JUMP JUMPDEST PUSH5 0xE8D4A51000 PUSH3 0x13A SWAP2 SWAP1 PUSH3 0x476 JUMP JUMPDEST PUSH1 0x4 DUP2 SWAP1 SSTORE POP CALLER PUSH1 0x0 DUP1 PUSH2 0x100 EXP DUP2 SLOAD DUP2 PUSH20 0xFFFFFFFFFFFFFFFFFFFFFFFFFFFFFFFFFFFFFFFF MUL NOT AND SWAP1 DUP4 PUSH20 0xFFFFFFFFFFFFFFFFFFFFFFFFFFFFFFFFFFFFFFFF AND MUL OR SWAP1 SSTORE POP CALLER PUSH1 0x6 PUSH1 0x0 PUSH2 0x100 EXP DUP2 SLOAD DUP2 PUSH20 0xFFFFFFFFFFFFFFFFFFFFFFFFFFFFFFFFFFFFFFFF MUL NOT AND SWAP1 DUP4 PUSH20 0xFFFFFFFFFFFFFFFFFFFFFFFFFFFFFFFFFFFFFFFF AND MUL OR SWAP1 SSTORE POP PUSH1 0x4 SLOAD PUSH1 0x5 PUSH1 0x0 DUP1 PUSH1 0x0 SWAP1 SLOAD SWAP1 PUSH2 0x100 EXP SWAP1 DIV PUSH20 0xFFFFFFFFFFFFFFFFFFFFFFFFFFFFFFFFFFFFFFFF AND PUSH20 0xFFFFFFFFFFFFFFFFFFFFFFFFFFFFFFFFFFFFFFFF AND PUSH20 0xFFFFFFFFFFFFFFFFFFFFFFFFFFFFFFFFFFFFFFFF AND DUP2 MSTORE PUSH1 0x20 ADD SWAP1 DUP2 MSTORE PUSH1 0x20 ADD PUSH1 0x0 KECCAK256 DUP2 SWAP1 SSTORE POP PUSH3 0x58F JUMP JUMPDEST DUP3 DUP1 SLOAD PUSH3 0x23C SWAP1 PUSH3 0x4EE JUMP JUMPDEST SWAP1 PUSH1 0x0 MSTORE PUSH1 0x20 PUSH1 0x0 KECCAK256 SWAP1 PUSH1 0x1F ADD PUSH1 0x20 SWAP1 DIV DUP2 ADD SWAP3 DUP3 PUSH3 0x260 JUMPI PUSH1 0x0 DUP6 SSTORE PUSH3 0x2AC JUMP JUMPDEST DUP3 PUSH1 0x1F LT PUSH3 0x27B JUMPI DUP1 MLOAD PUSH1 0xFF NOT AND DUP4 DUP1 ADD OR DUP6 SSTORE PUSH3 0x2AC JUMP JUMPDEST DUP3 DUP1 ADD PUSH1 0x1 ADD DUP6 SSTORE DUP3 ISZERO PUSH3 0x2AC JUMPI SWAP2 DUP3 ADD JUMPDEST DUP3 DUP2 GT ISZERO PUSH3 0x2AB JUMPI DUP3 MLOAD DUP3 SSTORE SWAP2 PUSH1 0x20 ADD SWAP2 SWAP1 PUSH1 0x1 ADD SWAP1 PUSH3 0x28E JUMP JUMPDEST JUMPDEST POP SWAP1 POP PUSH3 0x2BB SWAP2 SWAP1 PUSH3 0x2BF JUMP JUMPDEST POP SWAP1 JUMP JUMPDEST JUMPDEST DUP1 DUP3 GT ISZERO PUSH3 0x2DA JUMPI PUSH1 0x0 DUP2 PUSH1 0x0 SWAP1 SSTORE POP PUSH1 0x1 ADD PUSH3 0x2C0 JUMP JUMPDEST POP SWAP1 JUMP JUMPDEST PUSH1 0x0 DUP1 DUP3 SWAP2 POP DUP4 SWAP1 POP JUMPDEST PUSH1 0x1 DUP6 GT ISZERO PUSH3 0x330 JUMPI DUP1 DUP7 DIV DUP2 GT ISZERO PUSH3 0x308 JUMPI PUSH3 0x307 PUSH3 0x524 JUMP JUMPDEST JUMPDEST PUSH1 0x1 DUP6 AND ISZERO PUSH3 0x318 JUMPI DUP1 DUP3 MUL SWAP2 POP JUMPDEST DUP1 DUP2 MUL SWAP1 POP PUSH3 0x328 DUP6 PUSH3 0x582 JUMP JUMPDEST SWAP5 POP PUSH3 0x2E8 JUMP JUMPDEST SWAP5 POP SWAP5 SWAP3 POP POP POP JUMP JUMPDEST PUSH1 0x0 PUSH3 0x346 DUP3 PUSH3 0x4D7 JUMP JUMPDEST SWAP2 POP PUSH3 0x353 DUP4 PUSH3 0x4E1 JUMP JUMPDEST SWAP3 POP PUSH3 0x382 PUSH32 0xFFFFFFFFFFFFFFFFFFFFFFFFFFFFFFFFFFFFFFFFFFFFFFFFFFFFFFFFFFFFFFFF DUP5 DUP5 PUSH3 0x38A JUMP JUMPDEST SWAP1 POP SWAP3 SWAP2 POP POP JUMP JUMPDEST PUSH1 0x0 DUP3 PUSH3 0x39C JUMPI PUSH1 0x1 SWAP1 POP PUSH3 0x46F JUMP JUMPDEST DUP2 PUSH3 0x3AC JUMPI PUSH1 0x0 SWAP1 POP PUSH3 0x46F JUMP JUMPDEST DUP2 PUSH1 0x1 DUP2 EQ PUSH3 0x3C5 JUMPI PUSH1 0x2 DUP2 EQ PUSH3 0x3D0 JUMPI PUSH3 0x406 JUMP JUMPDEST PUSH1 0x1 SWAP2 POP POP PUSH3 0x46F JUMP JUMPDEST PUSH1 0xFF DUP5 GT ISZERO PUSH3 0x3E5 JUMPI PUSH3 0x3E4 PUSH3 0x524 JUMP JUMPDEST JUMPDEST DUP4 PUSH1 0x2 EXP SWAP2 POP DUP5 DUP3 GT ISZERO PUSH3 0x3FF JUMPI PUSH3 0x3FE PUSH3 0x524 JUMP JUMPDEST JUMPDEST POP PUSH3 0x46F JUMP JUMPDEST POP PUSH1 0x20 DUP4 LT PUSH2 0x133 DUP4 LT AND PUSH1 0x4E DUP5 LT PUSH1 0xB DUP5 LT AND OR ISZERO PUSH3 0x440 JUMPI DUP3 DUP3 EXP SWAP1 POP DUP4 DUP2 GT ISZERO PUSH3 0x43A JUMPI PUSH3 0x439 PUSH3 0x524 JUMP JUMPDEST JUMPDEST PUSH3 0x46F JUMP JUMPDEST PUSH3 0x44F DUP5 DUP5 DUP5 PUSH1 0x1 PUSH3 0x2DE JUMP JUMPDEST SWAP3 POP SWAP1 POP DUP2 DUP5 DIV DUP2 GT ISZERO PUSH3 0x469 JUMPI PUSH3 0x468 PUSH3 0x524 JUMP JUMPDEST JUMPDEST DUP2 DUP2 MUL SWAP1 POP JUMPDEST SWAP4 SWAP3 POP POP POP JUMP JUMPDEST PUSH1 0x0 PUSH3 0x483 DUP3 PUSH3 0x4D7 JUMP JUMPDEST SWAP2 POP PUSH3 0x490 DUP4 PUSH3 0x4D7 JUMP JUMPDEST SWAP3 POP DUP2 PUSH32 0xFFFFFFFFFFFFFFFFFFFFFFFFFFFFFFFFFFFFFFFFFFFFFFFFFFFFFFFFFFFFFFFF DIV DUP4 GT DUP3 ISZERO ISZERO AND ISZERO PUSH3 0x4CC JUMPI PUSH3 0x4CB PUSH3 0x524 JUMP JUMPDEST JUMPDEST DUP3 DUP3 MUL SWAP1 POP SWAP3 SWAP2 POP POP JUMP JUMPDEST PUSH1 0x0 DUP2 SWAP1 POP SWAP2 SWAP1 POP JUMP JUMPDEST PUSH1 0x0 PUSH1 0xFF DUP3 AND SWAP1 POP SWAP2 SWAP1 POP JUMP JUMPDEST PUSH1 0x0 PUSH1 0x2 DUP3 DIV SWAP1 POP PUSH1 0x1 DUP3 AND DUP1 PUSH3 0x507 JUMPI PUSH1 0x7F DUP3 AND SWAP2 POP JUMPDEST PUSH1 0x20 DUP3 LT DUP2 EQ ISZERO PUSH3 0x51E JUMPI PUSH3 0x51D PUSH3 0x553 JUMP JUMPDEST JUMPDEST POP SWAP2 SWAP1 POP JUMP JUMPDEST PUSH32 0x4E487B7100000000000000000000000000000000000000000000000000000000 PUSH1 0x0 MSTORE PUSH1 0x11 PUSH1 0x4 MSTORE PUSH1 0x24 PUSH1 0x0 REVERT JUMPDEST PUSH32 0x4E487B7100000000000000000000000000000000000000000000000000000000 PUSH1 0x0 MSTORE PUSH1 0x22 PUSH1 0x4 MSTORE PUSH1 0x24 PUSH1 0x0 REVERT JUMPDEST PUSH1 0x0 DUP2 PUSH1 0x1 SHR SWAP1 POP SWAP2 SWAP1 POP JUMP JUMPDEST PUSH2 0xD35 DUP1 PUSH3 0x59F PUSH1 0x0 CODECOPY PUSH1 0x0 RETURN INVALID PUSH1 0x80 PUSH1 0x40 MSTORE CALLVALUE DUP1 ISZERO PUSH2 0x10 JUMPI PUSH1 0x0 DUP1 REVERT JUMPDEST POP PUSH1 0x4 CALLDATASIZE LT PUSH2 0xB4 JUMPI PUSH1 0x0 CALLDATALOAD PUSH1 0xE0 SHR DUP1 PUSH4 0x70A08231 GT PUSH2 0x71 JUMPI DUP1 PUSH4 0x70A08231 EQ PUSH2 0x191 JUMPI DUP1 PUSH4 0x8DA5CB5B EQ PUSH2 0x1C1 JUMPI DUP1 PUSH4 0x95D89B41 EQ PUSH2 0x1DF JUMPI DUP1 PUSH4 0xA9059CBB EQ PUSH2 0x1FD JUMPI DUP1 PUSH4 0xDD62ED3E EQ PUSH2 0x22D JUMPI DUP1 PUSH4 0xF2FDE38B EQ PUSH2 0x25D JUMPI PUSH2 0xB4 JUMP JUMPDEST DUP1 PUSH4 0x6FDDE03 EQ PUSH2 0xB9 JUMPI DUP1 PUSH4 0x7546172 EQ PUSH2 0xD7 JUMPI DUP1 PUSH4 0x95EA7B3 EQ PUSH2 0xF5 JUMPI DUP1 PUSH4 0x18160DDD EQ PUSH2 0x125 JUMPI DUP1 PUSH4 0x23B872DD EQ PUSH2 0x143 JUMPI DUP1 PUSH4 0x313CE567 EQ PUSH2 0x173 JUMPI JUMPDEST PUSH1 0x0 DUP1 REVERT JUMPDEST PUSH2 0xC1 PUSH2 0x279 JUMP JUMPDEST PUSH1 0x40 MLOAD PUSH2 0xCE SWAP2 SWAP1 PUSH2 0xA13 JUMP JUMPDEST PUSH1 0x40 MLOAD DUP1 SWAP2 SUB SWAP1 RETURN JUMPDEST PUSH2 0xDF PUSH2 0x307 JUMP JUMPDEST PUSH1 0x40 MLOAD PUSH2 0xEC SWAP2 SWAP1 PUSH2 0x9DD JUMP JUMPDEST PUSH1 0x40 MLOAD DUP1 SWAP2 SUB SWAP1 RETURN JUMPDEST PUSH2 0x10F PUSH1 0x4 DUP1 CALLDATASIZE SUB DUP2 ADD SWAP1 PUSH2 0x10A SWAP2 SWAP1 PUSH2 0x8E2 JUMP JUMPDEST PUSH2 0x32D JUMP JUMPDEST PUSH1 0x40 MLOAD PUSH2 0x11C SWAP2 SWAP1 PUSH2 0x9F8 JUMP JUMPDEST PUSH1 0x40 MLOAD DUP1 SWAP2 SUB SWAP1 RETURN JUMPDEST PUSH2 0x12D PUSH2 0x339 JUMP JUMPDEST PUSH1 0x40 MLOAD PUSH2 0x13A SWAP2 SWAP1 PUSH2 0xA75 JUMP JUMPDEST PUSH1 0x40 MLOAD DUP1 SWAP2 SUB SWAP1 RETURN JUMPDEST PUSH2 0x15D PUSH1 0x4 DUP1 CALLDATASIZE SUB DUP2 ADD SWAP1 PUSH2 0x158 SWAP2 SWAP1 PUSH2 0x88F JUMP JUMPDEST PUSH2 0x33F JUMP JUMPDEST PUSH1 0x40 MLOAD PUSH2 0x16A SWAP2 SWAP1 PUSH2 0x9F8 JUMP JUMPDEST PUSH1 0x40 MLOAD DUP1 SWAP2 SUB SWAP1 RETURN JUMPDEST PUSH2 0x17B PUSH2 0x4DF JUMP JUMPDEST PUSH1 0x40 MLOAD PUSH2 0x188 SWAP2 SWAP1 PUSH2 0xA90 JUMP JUMPDEST PUSH1 0x40 MLOAD DUP1 SWAP2 SUB SWAP1 RETURN JUMPDEST PUSH2 0x1AB PUSH1 0x4 DUP1 CALLDATASIZE SUB DUP2 ADD SWAP1 PUSH2 0x1A6 SWAP2 SWAP1 PUSH2 0x822 JUMP JUMPDEST PUSH2 0x4F2 JUMP JUMPDEST PUSH1 0x40 MLOAD PUSH2 0x1B8 SWAP2 SWAP1 PUSH2 0xA75 JUMP JUMPDEST PUSH1 0x40 MLOAD DUP1 SWAP2 SUB SWAP1 RETURN JUMPDEST PUSH2 0x1C9 PUSH2 0x50A JUMP JUMPDEST PUSH1 0x40 MLOAD PUSH2 0x1D6 SWAP2 SWAP1 PUSH2 0x9DD JUMP JUMPDEST PUSH1 0x40 MLOAD DUP1 SWAP2 SUB SWAP1 RETURN JUMPDEST PUSH2 0x1E7 PUSH2 0x52E JUMP JUMPDEST PUSH1 0x40 MLOAD PUSH2 0x1F4 SWAP2 SWAP1 PUSH2 0xA13 JUMP JUMPDEST PUSH1 0x40 MLOAD DUP1 SWAP2 SUB SWAP1 RETURN JUMPDEST PUSH2 0x217 PUSH1 0x4 DUP1 CALLDATASIZE SUB DUP2 ADD SWAP1 PUSH2 0x212 SWAP2 SWAP1 PUSH2 0x8E2 JUMP JUMPDEST PUSH2 0x5BC JUMP JUMPDEST PUSH1 0x40 MLOAD PUSH2 0x224 SWAP2 SWAP1 PUSH2 0x9F8 JUMP JUMPDEST PUSH1 0x40 MLOAD DUP1 SWAP2 SUB SWAP1 RETURN JUMPDEST PUSH2 0x247 PUSH1 0x4 DUP1 CALLDATASIZE SUB DUP2 ADD SWAP1 PUSH2 0x242 SWAP2 SWAP1 PUSH2 0x84F JUMP JUMPDEST PUSH2 0x75B JUMP JUMPDEST PUSH1 0x40 MLOAD PUSH2 0x254 SWAP2 SWAP1 PUSH2 0xA75 JUMP JUMPDEST PUSH1 0x40 MLOAD DUP1 SWAP2 SUB SWAP1 RETURN JUMPDEST PUSH2 0x277 PUSH1 0x4 DUP1 CALLDATASIZE SUB DUP2 ADD SWAP1 PUSH2 0x272 SWAP2 SWAP1 PUSH2 0x822 JUMP JUMPDEST PUSH2 0x767 JUMP JUMPDEST STOP JUMPDEST PUSH1 0x1 DUP1 SLOAD PUSH2 0x286 SWAP1 PUSH2 0xBD9 JUMP JUMPDEST DUP1 PUSH1 0x1F ADD PUSH1 0x20 DUP1 SWAP2 DIV MUL PUSH1 0x20 ADD PUSH1 0x40 MLOAD SWAP1 DUP2 ADD PUSH1 0x40 MSTORE DUP1 SWAP3 SWAP2 SWAP1 DUP2 DUP2 MSTORE PUSH1 0x20 ADD DUP3 DUP1 SLOAD PUSH2 0x2B2 SWAP1 PUSH2 0xBD9 JUMP JUMPDEST DUP1 ISZERO PUSH2 0x2FF JUMPI DUP1 PUSH1 0x1F LT PUSH2 0x2D4 JUMPI PUSH2 0x100 DUP1 DUP4 SLOAD DIV MUL DUP4 MSTORE SWAP2 PUSH1 0x20 ADD SWAP2 PUSH2 0x2FF JUMP JUMPDEST DUP3 ADD SWAP2 SWAP1 PUSH1 0x0 MSTORE PUSH1 0x20 PUSH1 0x0 KECCAK256 SWAP1 JUMPDEST DUP2 SLOAD DUP2 MSTORE SWAP1 PUSH1 0x1 ADD SWAP1 PUSH1 0x20 ADD DUP1 DUP4 GT PUSH2 0x2E2 JUMPI DUP3 SWAP1 SUB PUSH1 0x1F AND DUP3 ADD SWAP2 JUMPDEST POP POP POP POP POP DUP2 JUMP JUMPDEST PUSH1 0x6 PUSH1 0x0 SWAP1 SLOAD SWAP1 PUSH2 0x100 EXP SWAP1 DIV PUSH20 0xFFFFFFFFFFFFFFFFFFFFFFFFFFFFFFFFFFFFFFFF AND DUP2 JUMP JUMPDEST PUSH1 0x0 PUSH1 0x1 SWAP1 POP SWAP3 SWAP2 POP POP JUMP JUMPDEST PUSH1 0x4 SLOAD DUP2 JUMP JUMPDEST PUSH1 0x0 DUP2 PUSH1 0x5 PUSH1 0x0 DUP7 PUSH20 0xFFFFFFFFFFFFFFFFFFFFFFFFFFFFFFFFFFFFFFFF AND PUSH20 0xFFFFFFFFFFFFFFFFFFFFFFFFFFFFFFFFFFFFFFFF AND DUP2 MSTORE PUSH1 0x20 ADD SWAP1 DUP2 MSTORE PUSH1 0x20 ADD PUSH1 0x0 KECCAK256 SLOAD LT ISZERO PUSH2 0x3C3 JUMPI PUSH1 0x40 MLOAD PUSH32 0x8C379A000000000000000000000000000000000000000000000000000000000 DUP2 MSTORE PUSH1 0x4 ADD PUSH2 0x3BA SWAP1 PUSH2 0xA55 JUMP JUMPDEST PUSH1 0x40 MLOAD DUP1 SWAP2 SUB SWAP1 REVERT JUMPDEST DUP2 PUSH1 0x5 PUSH1 0x0 DUP7 PUSH20 0xFFFFFFFFFFFFFFFFFFFFFFFFFFFFFFFFFFFFFFFF AND PUSH20 0xFFFFFFFFFFFFFFFFFFFFFFFFFFFFFFFFFFFFFFFF AND DUP2 MSTORE PUSH1 0x20 ADD SWAP1 DUP2 MSTORE PUSH1 0x20 ADD PUSH1 0x0 KECCAK256 PUSH1 0x0 DUP3 DUP3 SLOAD PUSH2 0x412 SWAP2 SWAP1 PUSH2 0xB1D JUMP JUMPDEST SWAP3 POP POP DUP2 SWAP1 SSTORE POP DUP2 PUSH1 0x5 PUSH1 0x0 DUP6 PUSH20 0xFFFFFFFFFFFFFFFFFFFFFFFFFFFFFFFFFFFFFFFF AND PUSH20 0xFFFFFFFFFFFFFFFFFFFFFFFFFFFFFFFFFFFFFFFF AND DUP2 MSTORE PUSH1 0x20 ADD SWAP1 DUP2 MSTORE PUSH1 0x20 ADD PUSH1 0x0 KECCAK256 PUSH1 0x0 DUP3 DUP3 SLOAD PUSH2 0x468 SWAP2 SWAP1 PUSH2 0xAC7 JUMP JUMPDEST SWAP3 POP POP DUP2 SWAP1 SSTORE POP DUP3 PUSH20 0xFFFFFFFFFFFFFFFFFFFFFFFFFFFFFFFFFFFFFFFF AND DUP5 PUSH20 0xFFFFFFFFFFFFFFFFFFFFFFFFFFFFFFFFFFFFFFFF AND PUSH32 0xDDF252AD1BE2C89B69C2B068FC378DAA952BA7F163C4A11628F55A4DF523B3EF DUP5 PUSH1 0x40 MLOAD PUSH2 0x4CC SWAP2 SWAP1 PUSH2 0xA75 JUMP JUMPDEST PUSH1 0x40 MLOAD DUP1 SWAP2 SUB SWAP1 LOG3 PUSH1 0x1 SWAP1 POP SWAP4 SWAP3 POP POP POP JUMP JUMPDEST PUSH1 0x3 PUSH1 0x0 SWAP1 SLOAD SWAP1 PUSH2 0x100 EXP SWAP1 DIV PUSH1 0xFF AND DUP2 JUMP JUMPDEST PUSH1 0x5 PUSH1 0x20 MSTORE DUP1 PUSH1 0x0 MSTORE PUSH1 0x40 PUSH1 0x0 KECCAK256 PUSH1 0x0 SWAP2 POP SWAP1 POP SLOAD DUP2 JUMP JUMPDEST PUSH1 0x0 DUP1 SLOAD SWAP1 PUSH2 0x100 EXP SWAP1 DIV PUSH20 0xFFFFFFFFFFFFFFFFFFFFFFFFFFFFFFFFFFFFFFFF AND DUP2 JUMP JUMPDEST PUSH1 0x2 DUP1 SLOAD PUSH2 0x53B SWAP1 PUSH2 0xBD9 JUMP JUMPDEST DUP1 PUSH1 0x1F ADD PUSH1 0x20 DUP1 SWAP2 DIV MUL PUSH1 0x20 ADD PUSH1 0x40 MLOAD SWAP1 DUP2 ADD PUSH1 0x40 MSTORE DUP1 SWAP3 SWAP2 SWAP1 DUP2 DUP2 MSTORE PUSH1 0x20 ADD DUP3 DUP1 SLOAD PUSH2 0x567 SWAP1 PUSH2 0xBD9 JUMP JUMPDEST DUP1 ISZERO PUSH2 0x5B4 JUMPI DUP1 PUSH1 0x1F LT PUSH2 0x589 JUMPI PUSH2 0x100 DUP1 DUP4 SLOAD DIV MUL DUP4 MSTORE SWAP2 PUSH1 0x20 ADD SWAP2 PUSH2 0x5B4 JUMP JUMPDEST DUP3 ADD SWAP2 SWAP1 PUSH1 0x0 MSTORE PUSH1 0x20 PUSH1 0x0 KECCAK256 SWAP1 JUMPDEST DUP2 SLOAD DUP2 MSTORE SWAP1 PUSH1 0x1 ADD SWAP1 PUSH1 0x20 ADD DUP1 DUP4 GT PUSH2 0x597 JUMPI DUP3 SWAP1 SUB PUSH1 0x1F AND DUP3 ADD SWAP2 JUMPDEST POP POP POP POP POP DUP2 JUMP JUMPDEST PUSH1 0x0 DUP2 PUSH1 0x5 PUSH1 0x0 CALLER PUSH20 0xFFFFFFFFFFFFFFFFFFFFFFFFFFFFFFFFFFFFFFFF AND PUSH20 0xFFFFFFFFFFFFFFFFFFFFFFFFFFFFFFFFFFFFFFFF AND DUP2 MSTORE PUSH1 0x20 ADD SWAP1 DUP2 MSTORE PUSH1 0x20 ADD PUSH1 0x0 KECCAK256 SLOAD LT ISZERO PUSH2 0x640 JUMPI PUSH1 0x40 MLOAD PUSH32 0x8C379A000000000000000000000000000000000000000000000000000000000 DUP2 MSTORE PUSH1 0x4 ADD PUSH2 0x637 SWAP1 PUSH2 0xA55 JUMP JUMPDEST PUSH1 0x40 MLOAD DUP1 SWAP2 SUB SWAP1 REVERT JUMPDEST DUP2 PUSH1 0x5 PUSH1 0x0 CALLER PUSH20 0xFFFFFFFFFFFFFFFFFFFFFFFFFFFFFFFFFFFFFFFF AND PUSH20 0xFFFFFFFFFFFFFFFFFFFFFFFFFFFFFFFFFFFFFFFF AND DUP2 MSTORE PUSH1 0x20 ADD SWAP1 DUP2 MSTORE PUSH1 0x20 ADD PUSH1 0x0 KECCAK256 PUSH1 0x0 DUP3 DUP3 SLOAD PUSH2 0x68F SWAP2 SWAP1 PUSH2 0xB1D JUMP JUMPDEST SWAP3 POP POP DUP2 SWAP1 SSTORE POP DUP2 PUSH1 0x5 PUSH1 0x0 DUP6 PUSH20 0xFFFFFFFFFFFFFFFFFFFFFFFFFFFFFFFFFFFFFFFF AND PUSH20 0xFFFFFFFFFFFFFFFFFFFFFFFFFFFFFFFFFFFFFFFF AND DUP2 MSTORE PUSH1 0x20 ADD SWAP1 DUP2 MSTORE PUSH1 0x20 ADD PUSH1 0x0 KECCAK256 PUSH1 0x0 DUP3 DUP3 SLOAD PUSH2 0x6E5 SWAP2 SWAP1 PUSH2 0xAC7 JUMP JUMPDEST SWAP3 POP POP DUP2 SWAP1 SSTORE POP DUP3 PUSH20 0xFFFFFFFFFFFFFFFFFFFFFFFFFFFFFFFFFFFFFFFF AND CALLER PUSH20 0xFFFFFFFFFFFFFFFFFFFFFFFFFFFFFFFFFFFFFFFF AND PUSH32 0xDDF252AD1BE2C89B69C2B068FC378DAA952BA7F163C4A11628F55A4DF523B3EF DUP5 PUSH1 0x40 MLOAD PUSH2 0x749 SWAP2 SWAP1 PUSH2 0xA75 JUMP JUMPDEST PUSH1 0x40 MLOAD DUP1 SWAP2 SUB SWAP1 LOG3 PUSH1 0x1 SWAP1 POP SWAP3 SWAP2 POP POP JUMP JUMPDEST PUSH1 0x0 PUSH1 0x2 SWAP1 POP SWAP3 SWAP2 POP POP JUMP JUMPDEST PUSH1 0x0 DUP1 SLOAD SWAP1 PUSH2 0x100 EXP SWAP1 DIV PUSH20 0xFFFFFFFFFFFFFFFFFFFFFFFFFFFFFFFFFFFFFFFF AND PUSH20 0xFFFFFFFFFFFFFFFFFFFFFFFFFFFFFFFFFFFFFFFF AND CALLER PUSH20 0xFFFFFFFFFFFFFFFFFFFFFFFFFFFFFFFFFFFFFFFF AND EQ PUSH2 0x7F5 JUMPI PUSH1 0x40 MLOAD PUSH32 0x8C379A000000000000000000000000000000000000000000000000000000000 DUP2 MSTORE PUSH1 0x4 ADD PUSH2 0x7EC SWAP1 PUSH2 0xA35 JUMP JUMPDEST PUSH1 0x40 MLOAD DUP1 SWAP2 SUB SWAP1 REVERT JUMPDEST POP JUMP JUMPDEST PUSH1 0x0 DUP2 CALLDATALOAD SWAP1 POP PUSH2 0x807 DUP2 PUSH2 0xCD1 JUMP JUMPDEST SWAP3 SWAP2 POP POP JUMP JUMPDEST PUSH1 0x0 DUP2 CALLDATALOAD SWAP1 POP PUSH2 0x81C DUP2 PUSH2 0xCE8 JUMP JUMPDEST SWAP3 SWAP2 POP POP JUMP JUMPDEST PUSH1 0x0 PUSH1 0x20 DUP3 DUP5 SUB SLT ISZERO PUSH2 0x838 JUMPI PUSH2 0x837 PUSH2 0xC69 JUMP JUMPDEST JUMPDEST PUSH1 0x0 PUSH2 0x846 DUP5 DUP3 DUP6 ADD PUSH2 0x7F8 JUMP JUMPDEST SWAP2 POP POP SWAP3 SWAP2 POP POP JUMP JUMPDEST PUSH1 0x0 DUP1 PUSH1 0x40 DUP4 DUP6 SUB SLT ISZERO PUSH2 0x866 JUMPI PUSH2 0x865 PUSH2 0xC69 JUMP JUMPDEST JUMPDEST PUSH1 0x0 PUSH2 0x874 DUP6 DUP3 DUP7 ADD PUSH2 0x7F8 JUMP JUMPDEST SWAP3 POP POP PUSH1 0x20 PUSH2 0x885 DUP6 DUP3 DUP7 ADD PUSH2 0x7F8 JUMP JUMPDEST SWAP2 POP POP SWAP3 POP SWAP3 SWAP1 POP JUMP JUMPDEST PUSH1 0x0 DUP1 PUSH1 0x0 PUSH1 0x60 DUP5 DUP7 SUB SLT ISZERO PUSH2 0x8A8 JUMPI PUSH2 0x8A7 PUSH2 0xC69 JUMP JUMPDEST JUMPDEST PUSH1 0x0 PUSH2 0x8B6 DUP7 DUP3 DUP8 ADD PUSH2 0x7F8 JUMP JUMPDEST SWAP4 POP POP PUSH1 0x20 PUSH2 0x8C7 DUP7 DUP3 DUP8 ADD PUSH2 0x7F8 JUMP JUMPDEST SWAP3 POP POP PUSH1 0x40 PUSH2 0x8D8 DUP7 DUP3 DUP8 ADD PUSH2 0x80D JUMP JUMPDEST SWAP2 POP POP SWAP3 POP SWAP3 POP SWAP3 JUMP JUMPDEST PUSH1 0x0 DUP1 PUSH1 0x40 DUP4 DUP6 SUB SLT ISZERO PUSH2 0x8F9 JUMPI PUSH2 0x8F8 PUSH2 0xC69 JUMP JUMPDEST JUMPDEST PUSH1 0x0 PUSH2 0x907 DUP6 DUP3 DUP7 ADD PUSH2 0x7F8 JUMP JUMPDEST SWAP3 POP POP PUSH1 0x20 PUSH2 0x918 DUP6 DUP3 DUP7 ADD PUSH2 0x80D JUMP JUMPDEST SWAP2 POP POP SWAP3 POP SWAP3 SWAP1 POP JUMP JUMPDEST PUSH2 0x92B DUP2 PUSH2 0xB51 JUMP JUMPDEST DUP3 MSTORE POP POP JUMP JUMPDEST PUSH2 0x93A DUP2 PUSH2 0xB63 JUMP JUMPDEST DUP3 MSTORE POP POP JUMP JUMPDEST PUSH1 0x0 PUSH2 0x94B DUP3 PUSH2 0xAAB JUMP JUMPDEST PUSH2 0x955 DUP2 DUP6 PUSH2 0xAB6 JUMP JUMPDEST SWAP4 POP PUSH2 0x965 DUP2 DUP6 PUSH1 0x20 DUP7 ADD PUSH2 0xBA6 JUMP JUMPDEST PUSH2 0x96E DUP2 PUSH2 0xC6E JUMP JUMPDEST DUP5 ADD SWAP2 POP POP SWAP3 SWAP2 POP POP JUMP JUMPDEST PUSH1 0x0 PUSH2 0x986 PUSH1 0x17 DUP4 PUSH2 0xAB6 JUMP JUMPDEST SWAP2 POP PUSH2 0x991 DUP3 PUSH2 0xC7F JUMP JUMPDEST PUSH1 0x20 DUP3 ADD SWAP1 POP SWAP2 SWAP1 POP JUMP JUMPDEST PUSH1 0x0 PUSH2 0x9A9 PUSH1 0x1F DUP4 PUSH2 0xAB6 JUMP JUMPDEST SWAP2 POP PUSH2 0x9B4 DUP3 PUSH2 0xCA8 JUMP JUMPDEST PUSH1 0x20 DUP3 ADD SWAP1 POP SWAP2 SWAP1 POP JUMP JUMPDEST PUSH2 0x9C8 DUP2 PUSH2 0xB8F JUMP JUMPDEST DUP3 MSTORE POP POP JUMP JUMPDEST PUSH2 0x9D7 DUP2 PUSH2 0xB99 JUMP JUMPDEST DUP3 MSTORE POP POP JUMP JUMPDEST PUSH1 0x0 PUSH1 0x20 DUP3 ADD SWAP1 POP PUSH2 0x9F2 PUSH1 0x0 DUP4 ADD DUP5 PUSH2 0x922 JUMP JUMPDEST SWAP3 SWAP2 POP POP JUMP JUMPDEST PUSH1 0x0 PUSH1 0x20 DUP3 ADD SWAP1 POP PUSH2 0xA0D PUSH1 0x0 DUP4 ADD DUP5 PUSH2 0x931 JUMP JUMPDEST SWAP3 SWAP2 POP POP JUMP JUMPDEST PUSH1 0x0 PUSH1 0x20 DUP3 ADD SWAP1 POP DUP2 DUP2 SUB PUSH1 0x0 DUP4 ADD MSTORE PUSH2 0xA2D DUP2 DUP5 PUSH2 0x940 JUMP JUMPDEST SWAP1 POP SWAP3 SWAP2 POP POP JUMP JUMPDEST PUSH1 0x0 PUSH1 0x20 DUP3 ADD SWAP1 POP DUP2 DUP2 SUB PUSH1 0x0 DUP4 ADD MSTORE PUSH2 0xA4E DUP2 PUSH2 0x979 JUMP JUMPDEST SWAP1 POP SWAP2 SWAP1 POP JUMP JUMPDEST PUSH1 0x0 PUSH1 0x20 DUP3 ADD SWAP1 POP DUP2 DUP2 SUB PUSH1 0x0 DUP4 ADD MSTORE PUSH2 0xA6E DUP2 PUSH2 0x99C JUMP JUMPDEST SWAP1 POP SWAP2 SWAP1 POP JUMP JUMPDEST PUSH1 0x0 PUSH1 0x20 DUP3 ADD SWAP1 POP PUSH2 0xA8A PUSH1 0x0 DUP4 ADD DUP5 PUSH2 0x9BF JUMP JUMPDEST SWAP3 SWAP2 POP POP JUMP JUMPDEST PUSH1 0x0 PUSH1 0x20 DUP3 ADD SWAP1 POP PUSH2 0xAA5 PUSH1 0x0 DUP4 ADD DUP5 PUSH2 0x9CE JUMP JUMPDEST SWAP3 SWAP2 POP POP JUMP JUMPDEST PUSH1 0x0 DUP2 MLOAD SWAP1 POP SWAP2 SWAP1 POP JUMP JUMPDEST PUSH1 0x0 DUP3 DUP3 MSTORE PUSH1 0x20 DUP3 ADD SWAP1 POP SWAP3 SWAP2 POP POP JUMP JUMPDEST PUSH1 0x0 PUSH2 0xAD2 DUP3 PUSH2 0xB8F JUMP JUMPDEST SWAP2 POP PUSH2 0xADD DUP4 PUSH2 0xB8F JUMP JUMPDEST SWAP3 POP DUP3 PUSH32 0xFFFFFFFFFFFFFFFFFFFFFFFFFFFFFFFFFFFFFFFFFFFFFFFFFFFFFFFFFFFFFFFF SUB DUP3 GT ISZERO PUSH2 0xB12 JUMPI PUSH2 0xB11 PUSH2 0xC0B JUMP JUMPDEST JUMPDEST DUP3 DUP3 ADD SWAP1 POP SWAP3 SWAP2 POP POP JUMP JUMPDEST PUSH1 0x0 PUSH2 0xB28 DUP3 PUSH2 0xB8F JUMP JUMPDEST SWAP2 POP PUSH2 0xB33 DUP4 PUSH2 0xB8F JUMP JUMPDEST SWAP3 POP DUP3 DUP3 LT ISZERO PUSH2 0xB46 JUMPI PUSH2 0xB45 PUSH2 0xC0B JUMP JUMPDEST JUMPDEST DUP3 DUP3 SUB SWAP1 POP SWAP3 SWAP2 POP POP JUMP JUMPDEST PUSH1 0x0 PUSH2 0xB5C DUP3 PUSH2 0xB6F JUMP JUMPDEST SWAP1 POP SWAP2 SWAP1 POP JUMP JUMPDEST PUSH1 0x0 DUP2 ISZERO ISZERO SWAP1 POP SWAP2 SWAP1 POP JUMP JUMPDEST PUSH1 0x0 PUSH20 0xFFFFFFFFFFFFFFFFFFFFFFFFFFFFFFFFFFFFFFFF DUP3 AND SWAP1 POP SWAP2 SWAP1 POP JUMP JUMPDEST PUSH1 0x0 DUP2 SWAP1 POP SWAP2 SWAP1 POP JUMP JUMPDEST PUSH1 0x0 PUSH1 0xFF DUP3 AND SWAP1 POP SWAP2 SWAP1 POP JUMP JUMPDEST PUSH1 0x0 JUMPDEST DUP4 DUP2 LT ISZERO PUSH2 0xBC4 JUMPI DUP1 DUP3 ADD MLOAD DUP2 DUP5 ADD MSTORE PUSH1 0x20 DUP2 ADD SWAP1 POP PUSH2 0xBA9 JUMP JUMPDEST DUP4 DUP2 GT ISZERO PUSH2 0xBD3 JUMPI PUSH1 0x0 DUP5 DUP5 ADD MSTORE JUMPDEST POP POP POP POP JUMP JUMPDEST PUSH1 0x0 PUSH1 0x2 DUP3 DIV SWAP1 POP PUSH1 0x1 DUP3 AND DUP1 PUSH2 0xBF1 JUMPI PUSH1 0x7F DUP3 AND SWAP2 POP JUMPDEST PUSH1 0x20 DUP3 LT DUP2 EQ ISZERO PUSH2 0xC05 JUMPI PUSH2 0xC04 PUSH2 0xC3A JUMP JUMPDEST JUMPDEST POP SWAP2 SWAP1 POP JUMP JUMPDEST PUSH32 0x4E487B7100000000000000000000000000000000000000000000000000000000 PUSH1 0x0 MSTORE PUSH1 0x11 PUSH1 0x4 MSTORE PUSH1 0x24 PUSH1 0x0 REVERT JUMPDEST PUSH32 0x4E487B7100000000000000000000000000000000000000000000000000000000 PUSH1 0x0 MSTORE PUSH1 0x22 PUSH1 0x4 MSTORE PUSH1 0x24 PUSH1 0x0 REVERT JUMPDEST PUSH1 0x0 DUP1 REVERT JUMPDEST PUSH1 0x0 PUSH1 0x1F NOT PUSH1 0x1F DUP4 ADD AND SWAP1 POP SWAP2 SWAP1 POP JUMP JUMPDEST PUSH32 0x4F6E6C79206F776E65722063616E2072756E2074686973000000000000000000 PUSH1 0x0 DUP3 ADD MSTORE POP JUMP JUMPDEST PUSH32 0x73656E64657220646F6E74206861766520656E6F7567682062616C616E636500 PUSH1 0x0 DUP3 ADD MSTORE POP JUMP JUMPDEST PUSH2 0xCDA DUP2 PUSH2 0xB51 JUMP JUMPDEST DUP2 EQ PUSH2 0xCE5 JUMPI PUSH1 0x0 DUP1 REVERT JUMPDEST POP JUMP JUMPDEST PUSH2 0xCF1 DUP2 PUSH2 0xB8F JUMP JUMPDEST DUP2 EQ PUSH2 0xCFC JUMPI PUSH1 0x0 DUP1 REVERT JUMPDEST POP JUMP INVALID LOG2 PUSH5 0x6970667358 0x22 SLT KECCAK256 0xCC KECCAK256 SMOD 0xB5 0xBD 0xA9 0xD5 PUSH6 0xA61122C0F0A4 INVALID 0x2A 0xCC 0x5E 0xD9 0xD9 PUSH4 0x3D32571B CALLDATACOPY 0xEB 0xC4 DUP8 0x1E PUSH6 0x3264736F6C63 NUMBER STOP ADDMOD SMOD STOP CALLER "
				},
				"gasEstimates": {
					"creation": {
						"codeDepositCost": "676200",
						"executionCost": "infinite",
						"totalCost": "infinite"
					},
					"external": {
						"allowance(address,address)": "infinite",
						"approve(address,uint256)": "875",
						"balanceOf(address)": "2814",
						"decimals()": "2582",
						"minter()": "2537",
						"name()": "infinite",
						"owner()": "2533",
						"symbol()": "infinite",
						"totalSupply()": "2496",
						"transfer(address,uint256)": "infinite",
						"transferFrom(address,address,uint256)": "infinite",
						"transferOwnership(address)": "3019"
					}
				},
				"methodIdentifiers": {
					"allowance(address,address)": "dd62ed3e",
					"approve(address,uint256)": "095ea7b3",
					"balanceOf(address)": "70a08231",
					"decimals()": "313ce567",
					"minter()": "07546172",
					"name()": "06fdde03",
					"owner()": "8da5cb5b",
					"symbol()": "95d89b41",
					"totalSupply()": "18160ddd",
					"transfer(address,uint256)": "a9059cbb",
					"transferFrom(address,address,uint256)": "23b872dd",
					"transferOwnership(address)": "f2fde38b"
				}
			},
			"storageLayout": {
				"storage": [
					{
						"astId": 4,
						"contract": "learning/tokens/AMDToken.sol:AMDToken",
						"label": "owner",
						"offset": 0,
						"slot": "0",
						"type": "t_address"
					},
					{
						"astId": 41,
						"contract": "learning/tokens/AMDToken.sol:AMDToken",
						"label": "name",
						"offset": 0,
						"slot": "1",
						"type": "t_string_storage"
					},
					{
						"astId": 44,
						"contract": "learning/tokens/AMDToken.sol:AMDToken",
						"label": "symbol",
						"offset": 0,
						"slot": "2",
						"type": "t_string_storage"
					},
					{
						"astId": 47,
						"contract": "learning/tokens/AMDToken.sol:AMDToken",
						"label": "decimals",
						"offset": 0,
						"slot": "3",
						"type": "t_uint8"
					},
					{
						"astId": 50,
						"contract": "learning/tokens/AMDToken.sol:AMDToken",
						"label": "totalSupply",
						"offset": 0,
						"slot": "4",
						"type": "t_uint256"
					},
					{
						"astId": 55,
						"contract": "learning/tokens/AMDToken.sol:AMDToken",
						"label": "balanceOf",
						"offset": 0,
						"slot": "5",
						"type": "t_mapping(t_address,t_uint256)"
					},
					{
						"astId": 57,
						"contract": "learning/tokens/AMDToken.sol:AMDToken",
						"label": "minter",
						"offset": 0,
						"slot": "6",
						"type": "t_address"
					}
				],
				"types": {
					"t_address": {
						"encoding": "inplace",
						"label": "address",
						"numberOfBytes": "20"
					},
					"t_mapping(t_address,t_uint256)": {
						"encoding": "mapping",
						"key": "t_address",
						"label": "mapping(address => uint256)",
						"numberOfBytes": "32",
						"value": "t_uint256"
					},
					"t_string_storage": {
						"encoding": "bytes",
						"label": "string",
						"numberOfBytes": "32"
					},
					"t_uint256": {
						"encoding": "inplace",
						"label": "uint256",
						"numberOfBytes": "32"
					},
					"t_uint8": {
						"encoding": "inplace",
						"label": "uint8",
						"numberOfBytes": "1"
					}
				}
			},
			"userdoc": {
				"kind": "user",
				"methods": {},
				"version": 1
			}
		}
	}
}