{
	"learning/tokens/AMDToken.sol": {
		"AMDToken": {
			"abi": [
				{
					"inputs": [],
					"stateMutability": "nonpayable",
					"type": "constructor"
				},
				{
					"anonymous": false,
					"inputs": [
						{
							"indexed": true,
							"internalType": "address",
							"name": "_owner",
							"type": "address"
						},
						{
							"indexed": true,
							"internalType": "address",
							"name": "_spender",
							"type": "address"
						},
						{
							"indexed": false,
							"internalType": "uint256",
							"name": "_value",
							"type": "uint256"
						}
					],
					"name": "Approval",
					"type": "event"
				},
				{
					"anonymous": false,
					"inputs": [
						{
							"indexed": true,
							"internalType": "address",
							"name": "_from",
							"type": "address"
						},
						{
							"indexed": true,
							"internalType": "address",
							"name": "_to",
							"type": "address"
						},
						{
							"indexed": false,
							"internalType": "uint256",
							"name": "_value",
							"type": "uint256"
						}
					],
					"name": "Transfer",
					"type": "event"
				},
				{
					"inputs": [
						{
							"internalType": "address",
							"name": "_owner",
							"type": "address"
						},
						{
							"internalType": "address",
							"name": "_spender",
							"type": "address"
						}
					],
					"name": "allowance",
					"outputs": [
						{
							"internalType": "uint256",
							"name": "remaining",
							"type": "uint256"
						}
					],
					"stateMutability": "view",
					"type": "function"
				},
				{
					"inputs": [
						{
							"internalType": "address",
							"name": "_spender",
							"type": "address"
						},
						{
							"internalType": "uint256",
							"name": "_value",
							"type": "uint256"
						}
					],
					"name": "approve",
					"outputs": [
						{
							"internalType": "bool",
							"name": "success",
							"type": "bool"
						}
					],
					"stateMutability": "nonpayable",
					"type": "function"
				},
				{
					"inputs": [
						{
							"internalType": "address",
							"name": "",
							"type": "address"
						}
					],
					"name": "balanceOf",
					"outputs": [
						{
							"internalType": "uint256",
							"name": "",
							"type": "uint256"
						}
					],
					"stateMutability": "view",
					"type": "function"
				},
				{
					"inputs": [],
					"name": "decimals",
					"outputs": [
						{
							"internalType": "uint8",
							"name": "",
							"type": "uint8"
						}
					],
					"stateMutability": "view",
					"type": "function"
				},
				{
					"inputs": [],
					"name": "name",
					"outputs": [
						{
							"internalType": "string",
							"name": "",
							"type": "string"
						}
					],
					"stateMutability": "view",
					"type": "function"
				},
				{
					"inputs": [],
					"name": "owner",
					"outputs": [
						{
							"internalType": "address",
							"name": "",
							"type": "address"
						}
					],
					"stateMutability": "view",
					"type": "function"
				},
				{
					"inputs": [],
					"name": "symbol",
					"outputs": [
						{
							"internalType": "string",
							"name": "",
							"type": "string"
						}
					],
					"stateMutability": "view",
					"type": "function"
				},
				{
					"inputs": [],
					"name": "totalSupply",
					"outputs": [
						{
							"internalType": "uint256",
							"name": "",
							"type": "uint256"
						}
					],
					"stateMutability": "view",
					"type": "function"
				},
				{
					"inputs": [
						{
							"internalType": "address",
							"name": "_to",
							"type": "address"
						},
						{
							"internalType": "uint256",
							"name": "_value",
							"type": "uint256"
						}
					],
					"name": "transfer",
					"outputs": [
						{
							"internalType": "bool",
							"name": "success",
							"type": "bool"
						}
					],
					"stateMutability": "nonpayable",
					"type": "function"
				},
				{
					"inputs": [
						{
							"internalType": "address",
							"name": "_from",
							"type": "address"
						},
						{
							"internalType": "address",
							"name": "_to",
							"type": "address"
						},
						{
							"internalType": "uint256",
							"name": "_value",
							"type": "uint256"
						}
					],
					"name": "transferFrom",
					"outputs": [
						{
							"internalType": "bool",
							"name": "success",
							"type": "bool"
						}
					],
					"stateMutability": "nonpayable",
					"type": "function"
				}
			],
			"devdoc": {
				"kind": "dev",
				"methods": {},
				"version": 1
			},
			"evm": {
				"assembly": "    /* \"learning/tokens/AMDToken.sol\":86:1219  contract AMDToken is IERC20{\r... */\n  mstore(0x40, 0x80)\n    /* \"learning/tokens/AMDToken.sol\":364:572  constructor(){\r... */\n  callvalue\n  dup1\n  iszero\n  tag_1\n  jumpi\n  0x00\n  dup1\n  revert\ntag_1:\n  pop\n    /* \"learning/tokens/AMDToken.sol\":388:404  name=\"AMD Token\" */\n  mload(0x40)\n  dup1\n  0x40\n  add\n  0x40\n  mstore\n  dup1\n  0x09\n  dup2\n  mstore\n  0x20\n  add\n  0x414d4420546f6b656e0000000000000000000000000000000000000000000000\n  dup2\n  mstore\n  pop\n    /* \"learning/tokens/AMDToken.sol\":388:392  name */\n  0x00\n    /* \"learning/tokens/AMDToken.sol\":388:404  name=\"AMD Token\" */\n  swap1\n  dup1\n  mload\n  swap1\n  0x20\n  add\n  swap1\n  tag_4\n  swap3\n  swap2\n  swap1\n  tag_5\n  jump\t// in\ntag_4:\n  pop\n    /* \"learning/tokens/AMDToken.sol\":415:427  symbol=\"AMD\" */\n  mload(0x40)\n  dup1\n  0x40\n  add\n  0x40\n  mstore\n  dup1\n  0x03\n  dup2\n  mstore\n  0x20\n  add\n  0x414d440000000000000000000000000000000000000000000000000000000000\n  dup2\n  mstore\n  pop\n    /* \"learning/tokens/AMDToken.sol\":415:421  symbol */\n  0x01\n    /* \"learning/tokens/AMDToken.sol\":415:427  symbol=\"AMD\" */\n  swap1\n  dup1\n  mload\n  swap1\n  0x20\n  add\n  swap1\n  tag_6\n  swap3\n  swap2\n  swap1\n  tag_5\n  jump\t// in\ntag_6:\n  pop\n    /* \"learning/tokens/AMDToken.sol\":447:449  18 */\n  0x12\n    /* \"learning/tokens/AMDToken.sol\":438:446  decimals */\n  0x02\n  0x00\n    /* \"learning/tokens/AMDToken.sol\":438:449  decimals=18 */\n  0x0100\n  exp\n  dup2\n  sload\n  dup2\n  0xff\n  mul\n  not\n  and\n  swap1\n  dup4\n  0xff\n  and\n  mul\n  or\n  swap1\n  sstore\n  pop\n    /* \"learning/tokens/AMDToken.sol\":490:498  decimals */\n  0x02\n  0x00\n  swap1\n  sload\n  swap1\n  0x0100\n  exp\n  swap1\n  div\n  0xff\n  and\n    /* \"learning/tokens/AMDToken.sol\":486:488  10 */\n  0x0a\n    /* \"learning/tokens/AMDToken.sol\":486:498  10**decimals */\n  tag_7\n  swap2\n  swap1\n  tag_8\n  jump\t// in\ntag_7:\n    /* \"learning/tokens/AMDToken.sol\":472:485  1000000000000 */\n  0xe8d4a51000\n    /* \"learning/tokens/AMDToken.sol\":472:498  1000000000000*10**decimals */\n  tag_9\n  swap2\n  swap1\n  tag_10\n  jump\t// in\ntag_9:\n    /* \"learning/tokens/AMDToken.sol\":460:471  totalSupply */\n  0x03\n    /* \"learning/tokens/AMDToken.sol\":460:498  totalSupply=1000000000000*10**decimals */\n  dup2\n  swap1\n  sstore\n  pop\n    /* \"learning/tokens/AMDToken.sol\":515:525  msg.sender */\n  caller\n    /* \"learning/tokens/AMDToken.sol\":509:514  owner */\n  0x05\n  0x00\n    /* \"learning/tokens/AMDToken.sol\":509:525  owner=msg.sender */\n  0x0100\n  exp\n  dup2\n  sload\n  dup2\n  0xffffffffffffffffffffffffffffffffffffffff\n  mul\n  not\n  and\n  swap1\n  dup4\n  0xffffffffffffffffffffffffffffffffffffffff\n  and\n  mul\n  or\n  swap1\n  sstore\n  pop\n    /* \"learning/tokens/AMDToken.sol\":553:564  totalSupply */\n  sload(0x03)\n    /* \"learning/tokens/AMDToken.sol\":536:545  balanceOf */\n  0x04\n    /* \"learning/tokens/AMDToken.sol\":536:552  balanceOf[owner] */\n  0x00\n    /* \"learning/tokens/AMDToken.sol\":546:551  owner */\n  0x05\n  0x00\n  swap1\n  sload\n  swap1\n  0x0100\n  exp\n  swap1\n  div\n  0xffffffffffffffffffffffffffffffffffffffff\n  and\n    /* \"learning/tokens/AMDToken.sol\":536:552  balanceOf[owner] */\n  0xffffffffffffffffffffffffffffffffffffffff\n  and\n  0xffffffffffffffffffffffffffffffffffffffff\n  and\n  dup2\n  mstore\n  0x20\n  add\n  swap1\n  dup2\n  mstore\n  0x20\n  add\n  0x00\n  keccak256\n    /* \"learning/tokens/AMDToken.sol\":536:564  balanceOf[owner]=totalSupply */\n  dup2\n  swap1\n  sstore\n  pop\n    /* \"learning/tokens/AMDToken.sol\":86:1219  contract AMDToken is IERC20{\r... */\n  jump(tag_11)\ntag_5:\n  dup3\n  dup1\n  sload\n  tag_12\n  swap1\n  tag_13\n  jump\t// in\ntag_12:\n  swap1\n  0x00\n  mstore\n  keccak256(0x00, 0x20)\n  swap1\n  0x1f\n  add\n  0x20\n  swap1\n  div\n  dup2\n  add\n  swap3\n  dup3\n  tag_15\n  jumpi\n  0x00\n  dup6\n  sstore\n  jump(tag_14)\ntag_15:\n  dup3\n  0x1f\n  lt\n  tag_16\n  jumpi\n  dup1\n  mload\n  not(0xff)\n  and\n  dup4\n  dup1\n  add\n  or\n  dup6\n  sstore\n  jump(tag_14)\ntag_16:\n  dup3\n  dup1\n  add\n  0x01\n  add\n  dup6\n  sstore\n  dup3\n  iszero\n  tag_14\n  jumpi\n  swap2\n  dup3\n  add\ntag_17:\n  dup3\n  dup2\n  gt\n  iszero\n  tag_18\n  jumpi\n  dup3\n  mload\n  dup3\n  sstore\n  swap2\n  0x20\n  add\n  swap2\n  swap1\n  0x01\n  add\n  swap1\n  jump(tag_17)\ntag_18:\ntag_14:\n  pop\n  swap1\n  pop\n  tag_19\n  swap2\n  swap1\n  tag_20\n  jump\t// in\ntag_19:\n  pop\n  swap1\n  jump\t// out\ntag_20:\ntag_21:\n  dup1\n  dup3\n  gt\n  iszero\n  tag_22\n  jumpi\n  0x00\n  dup2\n  0x00\n  swap1\n  sstore\n  pop\n  0x01\n  add\n  jump(tag_21)\ntag_22:\n  pop\n  swap1\n  jump\t// out\n    /* \"#utility.yul\":7:855   */\ntag_24:\n    /* \"#utility.yul\":68:73   */\n  0x00\n    /* \"#utility.yul\":75:79   */\n  dup1\n    /* \"#utility.yul\":99:105   */\n  dup3\n    /* \"#utility.yul\":90:105   */\n  swap2\n  pop\n    /* \"#utility.yul\":123:128   */\n  dup4\n    /* \"#utility.yul\":114:128   */\n  swap1\n  pop\n    /* \"#utility.yul\":137:849   */\ntag_26:\n    /* \"#utility.yul\":158:159   */\n  0x01\n    /* \"#utility.yul\":148:156   */\n  dup6\n    /* \"#utility.yul\":145:160   */\n  gt\n    /* \"#utility.yul\":137:849   */\n  iszero\n  tag_28\n  jumpi\n    /* \"#utility.yul\":253:257   */\n  dup1\n    /* \"#utility.yul\":248:251   */\n  dup7\n    /* \"#utility.yul\":244:258   */\n  div\n    /* \"#utility.yul\":238:242   */\n  dup2\n    /* \"#utility.yul\":235:259   */\n  gt\n    /* \"#utility.yul\":232:282   */\n  iszero\n  tag_29\n  jumpi\n    /* \"#utility.yul\":262:280   */\n  tag_30\n  tag_31\n  jump\t// in\ntag_30:\n    /* \"#utility.yul\":232:282   */\ntag_29:\n    /* \"#utility.yul\":312:313   */\n  0x01\n    /* \"#utility.yul\":302:310   */\n  dup6\n    /* \"#utility.yul\":298:314   */\n  and\n    /* \"#utility.yul\":295:746   */\n  iszero\n  tag_32\n  jumpi\n    /* \"#utility.yul\":727:731   */\n  dup1\n    /* \"#utility.yul\":720:725   */\n  dup3\n    /* \"#utility.yul\":716:732   */\n  mul\n    /* \"#utility.yul\":707:732   */\n  swap2\n  pop\n    /* \"#utility.yul\":295:746   */\ntag_32:\n    /* \"#utility.yul\":777:781   */\n  dup1\n    /* \"#utility.yul\":771:775   */\n  dup2\n    /* \"#utility.yul\":767:782   */\n  mul\n    /* \"#utility.yul\":759:782   */\n  swap1\n  pop\n    /* \"#utility.yul\":807:839   */\n  tag_33\n    /* \"#utility.yul\":830:838   */\n  dup6\n    /* \"#utility.yul\":807:839   */\n  tag_34\n  jump\t// in\ntag_33:\n    /* \"#utility.yul\":795:839   */\n  swap5\n  pop\n    /* \"#utility.yul\":137:849   */\n  jump(tag_26)\ntag_28:\n    /* \"#utility.yul\":7:855   */\n  swap5\n  pop\n  swap5\n  swap3\n  pop\n  pop\n  pop\n  jump\t// out\n    /* \"#utility.yul\":861:1142   */\ntag_8:\n    /* \"#utility.yul\":919:924   */\n  0x00\n    /* \"#utility.yul\":943:966   */\n  tag_36\n    /* \"#utility.yul\":961:965   */\n  dup3\n    /* \"#utility.yul\":943:966   */\n  tag_37\n  jump\t// in\ntag_36:\n    /* \"#utility.yul\":935:966   */\n  swap2\n  pop\n    /* \"#utility.yul\":987:1012   */\n  tag_38\n    /* \"#utility.yul\":1003:1011   */\n  dup4\n    /* \"#utility.yul\":987:1012   */\n  tag_39\n  jump\t// in\ntag_38:\n    /* \"#utility.yul\":975:1012   */\n  swap3\n  pop\n    /* \"#utility.yul\":1031:1135   */\n  tag_40\n    /* \"#utility.yul\":1068:1134   */\n  0xffffffffffffffffffffffffffffffffffffffffffffffffffffffffffffffff\n    /* \"#utility.yul\":1058:1066   */\n  dup5\n    /* \"#utility.yul\":1052:1056   */\n  dup5\n    /* \"#utility.yul\":1031:1135   */\n  tag_41\n  jump\t// in\ntag_40:\n    /* \"#utility.yul\":1022:1135   */\n  swap1\n  pop\n    /* \"#utility.yul\":861:1142   */\n  swap3\n  swap2\n  pop\n  pop\n  jump\t// out\n    /* \"#utility.yul\":1148:2221   */\ntag_41:\n    /* \"#utility.yul\":1202:1207   */\n  0x00\n    /* \"#utility.yul\":1393:1401   */\n  dup3\n    /* \"#utility.yul\":1383:1423   */\n  tag_43\n  jumpi\n    /* \"#utility.yul\":1414:1415   */\n  0x01\n    /* \"#utility.yul\":1405:1415   */\n  swap1\n  pop\n    /* \"#utility.yul\":1416:1421   */\n  jump(tag_42)\n    /* \"#utility.yul\":1383:1423   */\ntag_43:\n    /* \"#utility.yul\":1442:1446   */\n  dup2\n    /* \"#utility.yul\":1432:1468   */\n  tag_44\n  jumpi\n    /* \"#utility.yul\":1459:1460   */\n  0x00\n    /* \"#utility.yul\":1450:1460   */\n  swap1\n  pop\n    /* \"#utility.yul\":1461:1466   */\n  jump(tag_42)\n    /* \"#utility.yul\":1432:1468   */\ntag_44:\n    /* \"#utility.yul\":1528:1532   */\n  dup2\n    /* \"#utility.yul\":1576:1577   */\n  0x01\n    /* \"#utility.yul\":1571:1598   */\n  dup2\n  eq\n  tag_46\n  jumpi\n    /* \"#utility.yul\":1612:1613   */\n  0x02\n    /* \"#utility.yul\":1607:1798   */\n  dup2\n  eq\n  tag_47\n  jumpi\n    /* \"#utility.yul\":1521:1798   */\n  jump(tag_45)\n    /* \"#utility.yul\":1571:1598   */\ntag_46:\n    /* \"#utility.yul\":1589:1590   */\n  0x01\n    /* \"#utility.yul\":1580:1590   */\n  swap2\n  pop\n    /* \"#utility.yul\":1591:1596   */\n  pop\n  jump(tag_42)\n    /* \"#utility.yul\":1607:1798   */\ntag_47:\n    /* \"#utility.yul\":1652:1655   */\n  0xff\n    /* \"#utility.yul\":1642:1650   */\n  dup5\n    /* \"#utility.yul\":1639:1656   */\n  gt\n    /* \"#utility.yul\":1636:1679   */\n  iszero\n  tag_48\n  jumpi\n    /* \"#utility.yul\":1659:1677   */\n  tag_49\n  tag_31\n  jump\t// in\ntag_49:\n    /* \"#utility.yul\":1636:1679   */\ntag_48:\n    /* \"#utility.yul\":1708:1716   */\n  dup4\n    /* \"#utility.yul\":1705:1706   */\n  0x02\n    /* \"#utility.yul\":1701:1717   */\n  exp\n    /* \"#utility.yul\":1692:1717   */\n  swap2\n  pop\n    /* \"#utility.yul\":1743:1746   */\n  dup5\n    /* \"#utility.yul\":1736:1741   */\n  dup3\n    /* \"#utility.yul\":1733:1747   */\n  gt\n    /* \"#utility.yul\":1730:1770   */\n  iszero\n  tag_50\n  jumpi\n    /* \"#utility.yul\":1750:1768   */\n  tag_51\n  tag_31\n  jump\t// in\ntag_51:\n    /* \"#utility.yul\":1730:1770   */\ntag_50:\n    /* \"#utility.yul\":1783:1788   */\n  pop\n  jump(tag_42)\n    /* \"#utility.yul\":1521:1798   */\ntag_45:\n  pop\n    /* \"#utility.yul\":1907:1909   */\n  0x20\n    /* \"#utility.yul\":1897:1905   */\n  dup4\n    /* \"#utility.yul\":1894:1910   */\n  lt\n    /* \"#utility.yul\":1888:1891   */\n  0x0133\n    /* \"#utility.yul\":1882:1886   */\n  dup4\n    /* \"#utility.yul\":1879:1892   */\n  lt\n    /* \"#utility.yul\":1875:1911   */\n  and\n    /* \"#utility.yul\":1857:1859   */\n  0x4e\n    /* \"#utility.yul\":1847:1855   */\n  dup5\n    /* \"#utility.yul\":1844:1860   */\n  lt\n    /* \"#utility.yul\":1839:1841   */\n  0x0b\n    /* \"#utility.yul\":1833:1837   */\n  dup5\n    /* \"#utility.yul\":1830:1842   */\n  lt\n    /* \"#utility.yul\":1826:1861   */\n  and\n    /* \"#utility.yul\":1810:1921   */\n  or\n    /* \"#utility.yul\":1807:2053   */\n  iszero\n  tag_52\n  jumpi\n    /* \"#utility.yul\":1963:1971   */\n  dup3\n    /* \"#utility.yul\":1957:1961   */\n  dup3\n    /* \"#utility.yul\":1953:1972   */\n  exp\n    /* \"#utility.yul\":1944:1972   */\n  swap1\n  pop\n    /* \"#utility.yul\":1998:2001   */\n  dup4\n    /* \"#utility.yul\":1991:1996   */\n  dup2\n    /* \"#utility.yul\":1988:2002   */\n  gt\n    /* \"#utility.yul\":1985:2025   */\n  iszero\n  tag_53\n  jumpi\n    /* \"#utility.yul\":2005:2023   */\n  tag_54\n  tag_31\n  jump\t// in\ntag_54:\n    /* \"#utility.yul\":1985:2025   */\ntag_53:\n    /* \"#utility.yul\":2038:2043   */\n  jump(tag_42)\n    /* \"#utility.yul\":1807:2053   */\ntag_52:\n    /* \"#utility.yul\":2078:2120   */\n  tag_55\n    /* \"#utility.yul\":2116:2119   */\n  dup5\n    /* \"#utility.yul\":2106:2114   */\n  dup5\n    /* \"#utility.yul\":2100:2104   */\n  dup5\n    /* \"#utility.yul\":2097:2098   */\n  0x01\n    /* \"#utility.yul\":2078:2120   */\n  tag_24\n  jump\t// in\ntag_55:\n    /* \"#utility.yul\":2063:2120   */\n  swap3\n  pop\n  swap1\n  pop\n    /* \"#utility.yul\":2152:2156   */\n  dup2\n    /* \"#utility.yul\":2147:2150   */\n  dup5\n    /* \"#utility.yul\":2143:2157   */\n  div\n    /* \"#utility.yul\":2136:2141   */\n  dup2\n    /* \"#utility.yul\":2133:2158   */\n  gt\n    /* \"#utility.yul\":2130:2181   */\n  iszero\n  tag_56\n  jumpi\n    /* \"#utility.yul\":2161:2179   */\n  tag_57\n  tag_31\n  jump\t// in\ntag_57:\n    /* \"#utility.yul\":2130:2181   */\ntag_56:\n    /* \"#utility.yul\":2210:2214   */\n  dup2\n    /* \"#utility.yul\":2203:2208   */\n  dup2\n    /* \"#utility.yul\":2199:2215   */\n  mul\n    /* \"#utility.yul\":2190:2215   */\n  swap1\n  pop\n    /* \"#utility.yul\":1148:2221   */\ntag_42:\n  swap4\n  swap3\n  pop\n  pop\n  pop\n  jump\t// out\n    /* \"#utility.yul\":2227:2575   */\ntag_10:\n    /* \"#utility.yul\":2267:2274   */\n  0x00\n    /* \"#utility.yul\":2290:2310   */\n  tag_59\n    /* \"#utility.yul\":2308:2309   */\n  dup3\n    /* \"#utility.yul\":2290:2310   */\n  tag_37\n  jump\t// in\ntag_59:\n    /* \"#utility.yul\":2285:2310   */\n  swap2\n  pop\n    /* \"#utility.yul\":2324:2344   */\n  tag_60\n    /* \"#utility.yul\":2342:2343   */\n  dup4\n    /* \"#utility.yul\":2324:2344   */\n  tag_37\n  jump\t// in\ntag_60:\n    /* \"#utility.yul\":2319:2344   */\n  swap3\n  pop\n    /* \"#utility.yul\":2512:2513   */\n  dup2\n    /* \"#utility.yul\":2444:2510   */\n  0xffffffffffffffffffffffffffffffffffffffffffffffffffffffffffffffff\n    /* \"#utility.yul\":2440:2514   */\n  div\n    /* \"#utility.yul\":2437:2438   */\n  dup4\n    /* \"#utility.yul\":2434:2515   */\n  gt\n    /* \"#utility.yul\":2429:2430   */\n  dup3\n    /* \"#utility.yul\":2422:2431   */\n  iszero\n    /* \"#utility.yul\":2415:2432   */\n  iszero\n    /* \"#utility.yul\":2411:2516   */\n  and\n    /* \"#utility.yul\":2408:2539   */\n  iszero\n  tag_61\n  jumpi\n    /* \"#utility.yul\":2519:2537   */\n  tag_62\n  tag_31\n  jump\t// in\ntag_62:\n    /* \"#utility.yul\":2408:2539   */\ntag_61:\n    /* \"#utility.yul\":2567:2568   */\n  dup3\n    /* \"#utility.yul\":2564:2565   */\n  dup3\n    /* \"#utility.yul\":2560:2569   */\n  mul\n    /* \"#utility.yul\":2549:2569   */\n  swap1\n  pop\n    /* \"#utility.yul\":2227:2575   */\n  swap3\n  swap2\n  pop\n  pop\n  jump\t// out\n    /* \"#utility.yul\":2581:2658   */\ntag_37:\n    /* \"#utility.yul\":2618:2625   */\n  0x00\n    /* \"#utility.yul\":2647:2652   */\n  dup2\n    /* \"#utility.yul\":2636:2652   */\n  swap1\n  pop\n    /* \"#utility.yul\":2581:2658   */\n  swap2\n  swap1\n  pop\n  jump\t// out\n    /* \"#utility.yul\":2664:2750   */\ntag_39:\n    /* \"#utility.yul\":2699:2706   */\n  0x00\n    /* \"#utility.yul\":2739:2743   */\n  0xff\n    /* \"#utility.yul\":2732:2737   */\n  dup3\n    /* \"#utility.yul\":2728:2744   */\n  and\n    /* \"#utility.yul\":2717:2744   */\n  swap1\n  pop\n    /* \"#utility.yul\":2664:2750   */\n  swap2\n  swap1\n  pop\n  jump\t// out\n    /* \"#utility.yul\":2756:3076   */\ntag_13:\n    /* \"#utility.yul\":2800:2806   */\n  0x00\n    /* \"#utility.yul\":2837:2838   */\n  0x02\n    /* \"#utility.yul\":2831:2835   */\n  dup3\n    /* \"#utility.yul\":2827:2839   */\n  div\n    /* \"#utility.yul\":2817:2839   */\n  swap1\n  pop\n    /* \"#utility.yul\":2884:2885   */\n  0x01\n    /* \"#utility.yul\":2878:2882   */\n  dup3\n    /* \"#utility.yul\":2874:2886   */\n  and\n    /* \"#utility.yul\":2905:2923   */\n  dup1\n    /* \"#utility.yul\":2895:2976   */\n  tag_66\n  jumpi\n    /* \"#utility.yul\":2961:2965   */\n  0x7f\n    /* \"#utility.yul\":2953:2959   */\n  dup3\n    /* \"#utility.yul\":2949:2966   */\n  and\n    /* \"#utility.yul\":2939:2966   */\n  swap2\n  pop\n    /* \"#utility.yul\":2895:2976   */\ntag_66:\n    /* \"#utility.yul\":3023:3025   */\n  0x20\n    /* \"#utility.yul\":3015:3021   */\n  dup3\n    /* \"#utility.yul\":3012:3026   */\n  lt\n    /* \"#utility.yul\":2992:3010   */\n  dup2\n    /* \"#utility.yul\":2989:3027   */\n  eq\n    /* \"#utility.yul\":2986:3070   */\n  iszero\n  tag_67\n  jumpi\n    /* \"#utility.yul\":3042:3060   */\n  tag_68\n  tag_69\n  jump\t// in\ntag_68:\n    /* \"#utility.yul\":2986:3070   */\ntag_67:\n    /* \"#utility.yul\":2807:3076   */\n  pop\n    /* \"#utility.yul\":2756:3076   */\n  swap2\n  swap1\n  pop\n  jump\t// out\n    /* \"#utility.yul\":3082:3262   */\ntag_31:\n    /* \"#utility.yul\":3130:3207   */\n  0x4e487b7100000000000000000000000000000000000000000000000000000000\n    /* \"#utility.yul\":3127:3128   */\n  0x00\n    /* \"#utility.yul\":3120:3208   */\n  mstore\n    /* \"#utility.yul\":3227:3231   */\n  0x11\n    /* \"#utility.yul\":3224:3225   */\n  0x04\n    /* \"#utility.yul\":3217:3232   */\n  mstore\n    /* \"#utility.yul\":3251:3255   */\n  0x24\n    /* \"#utility.yul\":3248:3249   */\n  0x00\n    /* \"#utility.yul\":3241:3256   */\n  revert\n    /* \"#utility.yul\":3268:3448   */\ntag_69:\n    /* \"#utility.yul\":3316:3393   */\n  0x4e487b7100000000000000000000000000000000000000000000000000000000\n    /* \"#utility.yul\":3313:3314   */\n  0x00\n    /* \"#utility.yul\":3306:3394   */\n  mstore\n    /* \"#utility.yul\":3413:3417   */\n  0x22\n    /* \"#utility.yul\":3410:3411   */\n  0x04\n    /* \"#utility.yul\":3403:3418   */\n  mstore\n    /* \"#utility.yul\":3437:3441   */\n  0x24\n    /* \"#utility.yul\":3434:3435   */\n  0x00\n    /* \"#utility.yul\":3427:3442   */\n  revert\n    /* \"#utility.yul\":3454:3556   */\ntag_34:\n    /* \"#utility.yul\":3496:3504   */\n  0x00\n    /* \"#utility.yul\":3543:3548   */\n  dup2\n    /* \"#utility.yul\":3540:3541   */\n  0x01\n    /* \"#utility.yul\":3536:3549   */\n  shr\n    /* \"#utility.yul\":3515:3549   */\n  swap1\n  pop\n    /* \"#utility.yul\":3454:3556   */\n  swap2\n  swap1\n  pop\n  jump\t// out\n    /* \"learning/tokens/AMDToken.sol\":86:1219  contract AMDToken is IERC20{\r... */\ntag_11:\n  dataSize(sub_0)\n  dup1\n  dataOffset(sub_0)\n  0x00\n  codecopy\n  0x00\n  return\nstop\n\nsub_0: assembly {\n        /* \"learning/tokens/AMDToken.sol\":86:1219  contract AMDToken is IERC20{\r... */\n      mstore(0x40, 0x80)\n      callvalue\n      dup1\n      iszero\n      tag_1\n      jumpi\n      0x00\n      dup1\n      revert\n    tag_1:\n      pop\n      jumpi(tag_2, lt(calldatasize, 0x04))\n      shr(0xe0, calldataload(0x00))\n      dup1\n      0x70a08231\n      gt\n      tag_13\n      jumpi\n      dup1\n      0x70a08231\n      eq\n      tag_8\n      jumpi\n      dup1\n      0x8da5cb5b\n      eq\n      tag_9\n      jumpi\n      dup1\n      0x95d89b41\n      eq\n      tag_10\n      jumpi\n      dup1\n      0xa9059cbb\n      eq\n      tag_11\n      jumpi\n      dup1\n      0xdd62ed3e\n      eq\n      tag_12\n      jumpi\n      jump(tag_2)\n    tag_13:\n      dup1\n      0x06fdde03\n      eq\n      tag_3\n      jumpi\n      dup1\n      0x095ea7b3\n      eq\n      tag_4\n      jumpi\n      dup1\n      0x18160ddd\n      eq\n      tag_5\n      jumpi\n      dup1\n      0x23b872dd\n      eq\n      tag_6\n      jumpi\n      dup1\n      0x313ce567\n      eq\n      tag_7\n      jumpi\n    tag_2:\n      0x00\n      dup1\n      revert\n        /* \"learning/tokens/AMDToken.sol\":122:149  string override public name */\n    tag_3:\n      tag_14\n      tag_15\n      jump\t// in\n    tag_14:\n      mload(0x40)\n      tag_16\n      swap2\n      swap1\n      tag_17\n      jump\t// in\n    tag_16:\n      mload(0x40)\n      dup1\n      swap2\n      sub\n      swap1\n      return\n        /* \"learning/tokens/AMDToken.sol\":957:1078  function approve(address _spender, uint256 _value) override external returns (bool success){\r... */\n    tag_4:\n      tag_18\n      0x04\n      dup1\n      calldatasize\n      sub\n      dup2\n      add\n      swap1\n      tag_19\n      swap2\n      swap1\n      tag_20\n      jump\t// in\n    tag_19:\n      tag_21\n      jump\t// in\n    tag_18:\n      mload(0x40)\n      tag_22\n      swap2\n      swap1\n      tag_23\n      jump\t// in\n    tag_22:\n      mload(0x40)\n      dup1\n      swap2\n      sub\n      swap1\n      return\n        /* \"learning/tokens/AMDToken.sol\":229:264  uint256 override public totalSupply */\n    tag_5:\n      tag_24\n      tag_25\n      jump\t// in\n    tag_24:\n      mload(0x40)\n      tag_26\n      swap2\n      swap1\n      tag_27\n      jump\t// in\n    tag_26:\n      mload(0x40)\n      dup1\n      swap2\n      sub\n      swap1\n      return\n        /* \"learning/tokens/AMDToken.sol\":814:951  function transferFrom(address _from, address _to, uint256 _value) override external  returns (bool success){\r... */\n    tag_6:\n      tag_28\n      0x04\n      dup1\n      calldatasize\n      sub\n      dup2\n      add\n      swap1\n      tag_29\n      swap2\n      swap1\n      tag_30\n      jump\t// in\n    tag_29:\n      tag_31\n      jump\t// in\n    tag_28:\n      mload(0x40)\n      tag_32\n      swap2\n      swap1\n      tag_23\n      jump\t// in\n    tag_32:\n      mload(0x40)\n      dup1\n      swap2\n      sub\n      swap1\n      return\n        /* \"learning/tokens/AMDToken.sol\":192:222  uint8 override public decimals */\n    tag_7:\n      tag_33\n      tag_34\n      jump\t// in\n    tag_33:\n      mload(0x40)\n      tag_35\n      swap2\n      swap1\n      tag_36\n      jump\t// in\n    tag_35:\n      mload(0x40)\n      dup1\n      swap2\n      sub\n      swap1\n      return\n        /* \"learning/tokens/AMDToken.sol\":271:322  mapping(address=>uint256) override public balanceOf */\n    tag_8:\n      tag_37\n      0x04\n      dup1\n      calldatasize\n      sub\n      dup2\n      add\n      swap1\n      tag_38\n      swap2\n      swap1\n      tag_39\n      jump\t// in\n    tag_38:\n      tag_40\n      jump\t// in\n    tag_37:\n      mload(0x40)\n      tag_41\n      swap2\n      swap1\n      tag_27\n      jump\t// in\n    tag_41:\n      mload(0x40)\n      dup1\n      swap2\n      sub\n      swap1\n      return\n        /* \"learning/tokens/AMDToken.sol\":329:349  address public owner */\n    tag_9:\n      tag_42\n      tag_43\n      jump\t// in\n    tag_42:\n      mload(0x40)\n      tag_44\n      swap2\n      swap1\n      tag_45\n      jump\t// in\n    tag_44:\n      mload(0x40)\n      dup1\n      swap2\n      sub\n      swap1\n      return\n        /* \"learning/tokens/AMDToken.sol\":156:185  string override public symbol */\n    tag_10:\n      tag_46\n      tag_47\n      jump\t// in\n    tag_46:\n      mload(0x40)\n      tag_48\n      swap2\n      swap1\n      tag_17\n      jump\t// in\n    tag_48:\n      mload(0x40)\n      dup1\n      swap2\n      sub\n      swap1\n      return\n        /* \"learning/tokens/AMDToken.sol\":691:808  function transfer(address _to, uint256 _value) override external returns (bool success){\r... */\n    tag_11:\n      tag_49\n      0x04\n      dup1\n      calldatasize\n      sub\n      dup2\n      add\n      swap1\n      tag_50\n      swap2\n      swap1\n      tag_20\n      jump\t// in\n    tag_50:\n      tag_51\n      jump\t// in\n    tag_49:\n      mload(0x40)\n      tag_52\n      swap2\n      swap1\n      tag_23\n      jump\t// in\n    tag_52:\n      mload(0x40)\n      dup1\n      swap2\n      sub\n      swap1\n      return\n        /* \"learning/tokens/AMDToken.sol\":1084:1214  function allowance(address _owner, address _spender) override external view returns (uint256 remaining){\r... */\n    tag_12:\n      tag_53\n      0x04\n      dup1\n      calldatasize\n      sub\n      dup2\n      add\n      swap1\n      tag_54\n      swap2\n      swap1\n      tag_55\n      jump\t// in\n    tag_54:\n      tag_56\n      jump\t// in\n    tag_53:\n      mload(0x40)\n      tag_57\n      swap2\n      swap1\n      tag_27\n      jump\t// in\n    tag_57:\n      mload(0x40)\n      dup1\n      swap2\n      sub\n      swap1\n      return\n        /* \"learning/tokens/AMDToken.sol\":122:149  string override public name */\n    tag_15:\n      0x00\n      dup1\n      sload\n      tag_58\n      swap1\n      tag_59\n      jump\t// in\n    tag_58:\n      dup1\n      0x1f\n      add\n      0x20\n      dup1\n      swap2\n      div\n      mul\n      0x20\n      add\n      mload(0x40)\n      swap1\n      dup2\n      add\n      0x40\n      mstore\n      dup1\n      swap3\n      swap2\n      swap1\n      dup2\n      dup2\n      mstore\n      0x20\n      add\n      dup3\n      dup1\n      sload\n      tag_60\n      swap1\n      tag_59\n      jump\t// in\n    tag_60:\n      dup1\n      iszero\n      tag_61\n      jumpi\n      dup1\n      0x1f\n      lt\n      tag_62\n      jumpi\n      0x0100\n      dup1\n      dup4\n      sload\n      div\n      mul\n      dup4\n      mstore\n      swap2\n      0x20\n      add\n      swap2\n      jump(tag_61)\n    tag_62:\n      dup3\n      add\n      swap2\n      swap1\n      0x00\n      mstore\n      keccak256(0x00, 0x20)\n      swap1\n    tag_63:\n      dup2\n      sload\n      dup2\n      mstore\n      swap1\n      0x01\n      add\n      swap1\n      0x20\n      add\n      dup1\n      dup4\n      gt\n      tag_63\n      jumpi\n      dup3\n      swap1\n      sub\n      0x1f\n      and\n      dup3\n      add\n      swap2\n    tag_61:\n      pop\n      pop\n      pop\n      pop\n      pop\n      dup2\n      jump\t// out\n        /* \"learning/tokens/AMDToken.sol\":957:1078  function approve(address _spender, uint256 _value) override external returns (bool success){\r... */\n    tag_21:\n        /* \"learning/tokens/AMDToken.sol\":1035:1047  bool success */\n      0x00\n        /* \"learning/tokens/AMDToken.sol\":1066:1070  true */\n      0x01\n        /* \"learning/tokens/AMDToken.sol\":1059:1070  return true */\n      swap1\n      pop\n        /* \"learning/tokens/AMDToken.sol\":957:1078  function approve(address _spender, uint256 _value) override external returns (bool success){\r... */\n      swap3\n      swap2\n      pop\n      pop\n      jump\t// out\n        /* \"learning/tokens/AMDToken.sol\":229:264  uint256 override public totalSupply */\n    tag_25:\n      sload(0x03)\n      dup2\n      jump\t// out\n        /* \"learning/tokens/AMDToken.sol\":814:951  function transferFrom(address _from, address _to, uint256 _value) override external  returns (bool success){\r... */\n    tag_31:\n        /* \"learning/tokens/AMDToken.sol\":908:920  bool success */\n      0x00\n        /* \"learning/tokens/AMDToken.sol\":939:943  true */\n      0x01\n        /* \"learning/tokens/AMDToken.sol\":932:943  return true */\n      swap1\n      pop\n        /* \"learning/tokens/AMDToken.sol\":814:951  function transferFrom(address _from, address _to, uint256 _value) override external  returns (bool success){\r... */\n      swap4\n      swap3\n      pop\n      pop\n      pop\n      jump\t// out\n        /* \"learning/tokens/AMDToken.sol\":192:222  uint8 override public decimals */\n    tag_34:\n      0x02\n      0x00\n      swap1\n      sload\n      swap1\n      0x0100\n      exp\n      swap1\n      div\n      0xff\n      and\n      dup2\n      jump\t// out\n        /* \"learning/tokens/AMDToken.sol\":271:322  mapping(address=>uint256) override public balanceOf */\n    tag_40:\n      mstore(0x20, 0x04)\n      dup1\n      0x00\n      mstore\n      keccak256(0x00, 0x40)\n      0x00\n      swap2\n      pop\n      swap1\n      pop\n      sload\n      dup2\n      jump\t// out\n        /* \"learning/tokens/AMDToken.sol\":329:349  address public owner */\n    tag_43:\n      0x05\n      0x00\n      swap1\n      sload\n      swap1\n      0x0100\n      exp\n      swap1\n      div\n      0xffffffffffffffffffffffffffffffffffffffff\n      and\n      dup2\n      jump\t// out\n        /* \"learning/tokens/AMDToken.sol\":156:185  string override public symbol */\n    tag_47:\n      0x01\n      dup1\n      sload\n      tag_66\n      swap1\n      tag_59\n      jump\t// in\n    tag_66:\n      dup1\n      0x1f\n      add\n      0x20\n      dup1\n      swap2\n      div\n      mul\n      0x20\n      add\n      mload(0x40)\n      swap1\n      dup2\n      add\n      0x40\n      mstore\n      dup1\n      swap3\n      swap2\n      swap1\n      dup2\n      dup2\n      mstore\n      0x20\n      add\n      dup3\n      dup1\n      sload\n      tag_67\n      swap1\n      tag_59\n      jump\t// in\n    tag_67:\n      dup1\n      iszero\n      tag_68\n      jumpi\n      dup1\n      0x1f\n      lt\n      tag_69\n      jumpi\n      0x0100\n      dup1\n      dup4\n      sload\n      div\n      mul\n      dup4\n      mstore\n      swap2\n      0x20\n      add\n      swap2\n      jump(tag_68)\n    tag_69:\n      dup3\n      add\n      swap2\n      swap1\n      0x00\n      mstore\n      keccak256(0x00, 0x20)\n      swap1\n    tag_70:\n      dup2\n      sload\n      dup2\n      mstore\n      swap1\n      0x01\n      add\n      swap1\n      0x20\n      add\n      dup1\n      dup4\n      gt\n      tag_70\n      jumpi\n      dup3\n      swap1\n      sub\n      0x1f\n      and\n      dup3\n      add\n      swap2\n    tag_68:\n      pop\n      pop\n      pop\n      pop\n      pop\n      dup2\n      jump\t// out\n        /* \"learning/tokens/AMDToken.sol\":691:808  function transfer(address _to, uint256 _value) override external returns (bool success){\r... */\n    tag_51:\n        /* \"learning/tokens/AMDToken.sol\":765:777  bool success */\n      0x00\n        /* \"learning/tokens/AMDToken.sol\":796:800  true */\n      0x01\n        /* \"learning/tokens/AMDToken.sol\":789:800  return true */\n      swap1\n      pop\n        /* \"learning/tokens/AMDToken.sol\":691:808  function transfer(address _to, uint256 _value) override external returns (bool success){\r... */\n      swap3\n      swap2\n      pop\n      pop\n      jump\t// out\n        /* \"learning/tokens/AMDToken.sol\":1084:1214  function allowance(address _owner, address _spender) override external view returns (uint256 remaining){\r... */\n    tag_56:\n        /* \"learning/tokens/AMDToken.sol\":1169:1186  uint256 remaining */\n      0x00\n        /* \"learning/tokens/AMDToken.sol\":1205:1206  2 */\n      0x02\n        /* \"learning/tokens/AMDToken.sol\":1198:1206  return 2 */\n      swap1\n      pop\n        /* \"learning/tokens/AMDToken.sol\":1084:1214  function allowance(address _owner, address _spender) override external view returns (uint256 remaining){\r... */\n      swap3\n      swap2\n      pop\n      pop\n      jump\t// out\n        /* \"#utility.yul\":7:146   */\n    tag_74:\n        /* \"#utility.yul\":53:58   */\n      0x00\n        /* \"#utility.yul\":91:97   */\n      dup2\n        /* \"#utility.yul\":78:98   */\n      calldataload\n        /* \"#utility.yul\":69:98   */\n      swap1\n      pop\n        /* \"#utility.yul\":107:140   */\n      tag_76\n        /* \"#utility.yul\":134:139   */\n      dup2\n        /* \"#utility.yul\":107:140   */\n      tag_77\n      jump\t// in\n    tag_76:\n        /* \"#utility.yul\":7:146   */\n      swap3\n      swap2\n      pop\n      pop\n      jump\t// out\n        /* \"#utility.yul\":152:291   */\n    tag_78:\n        /* \"#utility.yul\":198:203   */\n      0x00\n        /* \"#utility.yul\":236:242   */\n      dup2\n        /* \"#utility.yul\":223:243   */\n      calldataload\n        /* \"#utility.yul\":214:243   */\n      swap1\n      pop\n        /* \"#utility.yul\":252:285   */\n      tag_80\n        /* \"#utility.yul\":279:284   */\n      dup2\n        /* \"#utility.yul\":252:285   */\n      tag_81\n      jump\t// in\n    tag_80:\n        /* \"#utility.yul\":152:291   */\n      swap3\n      swap2\n      pop\n      pop\n      jump\t// out\n        /* \"#utility.yul\":297:626   */\n    tag_39:\n        /* \"#utility.yul\":356:362   */\n      0x00\n        /* \"#utility.yul\":405:407   */\n      0x20\n        /* \"#utility.yul\":393:402   */\n      dup3\n        /* \"#utility.yul\":384:391   */\n      dup5\n        /* \"#utility.yul\":380:403   */\n      sub\n        /* \"#utility.yul\":376:408   */\n      slt\n        /* \"#utility.yul\":373:492   */\n      iszero\n      tag_83\n      jumpi\n        /* \"#utility.yul\":411:490   */\n      tag_84\n      tag_85\n      jump\t// in\n    tag_84:\n        /* \"#utility.yul\":373:492   */\n    tag_83:\n        /* \"#utility.yul\":531:532   */\n      0x00\n        /* \"#utility.yul\":556:609   */\n      tag_86\n        /* \"#utility.yul\":601:608   */\n      dup5\n        /* \"#utility.yul\":592:598   */\n      dup3\n        /* \"#utility.yul\":581:590   */\n      dup6\n        /* \"#utility.yul\":577:599   */\n      add\n        /* \"#utility.yul\":556:609   */\n      tag_74\n      jump\t// in\n    tag_86:\n        /* \"#utility.yul\":546:609   */\n      swap2\n      pop\n        /* \"#utility.yul\":502:619   */\n      pop\n        /* \"#utility.yul\":297:626   */\n      swap3\n      swap2\n      pop\n      pop\n      jump\t// out\n        /* \"#utility.yul\":632:1106   */\n    tag_55:\n        /* \"#utility.yul\":700:706   */\n      0x00\n        /* \"#utility.yul\":708:714   */\n      dup1\n        /* \"#utility.yul\":757:759   */\n      0x40\n        /* \"#utility.yul\":745:754   */\n      dup4\n        /* \"#utility.yul\":736:743   */\n      dup6\n        /* \"#utility.yul\":732:755   */\n      sub\n        /* \"#utility.yul\":728:760   */\n      slt\n        /* \"#utility.yul\":725:844   */\n      iszero\n      tag_88\n      jumpi\n        /* \"#utility.yul\":763:842   */\n      tag_89\n      tag_85\n      jump\t// in\n    tag_89:\n        /* \"#utility.yul\":725:844   */\n    tag_88:\n        /* \"#utility.yul\":883:884   */\n      0x00\n        /* \"#utility.yul\":908:961   */\n      tag_90\n        /* \"#utility.yul\":953:960   */\n      dup6\n        /* \"#utility.yul\":944:950   */\n      dup3\n        /* \"#utility.yul\":933:942   */\n      dup7\n        /* \"#utility.yul\":929:951   */\n      add\n        /* \"#utility.yul\":908:961   */\n      tag_74\n      jump\t// in\n    tag_90:\n        /* \"#utility.yul\":898:961   */\n      swap3\n      pop\n        /* \"#utility.yul\":854:971   */\n      pop\n        /* \"#utility.yul\":1010:1012   */\n      0x20\n        /* \"#utility.yul\":1036:1089   */\n      tag_91\n        /* \"#utility.yul\":1081:1088   */\n      dup6\n        /* \"#utility.yul\":1072:1078   */\n      dup3\n        /* \"#utility.yul\":1061:1070   */\n      dup7\n        /* \"#utility.yul\":1057:1079   */\n      add\n        /* \"#utility.yul\":1036:1089   */\n      tag_74\n      jump\t// in\n    tag_91:\n        /* \"#utility.yul\":1026:1089   */\n      swap2\n      pop\n        /* \"#utility.yul\":981:1099   */\n      pop\n        /* \"#utility.yul\":632:1106   */\n      swap3\n      pop\n      swap3\n      swap1\n      pop\n      jump\t// out\n        /* \"#utility.yul\":1112:1731   */\n    tag_30:\n        /* \"#utility.yul\":1189:1195   */\n      0x00\n        /* \"#utility.yul\":1197:1203   */\n      dup1\n        /* \"#utility.yul\":1205:1211   */\n      0x00\n        /* \"#utility.yul\":1254:1256   */\n      0x60\n        /* \"#utility.yul\":1242:1251   */\n      dup5\n        /* \"#utility.yul\":1233:1240   */\n      dup7\n        /* \"#utility.yul\":1229:1252   */\n      sub\n        /* \"#utility.yul\":1225:1257   */\n      slt\n        /* \"#utility.yul\":1222:1341   */\n      iszero\n      tag_93\n      jumpi\n        /* \"#utility.yul\":1260:1339   */\n      tag_94\n      tag_85\n      jump\t// in\n    tag_94:\n        /* \"#utility.yul\":1222:1341   */\n    tag_93:\n        /* \"#utility.yul\":1380:1381   */\n      0x00\n        /* \"#utility.yul\":1405:1458   */\n      tag_95\n        /* \"#utility.yul\":1450:1457   */\n      dup7\n        /* \"#utility.yul\":1441:1447   */\n      dup3\n        /* \"#utility.yul\":1430:1439   */\n      dup8\n        /* \"#utility.yul\":1426:1448   */\n      add\n        /* \"#utility.yul\":1405:1458   */\n      tag_74\n      jump\t// in\n    tag_95:\n        /* \"#utility.yul\":1395:1458   */\n      swap4\n      pop\n        /* \"#utility.yul\":1351:1468   */\n      pop\n        /* \"#utility.yul\":1507:1509   */\n      0x20\n        /* \"#utility.yul\":1533:1586   */\n      tag_96\n        /* \"#utility.yul\":1578:1585   */\n      dup7\n        /* \"#utility.yul\":1569:1575   */\n      dup3\n        /* \"#utility.yul\":1558:1567   */\n      dup8\n        /* \"#utility.yul\":1554:1576   */\n      add\n        /* \"#utility.yul\":1533:1586   */\n      tag_74\n      jump\t// in\n    tag_96:\n        /* \"#utility.yul\":1523:1586   */\n      swap3\n      pop\n        /* \"#utility.yul\":1478:1596   */\n      pop\n        /* \"#utility.yul\":1635:1637   */\n      0x40\n        /* \"#utility.yul\":1661:1714   */\n      tag_97\n        /* \"#utility.yul\":1706:1713   */\n      dup7\n        /* \"#utility.yul\":1697:1703   */\n      dup3\n        /* \"#utility.yul\":1686:1695   */\n      dup8\n        /* \"#utility.yul\":1682:1704   */\n      add\n        /* \"#utility.yul\":1661:1714   */\n      tag_78\n      jump\t// in\n    tag_97:\n        /* \"#utility.yul\":1651:1714   */\n      swap2\n      pop\n        /* \"#utility.yul\":1606:1724   */\n      pop\n        /* \"#utility.yul\":1112:1731   */\n      swap3\n      pop\n      swap3\n      pop\n      swap3\n      jump\t// out\n        /* \"#utility.yul\":1737:2211   */\n    tag_20:\n        /* \"#utility.yul\":1805:1811   */\n      0x00\n        /* \"#utility.yul\":1813:1819   */\n      dup1\n        /* \"#utility.yul\":1862:1864   */\n      0x40\n        /* \"#utility.yul\":1850:1859   */\n      dup4\n        /* \"#utility.yul\":1841:1848   */\n      dup6\n        /* \"#utility.yul\":1837:1860   */\n      sub\n        /* \"#utility.yul\":1833:1865   */\n      slt\n        /* \"#utility.yul\":1830:1949   */\n      iszero\n      tag_99\n      jumpi\n        /* \"#utility.yul\":1868:1947   */\n      tag_100\n      tag_85\n      jump\t// in\n    tag_100:\n        /* \"#utility.yul\":1830:1949   */\n    tag_99:\n        /* \"#utility.yul\":1988:1989   */\n      0x00\n        /* \"#utility.yul\":2013:2066   */\n      tag_101\n        /* \"#utility.yul\":2058:2065   */\n      dup6\n        /* \"#utility.yul\":2049:2055   */\n      dup3\n        /* \"#utility.yul\":2038:2047   */\n      dup7\n        /* \"#utility.yul\":2034:2056   */\n      add\n        /* \"#utility.yul\":2013:2066   */\n      tag_74\n      jump\t// in\n    tag_101:\n        /* \"#utility.yul\":2003:2066   */\n      swap3\n      pop\n        /* \"#utility.yul\":1959:2076   */\n      pop\n        /* \"#utility.yul\":2115:2117   */\n      0x20\n        /* \"#utility.yul\":2141:2194   */\n      tag_102\n        /* \"#utility.yul\":2186:2193   */\n      dup6\n        /* \"#utility.yul\":2177:2183   */\n      dup3\n        /* \"#utility.yul\":2166:2175   */\n      dup7\n        /* \"#utility.yul\":2162:2184   */\n      add\n        /* \"#utility.yul\":2141:2194   */\n      tag_78\n      jump\t// in\n    tag_102:\n        /* \"#utility.yul\":2131:2194   */\n      swap2\n      pop\n        /* \"#utility.yul\":2086:2204   */\n      pop\n        /* \"#utility.yul\":1737:2211   */\n      swap3\n      pop\n      swap3\n      swap1\n      pop\n      jump\t// out\n        /* \"#utility.yul\":2217:2335   */\n    tag_103:\n        /* \"#utility.yul\":2304:2328   */\n      tag_105\n        /* \"#utility.yul\":2322:2327   */\n      dup2\n        /* \"#utility.yul\":2304:2328   */\n      tag_106\n      jump\t// in\n    tag_105:\n        /* \"#utility.yul\":2299:2302   */\n      dup3\n        /* \"#utility.yul\":2292:2329   */\n      mstore\n        /* \"#utility.yul\":2217:2335   */\n      pop\n      pop\n      jump\t// out\n        /* \"#utility.yul\":2341:2450   */\n    tag_107:\n        /* \"#utility.yul\":2422:2443   */\n      tag_109\n        /* \"#utility.yul\":2437:2442   */\n      dup2\n        /* \"#utility.yul\":2422:2443   */\n      tag_110\n      jump\t// in\n    tag_109:\n        /* \"#utility.yul\":2417:2420   */\n      dup3\n        /* \"#utility.yul\":2410:2444   */\n      mstore\n        /* \"#utility.yul\":2341:2450   */\n      pop\n      pop\n      jump\t// out\n        /* \"#utility.yul\":2456:2820   */\n    tag_111:\n        /* \"#utility.yul\":2544:2547   */\n      0x00\n        /* \"#utility.yul\":2572:2611   */\n      tag_113\n        /* \"#utility.yul\":2605:2610   */\n      dup3\n        /* \"#utility.yul\":2572:2611   */\n      tag_114\n      jump\t// in\n    tag_113:\n        /* \"#utility.yul\":2627:2698   */\n      tag_115\n        /* \"#utility.yul\":2691:2697   */\n      dup2\n        /* \"#utility.yul\":2686:2689   */\n      dup6\n        /* \"#utility.yul\":2627:2698   */\n      tag_116\n      jump\t// in\n    tag_115:\n        /* \"#utility.yul\":2620:2698   */\n      swap4\n      pop\n        /* \"#utility.yul\":2707:2759   */\n      tag_117\n        /* \"#utility.yul\":2752:2758   */\n      dup2\n        /* \"#utility.yul\":2747:2750   */\n      dup6\n        /* \"#utility.yul\":2740:2744   */\n      0x20\n        /* \"#utility.yul\":2733:2738   */\n      dup7\n        /* \"#utility.yul\":2729:2745   */\n      add\n        /* \"#utility.yul\":2707:2759   */\n      tag_118\n      jump\t// in\n    tag_117:\n        /* \"#utility.yul\":2784:2813   */\n      tag_119\n        /* \"#utility.yul\":2806:2812   */\n      dup2\n        /* \"#utility.yul\":2784:2813   */\n      tag_120\n      jump\t// in\n    tag_119:\n        /* \"#utility.yul\":2779:2782   */\n      dup5\n        /* \"#utility.yul\":2775:2814   */\n      add\n        /* \"#utility.yul\":2768:2814   */\n      swap2\n      pop\n        /* \"#utility.yul\":2548:2820   */\n      pop\n        /* \"#utility.yul\":2456:2820   */\n      swap3\n      swap2\n      pop\n      pop\n      jump\t// out\n        /* \"#utility.yul\":2826:2944   */\n    tag_121:\n        /* \"#utility.yul\":2913:2937   */\n      tag_123\n        /* \"#utility.yul\":2931:2936   */\n      dup2\n        /* \"#utility.yul\":2913:2937   */\n      tag_124\n      jump\t// in\n    tag_123:\n        /* \"#utility.yul\":2908:2911   */\n      dup3\n        /* \"#utility.yul\":2901:2938   */\n      mstore\n        /* \"#utility.yul\":2826:2944   */\n      pop\n      pop\n      jump\t// out\n        /* \"#utility.yul\":2950:3062   */\n    tag_125:\n        /* \"#utility.yul\":3033:3055   */\n      tag_127\n        /* \"#utility.yul\":3049:3054   */\n      dup2\n        /* \"#utility.yul\":3033:3055   */\n      tag_128\n      jump\t// in\n    tag_127:\n        /* \"#utility.yul\":3028:3031   */\n      dup3\n        /* \"#utility.yul\":3021:3056   */\n      mstore\n        /* \"#utility.yul\":2950:3062   */\n      pop\n      pop\n      jump\t// out\n        /* \"#utility.yul\":3068:3290   */\n    tag_45:\n        /* \"#utility.yul\":3161:3165   */\n      0x00\n        /* \"#utility.yul\":3199:3201   */\n      0x20\n        /* \"#utility.yul\":3188:3197   */\n      dup3\n        /* \"#utility.yul\":3184:3202   */\n      add\n        /* \"#utility.yul\":3176:3202   */\n      swap1\n      pop\n        /* \"#utility.yul\":3212:3283   */\n      tag_130\n        /* \"#utility.yul\":3280:3281   */\n      0x00\n        /* \"#utility.yul\":3269:3278   */\n      dup4\n        /* \"#utility.yul\":3265:3282   */\n      add\n        /* \"#utility.yul\":3256:3262   */\n      dup5\n        /* \"#utility.yul\":3212:3283   */\n      tag_103\n      jump\t// in\n    tag_130:\n        /* \"#utility.yul\":3068:3290   */\n      swap3\n      swap2\n      pop\n      pop\n      jump\t// out\n        /* \"#utility.yul\":3296:3506   */\n    tag_23:\n        /* \"#utility.yul\":3383:3387   */\n      0x00\n        /* \"#utility.yul\":3421:3423   */\n      0x20\n        /* \"#utility.yul\":3410:3419   */\n      dup3\n        /* \"#utility.yul\":3406:3424   */\n      add\n        /* \"#utility.yul\":3398:3424   */\n      swap1\n      pop\n        /* \"#utility.yul\":3434:3499   */\n      tag_132\n        /* \"#utility.yul\":3496:3497   */\n      0x00\n        /* \"#utility.yul\":3485:3494   */\n      dup4\n        /* \"#utility.yul\":3481:3498   */\n      add\n        /* \"#utility.yul\":3472:3478   */\n      dup5\n        /* \"#utility.yul\":3434:3499   */\n      tag_107\n      jump\t// in\n    tag_132:\n        /* \"#utility.yul\":3296:3506   */\n      swap3\n      swap2\n      pop\n      pop\n      jump\t// out\n        /* \"#utility.yul\":3512:3825   */\n    tag_17:\n        /* \"#utility.yul\":3625:3629   */\n      0x00\n        /* \"#utility.yul\":3663:3665   */\n      0x20\n        /* \"#utility.yul\":3652:3661   */\n      dup3\n        /* \"#utility.yul\":3648:3666   */\n      add\n        /* \"#utility.yul\":3640:3666   */\n      swap1\n      pop\n        /* \"#utility.yul\":3712:3721   */\n      dup2\n        /* \"#utility.yul\":3706:3710   */\n      dup2\n        /* \"#utility.yul\":3702:3722   */\n      sub\n        /* \"#utility.yul\":3698:3699   */\n      0x00\n        /* \"#utility.yul\":3687:3696   */\n      dup4\n        /* \"#utility.yul\":3683:3700   */\n      add\n        /* \"#utility.yul\":3676:3723   */\n      mstore\n        /* \"#utility.yul\":3740:3818   */\n      tag_134\n        /* \"#utility.yul\":3813:3817   */\n      dup2\n        /* \"#utility.yul\":3804:3810   */\n      dup5\n        /* \"#utility.yul\":3740:3818   */\n      tag_111\n      jump\t// in\n    tag_134:\n        /* \"#utility.yul\":3732:3818   */\n      swap1\n      pop\n        /* \"#utility.yul\":3512:3825   */\n      swap3\n      swap2\n      pop\n      pop\n      jump\t// out\n        /* \"#utility.yul\":3831:4053   */\n    tag_27:\n        /* \"#utility.yul\":3924:3928   */\n      0x00\n        /* \"#utility.yul\":3962:3964   */\n      0x20\n        /* \"#utility.yul\":3951:3960   */\n      dup3\n        /* \"#utility.yul\":3947:3965   */\n      add\n        /* \"#utility.yul\":3939:3965   */\n      swap1\n      pop\n        /* \"#utility.yul\":3975:4046   */\n      tag_136\n        /* \"#utility.yul\":4043:4044   */\n      0x00\n        /* \"#utility.yul\":4032:4041   */\n      dup4\n        /* \"#utility.yul\":4028:4045   */\n      add\n        /* \"#utility.yul\":4019:4025   */\n      dup5\n        /* \"#utility.yul\":3975:4046   */\n      tag_121\n      jump\t// in\n    tag_136:\n        /* \"#utility.yul\":3831:4053   */\n      swap3\n      swap2\n      pop\n      pop\n      jump\t// out\n        /* \"#utility.yul\":4059:4273   */\n    tag_36:\n        /* \"#utility.yul\":4148:4152   */\n      0x00\n        /* \"#utility.yul\":4186:4188   */\n      0x20\n        /* \"#utility.yul\":4175:4184   */\n      dup3\n        /* \"#utility.yul\":4171:4189   */\n      add\n        /* \"#utility.yul\":4163:4189   */\n      swap1\n      pop\n        /* \"#utility.yul\":4199:4266   */\n      tag_138\n        /* \"#utility.yul\":4263:4264   */\n      0x00\n        /* \"#utility.yul\":4252:4261   */\n      dup4\n        /* \"#utility.yul\":4248:4265   */\n      add\n        /* \"#utility.yul\":4239:4245   */\n      dup5\n        /* \"#utility.yul\":4199:4266   */\n      tag_125\n      jump\t// in\n    tag_138:\n        /* \"#utility.yul\":4059:4273   */\n      swap3\n      swap2\n      pop\n      pop\n      jump\t// out\n        /* \"#utility.yul\":4360:4459   */\n    tag_114:\n        /* \"#utility.yul\":4412:4418   */\n      0x00\n        /* \"#utility.yul\":4446:4451   */\n      dup2\n        /* \"#utility.yul\":4440:4452   */\n      mload\n        /* \"#utility.yul\":4430:4452   */\n      swap1\n      pop\n        /* \"#utility.yul\":4360:4459   */\n      swap2\n      swap1\n      pop\n      jump\t// out\n        /* \"#utility.yul\":4465:4634   */\n    tag_116:\n        /* \"#utility.yul\":4549:4560   */\n      0x00\n        /* \"#utility.yul\":4583:4589   */\n      dup3\n        /* \"#utility.yul\":4578:4581   */\n      dup3\n        /* \"#utility.yul\":4571:4590   */\n      mstore\n        /* \"#utility.yul\":4623:4627   */\n      0x20\n        /* \"#utility.yul\":4618:4621   */\n      dup3\n        /* \"#utility.yul\":4614:4628   */\n      add\n        /* \"#utility.yul\":4599:4628   */\n      swap1\n      pop\n        /* \"#utility.yul\":4465:4634   */\n      swap3\n      swap2\n      pop\n      pop\n      jump\t// out\n        /* \"#utility.yul\":4640:4736   */\n    tag_106:\n        /* \"#utility.yul\":4677:4684   */\n      0x00\n        /* \"#utility.yul\":4706:4730   */\n      tag_144\n        /* \"#utility.yul\":4724:4729   */\n      dup3\n        /* \"#utility.yul\":4706:4730   */\n      tag_145\n      jump\t// in\n    tag_144:\n        /* \"#utility.yul\":4695:4730   */\n      swap1\n      pop\n        /* \"#utility.yul\":4640:4736   */\n      swap2\n      swap1\n      pop\n      jump\t// out\n        /* \"#utility.yul\":4742:4832   */\n    tag_110:\n        /* \"#utility.yul\":4776:4783   */\n      0x00\n        /* \"#utility.yul\":4819:4824   */\n      dup2\n        /* \"#utility.yul\":4812:4825   */\n      iszero\n        /* \"#utility.yul\":4805:4826   */\n      iszero\n        /* \"#utility.yul\":4794:4826   */\n      swap1\n      pop\n        /* \"#utility.yul\":4742:4832   */\n      swap2\n      swap1\n      pop\n      jump\t// out\n        /* \"#utility.yul\":4838:4964   */\n    tag_145:\n        /* \"#utility.yul\":4875:4882   */\n      0x00\n        /* \"#utility.yul\":4915:4957   */\n      0xffffffffffffffffffffffffffffffffffffffff\n        /* \"#utility.yul\":4908:4913   */\n      dup3\n        /* \"#utility.yul\":4904:4958   */\n      and\n        /* \"#utility.yul\":4893:4958   */\n      swap1\n      pop\n        /* \"#utility.yul\":4838:4964   */\n      swap2\n      swap1\n      pop\n      jump\t// out\n        /* \"#utility.yul\":4970:5047   */\n    tag_124:\n        /* \"#utility.yul\":5007:5014   */\n      0x00\n        /* \"#utility.yul\":5036:5041   */\n      dup2\n        /* \"#utility.yul\":5025:5041   */\n      swap1\n      pop\n        /* \"#utility.yul\":4970:5047   */\n      swap2\n      swap1\n      pop\n      jump\t// out\n        /* \"#utility.yul\":5053:5139   */\n    tag_128:\n        /* \"#utility.yul\":5088:5095   */\n      0x00\n        /* \"#utility.yul\":5128:5132   */\n      0xff\n        /* \"#utility.yul\":5121:5126   */\n      dup3\n        /* \"#utility.yul\":5117:5133   */\n      and\n        /* \"#utility.yul\":5106:5133   */\n      swap1\n      pop\n        /* \"#utility.yul\":5053:5139   */\n      swap2\n      swap1\n      pop\n      jump\t// out\n        /* \"#utility.yul\":5145:5452   */\n    tag_118:\n        /* \"#utility.yul\":5213:5214   */\n      0x00\n        /* \"#utility.yul\":5223:5336   */\n    tag_151:\n        /* \"#utility.yul\":5237:5243   */\n      dup4\n        /* \"#utility.yul\":5234:5235   */\n      dup2\n        /* \"#utility.yul\":5231:5244   */\n      lt\n        /* \"#utility.yul\":5223:5336   */\n      iszero\n      tag_153\n      jumpi\n        /* \"#utility.yul\":5322:5323   */\n      dup1\n        /* \"#utility.yul\":5317:5320   */\n      dup3\n        /* \"#utility.yul\":5313:5324   */\n      add\n        /* \"#utility.yul\":5307:5325   */\n      mload\n        /* \"#utility.yul\":5303:5304   */\n      dup2\n        /* \"#utility.yul\":5298:5301   */\n      dup5\n        /* \"#utility.yul\":5294:5305   */\n      add\n        /* \"#utility.yul\":5287:5326   */\n      mstore\n        /* \"#utility.yul\":5259:5261   */\n      0x20\n        /* \"#utility.yul\":5256:5257   */\n      dup2\n        /* \"#utility.yul\":5252:5262   */\n      add\n        /* \"#utility.yul\":5247:5262   */\n      swap1\n      pop\n        /* \"#utility.yul\":5223:5336   */\n      jump(tag_151)\n    tag_153:\n        /* \"#utility.yul\":5354:5360   */\n      dup4\n        /* \"#utility.yul\":5351:5352   */\n      dup2\n        /* \"#utility.yul\":5348:5361   */\n      gt\n        /* \"#utility.yul\":5345:5446   */\n      iszero\n      tag_154\n      jumpi\n        /* \"#utility.yul\":5434:5435   */\n      0x00\n        /* \"#utility.yul\":5425:5431   */\n      dup5\n        /* \"#utility.yul\":5420:5423   */\n      dup5\n        /* \"#utility.yul\":5416:5432   */\n      add\n        /* \"#utility.yul\":5409:5436   */\n      mstore\n        /* \"#utility.yul\":5345:5446   */\n    tag_154:\n        /* \"#utility.yul\":5194:5452   */\n      pop\n        /* \"#utility.yul\":5145:5452   */\n      pop\n      pop\n      pop\n      jump\t// out\n        /* \"#utility.yul\":5458:5778   */\n    tag_59:\n        /* \"#utility.yul\":5502:5508   */\n      0x00\n        /* \"#utility.yul\":5539:5540   */\n      0x02\n        /* \"#utility.yul\":5533:5537   */\n      dup3\n        /* \"#utility.yul\":5529:5541   */\n      div\n        /* \"#utility.yul\":5519:5541   */\n      swap1\n      pop\n        /* \"#utility.yul\":5586:5587   */\n      0x01\n        /* \"#utility.yul\":5580:5584   */\n      dup3\n        /* \"#utility.yul\":5576:5588   */\n      and\n        /* \"#utility.yul\":5607:5625   */\n      dup1\n        /* \"#utility.yul\":5597:5678   */\n      tag_156\n      jumpi\n        /* \"#utility.yul\":5663:5667   */\n      0x7f\n        /* \"#utility.yul\":5655:5661   */\n      dup3\n        /* \"#utility.yul\":5651:5668   */\n      and\n        /* \"#utility.yul\":5641:5668   */\n      swap2\n      pop\n        /* \"#utility.yul\":5597:5678   */\n    tag_156:\n        /* \"#utility.yul\":5725:5727   */\n      0x20\n        /* \"#utility.yul\":5717:5723   */\n      dup3\n        /* \"#utility.yul\":5714:5728   */\n      lt\n        /* \"#utility.yul\":5694:5712   */\n      dup2\n        /* \"#utility.yul\":5691:5729   */\n      eq\n        /* \"#utility.yul\":5688:5772   */\n      iszero\n      tag_157\n      jumpi\n        /* \"#utility.yul\":5744:5762   */\n      tag_158\n      tag_159\n      jump\t// in\n    tag_158:\n        /* \"#utility.yul\":5688:5772   */\n    tag_157:\n        /* \"#utility.yul\":5509:5778   */\n      pop\n        /* \"#utility.yul\":5458:5778   */\n      swap2\n      swap1\n      pop\n      jump\t// out\n        /* \"#utility.yul\":5784:5964   */\n    tag_159:\n        /* \"#utility.yul\":5832:5909   */\n      0x4e487b7100000000000000000000000000000000000000000000000000000000\n        /* \"#utility.yul\":5829:5830   */\n      0x00\n        /* \"#utility.yul\":5822:5910   */\n      mstore\n        /* \"#utility.yul\":5929:5933   */\n      0x22\n        /* \"#utility.yul\":5926:5927   */\n      0x04\n        /* \"#utility.yul\":5919:5934   */\n      mstore\n        /* \"#utility.yul\":5953:5957   */\n      0x24\n        /* \"#utility.yul\":5950:5951   */\n      0x00\n        /* \"#utility.yul\":5943:5958   */\n      revert\n        /* \"#utility.yul\":6093:6210   */\n    tag_85:\n        /* \"#utility.yul\":6202:6203   */\n      0x00\n        /* \"#utility.yul\":6199:6200   */\n      dup1\n        /* \"#utility.yul\":6192:6204   */\n      revert\n        /* \"#utility.yul\":6216:6318   */\n    tag_120:\n        /* \"#utility.yul\":6257:6263   */\n      0x00\n        /* \"#utility.yul\":6308:6310   */\n      0x1f\n        /* \"#utility.yul\":6304:6311   */\n      not\n        /* \"#utility.yul\":6299:6301   */\n      0x1f\n        /* \"#utility.yul\":6292:6297   */\n      dup4\n        /* \"#utility.yul\":6288:6302   */\n      add\n        /* \"#utility.yul\":6284:6312   */\n      and\n        /* \"#utility.yul\":6274:6312   */\n      swap1\n      pop\n        /* \"#utility.yul\":6216:6318   */\n      swap2\n      swap1\n      pop\n      jump\t// out\n        /* \"#utility.yul\":6324:6446   */\n    tag_77:\n        /* \"#utility.yul\":6397:6421   */\n      tag_166\n        /* \"#utility.yul\":6415:6420   */\n      dup2\n        /* \"#utility.yul\":6397:6421   */\n      tag_106\n      jump\t// in\n    tag_166:\n        /* \"#utility.yul\":6390:6395   */\n      dup2\n        /* \"#utility.yul\":6387:6422   */\n      eq\n        /* \"#utility.yul\":6377:6440   */\n      tag_167\n      jumpi\n        /* \"#utility.yul\":6436:6437   */\n      0x00\n        /* \"#utility.yul\":6433:6434   */\n      dup1\n        /* \"#utility.yul\":6426:6438   */\n      revert\n        /* \"#utility.yul\":6377:6440   */\n    tag_167:\n        /* \"#utility.yul\":6324:6446   */\n      pop\n      jump\t// out\n        /* \"#utility.yul\":6452:6574   */\n    tag_81:\n        /* \"#utility.yul\":6525:6549   */\n      tag_169\n        /* \"#utility.yul\":6543:6548   */\n      dup2\n        /* \"#utility.yul\":6525:6549   */\n      tag_124\n      jump\t// in\n    tag_169:\n        /* \"#utility.yul\":6518:6523   */\n      dup2\n        /* \"#utility.yul\":6515:6550   */\n      eq\n        /* \"#utility.yul\":6505:6568   */\n      tag_170\n      jumpi\n        /* \"#utility.yul\":6564:6565   */\n      0x00\n        /* \"#utility.yul\":6561:6562   */\n      dup1\n        /* \"#utility.yul\":6554:6566   */\n      revert\n        /* \"#utility.yul\":6505:6568   */\n    tag_170:\n        /* \"#utility.yul\":6452:6574   */\n      pop\n      jump\t// out\n\n    auxdata: 0xa26469706673582212202b6f39a45c766ae2ec348d8c4974590f0c3102b9a64d1023c20db69bce25ec5164736f6c63430008070033\n}\n",
				"bytecode": {
					"linkReferences": {},
					"object": "60806040523480156200001157600080fd5b506040518060400160405280600981526020017f414d4420546f6b656e0000000000000000000000000000000000000000000000815250600090805190602001906200005f929190620001af565b506040518060400160405280600381526020017f414d44000000000000000000000000000000000000000000000000000000000081525060019080519060200190620000ad929190620001af565b506012600260006101000a81548160ff021916908360ff160217905550600260009054906101000a900460ff16600a620000e89190620002ba565b64e8d4a51000620000fa9190620003f7565b60038190555033600560006101000a81548173ffffffffffffffffffffffffffffffffffffffff021916908373ffffffffffffffffffffffffffffffffffffffff16021790555060035460046000600560009054906101000a900473ffffffffffffffffffffffffffffffffffffffff1673ffffffffffffffffffffffffffffffffffffffff1673ffffffffffffffffffffffffffffffffffffffff1681526020019081526020016000208190555062000510565b828054620001bd906200046f565b90600052602060002090601f016020900481019282620001e157600085556200022d565b82601f10620001fc57805160ff19168380011785556200022d565b828001600101855582156200022d579182015b828111156200022c5782518255916020019190600101906200020f565b5b5090506200023c919062000240565b5090565b5b808211156200025b57600081600090555060010162000241565b5090565b6000808291508390505b6001851115620002b157808604811115620002895762000288620004a5565b5b6001851615620002995780820291505b8081029050620002a98562000503565b945062000269565b94509492505050565b6000620002c78262000458565b9150620002d48362000462565b9250620003037fffffffffffffffffffffffffffffffffffffffffffffffffffffffffffffffff84846200030b565b905092915050565b6000826200031d5760019050620003f0565b816200032d5760009050620003f0565b8160018114620003465760028114620003515762000387565b6001915050620003f0565b60ff841115620003665762000365620004a5565b5b8360020a91508482111562000380576200037f620004a5565b5b50620003f0565b5060208310610133831016604e8410600b8410161715620003c15782820a905083811115620003bb57620003ba620004a5565b5b620003f0565b620003d084848460016200025f565b92509050818404811115620003ea57620003e9620004a5565b5b81810290505b9392505050565b6000620004048262000458565b9150620004118362000458565b9250817fffffffffffffffffffffffffffffffffffffffffffffffffffffffffffffffff04831182151516156200044d576200044c620004a5565b5b828202905092915050565b6000819050919050565b600060ff82169050919050565b600060028204905060018216806200048857607f821691505b602082108114156200049f576200049e620004d4565b5b50919050565b7f4e487b7100000000000000000000000000000000000000000000000000000000600052601160045260246000fd5b7f4e487b7100000000000000000000000000000000000000000000000000000000600052602260045260246000fd5b60008160011c9050919050565b61077980620005206000396000f3fe608060405234801561001057600080fd5b506004361061009e5760003560e01c806370a082311161006657806370a082311461015d5780638da5cb5b1461018d57806395d89b41146101ab578063a9059cbb146101c9578063dd62ed3e146101f95761009e565b806306fdde03146100a3578063095ea7b3146100c157806318160ddd146100f157806323b872dd1461010f578063313ce5671461013f575b600080fd5b6100ab610229565b6040516100b891906105a2565b60405180910390f35b6100db60048036038101906100d691906104b7565b6102b7565b6040516100e89190610587565b60405180910390f35b6100f96102c3565b60405161010691906105c4565b60405180910390f35b61012960048036038101906101249190610464565b6102c9565b6040516101369190610587565b60405180910390f35b6101476102d6565b60405161015491906105df565b60405180910390f35b610177600480360381019061017291906103f7565b6102e9565b60405161018491906105c4565b60405180910390f35b610195610301565b6040516101a2919061056c565b60405180910390f35b6101b3610327565b6040516101c091906105a2565b60405180910390f35b6101e360048036038101906101de91906104b7565b6103b5565b6040516101f09190610587565b60405180910390f35b610213600480360381019061020e9190610424565b6103c1565b60405161022091906105c4565b60405180910390f35b600080546102369061069e565b80601f01602080910402602001604051908101604052809291908181526020018280546102629061069e565b80156102af5780601f10610284576101008083540402835291602001916102af565b820191906000526020600020905b81548152906001019060200180831161029257829003601f168201915b505050505081565b60006001905092915050565b60035481565b6000600190509392505050565b600260009054906101000a900460ff1681565b60046020528060005260406000206000915090505481565b600560009054906101000a900473ffffffffffffffffffffffffffffffffffffffff1681565b600180546103349061069e565b80601f01602080910402602001604051908101604052809291908181526020018280546103609061069e565b80156103ad5780601f10610382576101008083540402835291602001916103ad565b820191906000526020600020905b81548152906001019060200180831161039057829003601f168201915b505050505081565b60006001905092915050565b60006002905092915050565b6000813590506103dc81610715565b92915050565b6000813590506103f18161072c565b92915050565b60006020828403121561040d5761040c6106ff565b5b600061041b848285016103cd565b91505092915050565b6000806040838503121561043b5761043a6106ff565b5b6000610449858286016103cd565b925050602061045a858286016103cd565b9150509250929050565b60008060006060848603121561047d5761047c6106ff565b5b600061048b868287016103cd565b935050602061049c868287016103cd565b92505060406104ad868287016103e2565b9150509250925092565b600080604083850312156104ce576104cd6106ff565b5b60006104dc858286016103cd565b92505060206104ed858286016103e2565b9150509250929050565b61050081610616565b82525050565b61050f81610628565b82525050565b6000610520826105fa565b61052a8185610605565b935061053a81856020860161066b565b61054381610704565b840191505092915050565b61055781610654565b82525050565b6105668161065e565b82525050565b600060208201905061058160008301846104f7565b92915050565b600060208201905061059c6000830184610506565b92915050565b600060208201905081810360008301526105bc8184610515565b905092915050565b60006020820190506105d9600083018461054e565b92915050565b60006020820190506105f4600083018461055d565b92915050565b600081519050919050565b600082825260208201905092915050565b600061062182610634565b9050919050565b60008115159050919050565b600073ffffffffffffffffffffffffffffffffffffffff82169050919050565b6000819050919050565b600060ff82169050919050565b60005b8381101561068957808201518184015260208101905061066e565b83811115610698576000848401525b50505050565b600060028204905060018216806106b657607f821691505b602082108114156106ca576106c96106d0565b5b50919050565b7f4e487b7100000000000000000000000000000000000000000000000000000000600052602260045260246000fd5b600080fd5b6000601f19601f8301169050919050565b61071e81610616565b811461072957600080fd5b50565b61073581610654565b811461074057600080fd5b5056fea26469706673582212202b6f39a45c766ae2ec348d8c4974590f0c3102b9a64d1023c20db69bce25ec5164736f6c63430008070033",
					"opcodes": "PUSH1 0x80 PUSH1 0x40 MSTORE CALLVALUE DUP1 ISZERO PUSH3 0x11 JUMPI PUSH1 0x0 DUP1 REVERT JUMPDEST POP PUSH1 0x40 MLOAD DUP1 PUSH1 0x40 ADD PUSH1 0x40 MSTORE DUP1 PUSH1 0x9 DUP2 MSTORE PUSH1 0x20 ADD PUSH32 0x414D4420546F6B656E0000000000000000000000000000000000000000000000 DUP2 MSTORE POP PUSH1 0x0 SWAP1 DUP1 MLOAD SWAP1 PUSH1 0x20 ADD SWAP1 PUSH3 0x5F SWAP3 SWAP2 SWAP1 PUSH3 0x1AF JUMP JUMPDEST POP PUSH1 0x40 MLOAD DUP1 PUSH1 0x40 ADD PUSH1 0x40 MSTORE DUP1 PUSH1 0x3 DUP2 MSTORE PUSH1 0x20 ADD PUSH32 0x414D440000000000000000000000000000000000000000000000000000000000 DUP2 MSTORE POP PUSH1 0x1 SWAP1 DUP1 MLOAD SWAP1 PUSH1 0x20 ADD SWAP1 PUSH3 0xAD SWAP3 SWAP2 SWAP1 PUSH3 0x1AF JUMP JUMPDEST POP PUSH1 0x12 PUSH1 0x2 PUSH1 0x0 PUSH2 0x100 EXP DUP2 SLOAD DUP2 PUSH1 0xFF MUL NOT AND SWAP1 DUP4 PUSH1 0xFF AND MUL OR SWAP1 SSTORE POP PUSH1 0x2 PUSH1 0x0 SWAP1 SLOAD SWAP1 PUSH2 0x100 EXP SWAP1 DIV PUSH1 0xFF AND PUSH1 0xA PUSH3 0xE8 SWAP2 SWAP1 PUSH3 0x2BA JUMP JUMPDEST PUSH5 0xE8D4A51000 PUSH3 0xFA SWAP2 SWAP1 PUSH3 0x3F7 JUMP JUMPDEST PUSH1 0x3 DUP2 SWAP1 SSTORE POP CALLER PUSH1 0x5 PUSH1 0x0 PUSH2 0x100 EXP DUP2 SLOAD DUP2 PUSH20 0xFFFFFFFFFFFFFFFFFFFFFFFFFFFFFFFFFFFFFFFF MUL NOT AND SWAP1 DUP4 PUSH20 0xFFFFFFFFFFFFFFFFFFFFFFFFFFFFFFFFFFFFFFFF AND MUL OR SWAP1 SSTORE POP PUSH1 0x3 SLOAD PUSH1 0x4 PUSH1 0x0 PUSH1 0x5 PUSH1 0x0 SWAP1 SLOAD SWAP1 PUSH2 0x100 EXP SWAP1 DIV PUSH20 0xFFFFFFFFFFFFFFFFFFFFFFFFFFFFFFFFFFFFFFFF AND PUSH20 0xFFFFFFFFFFFFFFFFFFFFFFFFFFFFFFFFFFFFFFFF AND PUSH20 0xFFFFFFFFFFFFFFFFFFFFFFFFFFFFFFFFFFFFFFFF AND DUP2 MSTORE PUSH1 0x20 ADD SWAP1 DUP2 MSTORE PUSH1 0x20 ADD PUSH1 0x0 KECCAK256 DUP2 SWAP1 SSTORE POP PUSH3 0x510 JUMP JUMPDEST DUP3 DUP1 SLOAD PUSH3 0x1BD SWAP1 PUSH3 0x46F JUMP JUMPDEST SWAP1 PUSH1 0x0 MSTORE PUSH1 0x20 PUSH1 0x0 KECCAK256 SWAP1 PUSH1 0x1F ADD PUSH1 0x20 SWAP1 DIV DUP2 ADD SWAP3 DUP3 PUSH3 0x1E1 JUMPI PUSH1 0x0 DUP6 SSTORE PUSH3 0x22D JUMP JUMPDEST DUP3 PUSH1 0x1F LT PUSH3 0x1FC JUMPI DUP1 MLOAD PUSH1 0xFF NOT AND DUP4 DUP1 ADD OR DUP6 SSTORE PUSH3 0x22D JUMP JUMPDEST DUP3 DUP1 ADD PUSH1 0x1 ADD DUP6 SSTORE DUP3 ISZERO PUSH3 0x22D JUMPI SWAP2 DUP3 ADD JUMPDEST DUP3 DUP2 GT ISZERO PUSH3 0x22C JUMPI DUP3 MLOAD DUP3 SSTORE SWAP2 PUSH1 0x20 ADD SWAP2 SWAP1 PUSH1 0x1 ADD SWAP1 PUSH3 0x20F JUMP JUMPDEST JUMPDEST POP SWAP1 POP PUSH3 0x23C SWAP2 SWAP1 PUSH3 0x240 JUMP JUMPDEST POP SWAP1 JUMP JUMPDEST JUMPDEST DUP1 DUP3 GT ISZERO PUSH3 0x25B JUMPI PUSH1 0x0 DUP2 PUSH1 0x0 SWAP1 SSTORE POP PUSH1 0x1 ADD PUSH3 0x241 JUMP JUMPDEST POP SWAP1 JUMP JUMPDEST PUSH1 0x0 DUP1 DUP3 SWAP2 POP DUP4 SWAP1 POP JUMPDEST PUSH1 0x1 DUP6 GT ISZERO PUSH3 0x2B1 JUMPI DUP1 DUP7 DIV DUP2 GT ISZERO PUSH3 0x289 JUMPI PUSH3 0x288 PUSH3 0x4A5 JUMP JUMPDEST JUMPDEST PUSH1 0x1 DUP6 AND ISZERO PUSH3 0x299 JUMPI DUP1 DUP3 MUL SWAP2 POP JUMPDEST DUP1 DUP2 MUL SWAP1 POP PUSH3 0x2A9 DUP6 PUSH3 0x503 JUMP JUMPDEST SWAP5 POP PUSH3 0x269 JUMP JUMPDEST SWAP5 POP SWAP5 SWAP3 POP POP POP JUMP JUMPDEST PUSH1 0x0 PUSH3 0x2C7 DUP3 PUSH3 0x458 JUMP JUMPDEST SWAP2 POP PUSH3 0x2D4 DUP4 PUSH3 0x462 JUMP JUMPDEST SWAP3 POP PUSH3 0x303 PUSH32 0xFFFFFFFFFFFFFFFFFFFFFFFFFFFFFFFFFFFFFFFFFFFFFFFFFFFFFFFFFFFFFFFF DUP5 DUP5 PUSH3 0x30B JUMP JUMPDEST SWAP1 POP SWAP3 SWAP2 POP POP JUMP JUMPDEST PUSH1 0x0 DUP3 PUSH3 0x31D JUMPI PUSH1 0x1 SWAP1 POP PUSH3 0x3F0 JUMP JUMPDEST DUP2 PUSH3 0x32D JUMPI PUSH1 0x0 SWAP1 POP PUSH3 0x3F0 JUMP JUMPDEST DUP2 PUSH1 0x1 DUP2 EQ PUSH3 0x346 JUMPI PUSH1 0x2 DUP2 EQ PUSH3 0x351 JUMPI PUSH3 0x387 JUMP JUMPDEST PUSH1 0x1 SWAP2 POP POP PUSH3 0x3F0 JUMP JUMPDEST PUSH1 0xFF DUP5 GT ISZERO PUSH3 0x366 JUMPI PUSH3 0x365 PUSH3 0x4A5 JUMP JUMPDEST JUMPDEST DUP4 PUSH1 0x2 EXP SWAP2 POP DUP5 DUP3 GT ISZERO PUSH3 0x380 JUMPI PUSH3 0x37F PUSH3 0x4A5 JUMP JUMPDEST JUMPDEST POP PUSH3 0x3F0 JUMP JUMPDEST POP PUSH1 0x20 DUP4 LT PUSH2 0x133 DUP4 LT AND PUSH1 0x4E DUP5 LT PUSH1 0xB DUP5 LT AND OR ISZERO PUSH3 0x3C1 JUMPI DUP3 DUP3 EXP SWAP1 POP DUP4 DUP2 GT ISZERO PUSH3 0x3BB JUMPI PUSH3 0x3BA PUSH3 0x4A5 JUMP JUMPDEST JUMPDEST PUSH3 0x3F0 JUMP JUMPDEST PUSH3 0x3D0 DUP5 DUP5 DUP5 PUSH1 0x1 PUSH3 0x25F JUMP JUMPDEST SWAP3 POP SWAP1 POP DUP2 DUP5 DIV DUP2 GT ISZERO PUSH3 0x3EA JUMPI PUSH3 0x3E9 PUSH3 0x4A5 JUMP JUMPDEST JUMPDEST DUP2 DUP2 MUL SWAP1 POP JUMPDEST SWAP4 SWAP3 POP POP POP JUMP JUMPDEST PUSH1 0x0 PUSH3 0x404 DUP3 PUSH3 0x458 JUMP JUMPDEST SWAP2 POP PUSH3 0x411 DUP4 PUSH3 0x458 JUMP JUMPDEST SWAP3 POP DUP2 PUSH32 0xFFFFFFFFFFFFFFFFFFFFFFFFFFFFFFFFFFFFFFFFFFFFFFFFFFFFFFFFFFFFFFFF DIV DUP4 GT DUP3 ISZERO ISZERO AND ISZERO PUSH3 0x44D JUMPI PUSH3 0x44C PUSH3 0x4A5 JUMP JUMPDEST JUMPDEST DUP3 DUP3 MUL SWAP1 POP SWAP3 SWAP2 POP POP JUMP JUMPDEST PUSH1 0x0 DUP2 SWAP1 POP SWAP2 SWAP1 POP JUMP JUMPDEST PUSH1 0x0 PUSH1 0xFF DUP3 AND SWAP1 POP SWAP2 SWAP1 POP JUMP JUMPDEST PUSH1 0x0 PUSH1 0x2 DUP3 DIV SWAP1 POP PUSH1 0x1 DUP3 AND DUP1 PUSH3 0x488 JUMPI PUSH1 0x7F DUP3 AND SWAP2 POP JUMPDEST PUSH1 0x20 DUP3 LT DUP2 EQ ISZERO PUSH3 0x49F JUMPI PUSH3 0x49E PUSH3 0x4D4 JUMP JUMPDEST JUMPDEST POP SWAP2 SWAP1 POP JUMP JUMPDEST PUSH32 0x4E487B7100000000000000000000000000000000000000000000000000000000 PUSH1 0x0 MSTORE PUSH1 0x11 PUSH1 0x4 MSTORE PUSH1 0x24 PUSH1 0x0 REVERT JUMPDEST PUSH32 0x4E487B7100000000000000000000000000000000000000000000000000000000 PUSH1 0x0 MSTORE PUSH1 0x22 PUSH1 0x4 MSTORE PUSH1 0x24 PUSH1 0x0 REVERT JUMPDEST PUSH1 0x0 DUP2 PUSH1 0x1 SHR SWAP1 POP SWAP2 SWAP1 POP JUMP JUMPDEST PUSH2 0x779 DUP1 PUSH3 0x520 PUSH1 0x0 CODECOPY PUSH1 0x0 RETURN INVALID PUSH1 0x80 PUSH1 0x40 MSTORE CALLVALUE DUP1 ISZERO PUSH2 0x10 JUMPI PUSH1 0x0 DUP1 REVERT JUMPDEST POP PUSH1 0x4 CALLDATASIZE LT PUSH2 0x9E JUMPI PUSH1 0x0 CALLDATALOAD PUSH1 0xE0 SHR DUP1 PUSH4 0x70A08231 GT PUSH2 0x66 JUMPI DUP1 PUSH4 0x70A08231 EQ PUSH2 0x15D JUMPI DUP1 PUSH4 0x8DA5CB5B EQ PUSH2 0x18D JUMPI DUP1 PUSH4 0x95D89B41 EQ PUSH2 0x1AB JUMPI DUP1 PUSH4 0xA9059CBB EQ PUSH2 0x1C9 JUMPI DUP1 PUSH4 0xDD62ED3E EQ PUSH2 0x1F9 JUMPI PUSH2 0x9E JUMP JUMPDEST DUP1 PUSH4 0x6FDDE03 EQ PUSH2 0xA3 JUMPI DUP1 PUSH4 0x95EA7B3 EQ PUSH2 0xC1 JUMPI DUP1 PUSH4 0x18160DDD EQ PUSH2 0xF1 JUMPI DUP1 PUSH4 0x23B872DD EQ PUSH2 0x10F JUMPI DUP1 PUSH4 0x313CE567 EQ PUSH2 0x13F JUMPI JUMPDEST PUSH1 0x0 DUP1 REVERT JUMPDEST PUSH2 0xAB PUSH2 0x229 JUMP JUMPDEST PUSH1 0x40 MLOAD PUSH2 0xB8 SWAP2 SWAP1 PUSH2 0x5A2 JUMP JUMPDEST PUSH1 0x40 MLOAD DUP1 SWAP2 SUB SWAP1 RETURN JUMPDEST PUSH2 0xDB PUSH1 0x4 DUP1 CALLDATASIZE SUB DUP2 ADD SWAP1 PUSH2 0xD6 SWAP2 SWAP1 PUSH2 0x4B7 JUMP JUMPDEST PUSH2 0x2B7 JUMP JUMPDEST PUSH1 0x40 MLOAD PUSH2 0xE8 SWAP2 SWAP1 PUSH2 0x587 JUMP JUMPDEST PUSH1 0x40 MLOAD DUP1 SWAP2 SUB SWAP1 RETURN JUMPDEST PUSH2 0xF9 PUSH2 0x2C3 JUMP JUMPDEST PUSH1 0x40 MLOAD PUSH2 0x106 SWAP2 SWAP1 PUSH2 0x5C4 JUMP JUMPDEST PUSH1 0x40 MLOAD DUP1 SWAP2 SUB SWAP1 RETURN JUMPDEST PUSH2 0x129 PUSH1 0x4 DUP1 CALLDATASIZE SUB DUP2 ADD SWAP1 PUSH2 0x124 SWAP2 SWAP1 PUSH2 0x464 JUMP JUMPDEST PUSH2 0x2C9 JUMP JUMPDEST PUSH1 0x40 MLOAD PUSH2 0x136 SWAP2 SWAP1 PUSH2 0x587 JUMP JUMPDEST PUSH1 0x40 MLOAD DUP1 SWAP2 SUB SWAP1 RETURN JUMPDEST PUSH2 0x147 PUSH2 0x2D6 JUMP JUMPDEST PUSH1 0x40 MLOAD PUSH2 0x154 SWAP2 SWAP1 PUSH2 0x5DF JUMP JUMPDEST PUSH1 0x40 MLOAD DUP1 SWAP2 SUB SWAP1 RETURN JUMPDEST PUSH2 0x177 PUSH1 0x4 DUP1 CALLDATASIZE SUB DUP2 ADD SWAP1 PUSH2 0x172 SWAP2 SWAP1 PUSH2 0x3F7 JUMP JUMPDEST PUSH2 0x2E9 JUMP JUMPDEST PUSH1 0x40 MLOAD PUSH2 0x184 SWAP2 SWAP1 PUSH2 0x5C4 JUMP JUMPDEST PUSH1 0x40 MLOAD DUP1 SWAP2 SUB SWAP1 RETURN JUMPDEST PUSH2 0x195 PUSH2 0x301 JUMP JUMPDEST PUSH1 0x40 MLOAD PUSH2 0x1A2 SWAP2 SWAP1 PUSH2 0x56C JUMP JUMPDEST PUSH1 0x40 MLOAD DUP1 SWAP2 SUB SWAP1 RETURN JUMPDEST PUSH2 0x1B3 PUSH2 0x327 JUMP JUMPDEST PUSH1 0x40 MLOAD PUSH2 0x1C0 SWAP2 SWAP1 PUSH2 0x5A2 JUMP JUMPDEST PUSH1 0x40 MLOAD DUP1 SWAP2 SUB SWAP1 RETURN JUMPDEST PUSH2 0x1E3 PUSH1 0x4 DUP1 CALLDATASIZE SUB DUP2 ADD SWAP1 PUSH2 0x1DE SWAP2 SWAP1 PUSH2 0x4B7 JUMP JUMPDEST PUSH2 0x3B5 JUMP JUMPDEST PUSH1 0x40 MLOAD PUSH2 0x1F0 SWAP2 SWAP1 PUSH2 0x587 JUMP JUMPDEST PUSH1 0x40 MLOAD DUP1 SWAP2 SUB SWAP1 RETURN JUMPDEST PUSH2 0x213 PUSH1 0x4 DUP1 CALLDATASIZE SUB DUP2 ADD SWAP1 PUSH2 0x20E SWAP2 SWAP1 PUSH2 0x424 JUMP JUMPDEST PUSH2 0x3C1 JUMP JUMPDEST PUSH1 0x40 MLOAD PUSH2 0x220 SWAP2 SWAP1 PUSH2 0x5C4 JUMP JUMPDEST PUSH1 0x40 MLOAD DUP1 SWAP2 SUB SWAP1 RETURN JUMPDEST PUSH1 0x0 DUP1 SLOAD PUSH2 0x236 SWAP1 PUSH2 0x69E JUMP JUMPDEST DUP1 PUSH1 0x1F ADD PUSH1 0x20 DUP1 SWAP2 DIV MUL PUSH1 0x20 ADD PUSH1 0x40 MLOAD SWAP1 DUP2 ADD PUSH1 0x40 MSTORE DUP1 SWAP3 SWAP2 SWAP1 DUP2 DUP2 MSTORE PUSH1 0x20 ADD DUP3 DUP1 SLOAD PUSH2 0x262 SWAP1 PUSH2 0x69E JUMP JUMPDEST DUP1 ISZERO PUSH2 0x2AF JUMPI DUP1 PUSH1 0x1F LT PUSH2 0x284 JUMPI PUSH2 0x100 DUP1 DUP4 SLOAD DIV MUL DUP4 MSTORE SWAP2 PUSH1 0x20 ADD SWAP2 PUSH2 0x2AF JUMP JUMPDEST DUP3 ADD SWAP2 SWAP1 PUSH1 0x0 MSTORE PUSH1 0x20 PUSH1 0x0 KECCAK256 SWAP1 JUMPDEST DUP2 SLOAD DUP2 MSTORE SWAP1 PUSH1 0x1 ADD SWAP1 PUSH1 0x20 ADD DUP1 DUP4 GT PUSH2 0x292 JUMPI DUP3 SWAP1 SUB PUSH1 0x1F AND DUP3 ADD SWAP2 JUMPDEST POP POP POP POP POP DUP2 JUMP JUMPDEST PUSH1 0x0 PUSH1 0x1 SWAP1 POP SWAP3 SWAP2 POP POP JUMP JUMPDEST PUSH1 0x3 SLOAD DUP2 JUMP JUMPDEST PUSH1 0x0 PUSH1 0x1 SWAP1 POP SWAP4 SWAP3 POP POP POP JUMP JUMPDEST PUSH1 0x2 PUSH1 0x0 SWAP1 SLOAD SWAP1 PUSH2 0x100 EXP SWAP1 DIV PUSH1 0xFF AND DUP2 JUMP JUMPDEST PUSH1 0x4 PUSH1 0x20 MSTORE DUP1 PUSH1 0x0 MSTORE PUSH1 0x40 PUSH1 0x0 KECCAK256 PUSH1 0x0 SWAP2 POP SWAP1 POP SLOAD DUP2 JUMP JUMPDEST PUSH1 0x5 PUSH1 0x0 SWAP1 SLOAD SWAP1 PUSH2 0x100 EXP SWAP1 DIV PUSH20 0xFFFFFFFFFFFFFFFFFFFFFFFFFFFFFFFFFFFFFFFF AND DUP2 JUMP JUMPDEST PUSH1 0x1 DUP1 SLOAD PUSH2 0x334 SWAP1 PUSH2 0x69E JUMP JUMPDEST DUP1 PUSH1 0x1F ADD PUSH1 0x20 DUP1 SWAP2 DIV MUL PUSH1 0x20 ADD PUSH1 0x40 MLOAD SWAP1 DUP2 ADD PUSH1 0x40 MSTORE DUP1 SWAP3 SWAP2 SWAP1 DUP2 DUP2 MSTORE PUSH1 0x20 ADD DUP3 DUP1 SLOAD PUSH2 0x360 SWAP1 PUSH2 0x69E JUMP JUMPDEST DUP1 ISZERO PUSH2 0x3AD JUMPI DUP1 PUSH1 0x1F LT PUSH2 0x382 JUMPI PUSH2 0x100 DUP1 DUP4 SLOAD DIV MUL DUP4 MSTORE SWAP2 PUSH1 0x20 ADD SWAP2 PUSH2 0x3AD JUMP JUMPDEST DUP3 ADD SWAP2 SWAP1 PUSH1 0x0 MSTORE PUSH1 0x20 PUSH1 0x0 KECCAK256 SWAP1 JUMPDEST DUP2 SLOAD DUP2 MSTORE SWAP1 PUSH1 0x1 ADD SWAP1 PUSH1 0x20 ADD DUP1 DUP4 GT PUSH2 0x390 JUMPI DUP3 SWAP1 SUB PUSH1 0x1F AND DUP3 ADD SWAP2 JUMPDEST POP POP POP POP POP DUP2 JUMP JUMPDEST PUSH1 0x0 PUSH1 0x1 SWAP1 POP SWAP3 SWAP2 POP POP JUMP JUMPDEST PUSH1 0x0 PUSH1 0x2 SWAP1 POP SWAP3 SWAP2 POP POP JUMP JUMPDEST PUSH1 0x0 DUP2 CALLDATALOAD SWAP1 POP PUSH2 0x3DC DUP2 PUSH2 0x715 JUMP JUMPDEST SWAP3 SWAP2 POP POP JUMP JUMPDEST PUSH1 0x0 DUP2 CALLDATALOAD SWAP1 POP PUSH2 0x3F1 DUP2 PUSH2 0x72C JUMP JUMPDEST SWAP3 SWAP2 POP POP JUMP JUMPDEST PUSH1 0x0 PUSH1 0x20 DUP3 DUP5 SUB SLT ISZERO PUSH2 0x40D JUMPI PUSH2 0x40C PUSH2 0x6FF JUMP JUMPDEST JUMPDEST PUSH1 0x0 PUSH2 0x41B DUP5 DUP3 DUP6 ADD PUSH2 0x3CD JUMP JUMPDEST SWAP2 POP POP SWAP3 SWAP2 POP POP JUMP JUMPDEST PUSH1 0x0 DUP1 PUSH1 0x40 DUP4 DUP6 SUB SLT ISZERO PUSH2 0x43B JUMPI PUSH2 0x43A PUSH2 0x6FF JUMP JUMPDEST JUMPDEST PUSH1 0x0 PUSH2 0x449 DUP6 DUP3 DUP7 ADD PUSH2 0x3CD JUMP JUMPDEST SWAP3 POP POP PUSH1 0x20 PUSH2 0x45A DUP6 DUP3 DUP7 ADD PUSH2 0x3CD JUMP JUMPDEST SWAP2 POP POP SWAP3 POP SWAP3 SWAP1 POP JUMP JUMPDEST PUSH1 0x0 DUP1 PUSH1 0x0 PUSH1 0x60 DUP5 DUP7 SUB SLT ISZERO PUSH2 0x47D JUMPI PUSH2 0x47C PUSH2 0x6FF JUMP JUMPDEST JUMPDEST PUSH1 0x0 PUSH2 0x48B DUP7 DUP3 DUP8 ADD PUSH2 0x3CD JUMP JUMPDEST SWAP4 POP POP PUSH1 0x20 PUSH2 0x49C DUP7 DUP3 DUP8 ADD PUSH2 0x3CD JUMP JUMPDEST SWAP3 POP POP PUSH1 0x40 PUSH2 0x4AD DUP7 DUP3 DUP8 ADD PUSH2 0x3E2 JUMP JUMPDEST SWAP2 POP POP SWAP3 POP SWAP3 POP SWAP3 JUMP JUMPDEST PUSH1 0x0 DUP1 PUSH1 0x40 DUP4 DUP6 SUB SLT ISZERO PUSH2 0x4CE JUMPI PUSH2 0x4CD PUSH2 0x6FF JUMP JUMPDEST JUMPDEST PUSH1 0x0 PUSH2 0x4DC DUP6 DUP3 DUP7 ADD PUSH2 0x3CD JUMP JUMPDEST SWAP3 POP POP PUSH1 0x20 PUSH2 0x4ED DUP6 DUP3 DUP7 ADD PUSH2 0x3E2 JUMP JUMPDEST SWAP2 POP POP SWAP3 POP SWAP3 SWAP1 POP JUMP JUMPDEST PUSH2 0x500 DUP2 PUSH2 0x616 JUMP JUMPDEST DUP3 MSTORE POP POP JUMP JUMPDEST PUSH2 0x50F DUP2 PUSH2 0x628 JUMP JUMPDEST DUP3 MSTORE POP POP JUMP JUMPDEST PUSH1 0x0 PUSH2 0x520 DUP3 PUSH2 0x5FA JUMP JUMPDEST PUSH2 0x52A DUP2 DUP6 PUSH2 0x605 JUMP JUMPDEST SWAP4 POP PUSH2 0x53A DUP2 DUP6 PUSH1 0x20 DUP7 ADD PUSH2 0x66B JUMP JUMPDEST PUSH2 0x543 DUP2 PUSH2 0x704 JUMP JUMPDEST DUP5 ADD SWAP2 POP POP SWAP3 SWAP2 POP POP JUMP JUMPDEST PUSH2 0x557 DUP2 PUSH2 0x654 JUMP JUMPDEST DUP3 MSTORE POP POP JUMP JUMPDEST PUSH2 0x566 DUP2 PUSH2 0x65E JUMP JUMPDEST DUP3 MSTORE POP POP JUMP JUMPDEST PUSH1 0x0 PUSH1 0x20 DUP3 ADD SWAP1 POP PUSH2 0x581 PUSH1 0x0 DUP4 ADD DUP5 PUSH2 0x4F7 JUMP JUMPDEST SWAP3 SWAP2 POP POP JUMP JUMPDEST PUSH1 0x0 PUSH1 0x20 DUP3 ADD SWAP1 POP PUSH2 0x59C PUSH1 0x0 DUP4 ADD DUP5 PUSH2 0x506 JUMP JUMPDEST SWAP3 SWAP2 POP POP JUMP JUMPDEST PUSH1 0x0 PUSH1 0x20 DUP3 ADD SWAP1 POP DUP2 DUP2 SUB PUSH1 0x0 DUP4 ADD MSTORE PUSH2 0x5BC DUP2 DUP5 PUSH2 0x515 JUMP JUMPDEST SWAP1 POP SWAP3 SWAP2 POP POP JUMP JUMPDEST PUSH1 0x0 PUSH1 0x20 DUP3 ADD SWAP1 POP PUSH2 0x5D9 PUSH1 0x0 DUP4 ADD DUP5 PUSH2 0x54E JUMP JUMPDEST SWAP3 SWAP2 POP POP JUMP JUMPDEST PUSH1 0x0 PUSH1 0x20 DUP3 ADD SWAP1 POP PUSH2 0x5F4 PUSH1 0x0 DUP4 ADD DUP5 PUSH2 0x55D JUMP JUMPDEST SWAP3 SWAP2 POP POP JUMP JUMPDEST PUSH1 0x0 DUP2 MLOAD SWAP1 POP SWAP2 SWAP1 POP JUMP JUMPDEST PUSH1 0x0 DUP3 DUP3 MSTORE PUSH1 0x20 DUP3 ADD SWAP1 POP SWAP3 SWAP2 POP POP JUMP JUMPDEST PUSH1 0x0 PUSH2 0x621 DUP3 PUSH2 0x634 JUMP JUMPDEST SWAP1 POP SWAP2 SWAP1 POP JUMP JUMPDEST PUSH1 0x0 DUP2 ISZERO ISZERO SWAP1 POP SWAP2 SWAP1 POP JUMP JUMPDEST PUSH1 0x0 PUSH20 0xFFFFFFFFFFFFFFFFFFFFFFFFFFFFFFFFFFFFFFFF DUP3 AND SWAP1 POP SWAP2 SWAP1 POP JUMP JUMPDEST PUSH1 0x0 DUP2 SWAP1 POP SWAP2 SWAP1 POP JUMP JUMPDEST PUSH1 0x0 PUSH1 0xFF DUP3 AND SWAP1 POP SWAP2 SWAP1 POP JUMP JUMPDEST PUSH1 0x0 JUMPDEST DUP4 DUP2 LT ISZERO PUSH2 0x689 JUMPI DUP1 DUP3 ADD MLOAD DUP2 DUP5 ADD MSTORE PUSH1 0x20 DUP2 ADD SWAP1 POP PUSH2 0x66E JUMP JUMPDEST DUP4 DUP2 GT ISZERO PUSH2 0x698 JUMPI PUSH1 0x0 DUP5 DUP5 ADD MSTORE JUMPDEST POP POP POP POP JUMP JUMPDEST PUSH1 0x0 PUSH1 0x2 DUP3 DIV SWAP1 POP PUSH1 0x1 DUP3 AND DUP1 PUSH2 0x6B6 JUMPI PUSH1 0x7F DUP3 AND SWAP2 POP JUMPDEST PUSH1 0x20 DUP3 LT DUP2 EQ ISZERO PUSH2 0x6CA JUMPI PUSH2 0x6C9 PUSH2 0x6D0 JUMP JUMPDEST JUMPDEST POP SWAP2 SWAP1 POP JUMP JUMPDEST PUSH32 0x4E487B7100000000000000000000000000000000000000000000000000000000 PUSH1 0x0 MSTORE PUSH1 0x22 PUSH1 0x4 MSTORE PUSH1 0x24 PUSH1 0x0 REVERT JUMPDEST PUSH1 0x0 DUP1 REVERT JUMPDEST PUSH1 0x0 PUSH1 0x1F NOT PUSH1 0x1F DUP4 ADD AND SWAP1 POP SWAP2 SWAP1 POP JUMP JUMPDEST PUSH2 0x71E DUP2 PUSH2 0x616 JUMP JUMPDEST DUP2 EQ PUSH2 0x729 JUMPI PUSH1 0x0 DUP1 REVERT JUMPDEST POP JUMP JUMPDEST PUSH2 0x735 DUP2 PUSH2 0x654 JUMP JUMPDEST DUP2 EQ PUSH2 0x740 JUMPI PUSH1 0x0 DUP1 REVERT JUMPDEST POP JUMP INVALID LOG2 PUSH5 0x6970667358 0x22 SLT KECCAK256 0x2B PUSH16 0x39A45C766AE2EC348D8C4974590F0C31 MUL 0xB9 0xA6 0x4D LT 0x23 0xC2 0xD 0xB6 SWAP12 0xCE 0x25 0xEC MLOAD PUSH5 0x736F6C6343 STOP ADDMOD SMOD STOP CALLER "
				},
				"gasEstimates": {
					"creation": {
						"codeDepositCost": "382600",
						"executionCost": "infinite",
						"totalCost": "infinite"
					},
					"external": {
						"allowance(address,address)": "infinite",
						"approve(address,uint256)": "853",
						"balanceOf(address)": "2814",
						"decimals()": "2560",
						"name()": "infinite",
						"owner()": "2536",
						"symbol()": "infinite",
						"totalSupply()": "2474",
						"transfer(address,uint256)": "896",
						"transferFrom(address,address,uint256)": "infinite"
					}
				},
				"methodIdentifiers": {
					"allowance(address,address)": "dd62ed3e",
					"approve(address,uint256)": "095ea7b3",
					"balanceOf(address)": "70a08231",
					"decimals()": "313ce567",
					"name()": "06fdde03",
					"owner()": "8da5cb5b",
					"symbol()": "95d89b41",
					"totalSupply()": "18160ddd",
					"transfer(address,uint256)": "a9059cbb",
					"transferFrom(address,address,uint256)": "23b872dd"
				}
			},
			"storageLayout": {
				"storage": [
					{
						"astId": 7,
						"contract": "learning/tokens/AMDToken.sol:AMDToken",
						"label": "name",
						"offset": 0,
						"slot": "0",
						"type": "t_string_storage"
					},
					{
						"astId": 10,
						"contract": "learning/tokens/AMDToken.sol:AMDToken",
						"label": "symbol",
						"offset": 0,
						"slot": "1",
						"type": "t_string_storage"
					},
					{
						"astId": 13,
						"contract": "learning/tokens/AMDToken.sol:AMDToken",
						"label": "decimals",
						"offset": 0,
						"slot": "2",
						"type": "t_uint8"
					},
					{
						"astId": 16,
						"contract": "learning/tokens/AMDToken.sol:AMDToken",
						"label": "totalSupply",
						"offset": 0,
						"slot": "3",
						"type": "t_uint256"
					},
					{
						"astId": 21,
						"contract": "learning/tokens/AMDToken.sol:AMDToken",
						"label": "balanceOf",
						"offset": 0,
						"slot": "4",
						"type": "t_mapping(t_address,t_uint256)"
					},
					{
						"astId": 23,
						"contract": "learning/tokens/AMDToken.sol:AMDToken",
						"label": "owner",
						"offset": 0,
						"slot": "5",
						"type": "t_address"
					}
				],
				"types": {
					"t_address": {
						"encoding": "inplace",
						"label": "address",
						"numberOfBytes": "20"
					},
					"t_mapping(t_address,t_uint256)": {
						"encoding": "mapping",
						"key": "t_address",
						"label": "mapping(address => uint256)",
						"numberOfBytes": "32",
						"value": "t_uint256"
					},
					"t_string_storage": {
						"encoding": "bytes",
						"label": "string",
						"numberOfBytes": "32"
					},
					"t_uint256": {
						"encoding": "inplace",
						"label": "uint256",
						"numberOfBytes": "32"
					},
					"t_uint8": {
						"encoding": "inplace",
						"label": "uint8",
						"numberOfBytes": "1"
					}
				}
			},
			"userdoc": {
				"kind": "user",
				"methods": {},
				"version": 1
			}
		}
	}
}